{
	"smart-contracts/contracts/Credit.sol": {
		"Credit": {
			"abi": [
				{
					"constant": true,
					"inputs": [],
					"name": "getBalance",
					"outputs": [
						{
							"name": "",
							"type": "uint256"
						}
					],
					"payable": false,
					"stateMutability": "view",
					"type": "function"
				},
				{
					"constant": false,
					"inputs": [
						{
							"name": "_state",
							"type": "uint8"
						}
					],
					"name": "changeState",
					"outputs": [
						{
							"name": "",
							"type": "uint256"
						}
					],
					"payable": false,
					"stateMutability": "nonpayable",
					"type": "function"
				},
				{
					"constant": true,
					"inputs": [
						{
							"name": "",
							"type": "address"
						}
					],
					"name": "lenders",
					"outputs": [
						{
							"name": "",
							"type": "bool"
						}
					],
					"payable": false,
					"stateMutability": "view",
					"type": "function"
				},
				{
					"constant": false,
					"inputs": [],
					"name": "toggleActive",
					"outputs": [
						{
							"name": "",
							"type": "bool"
						}
					],
					"payable": false,
					"stateMutability": "nonpayable",
					"type": "function"
				},
				{
					"constant": false,
					"inputs": [],
					"name": "withdraw",
					"outputs": [],
					"payable": false,
					"stateMutability": "nonpayable",
					"type": "function"
				},
				{
					"constant": false,
					"inputs": [],
					"name": "repay",
					"outputs": [],
					"payable": true,
					"stateMutability": "payable",
					"type": "function"
				},
				{
					"constant": false,
					"inputs": [],
					"name": "revokeVote",
					"outputs": [],
					"payable": false,
					"stateMutability": "nonpayable",
					"type": "function"
				},
				{
					"constant": false,
					"inputs": [],
					"name": "refund",
					"outputs": [],
					"payable": false,
					"stateMutability": "nonpayable",
					"type": "function"
				},
				{
					"constant": false,
					"inputs": [],
					"name": "destroy",
					"outputs": [],
					"payable": false,
					"stateMutability": "nonpayable",
					"type": "function"
				},
				{
					"constant": true,
					"inputs": [],
					"name": "owner",
					"outputs": [
						{
							"name": "",
							"type": "address"
						}
					],
					"payable": false,
					"stateMutability": "view",
					"type": "function"
				},
				{
					"constant": false,
					"inputs": [],
					"name": "fraudVote",
					"outputs": [
						{
							"name": "",
							"type": "bool"
						}
					],
					"payable": false,
					"stateMutability": "nonpayable",
					"type": "function"
				},
				{
					"constant": false,
					"inputs": [],
					"name": "invest",
					"outputs": [],
					"payable": true,
					"stateMutability": "payable",
					"type": "function"
				},
				{
					"constant": false,
					"inputs": [],
					"name": "requestInterest",
					"outputs": [],
					"payable": false,
					"stateMutability": "nonpayable",
					"type": "function"
				},
				{
					"constant": true,
					"inputs": [],
					"name": "getCreditInfo",
					"outputs": [
						{
							"name": "",
							"type": "address"
						},
						{
							"name": "",
							"type": "bytes32"
						},
						{
							"name": "",
							"type": "uint256"
						},
						{
							"name": "",
							"type": "uint256"
						},
						{
							"name": "",
							"type": "uint256"
						},
						{
							"name": "",
							"type": "uint256"
						},
						{
							"name": "",
							"type": "uint256"
						},
						{
							"name": "",
							"type": "uint256"
						},
						{
							"name": "",
							"type": "uint8"
						},
						{
							"name": "",
							"type": "bool"
						},
						{
							"name": "",
							"type": "uint256"
						}
					],
					"payable": false,
					"stateMutability": "view",
					"type": "function"
				},
				{
					"constant": false,
					"inputs": [
						{
							"name": "_recipient",
							"type": "address"
						}
					],
					"name": "destroyAndSend",
					"outputs": [],
					"payable": false,
					"stateMutability": "nonpayable",
					"type": "function"
				},
				{
					"inputs": [
						{
							"name": "_requestedAmount",
							"type": "uint256"
						},
						{
							"name": "_requestedRepayments",
							"type": "uint256"
						},
						{
							"name": "_interest",
							"type": "uint256"
						},
						{
							"name": "_description",
							"type": "bytes32"
						}
					],
					"payable": false,
					"stateMutability": "nonpayable",
					"type": "constructor"
				},
				{
					"anonymous": false,
					"inputs": [
						{
							"indexed": true,
							"name": "_address",
							"type": "address"
						},
						{
							"indexed": true,
							"name": "timestamp",
							"type": "uint256"
						}
					],
					"name": "LogCreditInitialized",
					"type": "event"
				},
				{
					"anonymous": false,
					"inputs": [
						{
							"indexed": true,
							"name": "state",
							"type": "uint8"
						},
						{
							"indexed": true,
							"name": "timestamp",
							"type": "uint256"
						}
					],
					"name": "LogCreditStateChanged",
					"type": "event"
				},
				{
					"anonymous": false,
					"inputs": [
						{
							"indexed": true,
							"name": "active",
							"type": "bool"
						},
						{
							"indexed": true,
							"name": "timestamp",
							"type": "uint256"
						}
					],
					"name": "LogCreditStateActiveChanged",
					"type": "event"
				},
				{
					"anonymous": false,
					"inputs": [
						{
							"indexed": true,
							"name": "_address",
							"type": "address"
						},
						{
							"indexed": true,
							"name": "_amount",
							"type": "uint256"
						},
						{
							"indexed": true,
							"name": "timestamp",
							"type": "uint256"
						}
					],
					"name": "LogBorrowerWithdrawal",
					"type": "event"
				},
				{
					"anonymous": false,
					"inputs": [
						{
							"indexed": true,
							"name": "_address",
							"type": "address"
						},
						{
							"indexed": true,
							"name": "_amount",
							"type": "uint256"
						},
						{
							"indexed": true,
							"name": "timestamp",
							"type": "uint256"
						}
					],
					"name": "LogBorrowerRepaymentInstallment",
					"type": "event"
				},
				{
					"anonymous": false,
					"inputs": [
						{
							"indexed": true,
							"name": "_address",
							"type": "address"
						},
						{
							"indexed": true,
							"name": "timestamp",
							"type": "uint256"
						}
					],
					"name": "LogBorrowerRepaymentFinished",
					"type": "event"
				},
				{
					"anonymous": false,
					"inputs": [
						{
							"indexed": true,
							"name": "_address",
							"type": "address"
						},
						{
							"indexed": true,
							"name": "_amount",
							"type": "uint256"
						},
						{
							"indexed": true,
							"name": "timestamp",
							"type": "uint256"
						}
					],
					"name": "LogBorrowerChangeReturned",
					"type": "event"
				},
				{
					"anonymous": false,
					"inputs": [
						{
							"indexed": true,
							"name": "_address",
							"type": "address"
						},
						{
							"indexed": true,
							"name": "fraudStatus",
							"type": "bool"
						},
						{
							"indexed": true,
							"name": "timestamp",
							"type": "uint256"
						}
					],
					"name": "LogBorrowerIsFraud",
					"type": "event"
				},
				{
					"anonymous": false,
					"inputs": [
						{
							"indexed": true,
							"name": "_address",
							"type": "address"
						},
						{
							"indexed": true,
							"name": "_amount",
							"type": "uint256"
						},
						{
							"indexed": true,
							"name": "timestamp",
							"type": "uint256"
						}
					],
					"name": "LogLenderInvestment",
					"type": "event"
				},
				{
					"anonymous": false,
					"inputs": [
						{
							"indexed": true,
							"name": "_address",
							"type": "address"
						},
						{
							"indexed": true,
							"name": "_amount",
							"type": "uint256"
						},
						{
							"indexed": true,
							"name": "timestamp",
							"type": "uint256"
						}
					],
					"name": "LogLenderWithdrawal",
					"type": "event"
				},
				{
					"anonymous": false,
					"inputs": [
						{
							"indexed": true,
							"name": "_address",
							"type": "address"
						},
						{
							"indexed": true,
							"name": "_amount",
							"type": "uint256"
						},
						{
							"indexed": true,
							"name": "timestamp",
							"type": "uint256"
						}
					],
					"name": "LogLenderChangeReturned",
					"type": "event"
				},
				{
					"anonymous": false,
					"inputs": [
						{
							"indexed": true,
							"name": "_address",
							"type": "address"
						},
						{
							"indexed": true,
							"name": "timestamp",
							"type": "uint256"
						}
					],
					"name": "LogLenderVoteForRevoking",
					"type": "event"
				},
				{
					"anonymous": false,
					"inputs": [
						{
							"indexed": true,
							"name": "_address",
							"type": "address"
						},
						{
							"indexed": true,
							"name": "timestamp",
							"type": "uint256"
						}
					],
					"name": "LogLenderVoteForFraud",
					"type": "event"
				},
				{
					"anonymous": false,
					"inputs": [
						{
							"indexed": true,
							"name": "_address",
							"type": "address"
						},
						{
							"indexed": true,
							"name": "_amount",
							"type": "uint256"
						},
						{
							"indexed": true,
							"name": "timestamp",
							"type": "uint256"
						}
					],
					"name": "LogLenderRefunded",
					"type": "event"
				},
				{
					"anonymous": false,
					"inputs": [
						{
							"indexed": true,
							"name": "_currentOwner",
							"type": "address"
						},
						{
							"indexed": true,
							"name": "_newOwner",
							"type": "address"
						}
					],
					"name": "LogOwnershipTransfered",
					"type": "event"
				}
			],
			"devdoc": {
				"methods": {
					"changeState(uint8)": {
						"details": "Change state function.\r",
						"params": {
							"_state": "New state.\r Only accessible to the owner of the contract.\r Changes the state of the contract.\r"
						}
					},
					"fraudVote()": {
						"details": "Function for voting the borrower as fraudster.\r"
					},
					"getBalance()": {
						"details": "Get current balance.\r return this.balance.\r"
					},
					"getCreditInfo()": {
						"details": "Function to get the whole credit information.\r return borrower\r return description\r return requestedAmount\r return requestedRepayments\r return remainingRepayments\r return interest\r return returnAmount\r return state\r return active\r return this.balance\r"
					},
					"invest()": {
						"details": "Invest function.\r Provides functionality for person to invest in someone's credit,\r incentivised by the return of interest.\r"
					},
					"refund()": {
						"details": "Function for refunding people. "
					},
					"repay()": {
						"details": "Repayment function.\r Allows borrower to make repayment installments.\r"
					},
					"requestInterest()": {
						"details": "Request interest function.\r It can only be executed while contract is in active state.\r It is only accessible to lenders.\r It is only accessible if lender funded 1 or more wei.\r It can only be executed once.\r Transfers the lended amount + interest to the lender.\r"
					},
					"revokeVote()": {
						"details": "Function for revoking the credit.\r"
					},
					"toggleActive()": {
						"details": "Toggle active state function.\r Only accessible to the owner of the contract.\r Toggles the active state of the contract.\r return bool\r"
					},
					"withdraw()": {
						"details": "Withdraw function.\r It can only be executed while contract is in active state.\r It is only accessible to the borrower.\r It is only accessible if the needed amount is gathered in the contract.\r It can only be executed once.\r Transfers the gathered amount to the borrower.\r"
					}
				},
				"title": "Credit contract.\r Inherits the Ownable and Destructible contracts.\r"
			},
			"evm": {
				"assembly": "    /* \"smart-contracts/contracts/Credit.sol\":189:18457  contract Credit is Destructible {\r... */\n  mstore(0x40, 0x60)\n    /* \"smart-contracts/contracts/Credit.sol\":1255:1259  true */\n  0x1\n    /* \"smart-contracts/contracts/Credit.sol\":1241:1259  bool active = true */\n  0xc\n  exp(0x100, 0x0)\n  dup2\n  sload\n  dup2\n  0xff\n  mul\n  not\n  and\n  swap1\n  dup4\n  iszero\n  iszero\n  mul\n  or\n  swap1\n  sstore\n  pop\n    /* \"smart-contracts/contracts/Credit.sol\":2090:2091  0 */\n  0x0\n    /* \"smart-contracts/contracts/Credit.sol\":2070:2091  uint lendersCount = 0 */\n  0xf\n  sstore\n    /* \"smart-contracts/contracts/Credit.sol\":2147:2148  0 */\n  0x0\n    /* \"smart-contracts/contracts/Credit.sol\":2128:2148  uint revokeVotes = 0 */\n  0x10\n  sstore\n    /* \"smart-contracts/contracts/Credit.sol\":2367:2376  1 seconds */\n  0x1\n    /* \"smart-contracts/contracts/Credit.sol\":2349:2364  block.timestamp */\n  timestamp\n    /* \"smart-contracts/contracts/Credit.sol\":2349:2376  block.timestamp + 1 seconds */\n  add\n    /* \"smart-contracts/contracts/Credit.sol\":2325:2376  uint revokeTimeNeeded = block.timestamp + 1 seconds */\n  0x12\n  sstore\n    /* \"smart-contracts/contracts/Credit.sol\":2431:2432  0 */\n  0x0\n    /* \"smart-contracts/contracts/Credit.sol\":2413:2432  uint fraudVotes = 0 */\n  0x13\n  sstore\n    /* \"smart-contracts/contracts/Credit.sol\":5237:6779  function Credit(uint _requestedAmount, uint _requestedRepayments, uint _interest, bytes32 _description) public {\r... */\n  jumpi(tag_1, iszero(callvalue))\n  0x0\n  dup1\n  revert\ntag_1:\n  mload(0x40)\n  0x80\n  dup1\n  bytecodeSize\n  dup4\n  codecopy\n  dup2\n  add\n  0x40\n  mstore\n  dup1\n  dup1\n  mload\n  swap1\n  0x20\n  add\n  swap1\n  swap2\n  swap1\n  dup1\n  mload\n  swap1\n  0x20\n  add\n  swap1\n  swap2\n  swap1\n  dup1\n  mload\n  swap1\n  0x20\n  add\n  swap1\n  swap2\n  swap1\n  dup1\n  mload\n  swap1\n  0x20\n  add\n  swap1\n  swap2\n  swap1\n  pop\n  pop\n    /* \"smart-contracts/contracts/Credit.sol\":5601:5610  tx.origin */\n  origin\n    /* \"smart-contracts/contracts/Credit.sol\":5590:5598  borrower */\n  0x1\n  0x0\n    /* \"smart-contracts/contracts/Credit.sol\":5590:5610  borrower = tx.origin */\n  0x100\n  exp\n  dup2\n  sload\n  dup2\n  0xffffffffffffffffffffffffffffffffffffffff\n  mul\n  not\n  and\n  swap1\n  dup4\n  0xffffffffffffffffffffffffffffffffffffffff\n  and\n  mul\n  or\n  swap1\n  sstore\n  pop\n    /* \"smart-contracts/contracts/Credit.sol\":5679:5688  _interest */\n  dup2\n    /* \"smart-contracts/contracts/Credit.sol\":5668:5676  interest */\n  0x5\n    /* \"smart-contracts/contracts/Credit.sol\":5668:5688  interest = _interest */\n  dup2\n  swap1\n  sstore\n  pop\n    /* \"smart-contracts/contracts/Credit.sol\":5757:5773  _requestedAmount */\n  dup4\n    /* \"smart-contracts/contracts/Credit.sol\":5739:5754  requestedAmount */\n  0x2\n    /* \"smart-contracts/contracts/Credit.sol\":5739:5773  requestedAmount = _requestedAmount */\n  dup2\n  swap1\n  sstore\n  pop\n    /* \"smart-contracts/contracts/Credit.sol\":5850:5870  _requestedRepayments */\n  dup3\n    /* \"smart-contracts/contracts/Credit.sol\":5828:5847  requestedRepayments */\n  0x6\n    /* \"smart-contracts/contracts/Credit.sol\":5828:5870  requestedRepayments = _requestedRepayments */\n  dup2\n  swap1\n  sstore\n  pop\n    /* \"smart-contracts/contracts/Credit.sol\":6028:6048  _requestedRepayments */\n  dup3\n    /* \"smart-contracts/contracts/Credit.sol\":6006:6025  remainingRepayments */\n  0x7\n    /* \"smart-contracts/contracts/Credit.sol\":6006:6048  remainingRepayments = _requestedRepayments */\n  dup2\n  swap1\n  sstore\n  pop\n    /* \"smart-contracts/contracts/Credit.sol\":6246:6275  requestedAmount.add(interest) */\n  tag_6\n    /* \"smart-contracts/contracts/Credit.sol\":6266:6274  interest */\n  sload(0x5)\n    /* \"smart-contracts/contracts/Credit.sol\":6246:6261  requestedAmount */\n  sload(0x2)\n    /* \"smart-contracts/contracts/Credit.sol\":6246:6265  requestedAmount.add */\n  or(tag_0_104, mul(0x100000000, tag_7))\n  swap1\n    /* \"smart-contracts/contracts/Credit.sol\":6246:6275  requestedAmount.add(interest) */\n  swap2\n  swap1\n  0x100000000\n  swap1\n  div\n  jump\t// in\ntag_6:\n    /* \"smart-contracts/contracts/Credit.sol\":6231:6243  returnAmount */\n  0x3\n    /* \"smart-contracts/contracts/Credit.sol\":6231:6275  returnAmount = requestedAmount.add(interest) */\n  dup2\n  swap1\n  sstore\n  pop\n    /* \"smart-contracts/contracts/Credit.sol\":6471:6508  returnAmount.div(requestedRepayments) */\n  tag_8\n    /* \"smart-contracts/contracts/Credit.sol\":6488:6507  requestedRepayments */\n  sload(0x6)\n    /* \"smart-contracts/contracts/Credit.sol\":6471:6483  returnAmount */\n  sload(0x3)\n    /* \"smart-contracts/contracts/Credit.sol\":6471:6487  returnAmount.div */\n  or(tag_0_193, mul(0x100000000, tag_9))\n  swap1\n    /* \"smart-contracts/contracts/Credit.sol\":6471:6508  returnAmount.div(requestedRepayments) */\n  swap2\n  swap1\n  0x100000000\n  swap1\n  div\n  jump\t// in\ntag_8:\n    /* \"smart-contracts/contracts/Credit.sol\":6448:6468  repaymentInstallment */\n  0x8\n    /* \"smart-contracts/contracts/Credit.sol\":6448:6508  repaymentInstallment = returnAmount.div(requestedRepayments) */\n  dup2\n  swap1\n  sstore\n  pop\n    /* \"smart-contracts/contracts/Credit.sol\":6575:6587  _description */\n  dup1\n    /* \"smart-contracts/contracts/Credit.sol\":6561:6572  description */\n  0xb\n    /* \"smart-contracts/contracts/Credit.sol\":6561:6587  description = _description */\n  dup2\n  not(0x0)\n  and\n  swap1\n  sstore\n  pop\n    /* \"smart-contracts/contracts/Credit.sol\":6657:6672  block.timestamp */\n  timestamp\n    /* \"smart-contracts/contracts/Credit.sol\":6641:6654  requestedDate */\n  0x9\n    /* \"smart-contracts/contracts/Credit.sol\":6641:6672  requestedDate = block.timestamp */\n  dup2\n  swap1\n  sstore\n  pop\n    /* \"smart-contracts/contracts/Credit.sol\":6755:6770  block.timestamp */\n  timestamp\n    /* \"smart-contracts/contracts/Credit.sol\":6745:6753  borrower */\n  0x1\n  0x0\n  swap1\n  sload\n  swap1\n  0x100\n  exp\n  swap1\n  div\n  0xffffffffffffffffffffffffffffffffffffffff\n  and\n    /* \"smart-contracts/contracts/Credit.sol\":6724:6771  LogCreditInitialized(borrower, block.timestamp) */\n  0xffffffffffffffffffffffffffffffffffffffff\n  and\n  0xf9f75c99c0e3522cd19ffc66fd6c94989a3f0821d37d5c5bb176aab904c6335d\n  mload(0x40)\n  mload(0x40)\n  dup1\n  swap2\n  sub\n  swap1\n  log3\n    /* \"smart-contracts/contracts/Credit.sol\":5237:6779  function Credit(uint _requestedAmount, uint _requestedRepayments, uint _interest, bytes32 _description) public {\r... */\n  pop\n  pop\n  pop\n  pop\n    /* \"smart-contracts/contracts/Credit.sol\":189:18457  contract Credit is Destructible {\r... */\n  jump(tag_10)\n    /* \"smart-contracts/contracts/common/SafeMath.sol\":622:769  function add(uint256 a, uint256 b) internal pure returns (uint256) {\r... */\ntag_7:\n    /* \"smart-contracts/contracts/common/SafeMath.sol\":680:687  uint256 */\n  0x0\n    /* \"smart-contracts/contracts/common/SafeMath.sol\":700:709  uint256 c */\n  dup1\n    /* \"smart-contracts/contracts/common/SafeMath.sol\":716:717  b */\n  dup3\n    /* \"smart-contracts/contracts/common/SafeMath.sol\":712:713  a */\n  dup5\n    /* \"smart-contracts/contracts/common/SafeMath.sol\":712:717  a + b */\n  add\n    /* \"smart-contracts/contracts/common/SafeMath.sol\":700:717  uint256 c = a + b */\n  swap1\n  pop\n    /* \"smart-contracts/contracts/common/SafeMath.sol\":740:741  a */\n  dup4\n    /* \"smart-contracts/contracts/common/SafeMath.sol\":735:736  c */\n  dup2\n    /* \"smart-contracts/contracts/common/SafeMath.sol\":735:741  c >= a */\n  lt\n  iszero\n    /* \"smart-contracts/contracts/common/SafeMath.sol\":728:742  assert(c >= a) */\n  iszero\n  iszero\n  tag_12\n  jumpi\n  invalid\ntag_12:\n    /* \"smart-contracts/contracts/common/SafeMath.sol\":760:761  c */\n  dup1\n    /* \"smart-contracts/contracts/common/SafeMath.sol\":753:761  return c */\n  swap2\n  pop\n    /* \"smart-contracts/contracts/common/SafeMath.sol\":622:769  function add(uint256 a, uint256 b) internal pure returns (uint256) {\r... */\n  pop\n  swap3\n  swap2\n  pop\n  pop\n  jump\t// out\n    /* \"smart-contracts/contracts/common/SafeMath.sol\":270:463  function div(uint256 a, uint256 b) internal pure returns (uint256) {\r... */\ntag_9:\n    /* \"smart-contracts/contracts/common/SafeMath.sol\":328:335  uint256 */\n  0x0\n    /* \"smart-contracts/contracts/common/SafeMath.sol\":419:428  uint256 c */\n  dup1\n    /* \"smart-contracts/contracts/common/SafeMath.sol\":435:436  b */\n  dup3\n    /* \"smart-contracts/contracts/common/SafeMath.sol\":431:432  a */\n  dup5\n    /* \"smart-contracts/contracts/common/SafeMath.sol\":431:436  a / b */\n  dup2\n  iszero\n  iszero\n  tag_14\n  jumpi\n  invalid\ntag_14:\n  div\n    /* \"smart-contracts/contracts/common/SafeMath.sol\":419:436  uint256 c = a / b */\n  swap1\n  pop\n    /* \"smart-contracts/contracts/common/SafeMath.sol\":454:455  c */\n  dup1\n    /* \"smart-contracts/contracts/common/SafeMath.sol\":447:455  return c */\n  swap2\n  pop\n    /* \"smart-contracts/contracts/common/SafeMath.sol\":270:463  function div(uint256 a, uint256 b) internal pure returns (uint256) {\r... */\n  pop\n  swap3\n  swap2\n  pop\n  pop\n  jump\t// out\n    /* \"smart-contracts/contracts/Credit.sol\":189:18457  contract Credit is Destructible {\r... */\ntag_10:\n  dataSize(sub_0)\n  dup1\n  dataOffset(sub_0)\n  0x0\n  codecopy\n  0x0\n  return\nstop\n\nsub_0: assembly {\n        /* \"smart-contracts/contracts/Credit.sol\":189:18457  contract Credit is Destructible {\r... */\n      mstore(0x40, 0x60)\n      jumpi(tag_1, lt(calldatasize, 0x4))\n      calldataload(0x0)\n      0x100000000000000000000000000000000000000000000000000000000\n      swap1\n      div\n      0xffffffff\n      and\n      dup1\n      0x12065fe0\n      eq\n      tag_2\n      jumpi\n      dup1\n      0x268f1153\n      eq\n      tag_3\n      jumpi\n      dup1\n      0x28fd10d7\n      eq\n      tag_4\n      jumpi\n      dup1\n      0x29c68dc1\n      eq\n      tag_5\n      jumpi\n      dup1\n      0x3ccfd60b\n      eq\n      tag_6\n      jumpi\n      dup1\n      0x402d8883\n      eq\n      tag_7\n      jumpi\n      dup1\n      0x43c14b22\n      eq\n      tag_8\n      jumpi\n      dup1\n      0x590e1ae3\n      eq\n      tag_9\n      jumpi\n      dup1\n      0x83197ef0\n      eq\n      tag_10\n      jumpi\n      dup1\n      0x8da5cb5b\n      eq\n      tag_11\n      jumpi\n      dup1\n      0xd85da7b6\n      eq\n      tag_12\n      jumpi\n      dup1\n      0xe8b5e51f\n      eq\n      tag_13\n      jumpi\n      dup1\n      0xefd475ab\n      eq\n      tag_14\n      jumpi\n      dup1\n      0xf06817cf\n      eq\n      tag_15\n      jumpi\n      dup1\n      0xf5074f41\n      eq\n      tag_16\n      jumpi\n    tag_1:\n      0x0\n      dup1\n      revert\n        /* \"smart-contracts/contracts/Credit.sol\":6862:6952  function getBalance() public view returns (uint256) {\r... */\n    tag_2:\n      jumpi(tag_17, iszero(callvalue))\n      0x0\n      dup1\n      revert\n    tag_17:\n      tag_18\n      jump(tag_19)\n    tag_18:\n      mload(0x40)\n      dup1\n      dup3\n      dup2\n      mstore\n      0x20\n      add\n      swap2\n      pop\n      pop\n      mload(0x40)\n      dup1\n      swap2\n      sub\n      swap1\n      return\n        /* \"smart-contracts/contracts/Credit.sol\":17851:18041  function changeState(State _state) external onlyOwner returns (uint) {\r... */\n    tag_3:\n      jumpi(tag_20, iszero(callvalue))\n      0x0\n      dup1\n      revert\n    tag_20:\n      tag_21\n      0x4\n      dup1\n      dup1\n      calldataload\n      0xff\n      and\n      swap1\n      0x20\n      add\n      swap1\n      swap2\n      swap1\n      pop\n      pop\n      jump(tag_22)\n    tag_21:\n      mload(0x40)\n      dup1\n      dup3\n      dup2\n      mstore\n      0x20\n      add\n      swap2\n      pop\n      pop\n      mload(0x40)\n      dup1\n      swap2\n      sub\n      swap1\n      return\n        /* \"smart-contracts/contracts/Credit.sol\":1852:1891  mapping(address => bool) public lenders */\n    tag_4:\n      jumpi(tag_23, iszero(callvalue))\n      0x0\n      dup1\n      revert\n    tag_23:\n      tag_24\n      0x4\n      dup1\n      dup1\n      calldataload\n      0xffffffffffffffffffffffffffffffffffffffff\n      and\n      swap1\n      0x20\n      add\n      swap1\n      swap2\n      swap1\n      pop\n      pop\n      jump(tag_25)\n    tag_24:\n      mload(0x40)\n      dup1\n      dup3\n      iszero\n      iszero\n      iszero\n      iszero\n      dup2\n      mstore\n      0x20\n      add\n      swap2\n      pop\n      pop\n      mload(0x40)\n      dup1\n      swap2\n      sub\n      swap1\n      return\n        /* \"smart-contracts/contracts/Credit.sol\":18230:18452  function toggleActive() external onlyOwner returns (bool) {\r... */\n    tag_5:\n      jumpi(tag_26, iszero(callvalue))\n      0x0\n      dup1\n      revert\n    tag_26:\n      tag_27\n      jump(tag_28)\n    tag_27:\n      mload(0x40)\n      dup1\n      dup3\n      iszero\n      iszero\n      iszero\n      iszero\n      dup2\n      mstore\n      0x20\n      add\n      swap2\n      pop\n      pop\n      mload(0x40)\n      dup1\n      swap2\n      sub\n      swap1\n      return\n        /* \"smart-contracts/contracts/Credit.sol\":11703:12195  function withdraw() public isActive onlyBorrower canWithdraw isNotFraud {\r... */\n    tag_6:\n      jumpi(tag_29, iszero(callvalue))\n      0x0\n      dup1\n      revert\n    tag_29:\n      tag_30\n      jump(tag_31)\n    tag_30:\n      stop\n        /* \"smart-contracts/contracts/Credit.sol\":8949:11360  function repay() public onlyBorrower canRepay payable {\r... */\n    tag_7:\n      tag_32\n      jump(tag_33)\n    tag_32:\n      stop\n        /* \"smart-contracts/contracts/Credit.sol\":14589:15202  function revokeVote() public isActive isRevokable onlyLender {\r... */\n    tag_8:\n      jumpi(tag_34, iszero(callvalue))\n      0x0\n      dup1\n      revert\n    tag_34:\n      tag_35\n      jump(tag_36)\n    tag_35:\n      stop\n        /* \"smart-contracts/contracts/Credit.sol\":15514:16468  function refund() public isActive onlyLender isRevoked {\r... */\n    tag_9:\n      jumpi(tag_37, iszero(callvalue))\n      0x0\n      dup1\n      revert\n    tag_37:\n      tag_38\n      jump(tag_39)\n    tag_38:\n      stop\n        /* \"smart-contracts/contracts/common/Destructible.sol\":151:225  function destroy() public onlyOwner {\r... */\n    tag_10:\n      jumpi(tag_40, iszero(callvalue))\n      0x0\n      dup1\n      revert\n    tag_40:\n      tag_41\n      jump(tag_42)\n    tag_41:\n      stop\n        /* \"smart-contracts/contracts/common/Ownable.sol\":54:74  address public owner */\n    tag_11:\n      jumpi(tag_43, iszero(callvalue))\n      0x0\n      dup1\n      revert\n    tag_43:\n      tag_44\n      jump(tag_45)\n    tag_44:\n      mload(0x40)\n      dup1\n      dup3\n      0xffffffffffffffffffffffffffffffffffffffff\n      and\n      0xffffffffffffffffffffffffffffffffffffffff\n      and\n      dup2\n      mstore\n      0x20\n      add\n      swap2\n      pop\n      pop\n      mload(0x40)\n      dup1\n      swap2\n      sub\n      swap1\n      return\n        /* \"smart-contracts/contracts/Credit.sol\":16546:17151  function fraudVote() public isActive onlyLender returns (bool) {\r... */\n    tag_12:\n      jumpi(tag_46, iszero(callvalue))\n      0x0\n      dup1\n      revert\n    tag_46:\n      tag_47\n      jump(tag_48)\n    tag_47:\n      mload(0x40)\n      dup1\n      dup3\n      iszero\n      iszero\n      iszero\n      iszero\n      dup2\n      mstore\n      0x20\n      add\n      swap2\n      pop\n      pop\n      mload(0x40)\n      dup1\n      swap2\n      sub\n      swap1\n      return\n        /* \"smart-contracts/contracts/Credit.sol\":7124:8840  function invest() public canInvest payable {\r... */\n    tag_13:\n      tag_49\n      jump(tag_50)\n    tag_49:\n      stop\n        /* \"smart-contracts/contracts/Credit.sol\":12530:13748  function requestInterest() public isActive onlyLender canAskForInterest {\r... */\n    tag_14:\n      jumpi(tag_51, iszero(callvalue))\n      0x0\n      dup1\n      revert\n    tag_51:\n      tag_52\n      jump(tag_53)\n    tag_52:\n      stop\n        /* \"smart-contracts/contracts/Credit.sol\":14111:14523  function getCreditInfo() public view returns (address, bytes32, uint, uint, uint, uint, uint, uint, State, bool, uint) {\r... */\n    tag_15:\n      jumpi(tag_54, iszero(callvalue))\n      0x0\n      dup1\n      revert\n    tag_54:\n      tag_55\n      jump(tag_56)\n    tag_55:\n      mload(0x40)\n      dup1\n      dup13\n      0xffffffffffffffffffffffffffffffffffffffff\n      and\n      0xffffffffffffffffffffffffffffffffffffffff\n      and\n      dup2\n      mstore\n      0x20\n      add\n      dup12\n      not(0x0)\n      and\n      not(0x0)\n      and\n      dup2\n      mstore\n      0x20\n      add\n      dup11\n      dup2\n      mstore\n      0x20\n      add\n      dup10\n      dup2\n      mstore\n      0x20\n      add\n      dup9\n      dup2\n      mstore\n      0x20\n      add\n      dup8\n      dup2\n      mstore\n      0x20\n      add\n      dup7\n      dup2\n      mstore\n      0x20\n      add\n      dup6\n      dup2\n      mstore\n      0x20\n      add\n      dup5\n      0x5\n      dup2\n      gt\n      iszero\n      tag_57\n      jumpi\n      invalid\n    tag_57:\n      0xff\n      and\n      dup2\n      mstore\n      0x20\n      add\n      dup4\n      iszero\n      iszero\n      iszero\n      iszero\n      dup2\n      mstore\n      0x20\n      add\n      dup3\n      dup2\n      mstore\n      0x20\n      add\n      swap12\n      pop\n      pop\n      pop\n      pop\n      pop\n      pop\n      pop\n      pop\n      pop\n      pop\n      pop\n      pop\n      mload(0x40)\n      dup1\n      swap2\n      sub\n      swap1\n      return\n        /* \"smart-contracts/contracts/common/Destructible.sol\":237:341  function destroyAndSend(address _recipient) public onlyOwner {\r... */\n    tag_16:\n      jumpi(tag_58, iszero(callvalue))\n      0x0\n      dup1\n      revert\n    tag_58:\n      tag_59\n      0x4\n      dup1\n      dup1\n      calldataload\n      0xffffffffffffffffffffffffffffffffffffffff\n      and\n      swap1\n      0x20\n      add\n      swap1\n      swap2\n      swap1\n      pop\n      pop\n      jump(tag_60)\n    tag_59:\n      stop\n        /* \"smart-contracts/contracts/Credit.sol\":6862:6952  function getBalance() public view returns (uint256) {\r... */\n    tag_19:\n        /* \"smart-contracts/contracts/Credit.sol\":6905:6912  uint256 */\n      0x0\n        /* \"smart-contracts/contracts/Credit.sol\":6932:6936  this */\n      address\n        /* \"smart-contracts/contracts/Credit.sol\":6932:6944  this.balance */\n      0xffffffffffffffffffffffffffffffffffffffff\n      and\n      balance\n        /* \"smart-contracts/contracts/Credit.sol\":6925:6944  return this.balance */\n      swap1\n      pop\n        /* \"smart-contracts/contracts/Credit.sol\":6862:6952  function getBalance() public view returns (uint256) {\r... */\n      swap1\n      jump\t// out\n        /* \"smart-contracts/contracts/Credit.sol\":17851:18041  function changeState(State _state) external onlyOwner returns (uint) {\r... */\n    tag_22:\n        /* \"smart-contracts/contracts/Credit.sol\":17914:17918  uint */\n      0x0\n        /* \"smart-contracts/contracts/common/Ownable.sol\":232:237  owner */\n      dup1\n      0x0\n      swap1\n      sload\n      swap1\n      0x100\n      exp\n      swap1\n      div\n      0xffffffffffffffffffffffffffffffffffffffff\n      and\n        /* \"smart-contracts/contracts/common/Ownable.sol\":218:237  msg.sender == owner */\n      0xffffffffffffffffffffffffffffffffffffffff\n      and\n        /* \"smart-contracts/contracts/common/Ownable.sol\":218:228  msg.sender */\n      caller\n        /* \"smart-contracts/contracts/common/Ownable.sol\":218:237  msg.sender == owner */\n      0xffffffffffffffffffffffffffffffffffffffff\n      and\n      eq\n        /* \"smart-contracts/contracts/common/Ownable.sol\":210:238  require(msg.sender == owner) */\n      iszero\n      iszero\n      tag_63\n      jumpi\n      0x0\n      dup1\n      revert\n    tag_63:\n        /* \"smart-contracts/contracts/Credit.sol\":17939:17945  _state */\n      dup2\n        /* \"smart-contracts/contracts/Credit.sol\":17931:17936  state */\n      0xc\n      0x1\n        /* \"smart-contracts/contracts/Credit.sol\":17931:17945  state = _state */\n      0x100\n      exp\n      dup2\n      sload\n      dup2\n      0xff\n      mul\n      not\n      and\n      swap1\n      dup4\n      0x5\n      dup2\n      gt\n      iszero\n      tag_65\n      jumpi\n      invalid\n    tag_65:\n      mul\n      or\n      swap1\n      sstore\n      pop\n        /* \"smart-contracts/contracts/Credit.sol\":18017:18032  block.timestamp */\n      timestamp\n        /* \"smart-contracts/contracts/Credit.sol\":18010:18015  state */\n      0xc\n      0x1\n      swap1\n      sload\n      swap1\n      0x100\n      exp\n      swap1\n      div\n      0xff\n      and\n        /* \"smart-contracts/contracts/Credit.sol\":17988:18033  LogCreditStateChanged(state, block.timestamp) */\n      0x5\n      dup2\n      gt\n      iszero\n      tag_66\n      jumpi\n      invalid\n    tag_66:\n      0xaaae373901e745122c2e0925ad006227969c6cd190b7d5ea2fb7fdbd1d955b35\n      mload(0x40)\n      mload(0x40)\n      dup1\n      swap2\n      sub\n      swap1\n      log3\n        /* \"smart-contracts/contracts/Credit.sol\":17851:18041  function changeState(State _state) external onlyOwner returns (uint) {\r... */\n      swap2\n      swap1\n      pop\n      jump\t// out\n        /* \"smart-contracts/contracts/Credit.sol\":1852:1891  mapping(address => bool) public lenders */\n    tag_25:\n      mstore(0x20, 0xd)\n      dup1\n      0x0\n      mstore\n      keccak256(0x0, 0x40)\n      0x0\n      swap2\n      pop\n      sload\n      swap1\n      0x100\n      exp\n      swap1\n      div\n      0xff\n      and\n      dup2\n      jump\t// out\n        /* \"smart-contracts/contracts/Credit.sol\":18230:18452  function toggleActive() external onlyOwner returns (bool) {\r... */\n    tag_28:\n        /* \"smart-contracts/contracts/Credit.sol\":18282:18286  bool */\n      0x0\n        /* \"smart-contracts/contracts/common/Ownable.sol\":232:237  owner */\n      dup1\n      0x0\n      swap1\n      sload\n      swap1\n      0x100\n      exp\n      swap1\n      div\n      0xffffffffffffffffffffffffffffffffffffffff\n      and\n        /* \"smart-contracts/contracts/common/Ownable.sol\":218:237  msg.sender == owner */\n      0xffffffffffffffffffffffffffffffffffffffff\n      and\n        /* \"smart-contracts/contracts/common/Ownable.sol\":218:228  msg.sender */\n      caller\n        /* \"smart-contracts/contracts/common/Ownable.sol\":218:237  msg.sender == owner */\n      0xffffffffffffffffffffffffffffffffffffffff\n      and\n      eq\n        /* \"smart-contracts/contracts/common/Ownable.sol\":210:238  require(msg.sender == owner) */\n      iszero\n      iszero\n      tag_68\n      jumpi\n      0x0\n      dup1\n      revert\n    tag_68:\n        /* \"smart-contracts/contracts/Credit.sol\":18309:18315  active */\n      0xc\n      0x0\n      swap1\n      sload\n      swap1\n      0x100\n      exp\n      swap1\n      div\n      0xff\n      and\n        /* \"smart-contracts/contracts/Credit.sol\":18308:18315  !active */\n      iszero\n        /* \"smart-contracts/contracts/Credit.sol\":18299:18305  active */\n      0xc\n      0x0\n        /* \"smart-contracts/contracts/Credit.sol\":18299:18315  active = !active */\n      0x100\n      exp\n      dup2\n      sload\n      dup2\n      0xff\n      mul\n      not\n      and\n      swap1\n      dup4\n      iszero\n      iszero\n      mul\n      or\n      swap1\n      sstore\n      pop\n        /* \"smart-contracts/contracts/Credit.sol\":18402:18417  block.timestamp */\n      timestamp\n        /* \"smart-contracts/contracts/Credit.sol\":18394:18400  active */\n      0xc\n      0x0\n      swap1\n      sload\n      swap1\n      0x100\n      exp\n      swap1\n      div\n      0xff\n      and\n        /* \"smart-contracts/contracts/Credit.sol\":18366:18418  LogCreditStateActiveChanged(active, block.timestamp) */\n      iszero\n      iszero\n      0x160914ea27c60aa29a5f3a69d74e6069869de36e38939de1e0a66b921d8623d2\n      mload(0x40)\n      mload(0x40)\n      dup1\n      swap2\n      sub\n      swap1\n      log3\n        /* \"smart-contracts/contracts/Credit.sol\":18438:18444  active */\n      0xc\n      0x0\n      swap1\n      sload\n      swap1\n      0x100\n      exp\n      swap1\n      div\n      0xff\n      and\n        /* \"smart-contracts/contracts/Credit.sol\":18431:18444  return active */\n      swap1\n      pop\n        /* \"smart-contracts/contracts/Credit.sol\":18230:18452  function toggleActive() external onlyOwner returns (bool) {\r... */\n      swap1\n      jump\t// out\n        /* \"smart-contracts/contracts/Credit.sol\":11703:12195  function withdraw() public isActive onlyBorrower canWithdraw isNotFraud {\r... */\n    tag_31:\n        /* \"smart-contracts/contracts/Credit.sol\":4007:4011  true */\n      0x1\n        /* \"smart-contracts/contracts/Credit.sol\":3997:4011  active == true */\n      iszero\n      iszero\n        /* \"smart-contracts/contracts/Credit.sol\":3997:4003  active */\n      0xc\n      0x0\n      swap1\n      sload\n      swap1\n      0x100\n      exp\n      swap1\n      div\n      0xff\n      and\n        /* \"smart-contracts/contracts/Credit.sol\":3997:4011  active == true */\n      iszero\n      iszero\n      eq\n        /* \"smart-contracts/contracts/Credit.sol\":3989:4012  require(active == true) */\n      iszero\n      iszero\n      tag_71\n      jumpi\n      0x0\n      dup1\n      revert\n    tag_71:\n        /* \"smart-contracts/contracts/Credit.sol\":4097:4105  borrower */\n      0x1\n      0x0\n      swap1\n      sload\n      swap1\n      0x100\n      exp\n      swap1\n      div\n      0xffffffffffffffffffffffffffffffffffffffff\n      and\n        /* \"smart-contracts/contracts/Credit.sol\":4083:4105  msg.sender == borrower */\n      0xffffffffffffffffffffffffffffffffffffffff\n      and\n        /* \"smart-contracts/contracts/Credit.sol\":4083:4093  msg.sender */\n      caller\n        /* \"smart-contracts/contracts/Credit.sol\":4083:4105  msg.sender == borrower */\n      0xffffffffffffffffffffffffffffffffffffffff\n      and\n      eq\n        /* \"smart-contracts/contracts/Credit.sol\":4075:4106  require(msg.sender == borrower) */\n      iszero\n      iszero\n      tag_73\n      jumpi\n      0x0\n      dup1\n      revert\n    tag_73:\n        /* \"smart-contracts/contracts/Credit.sol\":4639:4654  requestedAmount */\n      sload(0x2)\n        /* \"smart-contracts/contracts/Credit.sol\":4623:4627  this */\n      address\n        /* \"smart-contracts/contracts/Credit.sol\":4623:4635  this.balance */\n      0xffffffffffffffffffffffffffffffffffffffff\n      and\n      balance\n        /* \"smart-contracts/contracts/Credit.sol\":4623:4654  this.balance >= requestedAmount */\n      lt\n      iszero\n        /* \"smart-contracts/contracts/Credit.sol\":4615:4655  require(this.balance >= requestedAmount) */\n      iszero\n      iszero\n      tag_75\n      jumpi\n      0x0\n      dup1\n      revert\n    tag_75:\n        /* \"smart-contracts/contracts/Credit.sol\":4733:4744  State.fraud */\n      0x5\n        /* \"smart-contracts/contracts/Credit.sol\":4724:4744  state != State.fraud */\n      dup1\n      dup2\n      gt\n      iszero\n      tag_77\n      jumpi\n      invalid\n    tag_77:\n        /* \"smart-contracts/contracts/Credit.sol\":4724:4729  state */\n      0xc\n      0x1\n      swap1\n      sload\n      swap1\n      0x100\n      exp\n      swap1\n      div\n      0xff\n      and\n        /* \"smart-contracts/contracts/Credit.sol\":4724:4744  state != State.fraud */\n      0x5\n      dup2\n      gt\n      iszero\n      tag_78\n      jumpi\n      invalid\n    tag_78:\n      eq\n      iszero\n        /* \"smart-contracts/contracts/Credit.sol\":4716:4745  require(state != State.fraud) */\n      iszero\n      iszero\n      tag_79\n      jumpi\n      0x0\n      dup1\n      revert\n    tag_79:\n        /* \"smart-contracts/contracts/Credit.sol\":11861:11876  State.repayment */\n      0x1\n        /* \"smart-contracts/contracts/Credit.sol\":11853:11858  state */\n      0xc\n      0x1\n        /* \"smart-contracts/contracts/Credit.sol\":11853:11876  state = State.repayment */\n      0x100\n      exp\n      dup2\n      sload\n      dup2\n      0xff\n      mul\n      not\n      and\n      swap1\n      dup4\n      0x5\n      dup2\n      gt\n      iszero\n      tag_81\n      jumpi\n      invalid\n    tag_81:\n      mul\n      or\n      swap1\n      sstore\n      pop\n        /* \"smart-contracts/contracts/Credit.sol\":11948:11963  block.timestamp */\n      timestamp\n        /* \"smart-contracts/contracts/Credit.sol\":11941:11946  state */\n      0xc\n      0x1\n      swap1\n      sload\n      swap1\n      0x100\n      exp\n      swap1\n      div\n      0xff\n      and\n        /* \"smart-contracts/contracts/Credit.sol\":11919:11964  LogCreditStateChanged(state, block.timestamp) */\n      0x5\n      dup2\n      gt\n      iszero\n      tag_82\n      jumpi\n      invalid\n    tag_82:\n      0xaaae373901e745122c2e0925ad006227969c6cd190b7d5ea2fb7fdbd1d955b35\n      mload(0x40)\n      mload(0x40)\n      dup1\n      swap2\n      sub\n      swap1\n      log3\n        /* \"smart-contracts/contracts/Credit.sol\":12062:12077  block.timestamp */\n      timestamp\n        /* \"smart-contracts/contracts/Credit.sol\":12048:12052  this */\n      address\n        /* \"smart-contracts/contracts/Credit.sol\":12048:12060  this.balance */\n      0xffffffffffffffffffffffffffffffffffffffff\n      and\n      balance\n        /* \"smart-contracts/contracts/Credit.sol\":12036:12046  msg.sender */\n      caller\n        /* \"smart-contracts/contracts/Credit.sol\":12014:12078  LogBorrowerWithdrawal(msg.sender, this.balance, block.timestamp) */\n      0xffffffffffffffffffffffffffffffffffffffff\n      and\n      0x20734f14d107b526674905e470e35d0a474f9fb996a7bdb034c839c8894524e6\n      mload(0x40)\n      mload(0x40)\n      dup1\n      swap2\n      sub\n      swap1\n      log4\n        /* \"smart-contracts/contracts/Credit.sol\":12156:12164  borrower */\n      0x1\n      0x0\n      swap1\n      sload\n      swap1\n      0x100\n      exp\n      swap1\n      div\n      0xffffffffffffffffffffffffffffffffffffffff\n      and\n        /* \"smart-contracts/contracts/Credit.sol\":12156:12173  borrower.transfer */\n      0xffffffffffffffffffffffffffffffffffffffff\n      and\n        /* \"smart-contracts/contracts/Credit.sol\":12156:12187  borrower.transfer(this.balance) */\n      0x8fc\n        /* \"smart-contracts/contracts/Credit.sol\":12174:12178  this */\n      address\n        /* \"smart-contracts/contracts/Credit.sol\":12174:12186  this.balance */\n      0xffffffffffffffffffffffffffffffffffffffff\n      and\n      balance\n        /* \"smart-contracts/contracts/Credit.sol\":12156:12187  borrower.transfer(this.balance) */\n      swap1\n      dup2\n      iszero\n      mul\n      swap1\n      mload(0x40)\n      0x0\n      mload(0x40)\n      dup1\n      dup4\n      sub\n      dup2\n      dup6\n      dup9\n      dup9\n      call\n      swap4\n      pop\n      pop\n      pop\n      pop\n      iszero\n      iszero\n      tag_83\n      jumpi\n      0x0\n      dup1\n      revert\n    tag_83:\n        /* \"smart-contracts/contracts/Credit.sol\":11703:12195  function withdraw() public isActive onlyBorrower canWithdraw isNotFraud {\r... */\n      jump\t// out\n        /* \"smart-contracts/contracts/Credit.sol\":8949:11360  function repay() public onlyBorrower canRepay payable {\r... */\n    tag_33:\n        /* \"smart-contracts/contracts/Credit.sol\":9756:9771  uint extraMoney */\n      0x0\n        /* \"smart-contracts/contracts/Credit.sol\":4097:4105  borrower */\n      0x1\n      0x0\n      swap1\n      sload\n      swap1\n      0x100\n      exp\n      swap1\n      div\n      0xffffffffffffffffffffffffffffffffffffffff\n      and\n        /* \"smart-contracts/contracts/Credit.sol\":4083:4105  msg.sender == borrower */\n      0xffffffffffffffffffffffffffffffffffffffff\n      and\n        /* \"smart-contracts/contracts/Credit.sol\":4083:4093  msg.sender */\n      caller\n        /* \"smart-contracts/contracts/Credit.sol\":4083:4105  msg.sender == borrower */\n      0xffffffffffffffffffffffffffffffffffffffff\n      and\n      eq\n        /* \"smart-contracts/contracts/Credit.sol\":4075:4106  require(msg.sender == borrower) */\n      iszero\n      iszero\n      tag_85\n      jumpi\n      0x0\n      dup1\n      revert\n    tag_85:\n        /* \"smart-contracts/contracts/Credit.sol\":4537:4552  State.repayment */\n      0x1\n        /* \"smart-contracts/contracts/Credit.sol\":4528:4552  state == State.repayment */\n      0x5\n      dup2\n      gt\n      iszero\n      tag_87\n      jumpi\n      invalid\n    tag_87:\n        /* \"smart-contracts/contracts/Credit.sol\":4528:4533  state */\n      0xc\n      0x1\n      swap1\n      sload\n      swap1\n      0x100\n      exp\n      swap1\n      div\n      0xff\n      and\n        /* \"smart-contracts/contracts/Credit.sol\":4528:4552  state == State.repayment */\n      0x5\n      dup2\n      gt\n      iszero\n      tag_88\n      jumpi\n      invalid\n    tag_88:\n      eq\n        /* \"smart-contracts/contracts/Credit.sol\":4520:4553  require(state == State.repayment) */\n      iszero\n      iszero\n      tag_89\n      jumpi\n      0x0\n      dup1\n      revert\n    tag_89:\n        /* \"smart-contracts/contracts/Credit.sol\":9119:9120  0 */\n      0x0\n        /* \"smart-contracts/contracts/Credit.sol\":9097:9116  remainingRepayments */\n      sload(0x7)\n        /* \"smart-contracts/contracts/Credit.sol\":9097:9120  remainingRepayments > 0 */\n      gt\n        /* \"smart-contracts/contracts/Credit.sol\":9089:9121  require(remainingRepayments > 0) */\n      iszero\n      iszero\n      tag_91\n      jumpi\n      0x0\n      dup1\n      revert\n    tag_91:\n        /* \"smart-contracts/contracts/Credit.sol\":9232:9252  repaymentInstallment */\n      sload(0x8)\n        /* \"smart-contracts/contracts/Credit.sol\":9219:9228  msg.value */\n      callvalue\n        /* \"smart-contracts/contracts/Credit.sol\":9219:9252  msg.value >= repaymentInstallment */\n      lt\n      iszero\n        /* \"smart-contracts/contracts/Credit.sol\":9211:9253  require(msg.value >= repaymentInstallment) */\n      iszero\n      iszero\n      tag_92\n      jumpi\n      0x0\n      dup1\n      revert\n    tag_92:\n        /* \"smart-contracts/contracts/Credit.sol\":9473:9485  returnAmount */\n      sload(0x3)\n        /* \"smart-contracts/contracts/Credit.sol\":9458:9470  repaidAmount */\n      sload(0x4)\n        /* \"smart-contracts/contracts/Credit.sol\":9458:9485  repaidAmount < returnAmount */\n      lt\n        /* \"smart-contracts/contracts/Credit.sol\":9451:9486  assert(repaidAmount < returnAmount) */\n      iszero\n      iszero\n      tag_93\n      jumpi\n      invalid\n    tag_93:\n        /* \"smart-contracts/contracts/Credit.sol\":9547:9566  remainingRepayments */\n      0x7\n      0x0\n        /* \"smart-contracts/contracts/Credit.sol\":9547:9568  remainingRepayments-- */\n      dup2\n      sload\n      dup1\n      swap3\n      swap2\n      swap1\n      0x1\n      swap1\n      sub\n      swap2\n      swap1\n      pop\n      sstore\n      pop\n        /* \"smart-contracts/contracts/Credit.sol\":9641:9656  block.timestamp */\n      timestamp\n        /* \"smart-contracts/contracts/Credit.sol\":9621:9638  lastRepaymentDate */\n      0xa\n        /* \"smart-contracts/contracts/Credit.sol\":9621:9656  lastRepaymentDate = block.timestamp */\n      dup2\n      swap1\n      sstore\n      pop\n        /* \"smart-contracts/contracts/Credit.sol\":9774:9775  0 */\n      0x0\n        /* \"smart-contracts/contracts/Credit.sol\":9756:9775  uint extraMoney = 0 */\n      swap1\n      pop\n        /* \"smart-contracts/contracts/Credit.sol\":9995:10015  repaymentInstallment */\n      sload(0x8)\n        /* \"smart-contracts/contracts/Credit.sol\":9983:9992  msg.value */\n      callvalue\n        /* \"smart-contracts/contracts/Credit.sol\":9983:10015  msg.value > repaymentInstallment */\n      gt\n        /* \"smart-contracts/contracts/Credit.sol\":9979:10615  if (msg.value > repaymentInstallment) {\r... */\n      iszero\n      tag_94\n      jumpi\n        /* \"smart-contracts/contracts/Credit.sol\":10120:10155  msg.value.sub(repaymentInstallment) */\n      tag_95\n        /* \"smart-contracts/contracts/Credit.sol\":10134:10154  repaymentInstallment */\n      sload(0x8)\n        /* \"smart-contracts/contracts/Credit.sol\":10120:10129  msg.value */\n      callvalue\n        /* \"smart-contracts/contracts/Credit.sol\":10120:10133  msg.value.sub */\n      tag_96\n      swap1\n        /* \"smart-contracts/contracts/Credit.sol\":10120:10155  msg.value.sub(repaymentInstallment) */\n      swap2\n      swap1\n      0xffffffff\n      and\n      jump\t// in\n    tag_95:\n        /* \"smart-contracts/contracts/Credit.sol\":10107:10155  extraMoney = msg.value.sub(repaymentInstallment) */\n      swap1\n      pop\n        /* \"smart-contracts/contracts/Credit.sol\":10244:10269  msg.value.sub(extraMoney) */\n      tag_97\n        /* \"smart-contracts/contracts/Credit.sol\":10258:10268  extraMoney */\n      dup2\n        /* \"smart-contracts/contracts/Credit.sol\":10244:10253  msg.value */\n      callvalue\n        /* \"smart-contracts/contracts/Credit.sol\":10244:10257  msg.value.sub */\n      tag_96\n      swap1\n        /* \"smart-contracts/contracts/Credit.sol\":10244:10269  msg.value.sub(extraMoney) */\n      swap2\n      swap1\n      0xffffffff\n      and\n      jump\t// in\n    tag_97:\n        /* \"smart-contracts/contracts/Credit.sol\":10220:10240  repaymentInstallment */\n      sload(0x8)\n        /* \"smart-contracts/contracts/Credit.sol\":10220:10269  repaymentInstallment == msg.value.sub(extraMoney) */\n      eq\n        /* \"smart-contracts/contracts/Credit.sol\":10213:10270  assert(repaymentInstallment == msg.value.sub(extraMoney)) */\n      iszero\n      iszero\n      tag_98\n      jumpi\n      invalid\n    tag_98:\n        /* \"smart-contracts/contracts/Credit.sol\":10346:10355  msg.value */\n      callvalue\n        /* \"smart-contracts/contracts/Credit.sol\":10332:10342  extraMoney */\n      dup2\n        /* \"smart-contracts/contracts/Credit.sol\":10332:10355  extraMoney <= msg.value */\n      gt\n      iszero\n        /* \"smart-contracts/contracts/Credit.sol\":10325:10356  assert(extraMoney <= msg.value) */\n      iszero\n      iszero\n      tag_99\n      jumpi\n      invalid\n    tag_99:\n        /* \"smart-contracts/contracts/Credit.sol\":10438:10448  msg.sender */\n      caller\n        /* \"smart-contracts/contracts/Credit.sol\":10438:10457  msg.sender.transfer */\n      0xffffffffffffffffffffffffffffffffffffffff\n      and\n        /* \"smart-contracts/contracts/Credit.sol\":10438:10469  msg.sender.transfer(extraMoney) */\n      0x8fc\n        /* \"smart-contracts/contracts/Credit.sol\":10458:10468  extraMoney */\n      dup3\n        /* \"smart-contracts/contracts/Credit.sol\":10438:10469  msg.sender.transfer(extraMoney) */\n      swap1\n      dup2\n      iszero\n      mul\n      swap1\n      mload(0x40)\n      0x0\n      mload(0x40)\n      dup1\n      dup4\n      sub\n      dup2\n      dup6\n      dup9\n      dup9\n      call\n      swap4\n      pop\n      pop\n      pop\n      pop\n      iszero\n      iszero\n      tag_100\n      jumpi\n      0x0\n      dup1\n      revert\n    tag_100:\n        /* \"smart-contracts/contracts/Credit.sol\":10587:10602  block.timestamp */\n      timestamp\n        /* \"smart-contracts/contracts/Credit.sol\":10575:10585  extraMoney */\n      dup2\n        /* \"smart-contracts/contracts/Credit.sol\":10563:10573  msg.sender */\n      caller\n        /* \"smart-contracts/contracts/Credit.sol\":10537:10603  LogBorrowerChangeReturned(msg.sender, extraMoney, block.timestamp) */\n      0xffffffffffffffffffffffffffffffffffffffff\n      and\n      0x5c9874487a2258c6bd6dc39a2cfcf7ea944b50b79d9a7152668779687b2ebd8d\n      mload(0x40)\n      mload(0x40)\n      dup1\n      swap2\n      sub\n      swap1\n      log4\n        /* \"smart-contracts/contracts/Credit.sol\":9979:10615  if (msg.value > repaymentInstallment) {\r... */\n    tag_94:\n        /* \"smart-contracts/contracts/Credit.sol\":10745:10760  block.timestamp */\n      timestamp\n        /* \"smart-contracts/contracts/Credit.sol\":10718:10743  msg.value.sub(extraMoney) */\n      tag_101\n        /* \"smart-contracts/contracts/Credit.sol\":10732:10742  extraMoney */\n      dup3\n        /* \"smart-contracts/contracts/Credit.sol\":10718:10727  msg.value */\n      callvalue\n        /* \"smart-contracts/contracts/Credit.sol\":10718:10731  msg.value.sub */\n      tag_96\n      swap1\n        /* \"smart-contracts/contracts/Credit.sol\":10718:10743  msg.value.sub(extraMoney) */\n      swap2\n      swap1\n      0xffffffff\n      and\n      jump\t// in\n    tag_101:\n        /* \"smart-contracts/contracts/Credit.sol\":10706:10716  msg.sender */\n      caller\n        /* \"smart-contracts/contracts/Credit.sol\":10674:10761  LogBorrowerRepaymentInstallment(msg.sender, msg.value.sub(extraMoney), block.timestamp) */\n      0xffffffffffffffffffffffffffffffffffffffff\n      and\n      0x350a09487d622378c6efbda255f996387696319f803a2e53eee64f7aa70be85a\n      mload(0x40)\n      mload(0x40)\n      dup1\n      swap2\n      sub\n      swap1\n      log4\n        /* \"smart-contracts/contracts/Credit.sol\":10866:10909  repaidAmount.add(msg.value.sub(extraMoney)) */\n      tag_102\n        /* \"smart-contracts/contracts/Credit.sol\":10883:10908  msg.value.sub(extraMoney) */\n      tag_103\n        /* \"smart-contracts/contracts/Credit.sol\":10897:10907  extraMoney */\n      dup3\n        /* \"smart-contracts/contracts/Credit.sol\":10883:10892  msg.value */\n      callvalue\n        /* \"smart-contracts/contracts/Credit.sol\":10883:10896  msg.value.sub */\n      tag_96\n      swap1\n        /* \"smart-contracts/contracts/Credit.sol\":10883:10908  msg.value.sub(extraMoney) */\n      swap2\n      swap1\n      0xffffffff\n      and\n      jump\t// in\n    tag_103:\n        /* \"smart-contracts/contracts/Credit.sol\":10866:10878  repaidAmount */\n      sload(0x4)\n        /* \"smart-contracts/contracts/Credit.sol\":10866:10882  repaidAmount.add */\n      tag_104\n      swap1\n        /* \"smart-contracts/contracts/Credit.sol\":10866:10909  repaidAmount.add(msg.value.sub(extraMoney)) */\n      swap2\n      swap1\n      0xffffffff\n      and\n      jump\t// in\n    tag_102:\n        /* \"smart-contracts/contracts/Credit.sol\":10851:10863  repaidAmount */\n      0x4\n        /* \"smart-contracts/contracts/Credit.sol\":10851:10909  repaidAmount = repaidAmount.add(msg.value.sub(extraMoney)) */\n      dup2\n      swap1\n      sstore\n      pop\n        /* \"smart-contracts/contracts/Credit.sol\":11013:11025  returnAmount */\n      sload(0x3)\n        /* \"smart-contracts/contracts/Credit.sol\":10997:11009  repaidAmount */\n      sload(0x4)\n        /* \"smart-contracts/contracts/Credit.sol\":10997:11025  repaidAmount == returnAmount */\n      eq\n        /* \"smart-contracts/contracts/Credit.sol\":10993:11353  if (repaidAmount == returnAmount) {\r... */\n      iszero\n      tag_105\n      jumpi\n        /* \"smart-contracts/contracts/Credit.sol\":11120:11135  block.timestamp */\n      timestamp\n        /* \"smart-contracts/contracts/Credit.sol\":11108:11118  msg.sender */\n      caller\n        /* \"smart-contracts/contracts/Credit.sol\":11079:11136  LogBorrowerRepaymentFinished(msg.sender, block.timestamp) */\n      0xffffffffffffffffffffffffffffffffffffffff\n      and\n      0x25630de45a38a90cbca3a2eb35a8197e51b56d6d912581711e5e3773fe77cabc\n      mload(0x40)\n      mload(0x40)\n      dup1\n      swap2\n      sub\n      swap1\n      log3\n        /* \"smart-contracts/contracts/Credit.sol\":11224:11245  State.interestReturns */\n      0x2\n        /* \"smart-contracts/contracts/Credit.sol\":11216:11221  state */\n      0xc\n      0x1\n        /* \"smart-contracts/contracts/Credit.sol\":11216:11245  state = State.interestReturns */\n      0x100\n      exp\n      dup2\n      sload\n      dup2\n      0xff\n      mul\n      not\n      and\n      swap1\n      dup4\n      0x5\n      dup2\n      gt\n      iszero\n      tag_106\n      jumpi\n      invalid\n    tag_106:\n      mul\n      or\n      swap1\n      sstore\n      pop\n        /* \"smart-contracts/contracts/Credit.sol\":11325:11340  block.timestamp */\n      timestamp\n        /* \"smart-contracts/contracts/Credit.sol\":11318:11323  state */\n      0xc\n      0x1\n      swap1\n      sload\n      swap1\n      0x100\n      exp\n      swap1\n      div\n      0xff\n      and\n        /* \"smart-contracts/contracts/Credit.sol\":11296:11341  LogCreditStateChanged(state, block.timestamp) */\n      0x5\n      dup2\n      gt\n      iszero\n      tag_107\n      jumpi\n      invalid\n    tag_107:\n      0xaaae373901e745122c2e0925ad006227969c6cd190b7d5ea2fb7fdbd1d955b35\n      mload(0x40)\n      mload(0x40)\n      dup1\n      swap2\n      sub\n      swap1\n      log3\n        /* \"smart-contracts/contracts/Credit.sol\":10993:11353  if (repaidAmount == returnAmount) {\r... */\n    tag_105:\n        /* \"smart-contracts/contracts/Credit.sol\":8949:11360  function repay() public onlyBorrower canRepay payable {\r... */\n      pop\n      jump\t// out\n        /* \"smart-contracts/contracts/Credit.sol\":14589:15202  function revokeVote() public isActive isRevokable onlyLender {\r... */\n    tag_36:\n        /* \"smart-contracts/contracts/Credit.sol\":4007:4011  true */\n      0x1\n        /* \"smart-contracts/contracts/Credit.sol\":3997:4011  active == true */\n      iszero\n      iszero\n        /* \"smart-contracts/contracts/Credit.sol\":3997:4003  active */\n      0xc\n      0x0\n      swap1\n      sload\n      swap1\n      0x100\n      exp\n      swap1\n      div\n      0xff\n      and\n        /* \"smart-contracts/contracts/Credit.sol\":3997:4011  active == true */\n      iszero\n      iszero\n      eq\n        /* \"smart-contracts/contracts/Credit.sol\":3989:4012  require(active == true) */\n      iszero\n      iszero\n      tag_109\n      jumpi\n      0x0\n      dup1\n      revert\n    tag_109:\n        /* \"smart-contracts/contracts/Credit.sol\":4834:4850  revokeTimeNeeded */\n      sload(0x12)\n        /* \"smart-contracts/contracts/Credit.sol\":4815:4830  block.timestamp */\n      timestamp\n        /* \"smart-contracts/contracts/Credit.sol\":4815:4850  block.timestamp >= revokeTimeNeeded */\n      lt\n      iszero\n        /* \"smart-contracts/contracts/Credit.sol\":4807:4851  require(block.timestamp >= revokeTimeNeeded) */\n      iszero\n      iszero\n      tag_111\n      jumpi\n      0x0\n      dup1\n      revert\n    tag_111:\n        /* \"smart-contracts/contracts/Credit.sol\":4879:4895  State.investment */\n      0x0\n        /* \"smart-contracts/contracts/Credit.sol\":4870:4895  state == State.investment */\n      0x5\n      dup2\n      gt\n      iszero\n      tag_112\n      jumpi\n      invalid\n    tag_112:\n        /* \"smart-contracts/contracts/Credit.sol\":4870:4875  state */\n      0xc\n      0x1\n      swap1\n      sload\n      swap1\n      0x100\n      exp\n      swap1\n      div\n      0xff\n      and\n        /* \"smart-contracts/contracts/Credit.sol\":4870:4895  state == State.investment */\n      0x5\n      dup2\n      gt\n      iszero\n      tag_113\n      jumpi\n      invalid\n    tag_113:\n      eq\n        /* \"smart-contracts/contracts/Credit.sol\":4862:4896  require(state == State.investment) */\n      iszero\n      iszero\n      tag_114\n      jumpi\n      0x0\n      dup1\n      revert\n    tag_114:\n        /* \"smart-contracts/contracts/Credit.sol\":4198:4202  true */\n      0x1\n        /* \"smart-contracts/contracts/Credit.sol\":4175:4202  lenders[msg.sender] == true */\n      iszero\n      iszero\n        /* \"smart-contracts/contracts/Credit.sol\":4175:4182  lenders */\n      0xd\n        /* \"smart-contracts/contracts/Credit.sol\":4175:4194  lenders[msg.sender] */\n      0x0\n        /* \"smart-contracts/contracts/Credit.sol\":4183:4193  msg.sender */\n      caller\n        /* \"smart-contracts/contracts/Credit.sol\":4175:4194  lenders[msg.sender] */\n      0xffffffffffffffffffffffffffffffffffffffff\n      and\n      0xffffffffffffffffffffffffffffffffffffffff\n      and\n      dup2\n      mstore\n      0x20\n      add\n      swap1\n      dup2\n      mstore\n      0x20\n      add\n      0x0\n      keccak256\n      0x0\n      swap1\n      sload\n      swap1\n      0x100\n      exp\n      swap1\n      div\n      0xff\n      and\n        /* \"smart-contracts/contracts/Credit.sol\":4175:4202  lenders[msg.sender] == true */\n      iszero\n      iszero\n      eq\n        /* \"smart-contracts/contracts/Credit.sol\":4167:4203  require(lenders[msg.sender] == true) */\n      iszero\n      iszero\n      tag_116\n      jumpi\n      0x0\n      dup1\n      revert\n    tag_116:\n        /* \"smart-contracts/contracts/Credit.sol\":14743:14748  false */\n      0x0\n        /* \"smart-contracts/contracts/Credit.sol\":14715:14748  revokeVoters[msg.sender] == false */\n      iszero\n      iszero\n        /* \"smart-contracts/contracts/Credit.sol\":14715:14727  revokeVoters */\n      0x11\n        /* \"smart-contracts/contracts/Credit.sol\":14715:14739  revokeVoters[msg.sender] */\n      0x0\n        /* \"smart-contracts/contracts/Credit.sol\":14728:14738  msg.sender */\n      caller\n        /* \"smart-contracts/contracts/Credit.sol\":14715:14739  revokeVoters[msg.sender] */\n      0xffffffffffffffffffffffffffffffffffffffff\n      and\n      0xffffffffffffffffffffffffffffffffffffffff\n      and\n      dup2\n      mstore\n      0x20\n      add\n      swap1\n      dup2\n      mstore\n      0x20\n      add\n      0x0\n      keccak256\n      0x0\n      swap1\n      sload\n      swap1\n      0x100\n      exp\n      swap1\n      div\n      0xff\n      and\n        /* \"smart-contracts/contracts/Credit.sol\":14715:14748  revokeVoters[msg.sender] == false */\n      iszero\n      iszero\n      eq\n        /* \"smart-contracts/contracts/Credit.sol\":14707:14749  require(revokeVoters[msg.sender] == false) */\n      iszero\n      iszero\n      tag_118\n      jumpi\n      0x0\n      dup1\n      revert\n    tag_118:\n        /* \"smart-contracts/contracts/Credit.sol\":14801:14812  revokeVotes */\n      0x10\n      0x0\n        /* \"smart-contracts/contracts/Credit.sol\":14801:14814  revokeVotes++ */\n      dup2\n      sload\n      dup1\n      swap3\n      swap2\n      swap1\n      0x1\n      add\n      swap2\n      swap1\n      pop\n      sstore\n      pop\n        /* \"smart-contracts/contracts/Credit.sol\":14894:14898  true */\n      0x1\n        /* \"smart-contracts/contracts/Credit.sol\":14866:14898  revokeVoters[msg.sender] == true */\n      iszero\n      iszero\n        /* \"smart-contracts/contracts/Credit.sol\":14866:14878  revokeVoters */\n      0x11\n        /* \"smart-contracts/contracts/Credit.sol\":14866:14890  revokeVoters[msg.sender] */\n      0x0\n        /* \"smart-contracts/contracts/Credit.sol\":14879:14889  msg.sender */\n      caller\n        /* \"smart-contracts/contracts/Credit.sol\":14866:14890  revokeVoters[msg.sender] */\n      0xffffffffffffffffffffffffffffffffffffffff\n      and\n      0xffffffffffffffffffffffffffffffffffffffff\n      and\n      dup2\n      mstore\n      0x20\n      add\n      swap1\n      dup2\n      mstore\n      0x20\n      add\n      0x0\n      keccak256\n      0x0\n      swap1\n      sload\n      swap1\n      0x100\n      exp\n      swap1\n      pop\n      pop\n        /* \"smart-contracts/contracts/Credit.sol\":14866:14898  revokeVoters[msg.sender] == true */\n      pop\n        /* \"smart-contracts/contracts/Credit.sol\":15010:15025  block.timestamp */\n      timestamp\n        /* \"smart-contracts/contracts/Credit.sol\":14998:15008  msg.sender */\n      caller\n        /* \"smart-contracts/contracts/Credit.sol\":14973:15026  LogLenderVoteForRevoking(msg.sender, block.timestamp) */\n      0xffffffffffffffffffffffffffffffffffffffff\n      and\n      0xd7173ce7e4ce6f6d075259ac1a467ab8290db175a2cee8587a663c006b97e129\n      mload(0x40)\n      mload(0x40)\n      dup1\n      swap2\n      sub\n      swap1\n      log3\n        /* \"smart-contracts/contracts/Credit.sol\":15100:15111  revokeVotes */\n      sload(0x10)\n        /* \"smart-contracts/contracts/Credit.sol\":15084:15096  lendersCount */\n      sload(0xf)\n        /* \"smart-contracts/contracts/Credit.sol\":15084:15111  lendersCount == revokeVotes */\n      eq\n        /* \"smart-contracts/contracts/Credit.sol\":15080:15195  if (lendersCount == revokeVotes) {\r... */\n      iszero\n      tag_119\n      jumpi\n        /* \"smart-contracts/contracts/Credit.sol\":15175:15183  revoke() */\n      tag_120\n        /* \"smart-contracts/contracts/Credit.sol\":15175:15181  revoke */\n      tag_121\n        /* \"smart-contracts/contracts/Credit.sol\":15175:15183  revoke() */\n      jump\t// in\n    tag_120:\n        /* \"smart-contracts/contracts/Credit.sol\":15080:15195  if (lendersCount == revokeVotes) {\r... */\n    tag_119:\n        /* \"smart-contracts/contracts/Credit.sol\":14589:15202  function revokeVote() public isActive isRevokable onlyLender {\r... */\n      jump\t// out\n        /* \"smart-contracts/contracts/Credit.sol\":15514:16468  function refund() public isActive onlyLender isRevoked {\r... */\n    tag_39:\n        /* \"smart-contracts/contracts/Credit.sol\":4007:4011  true */\n      0x1\n        /* \"smart-contracts/contracts/Credit.sol\":3997:4011  active == true */\n      iszero\n      iszero\n        /* \"smart-contracts/contracts/Credit.sol\":3997:4003  active */\n      0xc\n      0x0\n      swap1\n      sload\n      swap1\n      0x100\n      exp\n      swap1\n      div\n      0xff\n      and\n        /* \"smart-contracts/contracts/Credit.sol\":3997:4011  active == true */\n      iszero\n      iszero\n      eq\n        /* \"smart-contracts/contracts/Credit.sol\":3989:4012  require(active == true) */\n      iszero\n      iszero\n      tag_123\n      jumpi\n      0x0\n      dup1\n      revert\n    tag_123:\n        /* \"smart-contracts/contracts/Credit.sol\":4198:4202  true */\n      0x1\n        /* \"smart-contracts/contracts/Credit.sol\":4175:4202  lenders[msg.sender] == true */\n      iszero\n      iszero\n        /* \"smart-contracts/contracts/Credit.sol\":4175:4182  lenders */\n      0xd\n        /* \"smart-contracts/contracts/Credit.sol\":4175:4194  lenders[msg.sender] */\n      0x0\n        /* \"smart-contracts/contracts/Credit.sol\":4183:4193  msg.sender */\n      caller\n        /* \"smart-contracts/contracts/Credit.sol\":4175:4194  lenders[msg.sender] */\n      0xffffffffffffffffffffffffffffffffffffffff\n      and\n      0xffffffffffffffffffffffffffffffffffffffff\n      and\n      dup2\n      mstore\n      0x20\n      add\n      swap1\n      dup2\n      mstore\n      0x20\n      add\n      0x0\n      keccak256\n      0x0\n      swap1\n      sload\n      swap1\n      0x100\n      exp\n      swap1\n      div\n      0xff\n      and\n        /* \"smart-contracts/contracts/Credit.sol\":4175:4202  lenders[msg.sender] == true */\n      iszero\n      iszero\n      eq\n        /* \"smart-contracts/contracts/Credit.sol\":4167:4203  require(lenders[msg.sender] == true) */\n      iszero\n      iszero\n      tag_125\n      jumpi\n      0x0\n      dup1\n      revert\n    tag_125:\n        /* \"smart-contracts/contracts/Credit.sol\":4973:4986  State.revoked */\n      0x4\n        /* \"smart-contracts/contracts/Credit.sol\":4964:4986  state == State.revoked */\n      0x5\n      dup2\n      gt\n      iszero\n      tag_127\n      jumpi\n      invalid\n    tag_127:\n        /* \"smart-contracts/contracts/Credit.sol\":4964:4969  state */\n      0xc\n      0x1\n      swap1\n      sload\n      swap1\n      0x100\n      exp\n      swap1\n      div\n      0xff\n      and\n        /* \"smart-contracts/contracts/Credit.sol\":4964:4986  state == State.revoked */\n      0x5\n      dup2\n      gt\n      iszero\n      tag_128\n      jumpi\n      invalid\n    tag_128:\n      eq\n        /* \"smart-contracts/contracts/Credit.sol\":4956:4987  require(state == State.revoked) */\n      iszero\n      iszero\n      tag_129\n      jumpi\n      0x0\n      dup1\n      revert\n    tag_129:\n        /* \"smart-contracts/contracts/Credit.sol\":15656:15677  lendersInvestedAmount */\n      0xe\n        /* \"smart-contracts/contracts/Credit.sol\":15656:15689  lendersInvestedAmount[msg.sender] */\n      0x0\n        /* \"smart-contracts/contracts/Credit.sol\":15678:15688  msg.sender */\n      caller\n        /* \"smart-contracts/contracts/Credit.sol\":15656:15689  lendersInvestedAmount[msg.sender] */\n      0xffffffffffffffffffffffffffffffffffffffff\n      and\n      0xffffffffffffffffffffffffffffffffffffffff\n      and\n      dup2\n      mstore\n      0x20\n      add\n      swap1\n      dup2\n      mstore\n      0x20\n      add\n      0x0\n      keccak256\n      sload\n        /* \"smart-contracts/contracts/Credit.sol\":15640:15644  this */\n      address\n        /* \"smart-contracts/contracts/Credit.sol\":15640:15652  this.balance */\n      0xffffffffffffffffffffffffffffffffffffffff\n      and\n      balance\n        /* \"smart-contracts/contracts/Credit.sol\":15640:15689  this.balance >= lendersInvestedAmount[msg.sender] */\n      lt\n      iszero\n        /* \"smart-contracts/contracts/Credit.sol\":15633:15690  assert(this.balance >= lendersInvestedAmount[msg.sender]) */\n      iszero\n      iszero\n      tag_131\n      jumpi\n      invalid\n    tag_131:\n        /* \"smart-contracts/contracts/Credit.sol\":15771:15781  msg.sender */\n      caller\n        /* \"smart-contracts/contracts/Credit.sol\":15771:15790  msg.sender.transfer */\n      0xffffffffffffffffffffffffffffffffffffffff\n      and\n        /* \"smart-contracts/contracts/Credit.sol\":15771:15825  msg.sender.transfer(lendersInvestedAmount[msg.sender]) */\n      0x8fc\n        /* \"smart-contracts/contracts/Credit.sol\":15791:15812  lendersInvestedAmount */\n      0xe\n        /* \"smart-contracts/contracts/Credit.sol\":15791:15824  lendersInvestedAmount[msg.sender] */\n      0x0\n        /* \"smart-contracts/contracts/Credit.sol\":15813:15823  msg.sender */\n      caller\n        /* \"smart-contracts/contracts/Credit.sol\":15791:15824  lendersInvestedAmount[msg.sender] */\n      0xffffffffffffffffffffffffffffffffffffffff\n      and\n      0xffffffffffffffffffffffffffffffffffffffff\n      and\n      dup2\n      mstore\n      0x20\n      add\n      swap1\n      dup2\n      mstore\n      0x20\n      add\n      0x0\n      keccak256\n      sload\n        /* \"smart-contracts/contracts/Credit.sol\":15771:15825  msg.sender.transfer(lendersInvestedAmount[msg.sender]) */\n      swap1\n      dup2\n      iszero\n      mul\n      swap1\n      mload(0x40)\n      0x0\n      mload(0x40)\n      dup1\n      dup4\n      sub\n      dup2\n      dup6\n      dup9\n      dup9\n      call\n      swap4\n      pop\n      pop\n      pop\n      pop\n      iszero\n      iszero\n      tag_132\n      jumpi\n      0x0\n      dup1\n      revert\n    tag_132:\n        /* \"smart-contracts/contracts/Credit.sol\":15943:15958  block.timestamp */\n      timestamp\n        /* \"smart-contracts/contracts/Credit.sol\":15908:15929  lendersInvestedAmount */\n      0xe\n        /* \"smart-contracts/contracts/Credit.sol\":15908:15941  lendersInvestedAmount[msg.sender] */\n      0x0\n        /* \"smart-contracts/contracts/Credit.sol\":15930:15940  msg.sender */\n      caller\n        /* \"smart-contracts/contracts/Credit.sol\":15908:15941  lendersInvestedAmount[msg.sender] */\n      0xffffffffffffffffffffffffffffffffffffffff\n      and\n      0xffffffffffffffffffffffffffffffffffffffff\n      and\n      dup2\n      mstore\n      0x20\n      add\n      swap1\n      dup2\n      mstore\n      0x20\n      add\n      0x0\n      keccak256\n      sload\n        /* \"smart-contracts/contracts/Credit.sol\":15896:15906  msg.sender */\n      caller\n        /* \"smart-contracts/contracts/Credit.sol\":15878:15959  LogLenderRefunded(msg.sender, lendersInvestedAmount[msg.sender], block.timestamp) */\n      0xffffffffffffffffffffffffffffffffffffffff\n      and\n      0x71e252e33f19f0223f47f27d00910548d26488b9b55cb5b410b75e273152f8d6\n      mload(0x40)\n      mload(0x40)\n      dup1\n      swap2\n      sub\n      swap1\n      log4\n        /* \"smart-contracts/contracts/Credit.sol\":16046:16047  0 */\n      0x0\n        /* \"smart-contracts/contracts/Credit.sol\":16030:16034  this */\n      address\n        /* \"smart-contracts/contracts/Credit.sol\":16030:16042  this.balance */\n      0xffffffffffffffffffffffffffffffffffffffff\n      and\n      balance\n        /* \"smart-contracts/contracts/Credit.sol\":16030:16047  this.balance == 0 */\n      eq\n        /* \"smart-contracts/contracts/Credit.sol\":16026:16461  if (this.balance == 0) {\r... */\n      iszero\n      tag_133\n      jumpi\n        /* \"smart-contracts/contracts/Credit.sol\":16122:16127  false */\n      0x0\n        /* \"smart-contracts/contracts/Credit.sol\":16113:16119  active */\n      0xc\n      0x0\n        /* \"smart-contracts/contracts/Credit.sol\":16113:16127  active = false */\n      0x100\n      exp\n      dup2\n      sload\n      dup2\n      0xff\n      mul\n      not\n      and\n      swap1\n      dup4\n      iszero\n      iszero\n      mul\n      or\n      swap1\n      sstore\n      pop\n        /* \"smart-contracts/contracts/Credit.sol\":16222:16237  block.timestamp */\n      timestamp\n        /* \"smart-contracts/contracts/Credit.sol\":16214:16220  active */\n      0xc\n      0x0\n      swap1\n      sload\n      swap1\n      0x100\n      exp\n      swap1\n      div\n      0xff\n      and\n        /* \"smart-contracts/contracts/Credit.sol\":16186:16238  LogCreditStateActiveChanged(active, block.timestamp) */\n      iszero\n      iszero\n      0x160914ea27c60aa29a5f3a69d74e6069869de36e38939de1e0a66b921d8623d2\n      mload(0x40)\n      mload(0x40)\n      dup1\n      swap2\n      sub\n      swap1\n      log3\n        /* \"smart-contracts/contracts/Credit.sol\":16340:16353  State.expired */\n      0x3\n        /* \"smart-contracts/contracts/Credit.sol\":16332:16337  state */\n      0xc\n      0x1\n        /* \"smart-contracts/contracts/Credit.sol\":16332:16353  state = State.expired */\n      0x100\n      exp\n      dup2\n      sload\n      dup2\n      0xff\n      mul\n      not\n      and\n      swap1\n      dup4\n      0x5\n      dup2\n      gt\n      iszero\n      tag_134\n      jumpi\n      invalid\n    tag_134:\n      mul\n      or\n      swap1\n      sstore\n      pop\n        /* \"smart-contracts/contracts/Credit.sol\":16433:16448  block.timestamp */\n      timestamp\n        /* \"smart-contracts/contracts/Credit.sol\":16426:16431  state */\n      0xc\n      0x1\n      swap1\n      sload\n      swap1\n      0x100\n      exp\n      swap1\n      div\n      0xff\n      and\n        /* \"smart-contracts/contracts/Credit.sol\":16404:16449  LogCreditStateChanged(state, block.timestamp) */\n      0x5\n      dup2\n      gt\n      iszero\n      tag_135\n      jumpi\n      invalid\n    tag_135:\n      0xaaae373901e745122c2e0925ad006227969c6cd190b7d5ea2fb7fdbd1d955b35\n      mload(0x40)\n      mload(0x40)\n      dup1\n      swap2\n      sub\n      swap1\n      log3\n        /* \"smart-contracts/contracts/Credit.sol\":16026:16461  if (this.balance == 0) {\r... */\n    tag_133:\n        /* \"smart-contracts/contracts/Credit.sol\":15514:16468  function refund() public isActive onlyLender isRevoked {\r... */\n      jump\t// out\n        /* \"smart-contracts/contracts/common/Destructible.sol\":151:225  function destroy() public onlyOwner {\r... */\n    tag_42:\n        /* \"smart-contracts/contracts/common/Ownable.sol\":232:237  owner */\n      0x0\n      dup1\n      swap1\n      sload\n      swap1\n      0x100\n      exp\n      swap1\n      div\n      0xffffffffffffffffffffffffffffffffffffffff\n      and\n        /* \"smart-contracts/contracts/common/Ownable.sol\":218:237  msg.sender == owner */\n      0xffffffffffffffffffffffffffffffffffffffff\n      and\n        /* \"smart-contracts/contracts/common/Ownable.sol\":218:228  msg.sender */\n      caller\n        /* \"smart-contracts/contracts/common/Ownable.sol\":218:237  msg.sender == owner */\n      0xffffffffffffffffffffffffffffffffffffffff\n      and\n      eq\n        /* \"smart-contracts/contracts/common/Ownable.sol\":210:238  require(msg.sender == owner) */\n      iszero\n      iszero\n      tag_137\n      jumpi\n      0x0\n      dup1\n      revert\n    tag_137:\n        /* \"smart-contracts/contracts/common/Destructible.sol\":211:216  owner */\n      0x0\n      dup1\n      swap1\n      sload\n      swap1\n      0x100\n      exp\n      swap1\n      div\n      0xffffffffffffffffffffffffffffffffffffffff\n      and\n        /* \"smart-contracts/contracts/common/Destructible.sol\":198:217  selfdestruct(owner) */\n      0xffffffffffffffffffffffffffffffffffffffff\n      and\n      selfdestruct\n        /* \"smart-contracts/contracts/common/Ownable.sol\":54:74  address public owner */\n    tag_45:\n      0x0\n      dup1\n      swap1\n      sload\n      swap1\n      0x100\n      exp\n      swap1\n      div\n      0xffffffffffffffffffffffffffffffffffffffff\n      and\n      dup2\n      jump\t// out\n        /* \"smart-contracts/contracts/Credit.sol\":16546:17151  function fraudVote() public isActive onlyLender returns (bool) {\r... */\n    tag_48:\n        /* \"smart-contracts/contracts/Credit.sol\":16603:16607  bool */\n      0x0\n        /* \"smart-contracts/contracts/Credit.sol\":4007:4011  true */\n      0x1\n        /* \"smart-contracts/contracts/Credit.sol\":3997:4011  active == true */\n      iszero\n      iszero\n        /* \"smart-contracts/contracts/Credit.sol\":3997:4003  active */\n      0xc\n      0x0\n      swap1\n      sload\n      swap1\n      0x100\n      exp\n      swap1\n      div\n      0xff\n      and\n        /* \"smart-contracts/contracts/Credit.sol\":3997:4011  active == true */\n      iszero\n      iszero\n      eq\n        /* \"smart-contracts/contracts/Credit.sol\":3989:4012  require(active == true) */\n      iszero\n      iszero\n      tag_140\n      jumpi\n      0x0\n      dup1\n      revert\n    tag_140:\n        /* \"smart-contracts/contracts/Credit.sol\":4198:4202  true */\n      0x1\n        /* \"smart-contracts/contracts/Credit.sol\":4175:4202  lenders[msg.sender] == true */\n      iszero\n      iszero\n        /* \"smart-contracts/contracts/Credit.sol\":4175:4182  lenders */\n      0xd\n        /* \"smart-contracts/contracts/Credit.sol\":4175:4194  lenders[msg.sender] */\n      0x0\n        /* \"smart-contracts/contracts/Credit.sol\":4183:4193  msg.sender */\n      caller\n        /* \"smart-contracts/contracts/Credit.sol\":4175:4194  lenders[msg.sender] */\n      0xffffffffffffffffffffffffffffffffffffffff\n      and\n      0xffffffffffffffffffffffffffffffffffffffff\n      and\n      dup2\n      mstore\n      0x20\n      add\n      swap1\n      dup2\n      mstore\n      0x20\n      add\n      0x0\n      keccak256\n      0x0\n      swap1\n      sload\n      swap1\n      0x100\n      exp\n      swap1\n      div\n      0xff\n      and\n        /* \"smart-contracts/contracts/Credit.sol\":4175:4202  lenders[msg.sender] == true */\n      iszero\n      iszero\n      eq\n        /* \"smart-contracts/contracts/Credit.sol\":4167:4203  require(lenders[msg.sender] == true) */\n      iszero\n      iszero\n      tag_142\n      jumpi\n      0x0\n      dup1\n      revert\n    tag_142:\n        /* \"smart-contracts/contracts/Credit.sol\":16698:16703  false */\n      0x0\n        /* \"smart-contracts/contracts/Credit.sol\":16671:16703  fraudVoters[msg.sender] == false */\n      iszero\n      iszero\n        /* \"smart-contracts/contracts/Credit.sol\":16671:16682  fraudVoters */\n      0x14\n        /* \"smart-contracts/contracts/Credit.sol\":16671:16694  fraudVoters[msg.sender] */\n      0x0\n        /* \"smart-contracts/contracts/Credit.sol\":16683:16693  msg.sender */\n      caller\n        /* \"smart-contracts/contracts/Credit.sol\":16671:16694  fraudVoters[msg.sender] */\n      0xffffffffffffffffffffffffffffffffffffffff\n      and\n      0xffffffffffffffffffffffffffffffffffffffff\n      and\n      dup2\n      mstore\n      0x20\n      add\n      swap1\n      dup2\n      mstore\n      0x20\n      add\n      0x0\n      keccak256\n      0x0\n      swap1\n      sload\n      swap1\n      0x100\n      exp\n      swap1\n      div\n      0xff\n      and\n        /* \"smart-contracts/contracts/Credit.sol\":16671:16703  fraudVoters[msg.sender] == false */\n      iszero\n      iszero\n      eq\n        /* \"smart-contracts/contracts/Credit.sol\":16663:16704  require(fraudVoters[msg.sender] == false) */\n      iszero\n      iszero\n      tag_144\n      jumpi\n      0x0\n      dup1\n      revert\n    tag_144:\n        /* \"smart-contracts/contracts/Credit.sol\":16757:16767  fraudVotes */\n      0x13\n      0x0\n        /* \"smart-contracts/contracts/Credit.sol\":16757:16769  fraudVotes++ */\n      dup2\n      sload\n      dup1\n      swap3\n      swap2\n      swap1\n      0x1\n      add\n      swap2\n      swap1\n      pop\n      sstore\n      pop\n        /* \"smart-contracts/contracts/Credit.sol\":16848:16852  true */\n      0x1\n        /* \"smart-contracts/contracts/Credit.sol\":16821:16852  fraudVoters[msg.sender] == true */\n      iszero\n      iszero\n        /* \"smart-contracts/contracts/Credit.sol\":16821:16832  fraudVoters */\n      0x14\n        /* \"smart-contracts/contracts/Credit.sol\":16821:16844  fraudVoters[msg.sender] */\n      0x0\n        /* \"smart-contracts/contracts/Credit.sol\":16833:16843  msg.sender */\n      caller\n        /* \"smart-contracts/contracts/Credit.sol\":16821:16844  fraudVoters[msg.sender] */\n      0xffffffffffffffffffffffffffffffffffffffff\n      and\n      0xffffffffffffffffffffffffffffffffffffffff\n      and\n      dup2\n      mstore\n      0x20\n      add\n      swap1\n      dup2\n      mstore\n      0x20\n      add\n      0x0\n      keccak256\n      0x0\n      swap1\n      sload\n      swap1\n      0x100\n      exp\n      swap1\n      pop\n      pop\n        /* \"smart-contracts/contracts/Credit.sol\":16821:16852  fraudVoters[msg.sender] == true */\n      pop\n        /* \"smart-contracts/contracts/Credit.sol\":16938:16953  block.timestamp */\n      timestamp\n        /* \"smart-contracts/contracts/Credit.sol\":16926:16936  msg.sender */\n      caller\n        /* \"smart-contracts/contracts/Credit.sol\":16904:16954  LogLenderVoteForFraud(msg.sender, block.timestamp) */\n      0xffffffffffffffffffffffffffffffffffffffff\n      and\n      0x1db613004119dde2a638b639fba9960c0e6064ee7c2d06f300e41c78920ed6dc\n      mload(0x40)\n      mload(0x40)\n      dup1\n      swap2\n      sub\n      swap1\n      log3\n        /* \"smart-contracts/contracts/Credit.sol\":17030:17040  fraudVotes */\n      sload(0x13)\n        /* \"smart-contracts/contracts/Credit.sol\":17014:17026  lendersCount */\n      sload(0xf)\n        /* \"smart-contracts/contracts/Credit.sol\":17014:17040  lendersCount == fraudVotes */\n      eq\n        /* \"smart-contracts/contracts/Credit.sol\":17010:17122  if (lendersCount == fraudVotes) {\r... */\n      iszero\n      tag_145\n      jumpi\n        /* \"smart-contracts/contracts/Credit.sol\":17103:17110  fraud() */\n      tag_146\n        /* \"smart-contracts/contracts/Credit.sol\":17103:17108  fraud */\n      tag_147\n        /* \"smart-contracts/contracts/Credit.sol\":17103:17110  fraud() */\n      jump\t// in\n    tag_146:\n        /* \"smart-contracts/contracts/Credit.sol\":17096:17110  return fraud() */\n      swap1\n      pop\n      jump(tag_143)\n        /* \"smart-contracts/contracts/Credit.sol\":17010:17122  if (lendersCount == fraudVotes) {\r... */\n    tag_145:\n        /* \"smart-contracts/contracts/Credit.sol\":17139:17143  true */\n      0x1\n        /* \"smart-contracts/contracts/Credit.sol\":17132:17143  return true */\n      swap1\n      pop\n        /* \"smart-contracts/contracts/Credit.sol\":4214:4215  _ */\n    tag_143:\n        /* \"smart-contracts/contracts/Credit.sol\":16546:17151  function fraudVote() public isActive onlyLender returns (bool) {\r... */\n      swap1\n      jump\t// out\n        /* \"smart-contracts/contracts/Credit.sol\":7124:8840  function invest() public canInvest payable {\r... */\n    tag_50:\n        /* \"smart-contracts/contracts/Credit.sol\":7265:7280  uint extraMoney */\n      0x0\n        /* \"smart-contracts/contracts/Credit.sol\":4444:4460  State.investment */\n      dup1\n        /* \"smart-contracts/contracts/Credit.sol\":4435:4460  state == State.investment */\n      0x5\n      dup2\n      gt\n      iszero\n      tag_149\n      jumpi\n      invalid\n    tag_149:\n        /* \"smart-contracts/contracts/Credit.sol\":4435:4440  state */\n      0xc\n      0x1\n      swap1\n      sload\n      swap1\n      0x100\n      exp\n      swap1\n      div\n      0xff\n      and\n        /* \"smart-contracts/contracts/Credit.sol\":4435:4460  state == State.investment */\n      0x5\n      dup2\n      gt\n      iszero\n      tag_150\n      jumpi\n      invalid\n    tag_150:\n      eq\n        /* \"smart-contracts/contracts/Credit.sol\":4427:4461  require(state == State.investment) */\n      iszero\n      iszero\n      tag_151\n      jumpi\n      0x0\n      dup1\n      revert\n    tag_151:\n        /* \"smart-contracts/contracts/Credit.sol\":7283:7284  0 */\n      0x0\n        /* \"smart-contracts/contracts/Credit.sol\":7265:7284  uint extraMoney = 0 */\n      swap1\n      pop\n        /* \"smart-contracts/contracts/Credit.sol\":7388:7403  requestedAmount */\n      sload(0x2)\n        /* \"smart-contracts/contracts/Credit.sol\":7372:7376  this */\n      address\n        /* \"smart-contracts/contracts/Credit.sol\":7372:7384  this.balance */\n      0xffffffffffffffffffffffffffffffffffffffff\n      and\n      balance\n        /* \"smart-contracts/contracts/Credit.sol\":7372:7403  this.balance >= requestedAmount */\n      lt\n      iszero\n        /* \"smart-contracts/contracts/Credit.sol\":7368:8299  if (this.balance >= requestedAmount) {\r... */\n      iszero\n      tag_153\n      jumpi\n        /* \"smart-contracts/contracts/Credit.sol\":7502:7535  this.balance.sub(requestedAmount) */\n      tag_154\n        /* \"smart-contracts/contracts/Credit.sol\":7519:7534  requestedAmount */\n      sload(0x2)\n        /* \"smart-contracts/contracts/Credit.sol\":7502:7506  this */\n      address\n        /* \"smart-contracts/contracts/Credit.sol\":7502:7514  this.balance */\n      0xffffffffffffffffffffffffffffffffffffffff\n      and\n      balance\n        /* \"smart-contracts/contracts/Credit.sol\":7502:7518  this.balance.sub */\n      tag_96\n      swap1\n        /* \"smart-contracts/contracts/Credit.sol\":7502:7535  this.balance.sub(requestedAmount) */\n      swap2\n      swap1\n      0xffffffff\n      and\n      jump\t// in\n    tag_154:\n        /* \"smart-contracts/contracts/Credit.sol\":7489:7535  extraMoney = this.balance.sub(requestedAmount) */\n      swap1\n      pop\n        /* \"smart-contracts/contracts/Credit.sol\":7618:7646  this.balance.sub(extraMoney) */\n      tag_155\n        /* \"smart-contracts/contracts/Credit.sol\":7635:7645  extraMoney */\n      dup2\n        /* \"smart-contracts/contracts/Credit.sol\":7618:7622  this */\n      address\n        /* \"smart-contracts/contracts/Credit.sol\":7618:7630  this.balance */\n      0xffffffffffffffffffffffffffffffffffffffff\n      and\n      balance\n        /* \"smart-contracts/contracts/Credit.sol\":7618:7634  this.balance.sub */\n      tag_96\n      swap1\n        /* \"smart-contracts/contracts/Credit.sol\":7618:7646  this.balance.sub(extraMoney) */\n      swap2\n      swap1\n      0xffffffff\n      and\n      jump\t// in\n    tag_155:\n        /* \"smart-contracts/contracts/Credit.sol\":7599:7614  requestedAmount */\n      sload(0x2)\n        /* \"smart-contracts/contracts/Credit.sol\":7599:7646  requestedAmount == this.balance.sub(extraMoney) */\n      eq\n        /* \"smart-contracts/contracts/Credit.sol\":7592:7647  assert(requestedAmount == this.balance.sub(extraMoney)) */\n      iszero\n      iszero\n      tag_156\n      jumpi\n      invalid\n    tag_156:\n        /* \"smart-contracts/contracts/Credit.sol\":7742:7751  msg.value */\n      callvalue\n        /* \"smart-contracts/contracts/Credit.sol\":7728:7738  extraMoney */\n      dup2\n        /* \"smart-contracts/contracts/Credit.sol\":7728:7751  extraMoney <= msg.value */\n      gt\n      iszero\n        /* \"smart-contracts/contracts/Credit.sol\":7721:7752  assert(extraMoney <= msg.value) */\n      iszero\n      iszero\n      tag_157\n      jumpi\n      invalid\n    tag_157:\n        /* \"smart-contracts/contracts/Credit.sol\":7846:7847  0 */\n      0x0\n        /* \"smart-contracts/contracts/Credit.sol\":7833:7843  extraMoney */\n      dup2\n        /* \"smart-contracts/contracts/Credit.sol\":7833:7847  extraMoney > 0 */\n      gt\n        /* \"smart-contracts/contracts/Credit.sol\":7829:8099  if (extraMoney > 0) {\r... */\n      iszero\n      tag_158\n      jumpi\n        /* \"smart-contracts/contracts/Credit.sol\":7926:7936  msg.sender */\n      caller\n        /* \"smart-contracts/contracts/Credit.sol\":7926:7945  msg.sender.transfer */\n      0xffffffffffffffffffffffffffffffffffffffff\n      and\n        /* \"smart-contracts/contracts/Credit.sol\":7926:7957  msg.sender.transfer(extraMoney) */\n      0x8fc\n        /* \"smart-contracts/contracts/Credit.sol\":7946:7956  extraMoney */\n      dup3\n        /* \"smart-contracts/contracts/Credit.sol\":7926:7957  msg.sender.transfer(extraMoney) */\n      swap1\n      dup2\n      iszero\n      mul\n      swap1\n      mload(0x40)\n      0x0\n      mload(0x40)\n      dup1\n      dup4\n      sub\n      dup2\n      dup6\n      dup9\n      dup9\n      call\n      swap4\n      pop\n      pop\n      pop\n      pop\n      iszero\n      iszero\n      tag_159\n      jumpi\n      0x0\n      dup1\n      revert\n    tag_159:\n        /* \"smart-contracts/contracts/Credit.sol\":8067:8082  block.timestamp */\n      timestamp\n        /* \"smart-contracts/contracts/Credit.sol\":8055:8065  extraMoney */\n      dup2\n        /* \"smart-contracts/contracts/Credit.sol\":8043:8053  msg.sender */\n      caller\n        /* \"smart-contracts/contracts/Credit.sol\":8019:8083  LogLenderChangeReturned(msg.sender, extraMoney, block.timestamp) */\n      0xffffffffffffffffffffffffffffffffffffffff\n      and\n      0x566803f6e271b911c84f87631bcd310d6a6510bf8882577a96fc76975703e431\n      mload(0x40)\n      mload(0x40)\n      dup1\n      swap2\n      sub\n      swap1\n      log4\n        /* \"smart-contracts/contracts/Credit.sol\":7829:8099  if (extraMoney > 0) {\r... */\n    tag_158:\n        /* \"smart-contracts/contracts/Credit.sol\":8176:8191  State.repayment */\n      0x1\n        /* \"smart-contracts/contracts/Credit.sol\":8168:8173  state */\n      0xc\n      0x1\n        /* \"smart-contracts/contracts/Credit.sol\":8168:8191  state = State.repayment */\n      0x100\n      exp\n      dup2\n      sload\n      dup2\n      0xff\n      mul\n      not\n      and\n      swap1\n      dup4\n      0x5\n      dup2\n      gt\n      iszero\n      tag_160\n      jumpi\n      invalid\n    tag_160:\n      mul\n      or\n      swap1\n      sstore\n      pop\n        /* \"smart-contracts/contracts/Credit.sol\":8271:8286  block.timestamp */\n      timestamp\n        /* \"smart-contracts/contracts/Credit.sol\":8264:8269  state */\n      0xc\n      0x1\n      swap1\n      sload\n      swap1\n      0x100\n      exp\n      swap1\n      div\n      0xff\n      and\n        /* \"smart-contracts/contracts/Credit.sol\":8242:8287  LogCreditStateChanged(state, block.timestamp) */\n      0x5\n      dup2\n      gt\n      iszero\n      tag_161\n      jumpi\n      invalid\n    tag_161:\n      0xaaae373901e745122c2e0925ad006227969c6cd190b7d5ea2fb7fdbd1d955b35\n      mload(0x40)\n      mload(0x40)\n      dup1\n      swap2\n      sub\n      swap1\n      log3\n        /* \"smart-contracts/contracts/Credit.sol\":7368:8299  if (this.balance >= requestedAmount) {\r... */\n    tag_153:\n        /* \"smart-contracts/contracts/Credit.sol\":8460:8464  true */\n      0x1\n        /* \"smart-contracts/contracts/Credit.sol\":8438:8445  lenders */\n      0xd\n        /* \"smart-contracts/contracts/Credit.sol\":8438:8457  lenders[msg.sender] */\n      0x0\n        /* \"smart-contracts/contracts/Credit.sol\":8446:8456  msg.sender */\n      caller\n        /* \"smart-contracts/contracts/Credit.sol\":8438:8457  lenders[msg.sender] */\n      0xffffffffffffffffffffffffffffffffffffffff\n      and\n      0xffffffffffffffffffffffffffffffffffffffff\n      and\n      dup2\n      mstore\n      0x20\n      add\n      swap1\n      dup2\n      mstore\n      0x20\n      add\n      0x0\n      keccak256\n      0x0\n        /* \"smart-contracts/contracts/Credit.sol\":8438:8464  lenders[msg.sender] = true */\n      0x100\n      exp\n      dup2\n      sload\n      dup2\n      0xff\n      mul\n      not\n      and\n      swap1\n      dup4\n      iszero\n      iszero\n      mul\n      or\n      swap1\n      sstore\n      pop\n        /* \"smart-contracts/contracts/Credit.sol\":8518:8530  lendersCount */\n      0xf\n      0x0\n        /* \"smart-contracts/contracts/Credit.sol\":8518:8532  lendersCount++ */\n      dup2\n      sload\n      dup1\n      swap3\n      swap2\n      swap1\n      0x1\n      add\n      swap2\n      swap1\n      pop\n      sstore\n      pop\n        /* \"smart-contracts/contracts/Credit.sol\":8640:8704  lendersInvestedAmount[msg.sender].add(msg.value.sub(extraMoney)) */\n      tag_162\n        /* \"smart-contracts/contracts/Credit.sol\":8678:8703  msg.value.sub(extraMoney) */\n      tag_163\n        /* \"smart-contracts/contracts/Credit.sol\":8692:8702  extraMoney */\n      dup3\n        /* \"smart-contracts/contracts/Credit.sol\":8678:8687  msg.value */\n      callvalue\n        /* \"smart-contracts/contracts/Credit.sol\":8678:8691  msg.value.sub */\n      tag_96\n      swap1\n        /* \"smart-contracts/contracts/Credit.sol\":8678:8703  msg.value.sub(extraMoney) */\n      swap2\n      swap1\n      0xffffffff\n      and\n      jump\t// in\n    tag_163:\n        /* \"smart-contracts/contracts/Credit.sol\":8640:8661  lendersInvestedAmount */\n      0xe\n        /* \"smart-contracts/contracts/Credit.sol\":8640:8673  lendersInvestedAmount[msg.sender] */\n      0x0\n        /* \"smart-contracts/contracts/Credit.sol\":8662:8672  msg.sender */\n      caller\n        /* \"smart-contracts/contracts/Credit.sol\":8640:8673  lendersInvestedAmount[msg.sender] */\n      0xffffffffffffffffffffffffffffffffffffffff\n      and\n      0xffffffffffffffffffffffffffffffffffffffff\n      and\n      dup2\n      mstore\n      0x20\n      add\n      swap1\n      dup2\n      mstore\n      0x20\n      add\n      0x0\n      keccak256\n      sload\n        /* \"smart-contracts/contracts/Credit.sol\":8640:8677  lendersInvestedAmount[msg.sender].add */\n      tag_104\n      swap1\n        /* \"smart-contracts/contracts/Credit.sol\":8640:8704  lendersInvestedAmount[msg.sender].add(msg.value.sub(extraMoney)) */\n      swap2\n      swap1\n      0xffffffff\n      and\n      jump\t// in\n    tag_162:\n        /* \"smart-contracts/contracts/Credit.sol\":8604:8625  lendersInvestedAmount */\n      0xe\n        /* \"smart-contracts/contracts/Credit.sol\":8604:8637  lendersInvestedAmount[msg.sender] */\n      0x0\n        /* \"smart-contracts/contracts/Credit.sol\":8626:8636  msg.sender */\n      caller\n        /* \"smart-contracts/contracts/Credit.sol\":8604:8637  lendersInvestedAmount[msg.sender] */\n      0xffffffffffffffffffffffffffffffffffffffff\n      and\n      0xffffffffffffffffffffffffffffffffffffffff\n      and\n      dup2\n      mstore\n      0x20\n      add\n      swap1\n      dup2\n      mstore\n      0x20\n      add\n      0x0\n      keccak256\n        /* \"smart-contracts/contracts/Credit.sol\":8604:8704  lendersInvestedAmount[msg.sender] = lendersInvestedAmount[msg.sender].add(msg.value.sub(extraMoney)) */\n      dup2\n      swap1\n      sstore\n      pop\n        /* \"smart-contracts/contracts/Credit.sol\":8816:8831  block.timestamp */\n      timestamp\n        /* \"smart-contracts/contracts/Credit.sol\":8789:8814  msg.value.sub(extraMoney) */\n      tag_164\n        /* \"smart-contracts/contracts/Credit.sol\":8803:8813  extraMoney */\n      dup3\n        /* \"smart-contracts/contracts/Credit.sol\":8789:8798  msg.value */\n      callvalue\n        /* \"smart-contracts/contracts/Credit.sol\":8789:8802  msg.value.sub */\n      tag_96\n      swap1\n        /* \"smart-contracts/contracts/Credit.sol\":8789:8814  msg.value.sub(extraMoney) */\n      swap2\n      swap1\n      0xffffffff\n      and\n      jump\t// in\n    tag_164:\n        /* \"smart-contracts/contracts/Credit.sol\":8777:8787  msg.sender */\n      caller\n        /* \"smart-contracts/contracts/Credit.sol\":8757:8832  LogLenderInvestment(msg.sender, msg.value.sub(extraMoney), block.timestamp) */\n      0xffffffffffffffffffffffffffffffffffffffff\n      and\n      0x1b0969ce7f5b05c5e0969329a05cdbd7e2e2f6cee33ba26fd6e6bbcff82312cd\n      mload(0x40)\n      mload(0x40)\n      dup1\n      swap2\n      sub\n      swap1\n      log4\n        /* \"smart-contracts/contracts/Credit.sol\":7124:8840  function invest() public canInvest payable {\r... */\n      pop\n      jump\t// out\n        /* \"smart-contracts/contracts/Credit.sol\":12530:13748  function requestInterest() public isActive onlyLender canAskForInterest {\r... */\n    tag_53:\n        /* \"smart-contracts/contracts/Credit.sol\":12821:12844  uint lenderReturnAmount */\n      0x0\n        /* \"smart-contracts/contracts/Credit.sol\":4007:4011  true */\n      0x1\n        /* \"smart-contracts/contracts/Credit.sol\":3997:4011  active == true */\n      iszero\n      iszero\n        /* \"smart-contracts/contracts/Credit.sol\":3997:4003  active */\n      0xc\n      0x0\n      swap1\n      sload\n      swap1\n      0x100\n      exp\n      swap1\n      div\n      0xff\n      and\n        /* \"smart-contracts/contracts/Credit.sol\":3997:4011  active == true */\n      iszero\n      iszero\n      eq\n        /* \"smart-contracts/contracts/Credit.sol\":3989:4012  require(active == true) */\n      iszero\n      iszero\n      tag_166\n      jumpi\n      0x0\n      dup1\n      revert\n    tag_166:\n        /* \"smart-contracts/contracts/Credit.sol\":4198:4202  true */\n      0x1\n        /* \"smart-contracts/contracts/Credit.sol\":4175:4202  lenders[msg.sender] == true */\n      iszero\n      iszero\n        /* \"smart-contracts/contracts/Credit.sol\":4175:4182  lenders */\n      0xd\n        /* \"smart-contracts/contracts/Credit.sol\":4175:4194  lenders[msg.sender] */\n      0x0\n        /* \"smart-contracts/contracts/Credit.sol\":4183:4193  msg.sender */\n      caller\n        /* \"smart-contracts/contracts/Credit.sol\":4175:4194  lenders[msg.sender] */\n      0xffffffffffffffffffffffffffffffffffffffff\n      and\n      0xffffffffffffffffffffffffffffffffffffffff\n      and\n      dup2\n      mstore\n      0x20\n      add\n      swap1\n      dup2\n      mstore\n      0x20\n      add\n      0x0\n      keccak256\n      0x0\n      swap1\n      sload\n      swap1\n      0x100\n      exp\n      swap1\n      div\n      0xff\n      and\n        /* \"smart-contracts/contracts/Credit.sol\":4175:4202  lenders[msg.sender] == true */\n      iszero\n      iszero\n      eq\n        /* \"smart-contracts/contracts/Credit.sol\":4167:4203  require(lenders[msg.sender] == true) */\n      iszero\n      iszero\n      tag_168\n      jumpi\n      0x0\n      dup1\n      revert\n    tag_168:\n        /* \"smart-contracts/contracts/Credit.sol\":4288:4309  State.interestReturns */\n      0x2\n        /* \"smart-contracts/contracts/Credit.sol\":4279:4309  state == State.interestReturns */\n      0x5\n      dup2\n      gt\n      iszero\n      tag_170\n      jumpi\n      invalid\n    tag_170:\n        /* \"smart-contracts/contracts/Credit.sol\":4279:4284  state */\n      0xc\n      0x1\n      swap1\n      sload\n      swap1\n      0x100\n      exp\n      swap1\n      div\n      0xff\n      and\n        /* \"smart-contracts/contracts/Credit.sol\":4279:4309  state == State.interestReturns */\n      0x5\n      dup2\n      gt\n      iszero\n      tag_171\n      jumpi\n      invalid\n    tag_171:\n      eq\n        /* \"smart-contracts/contracts/Credit.sol\":4271:4310  require(state == State.interestReturns) */\n      iszero\n      iszero\n      tag_172\n      jumpi\n      0x0\n      dup1\n      revert\n    tag_172:\n        /* \"smart-contracts/contracts/Credit.sol\":4365:4366  0 */\n      0x0\n        /* \"smart-contracts/contracts/Credit.sol\":4329:4350  lendersInvestedAmount */\n      0xe\n        /* \"smart-contracts/contracts/Credit.sol\":4329:4362  lendersInvestedAmount[msg.sender] */\n      0x0\n        /* \"smart-contracts/contracts/Credit.sol\":4351:4361  msg.sender */\n      caller\n        /* \"smart-contracts/contracts/Credit.sol\":4329:4362  lendersInvestedAmount[msg.sender] */\n      0xffffffffffffffffffffffffffffffffffffffff\n      and\n      0xffffffffffffffffffffffffffffffffffffffff\n      and\n      dup2\n      mstore\n      0x20\n      add\n      swap1\n      dup2\n      mstore\n      0x20\n      add\n      0x0\n      keccak256\n      sload\n        /* \"smart-contracts/contracts/Credit.sol\":4329:4366  lendersInvestedAmount[msg.sender] > 0 */\n      gt\n        /* \"smart-contracts/contracts/Credit.sol\":4321:4367  require(lendersInvestedAmount[msg.sender] > 0) */\n      iszero\n      iszero\n      tag_173\n      jumpi\n      0x0\n      dup1\n      revert\n    tag_173:\n        /* \"smart-contracts/contracts/Credit.sol\":12862:12874  lendersCount */\n      sload(0xf)\n        /* \"smart-contracts/contracts/Credit.sol\":12847:12859  returnAmount */\n      sload(0x3)\n        /* \"smart-contracts/contracts/Credit.sol\":12847:12874  returnAmount / lendersCount */\n      dup2\n      iszero\n      iszero\n      tag_175\n      jumpi\n      invalid\n    tag_175:\n      div\n        /* \"smart-contracts/contracts/Credit.sol\":12821:12874  uint lenderReturnAmount = returnAmount / lendersCount */\n      swap1\n      pop\n        /* \"smart-contracts/contracts/Credit.sol\":12980:12998  lenderReturnAmount */\n      dup1\n        /* \"smart-contracts/contracts/Credit.sol\":12964:12968  this */\n      address\n        /* \"smart-contracts/contracts/Credit.sol\":12964:12976  this.balance */\n      0xffffffffffffffffffffffffffffffffffffffff\n      and\n      balance\n        /* \"smart-contracts/contracts/Credit.sol\":12964:12998  this.balance >= lenderReturnAmount */\n      lt\n      iszero\n        /* \"smart-contracts/contracts/Credit.sol\":12957:12999  assert(this.balance >= lenderReturnAmount) */\n      iszero\n      iszero\n      tag_176\n      jumpi\n      invalid\n    tag_176:\n        /* \"smart-contracts/contracts/Credit.sol\":13080:13090  msg.sender */\n      caller\n        /* \"smart-contracts/contracts/Credit.sol\":13080:13099  msg.sender.transfer */\n      0xffffffffffffffffffffffffffffffffffffffff\n      and\n        /* \"smart-contracts/contracts/Credit.sol\":13080:13119  msg.sender.transfer(lenderReturnAmount) */\n      0x8fc\n        /* \"smart-contracts/contracts/Credit.sol\":13100:13118  lenderReturnAmount */\n      dup3\n        /* \"smart-contracts/contracts/Credit.sol\":13080:13119  msg.sender.transfer(lenderReturnAmount) */\n      swap1\n      dup2\n      iszero\n      mul\n      swap1\n      mload(0x40)\n      0x0\n      mload(0x40)\n      dup1\n      dup4\n      sub\n      dup2\n      dup6\n      dup9\n      dup9\n      call\n      swap4\n      pop\n      pop\n      pop\n      pop\n      iszero\n      iszero\n      tag_177\n      jumpi\n      0x0\n      dup1\n      revert\n    tag_177:\n        /* \"smart-contracts/contracts/Credit.sol\":13224:13239  block.timestamp */\n      timestamp\n        /* \"smart-contracts/contracts/Credit.sol\":13204:13222  lenderReturnAmount */\n      dup2\n        /* \"smart-contracts/contracts/Credit.sol\":13192:13202  msg.sender */\n      caller\n        /* \"smart-contracts/contracts/Credit.sol\":13172:13240  LogLenderWithdrawal(msg.sender, lenderReturnAmount, block.timestamp) */\n      0xffffffffffffffffffffffffffffffffffffffff\n      and\n      0x52f6685df2f773f854b17db1d82e2352e222010daaf8175761f02ef8782c403\n      mload(0x40)\n      mload(0x40)\n      dup1\n      swap2\n      sub\n      swap1\n      log4\n        /* \"smart-contracts/contracts/Credit.sol\":13327:13328  0 */\n      0x0\n        /* \"smart-contracts/contracts/Credit.sol\":13311:13315  this */\n      address\n        /* \"smart-contracts/contracts/Credit.sol\":13311:13323  this.balance */\n      0xffffffffffffffffffffffffffffffffffffffff\n      and\n      balance\n        /* \"smart-contracts/contracts/Credit.sol\":13311:13328  this.balance == 0 */\n      eq\n        /* \"smart-contracts/contracts/Credit.sol\":13307:13741  if (this.balance == 0) {\r... */\n      iszero\n      tag_178\n      jumpi\n        /* \"smart-contracts/contracts/Credit.sol\":13403:13408  false */\n      0x0\n        /* \"smart-contracts/contracts/Credit.sol\":13394:13400  active */\n      0xc\n      0x0\n        /* \"smart-contracts/contracts/Credit.sol\":13394:13408  active = false */\n      0x100\n      exp\n      dup2\n      sload\n      dup2\n      0xff\n      mul\n      not\n      and\n      swap1\n      dup4\n      iszero\n      iszero\n      mul\n      or\n      swap1\n      sstore\n      pop\n        /* \"smart-contracts/contracts/Credit.sol\":13502:13517  block.timestamp */\n      timestamp\n        /* \"smart-contracts/contracts/Credit.sol\":13494:13500  active */\n      0xc\n      0x0\n      swap1\n      sload\n      swap1\n      0x100\n      exp\n      swap1\n      div\n      0xff\n      and\n        /* \"smart-contracts/contracts/Credit.sol\":13466:13518  LogCreditStateActiveChanged(active, block.timestamp) */\n      iszero\n      iszero\n      0x160914ea27c60aa29a5f3a69d74e6069869de36e38939de1e0a66b921d8623d2\n      mload(0x40)\n      mload(0x40)\n      dup1\n      swap2\n      sub\n      swap1\n      log3\n        /* \"smart-contracts/contracts/Credit.sol\":13620:13633  State.expired */\n      0x3\n        /* \"smart-contracts/contracts/Credit.sol\":13612:13617  state */\n      0xc\n      0x1\n        /* \"smart-contracts/contracts/Credit.sol\":13612:13633  state = State.expired */\n      0x100\n      exp\n      dup2\n      sload\n      dup2\n      0xff\n      mul\n      not\n      and\n      swap1\n      dup4\n      0x5\n      dup2\n      gt\n      iszero\n      tag_179\n      jumpi\n      invalid\n    tag_179:\n      mul\n      or\n      swap1\n      sstore\n      pop\n        /* \"smart-contracts/contracts/Credit.sol\":13713:13728  block.timestamp */\n      timestamp\n        /* \"smart-contracts/contracts/Credit.sol\":13706:13711  state */\n      0xc\n      0x1\n      swap1\n      sload\n      swap1\n      0x100\n      exp\n      swap1\n      div\n      0xff\n      and\n        /* \"smart-contracts/contracts/Credit.sol\":13684:13729  LogCreditStateChanged(state, block.timestamp) */\n      0x5\n      dup2\n      gt\n      iszero\n      tag_180\n      jumpi\n      invalid\n    tag_180:\n      0xaaae373901e745122c2e0925ad006227969c6cd190b7d5ea2fb7fdbd1d955b35\n      mload(0x40)\n      mload(0x40)\n      dup1\n      swap2\n      sub\n      swap1\n      log3\n        /* \"smart-contracts/contracts/Credit.sol\":13307:13741  if (this.balance == 0) {\r... */\n    tag_178:\n        /* \"smart-contracts/contracts/Credit.sol\":12530:13748  function requestInterest() public isActive onlyLender canAskForInterest {\r... */\n      pop\n      jump\t// out\n        /* \"smart-contracts/contracts/Credit.sol\":14111:14523  function getCreditInfo() public view returns (address, bytes32, uint, uint, uint, uint, uint, uint, State, bool, uint) {\r... */\n    tag_56:\n        /* \"smart-contracts/contracts/Credit.sol\":14157:14164  address */\n      0x0\n        /* \"smart-contracts/contracts/Credit.sol\":14166:14173  bytes32 */\n      dup1\n        /* \"smart-contracts/contracts/Credit.sol\":14175:14179  uint */\n      0x0\n        /* \"smart-contracts/contracts/Credit.sol\":14181:14185  uint */\n      dup1\n        /* \"smart-contracts/contracts/Credit.sol\":14187:14191  uint */\n      0x0\n        /* \"smart-contracts/contracts/Credit.sol\":14193:14197  uint */\n      dup1\n        /* \"smart-contracts/contracts/Credit.sol\":14199:14203  uint */\n      0x0\n        /* \"smart-contracts/contracts/Credit.sol\":14205:14209  uint */\n      dup1\n        /* \"smart-contracts/contracts/Credit.sol\":14211:14216  State */\n      0x0\n        /* \"smart-contracts/contracts/Credit.sol\":14218:14222  bool */\n      dup1\n        /* \"smart-contracts/contracts/Credit.sol\":14224:14228  uint */\n      0x0\n        /* \"smart-contracts/contracts/Credit.sol\":14259:14267  borrower */\n      0x1\n      0x0\n      swap1\n      sload\n      swap1\n      0x100\n      exp\n      swap1\n      div\n      0xffffffffffffffffffffffffffffffffffffffff\n      and\n        /* \"smart-contracts/contracts/Credit.sol\":14278:14289  description */\n      sload(0xb)\n        /* \"smart-contracts/contracts/Credit.sol\":14300:14315  requestedAmount */\n      sload(0x2)\n        /* \"smart-contracts/contracts/Credit.sol\":14326:14345  requestedRepayments */\n      sload(0x6)\n        /* \"smart-contracts/contracts/Credit.sol\":14356:14376  repaymentInstallment */\n      sload(0x8)\n        /* \"smart-contracts/contracts/Credit.sol\":14387:14406  remainingRepayments */\n      sload(0x7)\n        /* \"smart-contracts/contracts/Credit.sol\":14417:14425  interest */\n      sload(0x5)\n        /* \"smart-contracts/contracts/Credit.sol\":14436:14448  returnAmount */\n      sload(0x3)\n        /* \"smart-contracts/contracts/Credit.sol\":14459:14464  state */\n      0xc\n      0x1\n      swap1\n      sload\n      swap1\n      0x100\n      exp\n      swap1\n      div\n      0xff\n      and\n        /* \"smart-contracts/contracts/Credit.sol\":14475:14481  active */\n      0xc\n      0x0\n      swap1\n      sload\n      swap1\n      0x100\n      exp\n      swap1\n      div\n      0xff\n      and\n        /* \"smart-contracts/contracts/Credit.sol\":14492:14496  this */\n      address\n        /* \"smart-contracts/contracts/Credit.sol\":14492:14504  this.balance */\n      0xffffffffffffffffffffffffffffffffffffffff\n      and\n      balance\n        /* \"smart-contracts/contracts/Credit.sol\":14241:14515  return (\r... */\n      swap11\n      pop\n      swap11\n      pop\n      swap11\n      pop\n      swap11\n      pop\n      swap11\n      pop\n      swap11\n      pop\n      swap11\n      pop\n      swap11\n      pop\n      swap11\n      pop\n      swap11\n      pop\n      swap11\n      pop\n        /* \"smart-contracts/contracts/Credit.sol\":14111:14523  function getCreditInfo() public view returns (address, bytes32, uint, uint, uint, uint, uint, uint, State, bool, uint) {\r... */\n      swap1\n      swap2\n      swap3\n      swap4\n      swap5\n      swap6\n      swap7\n      swap8\n      swap9\n      swap10\n      swap11\n      jump\t// out\n        /* \"smart-contracts/contracts/common/Destructible.sol\":237:341  function destroyAndSend(address _recipient) public onlyOwner {\r... */\n    tag_60:\n        /* \"smart-contracts/contracts/common/Ownable.sol\":232:237  owner */\n      0x0\n      dup1\n      swap1\n      sload\n      swap1\n      0x100\n      exp\n      swap1\n      div\n      0xffffffffffffffffffffffffffffffffffffffff\n      and\n        /* \"smart-contracts/contracts/common/Ownable.sol\":218:237  msg.sender == owner */\n      0xffffffffffffffffffffffffffffffffffffffff\n      and\n        /* \"smart-contracts/contracts/common/Ownable.sol\":218:228  msg.sender */\n      caller\n        /* \"smart-contracts/contracts/common/Ownable.sol\":218:237  msg.sender == owner */\n      0xffffffffffffffffffffffffffffffffffffffff\n      and\n      eq\n        /* \"smart-contracts/contracts/common/Ownable.sol\":210:238  require(msg.sender == owner) */\n      iszero\n      iszero\n      tag_183\n      jumpi\n      0x0\n      dup1\n      revert\n    tag_183:\n        /* \"smart-contracts/contracts/common/Destructible.sol\":322:332  _recipient */\n      dup1\n        /* \"smart-contracts/contracts/common/Destructible.sol\":309:333  selfdestruct(_recipient) */\n      0xffffffffffffffffffffffffffffffffffffffff\n      and\n      selfdestruct\n        /* \"smart-contracts/contracts/common/SafeMath.sol\":481:604  function sub(uint256 a, uint256 b) internal pure returns (uint256) {\r... */\n    tag_96:\n        /* \"smart-contracts/contracts/common/SafeMath.sol\":539:546  uint256 */\n      0x0\n        /* \"smart-contracts/contracts/common/SafeMath.sol\":571:572  a */\n      dup3\n        /* \"smart-contracts/contracts/common/SafeMath.sol\":566:567  b */\n      dup3\n        /* \"smart-contracts/contracts/common/SafeMath.sol\":566:572  b <= a */\n      gt\n      iszero\n        /* \"smart-contracts/contracts/common/SafeMath.sol\":559:573  assert(b <= a) */\n      iszero\n      iszero\n      tag_186\n      jumpi\n      invalid\n    tag_186:\n        /* \"smart-contracts/contracts/common/SafeMath.sol\":595:596  b */\n      dup2\n        /* \"smart-contracts/contracts/common/SafeMath.sol\":591:592  a */\n      dup4\n        /* \"smart-contracts/contracts/common/SafeMath.sol\":591:596  a - b */\n      sub\n        /* \"smart-contracts/contracts/common/SafeMath.sol\":584:596  return a - b */\n      swap1\n      pop\n        /* \"smart-contracts/contracts/common/SafeMath.sol\":481:604  function sub(uint256 a, uint256 b) internal pure returns (uint256) {\r... */\n      swap3\n      swap2\n      pop\n      pop\n      jump\t// out\n        /* \"smart-contracts/contracts/common/SafeMath.sol\":622:769  function add(uint256 a, uint256 b) internal pure returns (uint256) {\r... */\n    tag_104:\n        /* \"smart-contracts/contracts/common/SafeMath.sol\":680:687  uint256 */\n      0x0\n        /* \"smart-contracts/contracts/common/SafeMath.sol\":700:709  uint256 c */\n      dup1\n        /* \"smart-contracts/contracts/common/SafeMath.sol\":716:717  b */\n      dup3\n        /* \"smart-contracts/contracts/common/SafeMath.sol\":712:713  a */\n      dup5\n        /* \"smart-contracts/contracts/common/SafeMath.sol\":712:717  a + b */\n      add\n        /* \"smart-contracts/contracts/common/SafeMath.sol\":700:717  uint256 c = a + b */\n      swap1\n      pop\n        /* \"smart-contracts/contracts/common/SafeMath.sol\":740:741  a */\n      dup4\n        /* \"smart-contracts/contracts/common/SafeMath.sol\":735:736  c */\n      dup2\n        /* \"smart-contracts/contracts/common/SafeMath.sol\":735:741  c >= a */\n      lt\n      iszero\n        /* \"smart-contracts/contracts/common/SafeMath.sol\":728:742  assert(c >= a) */\n      iszero\n      iszero\n      tag_188\n      jumpi\n      invalid\n    tag_188:\n        /* \"smart-contracts/contracts/common/SafeMath.sol\":760:761  c */\n      dup1\n        /* \"smart-contracts/contracts/common/SafeMath.sol\":753:761  return c */\n      swap2\n      pop\n        /* \"smart-contracts/contracts/common/SafeMath.sol\":622:769  function add(uint256 a, uint256 b) internal pure returns (uint256) {\r... */\n      pop\n      swap3\n      swap2\n      pop\n      pop\n      jump\t// out\n        /* \"smart-contracts/contracts/Credit.sol\":15260:15458  function revoke() internal {\r... */\n    tag_121:\n        /* \"smart-contracts/contracts/Credit.sol\":15347:15360  State.revoked */\n      0x4\n        /* \"smart-contracts/contracts/Credit.sol\":15339:15344  state */\n      0xc\n      0x1\n        /* \"smart-contracts/contracts/Credit.sol\":15339:15360  state = State.revoked */\n      0x100\n      exp\n      dup2\n      sload\n      dup2\n      0xff\n      mul\n      not\n      and\n      swap1\n      dup4\n      0x5\n      dup2\n      gt\n      iszero\n      tag_190\n      jumpi\n      invalid\n    tag_190:\n      mul\n      or\n      swap1\n      sstore\n      pop\n        /* \"smart-contracts/contracts/Credit.sol\":15434:15449  block.timestamp */\n      timestamp\n        /* \"smart-contracts/contracts/Credit.sol\":15427:15432  state */\n      0xc\n      0x1\n      swap1\n      sload\n      swap1\n      0x100\n      exp\n      swap1\n      div\n      0xff\n      and\n        /* \"smart-contracts/contracts/Credit.sol\":15405:15450  LogCreditStateChanged(state, block.timestamp) */\n      0x5\n      dup2\n      gt\n      iszero\n      tag_191\n      jumpi\n      invalid\n    tag_191:\n      0xaaae373901e745122c2e0925ad006227969c6cd190b7d5ea2fb7fdbd1d955b35\n      mload(0x40)\n      mload(0x40)\n      dup1\n      swap2\n      sub\n      swap1\n      log3\n        /* \"smart-contracts/contracts/Credit.sol\":15260:15458  function revoke() internal {\r... */\n      jump\t// out\n        /* \"smart-contracts/contracts/Credit.sol\":17286:17663  function fraud() internal returns (bool) {\r... */\n    tag_147:\n        /* \"smart-contracts/contracts/Credit.sol\":17321:17325  bool */\n      0x0\n        /* \"smart-contracts/contracts/Credit.sol\":17412:17434  bool fraudStatusResult */\n      dup1\n        /* \"smart-contracts/contracts/Credit.sol\":17437:17442  owner */\n      0x0\n      dup1\n      swap1\n      sload\n      swap1\n      0x100\n      exp\n      swap1\n      div\n      0xffffffffffffffffffffffffffffffffffffffff\n      and\n        /* \"smart-contracts/contracts/Credit.sol\":17437:17447  owner.call */\n      0xffffffffffffffffffffffffffffffffffffffff\n      and\n        /* \"smart-contracts/contracts/Credit.sol\":17455:17491  keccak256(\"setFraudStatus(address)\") */\n      mload(0x40)\n      dup1\n      dup1\n      0x7365744672617564537461747573286164647265737329000000000000000000\n      dup2\n      mstore\n      pop\n      0x17\n      add\n      swap1\n      pop\n      mload(0x40)\n      dup1\n      swap2\n      sub\n      swap1\n      keccak256\n        /* \"smart-contracts/contracts/Credit.sol\":17437:17503  owner.call(bytes4(keccak256(\"setFraudStatus(address)\")), borrower) */\n      0x100000000000000000000000000000000000000000000000000000000\n      swap1\n      div\n        /* \"smart-contracts/contracts/Credit.sol\":17494:17502  borrower */\n      0x1\n      0x0\n      swap1\n      sload\n      swap1\n      0x100\n      exp\n      swap1\n      div\n      0xffffffffffffffffffffffffffffffffffffffff\n      and\n        /* \"smart-contracts/contracts/Credit.sol\":17437:17503  owner.call(bytes4(keccak256(\"setFraudStatus(address)\")), borrower) */\n      mload(0x40)\n      dup3\n      0xffffffff\n      and\n      0x100000000000000000000000000000000000000000000000000000000\n      mul\n      dup2\n      mstore\n      0x4\n      add\n      dup1\n      dup3\n      0xffffffffffffffffffffffffffffffffffffffff\n      and\n      0xffffffffffffffffffffffffffffffffffffffff\n      and\n      dup2\n      mstore\n      0x20\n      add\n      swap2\n      pop\n      pop\n      0x0\n      mload(0x40)\n      dup1\n      dup4\n      sub\n      dup2\n      0x0\n      dup8\n      sub(gas, 0x646e)\n      call\n      swap3\n      pop\n      pop\n      pop\n        /* \"smart-contracts/contracts/Credit.sol\":17412:17503  bool fraudStatusResult = owner.call(bytes4(keccak256(\"setFraudStatus(address)\")), borrower) */\n      swap1\n      pop\n        /* \"smart-contracts/contracts/Credit.sol\":17602:17617  block.timestamp */\n      timestamp\n        /* \"smart-contracts/contracts/Credit.sol\":17583:17600  fraudStatusResult */\n      dup2\n        /* \"smart-contracts/contracts/Credit.sol\":17554:17618  LogBorrowerIsFraud(borrower, fraudStatusResult, block.timestamp) */\n      iszero\n      iszero\n        /* \"smart-contracts/contracts/Credit.sol\":17573:17581  borrower */\n      0x1\n      0x0\n      swap1\n      sload\n      swap1\n      0x100\n      exp\n      swap1\n      div\n      0xffffffffffffffffffffffffffffffffffffffff\n      and\n        /* \"smart-contracts/contracts/Credit.sol\":17554:17618  LogBorrowerIsFraud(borrower, fraudStatusResult, block.timestamp) */\n      0xffffffffffffffffffffffffffffffffffffffff\n      and\n      0xc1bb1d1e99d1e8d2705ba85717226a3fd9a86e4de2284b00dfe6f33538d5249f\n      mload(0x40)\n      mload(0x40)\n      dup1\n      swap2\n      sub\n      swap1\n      log4\n        /* \"smart-contracts/contracts/Credit.sol\":17638:17655  fraudStatusResult */\n      dup1\n        /* \"smart-contracts/contracts/Credit.sol\":17631:17655  return fraudStatusResult */\n      swap2\n      pop\n        /* \"smart-contracts/contracts/Credit.sol\":17286:17663  function fraud() internal returns (bool) {\r... */\n      pop\n      swap1\n      jump\t// out\n        /* \"smart-contracts/contracts/common/SafeMath.sol\":270:463  function div(uint256 a, uint256 b) internal pure returns (uint256) {\r... */\n    tag_193:\n        /* \"smart-contracts/contracts/common/SafeMath.sol\":328:335  uint256 */\n      0x0\n        /* \"smart-contracts/contracts/common/SafeMath.sol\":419:428  uint256 c */\n      dup1\n        /* \"smart-contracts/contracts/common/SafeMath.sol\":435:436  b */\n      dup3\n        /* \"smart-contracts/contracts/common/SafeMath.sol\":431:432  a */\n      dup5\n        /* \"smart-contracts/contracts/common/SafeMath.sol\":431:436  a / b */\n      dup2\n      iszero\n      iszero\n      tag_195\n      jumpi\n      invalid\n    tag_195:\n      div\n        /* \"smart-contracts/contracts/common/SafeMath.sol\":419:436  uint256 c = a / b */\n      swap1\n      pop\n        /* \"smart-contracts/contracts/common/SafeMath.sol\":454:455  c */\n      dup1\n        /* \"smart-contracts/contracts/common/SafeMath.sol\":447:455  return c */\n      swap2\n      pop\n        /* \"smart-contracts/contracts/common/SafeMath.sol\":270:463  function div(uint256 a, uint256 b) internal pure returns (uint256) {\r... */\n      pop\n      swap3\n      swap2\n      pop\n      pop\n      jump\t// out\n\n    auxdata: 0xa165627a7a72305820c6bdffaf857a7cbc472e17a61185316c899f2d1b52afcf33283be95188b4bba10029\n}\n",
				"bytecode": {
					"linkReferences": {},
					"object": "60606040526001600c60006101000a81548160ff0219169083151502179055506000600f55600060105560014201601255600060135534156200004157600080fd5b60405160808062001d6f8339810160405280805190602001909190805190602001909190805190602001909190805190602001909190505032600160006101000a81548173ffffffffffffffffffffffffffffffffffffffff021916908373ffffffffffffffffffffffffffffffffffffffff16021790555081600581905550836002819055508260068190555082600781905550620000fd600554600254620001b264010000000002620018ff179091906401000000009004565b6003819055506200012a600654600354620001d16401000000000262001b2b179091906401000000009004565b60088190555080600b81600019169055504260098190555042600160009054906101000a900473ffffffffffffffffffffffffffffffffffffffff1673ffffffffffffffffffffffffffffffffffffffff167ff9f75c99c0e3522cd19ffc66fd6c94989a3f0821d37d5c5bb176aab904c6335d60405160405180910390a350505050620001ed565b6000808284019050838110151515620001c757fe5b8091505092915050565b6000808284811515620001e057fe5b0490508091505092915050565b611b7280620001fd6000396000f3006060604052600436106100db576000357c0100000000000000000000000000000000000000000000000000000000900463ffffffff16806312065fe0146100e0578063268f11531461010957806328fd10d71461014357806329c68dc1146101945780633ccfd60b146101c1578063402d8883146101d657806343c14b22146101e0578063590e1ae3146101f557806383197ef01461020a5780638da5cb5b1461021f578063d85da7b614610274578063e8b5e51f146102a1578063efd475ab146102ab578063f06817cf146102c0578063f5074f4114610375575b600080fd5b34156100eb57600080fd5b6100f36103ae565b6040518082815260200191505060405180910390f35b341561011457600080fd5b61012d600480803560ff169060200190919050506103cd565b6040518082815260200191505060405180910390f35b341561014e57600080fd5b61017a600480803573ffffffffffffffffffffffffffffffffffffffff1690602001909190505061049a565b604051808215151515815260200191505060405180910390f35b341561019f57600080fd5b6101a76104ba565b604051808215151515815260200191505060405180910390f35b34156101cc57600080fd5b6101d4610595565b005b6101de6107b2565b005b34156101eb57600080fd5b6101f3610aa9565b005b341561020057600080fd5b610208610c8b565b005b341561021557600080fd5b61021d610f8e565b005b341561022a57600080fd5b610232611023565b604051808273ffffffffffffffffffffffffffffffffffffffff1673ffffffffffffffffffffffffffffffffffffffff16815260200191505060405180910390f35b341561027f57600080fd5b610287611048565b604051808215151515815260200191505060405180910390f35b6102a96111f3565b005b34156102b657600080fd5b6102be611525565b005b34156102cb57600080fd5b6102d36117ce565b604051808c73ffffffffffffffffffffffffffffffffffffffff1673ffffffffffffffffffffffffffffffffffffffff1681526020018b600019166000191681526020018a815260200189815260200188815260200187815260200186815260200185815260200184600581111561034757fe5b60ff168152602001831515151581526020018281526020019b50505050505050505050505060405180910390f35b341561038057600080fd5b6103ac600480803573ffffffffffffffffffffffffffffffffffffffff16906020019091905050611872565b005b60003073ffffffffffffffffffffffffffffffffffffffff1631905090565b60008060009054906101000a900473ffffffffffffffffffffffffffffffffffffffff1673ffffffffffffffffffffffffffffffffffffffff163373ffffffffffffffffffffffffffffffffffffffff1614151561042a57600080fd5b81600c60016101000a81548160ff0219169083600581111561044857fe5b021790555042600c60019054906101000a900460ff16600581111561046957fe5b7faaae373901e745122c2e0925ad006227969c6cd190b7d5ea2fb7fdbd1d955b3560405160405180910390a3919050565b600d6020528060005260406000206000915054906101000a900460ff1681565b60008060009054906101000a900473ffffffffffffffffffffffffffffffffffffffff1673ffffffffffffffffffffffffffffffffffffffff163373ffffffffffffffffffffffffffffffffffffffff1614151561051757600080fd5b600c60009054906101000a900460ff1615600c60006101000a81548160ff02191690831515021790555042600c60009054906101000a900460ff1615157f160914ea27c60aa29a5f3a69d74e6069869de36e38939de1e0a66b921d8623d260405160405180910390a3600c60009054906101000a900460ff16905090565b60011515600c60009054906101000a900460ff1615151415156105b757600080fd5b600160009054906101000a900473ffffffffffffffffffffffffffffffffffffffff1673ffffffffffffffffffffffffffffffffffffffff163373ffffffffffffffffffffffffffffffffffffffff1614151561061357600080fd5b6002543073ffffffffffffffffffffffffffffffffffffffff16311015151561063b57600080fd5b60058081111561064757fe5b600c60019054906101000a900460ff16600581111561066257fe5b1415151561066f57600080fd5b6001600c60016101000a81548160ff0219169083600581111561068e57fe5b021790555042600c60019054906101000a900460ff1660058111156106af57fe5b7faaae373901e745122c2e0925ad006227969c6cd190b7d5ea2fb7fdbd1d955b3560405160405180910390a3423073ffffffffffffffffffffffffffffffffffffffff16313373ffffffffffffffffffffffffffffffffffffffff167f20734f14d107b526674905e470e35d0a474f9fb996a7bdb034c839c8894524e660405160405180910390a4600160009054906101000a900473ffffffffffffffffffffffffffffffffffffffff1673ffffffffffffffffffffffffffffffffffffffff166108fc3073ffffffffffffffffffffffffffffffffffffffff16319081150290604051600060405180830381858888f1935050505015156107b057600080fd5b565b6000600160009054906101000a900473ffffffffffffffffffffffffffffffffffffffff1673ffffffffffffffffffffffffffffffffffffffff163373ffffffffffffffffffffffffffffffffffffffff1614151561081057600080fd5b6001600581111561081d57fe5b600c60019054906101000a900460ff16600581111561083857fe5b14151561084457600080fd5b600060075411151561085557600080fd5b600854341015151561086657600080fd5b60035460045410151561087557fe5b6007600081548092919060019003919050555042600a8190555060009050600854341115610965576108b2600854346118e690919063ffffffff16565b90506108c781346118e690919063ffffffff16565b6008541415156108d357fe5b3481111515156108df57fe5b3373ffffffffffffffffffffffffffffffffffffffff166108fc829081150290604051600060405180830381858888f19350505050151561091f57600080fd5b42813373ffffffffffffffffffffffffffffffffffffffff167f5c9874487a2258c6bd6dc39a2cfcf7ea944b50b79d9a7152668779687b2ebd8d60405160405180910390a45b4261097982346118e690919063ffffffff16565b3373ffffffffffffffffffffffffffffffffffffffff167f350a09487d622378c6efbda255f996387696319f803a2e53eee64f7aa70be85a60405160405180910390a46109e36109d282346118e690919063ffffffff16565b6004546118ff90919063ffffffff16565b6004819055506003546004541415610aa657423373ffffffffffffffffffffffffffffffffffffffff167f25630de45a38a90cbca3a2eb35a8197e51b56d6d912581711e5e3773fe77cabc60405160405180910390a36002600c60016101000a81548160ff02191690836005811115610a5857fe5b021790555042600c60019054906101000a900460ff166005811115610a7957fe5b7faaae373901e745122c2e0925ad006227969c6cd190b7d5ea2fb7fdbd1d955b3560405160405180910390a35b50565b60011515600c60009054906101000a900460ff161515141515610acb57600080fd5b6012544210151515610adc57600080fd5b60006005811115610ae957fe5b600c60019054906101000a900460ff166005811115610b0457fe5b141515610b1057600080fd5b60011515600d60003373ffffffffffffffffffffffffffffffffffffffff1673ffffffffffffffffffffffffffffffffffffffff16815260200190815260200160002060009054906101000a900460ff161515141515610b6f57600080fd5b60001515601160003373ffffffffffffffffffffffffffffffffffffffff1673ffffffffffffffffffffffffffffffffffffffff16815260200190815260200160002060009054906101000a900460ff161515141515610bce57600080fd5b60106000815480929190600101919050555060011515601160003373ffffffffffffffffffffffffffffffffffffffff1673ffffffffffffffffffffffffffffffffffffffff16815260200190815260200160002060009054906101000a90505050423373ffffffffffffffffffffffffffffffffffffffff167fd7173ce7e4ce6f6d075259ac1a467ab8290db175a2cee8587a663c006b97e12960405160405180910390a3601054600f541415610c8957610c8861191d565b5b565b60011515600c60009054906101000a900460ff161515141515610cad57600080fd5b60011515600d60003373ffffffffffffffffffffffffffffffffffffffff1673ffffffffffffffffffffffffffffffffffffffff16815260200190815260200160002060009054906101000a900460ff161515141515610d0c57600080fd5b60046005811115610d1957fe5b600c60019054906101000a900460ff166005811115610d3457fe5b141515610d4057600080fd5b600e60003373ffffffffffffffffffffffffffffffffffffffff1673ffffffffffffffffffffffffffffffffffffffff168152602001908152602001600020543073ffffffffffffffffffffffffffffffffffffffff163110151515610da257fe5b3373ffffffffffffffffffffffffffffffffffffffff166108fc600e60003373ffffffffffffffffffffffffffffffffffffffff1673ffffffffffffffffffffffffffffffffffffffff168152602001908152602001600020549081150290604051600060405180830381858888f193505050501515610e2157600080fd5b42600e60003373ffffffffffffffffffffffffffffffffffffffff1673ffffffffffffffffffffffffffffffffffffffff168152602001908152602001600020543373ffffffffffffffffffffffffffffffffffffffff167f71e252e33f19f0223f47f27d00910548d26488b9b55cb5b410b75e273152f8d660405160405180910390a460003073ffffffffffffffffffffffffffffffffffffffff16311415610f8c576000600c60006101000a81548160ff02191690831515021790555042600c60009054906101000a900460ff1615157f160914ea27c60aa29a5f3a69d74e6069869de36e38939de1e0a66b921d8623d260405160405180910390a36003600c60016101000a81548160ff02191690836005811115610f3e57fe5b021790555042600c60019054906101000a900460ff166005811115610f5f57fe5b7faaae373901e745122c2e0925ad006227969c6cd190b7d5ea2fb7fdbd1d955b3560405160405180910390a35b565b6000809054906101000a900473ffffffffffffffffffffffffffffffffffffffff1673ffffffffffffffffffffffffffffffffffffffff163373ffffffffffffffffffffffffffffffffffffffff16141515610fe957600080fd5b6000809054906101000a900473ffffffffffffffffffffffffffffffffffffffff1673ffffffffffffffffffffffffffffffffffffffff16ff5b6000809054906101000a900473ffffffffffffffffffffffffffffffffffffffff1681565b600060011515600c60009054906101000a900460ff16151514151561106c57600080fd5b60011515600d60003373ffffffffffffffffffffffffffffffffffffffff1673ffffffffffffffffffffffffffffffffffffffff16815260200190815260200160002060009054906101000a900460ff1615151415156110cb57600080fd5b60001515601460003373ffffffffffffffffffffffffffffffffffffffff1673ffffffffffffffffffffffffffffffffffffffff16815260200190815260200160002060009054906101000a900460ff16151514151561112a57600080fd5b60136000815480929190600101919050555060011515601460003373ffffffffffffffffffffffffffffffffffffffff1673ffffffffffffffffffffffffffffffffffffffff16815260200190815260200160002060009054906101000a90505050423373ffffffffffffffffffffffffffffffffffffffff167f1db613004119dde2a638b639fba9960c0e6064ee7c2d06f300e41c78920ed6dc60405160405180910390a3601354600f5414156111eb576111e461198b565b90506111f0565b600190505b90565b600080600581111561120157fe5b600c60019054906101000a900460ff16600581111561121c57fe5b14151561122857600080fd5b600090506002543073ffffffffffffffffffffffffffffffffffffffff16311015156113ba5761127a6002543073ffffffffffffffffffffffffffffffffffffffff16316118e690919063ffffffff16565b90506112a6813073ffffffffffffffffffffffffffffffffffffffff16316118e690919063ffffffff16565b6002541415156112b257fe5b3481111515156112be57fe5b600081111561134d573373ffffffffffffffffffffffffffffffffffffffff166108fc829081150290604051600060405180830381858888f19350505050151561130757600080fd5b42813373ffffffffffffffffffffffffffffffffffffffff167f566803f6e271b911c84f87631bcd310d6a6510bf8882577a96fc76975703e43160405160405180910390a45b6001600c60016101000a81548160ff0219169083600581111561136c57fe5b021790555042600c60019054906101000a900460ff16600581111561138d57fe5b7faaae373901e745122c2e0925ad006227969c6cd190b7d5ea2fb7fdbd1d955b3560405160405180910390a35b6001600d60003373ffffffffffffffffffffffffffffffffffffffff1673ffffffffffffffffffffffffffffffffffffffff16815260200190815260200160002060006101000a81548160ff021916908315150217905550600f6000815480929190600101919050555061148861143a82346118e690919063ffffffff16565b600e60003373ffffffffffffffffffffffffffffffffffffffff1673ffffffffffffffffffffffffffffffffffffffff168152602001908152602001600020546118ff90919063ffffffff16565b600e60003373ffffffffffffffffffffffffffffffffffffffff1673ffffffffffffffffffffffffffffffffffffffff16815260200190815260200160002081905550426114df82346118e690919063ffffffff16565b3373ffffffffffffffffffffffffffffffffffffffff167f1b0969ce7f5b05c5e0969329a05cdbd7e2e2f6cee33ba26fd6e6bbcff82312cd60405160405180910390a450565b600060011515600c60009054906101000a900460ff16151514151561154957600080fd5b60011515600d60003373ffffffffffffffffffffffffffffffffffffffff1673ffffffffffffffffffffffffffffffffffffffff16815260200190815260200160002060009054906101000a900460ff1615151415156115a857600080fd5b600260058111156115b557fe5b600c60019054906101000a900460ff1660058111156115d057fe5b1415156115dc57600080fd5b6000600e60003373ffffffffffffffffffffffffffffffffffffffff1673ffffffffffffffffffffffffffffffffffffffff1681526020019081526020016000205411151561162a57600080fd5b600f5460035481151561163957fe5b049050803073ffffffffffffffffffffffffffffffffffffffff16311015151561165f57fe5b3373ffffffffffffffffffffffffffffffffffffffff166108fc829081150290604051600060405180830381858888f19350505050151561169f57600080fd5b42813373ffffffffffffffffffffffffffffffffffffffff167f052f6685df2f773f854b17db1d82e2352e222010daaf8175761f02ef8782c40360405160405180910390a460003073ffffffffffffffffffffffffffffffffffffffff163114156117cb576000600c60006101000a81548160ff02191690831515021790555042600c60009054906101000a900460ff1615157f160914ea27c60aa29a5f3a69d74e6069869de36e38939de1e0a66b921d8623d260405160405180910390a36003600c60016101000a81548160ff0219169083600581111561177d57fe5b021790555042600c60019054906101000a900460ff16600581111561179e57fe5b7faaae373901e745122c2e0925ad006227969c6cd190b7d5ea2fb7fdbd1d955b3560405160405180910390a35b50565b6000806000806000806000806000806000600160009054906101000a900473ffffffffffffffffffffffffffffffffffffffff16600b54600254600654600854600754600554600354600c60019054906101000a900460ff16600c60009054906101000a900460ff163073ffffffffffffffffffffffffffffffffffffffff16319a509a509a509a509a509a509a509a509a509a509a50909192939495969798999a565b6000809054906101000a900473ffffffffffffffffffffffffffffffffffffffff1673ffffffffffffffffffffffffffffffffffffffff163373ffffffffffffffffffffffffffffffffffffffff161415156118cd57600080fd5b8073ffffffffffffffffffffffffffffffffffffffff16ff5b60008282111515156118f457fe5b818303905092915050565b600080828401905083811015151561191357fe5b8091505092915050565b6004600c60016101000a81548160ff0219169083600581111561193c57fe5b021790555042600c60019054906101000a900460ff16600581111561195d57fe5b7faaae373901e745122c2e0925ad006227969c6cd190b7d5ea2fb7fdbd1d955b3560405160405180910390a3565b6000806000809054906101000a900473ffffffffffffffffffffffffffffffffffffffff1673ffffffffffffffffffffffffffffffffffffffff1660405180807f7365744672617564537461747573286164647265737329000000000000000000815250601701905060405180910390207c01000000000000000000000000000000000000000000000000000000009004600160009054906101000a900473ffffffffffffffffffffffffffffffffffffffff166040518263ffffffff167c0100000000000000000000000000000000000000000000000000000000028152600401808273ffffffffffffffffffffffffffffffffffffffff1673ffffffffffffffffffffffffffffffffffffffff16815260200191505060006040518083038160008761646e5a03f192505050905042811515600160009054906101000a900473ffffffffffffffffffffffffffffffffffffffff1673ffffffffffffffffffffffffffffffffffffffff167fc1bb1d1e99d1e8d2705ba85717226a3fd9a86e4de2284b00dfe6f33538d5249f60405160405180910390a48091505090565b6000808284811515611b3957fe5b04905080915050929150505600a165627a7a72305820c6bdffaf857a7cbc472e17a61185316c899f2d1b52afcf33283be95188b4bba10029",
					"opcodes": "PUSH1 0x60 PUSH1 0x40 MSTORE PUSH1 0x1 PUSH1 0xC PUSH1 0x0 PUSH2 0x100 EXP DUP2 SLOAD DUP2 PUSH1 0xFF MUL NOT AND SWAP1 DUP4 ISZERO ISZERO MUL OR SWAP1 SSTORE POP PUSH1 0x0 PUSH1 0xF SSTORE PUSH1 0x0 PUSH1 0x10 SSTORE PUSH1 0x1 TIMESTAMP ADD PUSH1 0x12 SSTORE PUSH1 0x0 PUSH1 0x13 SSTORE CALLVALUE ISZERO PUSH3 0x41 JUMPI PUSH1 0x0 DUP1 REVERT JUMPDEST PUSH1 0x40 MLOAD PUSH1 0x80 DUP1 PUSH3 0x1D6F DUP4 CODECOPY DUP2 ADD PUSH1 0x40 MSTORE DUP1 DUP1 MLOAD SWAP1 PUSH1 0x20 ADD SWAP1 SWAP2 SWAP1 DUP1 MLOAD SWAP1 PUSH1 0x20 ADD SWAP1 SWAP2 SWAP1 DUP1 MLOAD SWAP1 PUSH1 0x20 ADD SWAP1 SWAP2 SWAP1 DUP1 MLOAD SWAP1 PUSH1 0x20 ADD SWAP1 SWAP2 SWAP1 POP POP ORIGIN PUSH1 0x1 PUSH1 0x0 PUSH2 0x100 EXP DUP2 SLOAD DUP2 PUSH20 0xFFFFFFFFFFFFFFFFFFFFFFFFFFFFFFFFFFFFFFFF MUL NOT AND SWAP1 DUP4 PUSH20 0xFFFFFFFFFFFFFFFFFFFFFFFFFFFFFFFFFFFFFFFF AND MUL OR SWAP1 SSTORE POP DUP2 PUSH1 0x5 DUP2 SWAP1 SSTORE POP DUP4 PUSH1 0x2 DUP2 SWAP1 SSTORE POP DUP3 PUSH1 0x6 DUP2 SWAP1 SSTORE POP DUP3 PUSH1 0x7 DUP2 SWAP1 SSTORE POP PUSH3 0xFD PUSH1 0x5 SLOAD PUSH1 0x2 SLOAD PUSH3 0x1B2 PUSH5 0x100000000 MUL PUSH3 0x18FF OR SWAP1 SWAP2 SWAP1 PUSH5 0x100000000 SWAP1 DIV JUMP JUMPDEST PUSH1 0x3 DUP2 SWAP1 SSTORE POP PUSH3 0x12A PUSH1 0x6 SLOAD PUSH1 0x3 SLOAD PUSH3 0x1D1 PUSH5 0x100000000 MUL PUSH3 0x1B2B OR SWAP1 SWAP2 SWAP1 PUSH5 0x100000000 SWAP1 DIV JUMP JUMPDEST PUSH1 0x8 DUP2 SWAP1 SSTORE POP DUP1 PUSH1 0xB DUP2 PUSH1 0x0 NOT AND SWAP1 SSTORE POP TIMESTAMP PUSH1 0x9 DUP2 SWAP1 SSTORE POP TIMESTAMP PUSH1 0x1 PUSH1 0x0 SWAP1 SLOAD SWAP1 PUSH2 0x100 EXP SWAP1 DIV PUSH20 0xFFFFFFFFFFFFFFFFFFFFFFFFFFFFFFFFFFFFFFFF AND PUSH20 0xFFFFFFFFFFFFFFFFFFFFFFFFFFFFFFFFFFFFFFFF AND PUSH32 0xF9F75C99C0E3522CD19FFC66FD6C94989A3F0821D37D5C5BB176AAB904C6335D PUSH1 0x40 MLOAD PUSH1 0x40 MLOAD DUP1 SWAP2 SUB SWAP1 LOG3 POP POP POP POP PUSH3 0x1ED JUMP JUMPDEST PUSH1 0x0 DUP1 DUP3 DUP5 ADD SWAP1 POP DUP4 DUP2 LT ISZERO ISZERO ISZERO PUSH3 0x1C7 JUMPI INVALID JUMPDEST DUP1 SWAP2 POP POP SWAP3 SWAP2 POP POP JUMP JUMPDEST PUSH1 0x0 DUP1 DUP3 DUP5 DUP2 ISZERO ISZERO PUSH3 0x1E0 JUMPI INVALID JUMPDEST DIV SWAP1 POP DUP1 SWAP2 POP POP SWAP3 SWAP2 POP POP JUMP JUMPDEST PUSH2 0x1B72 DUP1 PUSH3 0x1FD PUSH1 0x0 CODECOPY PUSH1 0x0 RETURN STOP PUSH1 0x60 PUSH1 0x40 MSTORE PUSH1 0x4 CALLDATASIZE LT PUSH2 0xDB JUMPI PUSH1 0x0 CALLDATALOAD PUSH29 0x100000000000000000000000000000000000000000000000000000000 SWAP1 DIV PUSH4 0xFFFFFFFF AND DUP1 PUSH4 0x12065FE0 EQ PUSH2 0xE0 JUMPI DUP1 PUSH4 0x268F1153 EQ PUSH2 0x109 JUMPI DUP1 PUSH4 0x28FD10D7 EQ PUSH2 0x143 JUMPI DUP1 PUSH4 0x29C68DC1 EQ PUSH2 0x194 JUMPI DUP1 PUSH4 0x3CCFD60B EQ PUSH2 0x1C1 JUMPI DUP1 PUSH4 0x402D8883 EQ PUSH2 0x1D6 JUMPI DUP1 PUSH4 0x43C14B22 EQ PUSH2 0x1E0 JUMPI DUP1 PUSH4 0x590E1AE3 EQ PUSH2 0x1F5 JUMPI DUP1 PUSH4 0x83197EF0 EQ PUSH2 0x20A JUMPI DUP1 PUSH4 0x8DA5CB5B EQ PUSH2 0x21F JUMPI DUP1 PUSH4 0xD85DA7B6 EQ PUSH2 0x274 JUMPI DUP1 PUSH4 0xE8B5E51F EQ PUSH2 0x2A1 JUMPI DUP1 PUSH4 0xEFD475AB EQ PUSH2 0x2AB JUMPI DUP1 PUSH4 0xF06817CF EQ PUSH2 0x2C0 JUMPI DUP1 PUSH4 0xF5074F41 EQ PUSH2 0x375 JUMPI JUMPDEST PUSH1 0x0 DUP1 REVERT JUMPDEST CALLVALUE ISZERO PUSH2 0xEB JUMPI PUSH1 0x0 DUP1 REVERT JUMPDEST PUSH2 0xF3 PUSH2 0x3AE JUMP JUMPDEST PUSH1 0x40 MLOAD DUP1 DUP3 DUP2 MSTORE PUSH1 0x20 ADD SWAP2 POP POP PUSH1 0x40 MLOAD DUP1 SWAP2 SUB SWAP1 RETURN JUMPDEST CALLVALUE ISZERO PUSH2 0x114 JUMPI PUSH1 0x0 DUP1 REVERT JUMPDEST PUSH2 0x12D PUSH1 0x4 DUP1 DUP1 CALLDATALOAD PUSH1 0xFF AND SWAP1 PUSH1 0x20 ADD SWAP1 SWAP2 SWAP1 POP POP PUSH2 0x3CD JUMP JUMPDEST PUSH1 0x40 MLOAD DUP1 DUP3 DUP2 MSTORE PUSH1 0x20 ADD SWAP2 POP POP PUSH1 0x40 MLOAD DUP1 SWAP2 SUB SWAP1 RETURN JUMPDEST CALLVALUE ISZERO PUSH2 0x14E JUMPI PUSH1 0x0 DUP1 REVERT JUMPDEST PUSH2 0x17A PUSH1 0x4 DUP1 DUP1 CALLDATALOAD PUSH20 0xFFFFFFFFFFFFFFFFFFFFFFFFFFFFFFFFFFFFFFFF AND SWAP1 PUSH1 0x20 ADD SWAP1 SWAP2 SWAP1 POP POP PUSH2 0x49A JUMP JUMPDEST PUSH1 0x40 MLOAD DUP1 DUP3 ISZERO ISZERO ISZERO ISZERO DUP2 MSTORE PUSH1 0x20 ADD SWAP2 POP POP PUSH1 0x40 MLOAD DUP1 SWAP2 SUB SWAP1 RETURN JUMPDEST CALLVALUE ISZERO PUSH2 0x19F JUMPI PUSH1 0x0 DUP1 REVERT JUMPDEST PUSH2 0x1A7 PUSH2 0x4BA JUMP JUMPDEST PUSH1 0x40 MLOAD DUP1 DUP3 ISZERO ISZERO ISZERO ISZERO DUP2 MSTORE PUSH1 0x20 ADD SWAP2 POP POP PUSH1 0x40 MLOAD DUP1 SWAP2 SUB SWAP1 RETURN JUMPDEST CALLVALUE ISZERO PUSH2 0x1CC JUMPI PUSH1 0x0 DUP1 REVERT JUMPDEST PUSH2 0x1D4 PUSH2 0x595 JUMP JUMPDEST STOP JUMPDEST PUSH2 0x1DE PUSH2 0x7B2 JUMP JUMPDEST STOP JUMPDEST CALLVALUE ISZERO PUSH2 0x1EB JUMPI PUSH1 0x0 DUP1 REVERT JUMPDEST PUSH2 0x1F3 PUSH2 0xAA9 JUMP JUMPDEST STOP JUMPDEST CALLVALUE ISZERO PUSH2 0x200 JUMPI PUSH1 0x0 DUP1 REVERT JUMPDEST PUSH2 0x208 PUSH2 0xC8B JUMP JUMPDEST STOP JUMPDEST CALLVALUE ISZERO PUSH2 0x215 JUMPI PUSH1 0x0 DUP1 REVERT JUMPDEST PUSH2 0x21D PUSH2 0xF8E JUMP JUMPDEST STOP JUMPDEST CALLVALUE ISZERO PUSH2 0x22A JUMPI PUSH1 0x0 DUP1 REVERT JUMPDEST PUSH2 0x232 PUSH2 0x1023 JUMP JUMPDEST PUSH1 0x40 MLOAD DUP1 DUP3 PUSH20 0xFFFFFFFFFFFFFFFFFFFFFFFFFFFFFFFFFFFFFFFF AND PUSH20 0xFFFFFFFFFFFFFFFFFFFFFFFFFFFFFFFFFFFFFFFF AND DUP2 MSTORE PUSH1 0x20 ADD SWAP2 POP POP PUSH1 0x40 MLOAD DUP1 SWAP2 SUB SWAP1 RETURN JUMPDEST CALLVALUE ISZERO PUSH2 0x27F JUMPI PUSH1 0x0 DUP1 REVERT JUMPDEST PUSH2 0x287 PUSH2 0x1048 JUMP JUMPDEST PUSH1 0x40 MLOAD DUP1 DUP3 ISZERO ISZERO ISZERO ISZERO DUP2 MSTORE PUSH1 0x20 ADD SWAP2 POP POP PUSH1 0x40 MLOAD DUP1 SWAP2 SUB SWAP1 RETURN JUMPDEST PUSH2 0x2A9 PUSH2 0x11F3 JUMP JUMPDEST STOP JUMPDEST CALLVALUE ISZERO PUSH2 0x2B6 JUMPI PUSH1 0x0 DUP1 REVERT JUMPDEST PUSH2 0x2BE PUSH2 0x1525 JUMP JUMPDEST STOP JUMPDEST CALLVALUE ISZERO PUSH2 0x2CB JUMPI PUSH1 0x0 DUP1 REVERT JUMPDEST PUSH2 0x2D3 PUSH2 0x17CE JUMP JUMPDEST PUSH1 0x40 MLOAD DUP1 DUP13 PUSH20 0xFFFFFFFFFFFFFFFFFFFFFFFFFFFFFFFFFFFFFFFF AND PUSH20 0xFFFFFFFFFFFFFFFFFFFFFFFFFFFFFFFFFFFFFFFF AND DUP2 MSTORE PUSH1 0x20 ADD DUP12 PUSH1 0x0 NOT AND PUSH1 0x0 NOT AND DUP2 MSTORE PUSH1 0x20 ADD DUP11 DUP2 MSTORE PUSH1 0x20 ADD DUP10 DUP2 MSTORE PUSH1 0x20 ADD DUP9 DUP2 MSTORE PUSH1 0x20 ADD DUP8 DUP2 MSTORE PUSH1 0x20 ADD DUP7 DUP2 MSTORE PUSH1 0x20 ADD DUP6 DUP2 MSTORE PUSH1 0x20 ADD DUP5 PUSH1 0x5 DUP2 GT ISZERO PUSH2 0x347 JUMPI INVALID JUMPDEST PUSH1 0xFF AND DUP2 MSTORE PUSH1 0x20 ADD DUP4 ISZERO ISZERO ISZERO ISZERO DUP2 MSTORE PUSH1 0x20 ADD DUP3 DUP2 MSTORE PUSH1 0x20 ADD SWAP12 POP POP POP POP POP POP POP POP POP POP POP POP PUSH1 0x40 MLOAD DUP1 SWAP2 SUB SWAP1 RETURN JUMPDEST CALLVALUE ISZERO PUSH2 0x380 JUMPI PUSH1 0x0 DUP1 REVERT JUMPDEST PUSH2 0x3AC PUSH1 0x4 DUP1 DUP1 CALLDATALOAD PUSH20 0xFFFFFFFFFFFFFFFFFFFFFFFFFFFFFFFFFFFFFFFF AND SWAP1 PUSH1 0x20 ADD SWAP1 SWAP2 SWAP1 POP POP PUSH2 0x1872 JUMP JUMPDEST STOP JUMPDEST PUSH1 0x0 ADDRESS PUSH20 0xFFFFFFFFFFFFFFFFFFFFFFFFFFFFFFFFFFFFFFFF AND BALANCE SWAP1 POP SWAP1 JUMP JUMPDEST PUSH1 0x0 DUP1 PUSH1 0x0 SWAP1 SLOAD SWAP1 PUSH2 0x100 EXP SWAP1 DIV PUSH20 0xFFFFFFFFFFFFFFFFFFFFFFFFFFFFFFFFFFFFFFFF AND PUSH20 0xFFFFFFFFFFFFFFFFFFFFFFFFFFFFFFFFFFFFFFFF AND CALLER PUSH20 0xFFFFFFFFFFFFFFFFFFFFFFFFFFFFFFFFFFFFFFFF AND EQ ISZERO ISZERO PUSH2 0x42A JUMPI PUSH1 0x0 DUP1 REVERT JUMPDEST DUP2 PUSH1 0xC PUSH1 0x1 PUSH2 0x100 EXP DUP2 SLOAD DUP2 PUSH1 0xFF MUL NOT AND SWAP1 DUP4 PUSH1 0x5 DUP2 GT ISZERO PUSH2 0x448 JUMPI INVALID JUMPDEST MUL OR SWAP1 SSTORE POP TIMESTAMP PUSH1 0xC PUSH1 0x1 SWAP1 SLOAD SWAP1 PUSH2 0x100 EXP SWAP1 DIV PUSH1 0xFF AND PUSH1 0x5 DUP2 GT ISZERO PUSH2 0x469 JUMPI INVALID JUMPDEST PUSH32 0xAAAE373901E745122C2E0925AD006227969C6CD190B7D5EA2FB7FDBD1D955B35 PUSH1 0x40 MLOAD PUSH1 0x40 MLOAD DUP1 SWAP2 SUB SWAP1 LOG3 SWAP2 SWAP1 POP JUMP JUMPDEST PUSH1 0xD PUSH1 0x20 MSTORE DUP1 PUSH1 0x0 MSTORE PUSH1 0x40 PUSH1 0x0 KECCAK256 PUSH1 0x0 SWAP2 POP SLOAD SWAP1 PUSH2 0x100 EXP SWAP1 DIV PUSH1 0xFF AND DUP2 JUMP JUMPDEST PUSH1 0x0 DUP1 PUSH1 0x0 SWAP1 SLOAD SWAP1 PUSH2 0x100 EXP SWAP1 DIV PUSH20 0xFFFFFFFFFFFFFFFFFFFFFFFFFFFFFFFFFFFFFFFF AND PUSH20 0xFFFFFFFFFFFFFFFFFFFFFFFFFFFFFFFFFFFFFFFF AND CALLER PUSH20 0xFFFFFFFFFFFFFFFFFFFFFFFFFFFFFFFFFFFFFFFF AND EQ ISZERO ISZERO PUSH2 0x517 JUMPI PUSH1 0x0 DUP1 REVERT JUMPDEST PUSH1 0xC PUSH1 0x0 SWAP1 SLOAD SWAP1 PUSH2 0x100 EXP SWAP1 DIV PUSH1 0xFF AND ISZERO PUSH1 0xC PUSH1 0x0 PUSH2 0x100 EXP DUP2 SLOAD DUP2 PUSH1 0xFF MUL NOT AND SWAP1 DUP4 ISZERO ISZERO MUL OR SWAP1 SSTORE POP TIMESTAMP PUSH1 0xC PUSH1 0x0 SWAP1 SLOAD SWAP1 PUSH2 0x100 EXP SWAP1 DIV PUSH1 0xFF AND ISZERO ISZERO PUSH32 0x160914EA27C60AA29A5F3A69D74E6069869DE36E38939DE1E0A66B921D8623D2 PUSH1 0x40 MLOAD PUSH1 0x40 MLOAD DUP1 SWAP2 SUB SWAP1 LOG3 PUSH1 0xC PUSH1 0x0 SWAP1 SLOAD SWAP1 PUSH2 0x100 EXP SWAP1 DIV PUSH1 0xFF AND SWAP1 POP SWAP1 JUMP JUMPDEST PUSH1 0x1 ISZERO ISZERO PUSH1 0xC PUSH1 0x0 SWAP1 SLOAD SWAP1 PUSH2 0x100 EXP SWAP1 DIV PUSH1 0xFF AND ISZERO ISZERO EQ ISZERO ISZERO PUSH2 0x5B7 JUMPI PUSH1 0x0 DUP1 REVERT JUMPDEST PUSH1 0x1 PUSH1 0x0 SWAP1 SLOAD SWAP1 PUSH2 0x100 EXP SWAP1 DIV PUSH20 0xFFFFFFFFFFFFFFFFFFFFFFFFFFFFFFFFFFFFFFFF AND PUSH20 0xFFFFFFFFFFFFFFFFFFFFFFFFFFFFFFFFFFFFFFFF AND CALLER PUSH20 0xFFFFFFFFFFFFFFFFFFFFFFFFFFFFFFFFFFFFFFFF AND EQ ISZERO ISZERO PUSH2 0x613 JUMPI PUSH1 0x0 DUP1 REVERT JUMPDEST PUSH1 0x2 SLOAD ADDRESS PUSH20 0xFFFFFFFFFFFFFFFFFFFFFFFFFFFFFFFFFFFFFFFF AND BALANCE LT ISZERO ISZERO ISZERO PUSH2 0x63B JUMPI PUSH1 0x0 DUP1 REVERT JUMPDEST PUSH1 0x5 DUP1 DUP2 GT ISZERO PUSH2 0x647 JUMPI INVALID JUMPDEST PUSH1 0xC PUSH1 0x1 SWAP1 SLOAD SWAP1 PUSH2 0x100 EXP SWAP1 DIV PUSH1 0xFF AND PUSH1 0x5 DUP2 GT ISZERO PUSH2 0x662 JUMPI INVALID JUMPDEST EQ ISZERO ISZERO ISZERO PUSH2 0x66F JUMPI PUSH1 0x0 DUP1 REVERT JUMPDEST PUSH1 0x1 PUSH1 0xC PUSH1 0x1 PUSH2 0x100 EXP DUP2 SLOAD DUP2 PUSH1 0xFF MUL NOT AND SWAP1 DUP4 PUSH1 0x5 DUP2 GT ISZERO PUSH2 0x68E JUMPI INVALID JUMPDEST MUL OR SWAP1 SSTORE POP TIMESTAMP PUSH1 0xC PUSH1 0x1 SWAP1 SLOAD SWAP1 PUSH2 0x100 EXP SWAP1 DIV PUSH1 0xFF AND PUSH1 0x5 DUP2 GT ISZERO PUSH2 0x6AF JUMPI INVALID JUMPDEST PUSH32 0xAAAE373901E745122C2E0925AD006227969C6CD190B7D5EA2FB7FDBD1D955B35 PUSH1 0x40 MLOAD PUSH1 0x40 MLOAD DUP1 SWAP2 SUB SWAP1 LOG3 TIMESTAMP ADDRESS PUSH20 0xFFFFFFFFFFFFFFFFFFFFFFFFFFFFFFFFFFFFFFFF AND BALANCE CALLER PUSH20 0xFFFFFFFFFFFFFFFFFFFFFFFFFFFFFFFFFFFFFFFF AND PUSH32 0x20734F14D107B526674905E470E35D0A474F9FB996A7BDB034C839C8894524E6 PUSH1 0x40 MLOAD PUSH1 0x40 MLOAD DUP1 SWAP2 SUB SWAP1 LOG4 PUSH1 0x1 PUSH1 0x0 SWAP1 SLOAD SWAP1 PUSH2 0x100 EXP SWAP1 DIV PUSH20 0xFFFFFFFFFFFFFFFFFFFFFFFFFFFFFFFFFFFFFFFF AND PUSH20 0xFFFFFFFFFFFFFFFFFFFFFFFFFFFFFFFFFFFFFFFF AND PUSH2 0x8FC ADDRESS PUSH20 0xFFFFFFFFFFFFFFFFFFFFFFFFFFFFFFFFFFFFFFFF AND BALANCE SWAP1 DUP2 ISZERO MUL SWAP1 PUSH1 0x40 MLOAD PUSH1 0x0 PUSH1 0x40 MLOAD DUP1 DUP4 SUB DUP2 DUP6 DUP9 DUP9 CALL SWAP4 POP POP POP POP ISZERO ISZERO PUSH2 0x7B0 JUMPI PUSH1 0x0 DUP1 REVERT JUMPDEST JUMP JUMPDEST PUSH1 0x0 PUSH1 0x1 PUSH1 0x0 SWAP1 SLOAD SWAP1 PUSH2 0x100 EXP SWAP1 DIV PUSH20 0xFFFFFFFFFFFFFFFFFFFFFFFFFFFFFFFFFFFFFFFF AND PUSH20 0xFFFFFFFFFFFFFFFFFFFFFFFFFFFFFFFFFFFFFFFF AND CALLER PUSH20 0xFFFFFFFFFFFFFFFFFFFFFFFFFFFFFFFFFFFFFFFF AND EQ ISZERO ISZERO PUSH2 0x810 JUMPI PUSH1 0x0 DUP1 REVERT JUMPDEST PUSH1 0x1 PUSH1 0x5 DUP2 GT ISZERO PUSH2 0x81D JUMPI INVALID JUMPDEST PUSH1 0xC PUSH1 0x1 SWAP1 SLOAD SWAP1 PUSH2 0x100 EXP SWAP1 DIV PUSH1 0xFF AND PUSH1 0x5 DUP2 GT ISZERO PUSH2 0x838 JUMPI INVALID JUMPDEST EQ ISZERO ISZERO PUSH2 0x844 JUMPI PUSH1 0x0 DUP1 REVERT JUMPDEST PUSH1 0x0 PUSH1 0x7 SLOAD GT ISZERO ISZERO PUSH2 0x855 JUMPI PUSH1 0x0 DUP1 REVERT JUMPDEST PUSH1 0x8 SLOAD CALLVALUE LT ISZERO ISZERO ISZERO PUSH2 0x866 JUMPI PUSH1 0x0 DUP1 REVERT JUMPDEST PUSH1 0x3 SLOAD PUSH1 0x4 SLOAD LT ISZERO ISZERO PUSH2 0x875 JUMPI INVALID JUMPDEST PUSH1 0x7 PUSH1 0x0 DUP2 SLOAD DUP1 SWAP3 SWAP2 SWAP1 PUSH1 0x1 SWAP1 SUB SWAP2 SWAP1 POP SSTORE POP TIMESTAMP PUSH1 0xA DUP2 SWAP1 SSTORE POP PUSH1 0x0 SWAP1 POP PUSH1 0x8 SLOAD CALLVALUE GT ISZERO PUSH2 0x965 JUMPI PUSH2 0x8B2 PUSH1 0x8 SLOAD CALLVALUE PUSH2 0x18E6 SWAP1 SWAP2 SWAP1 PUSH4 0xFFFFFFFF AND JUMP JUMPDEST SWAP1 POP PUSH2 0x8C7 DUP2 CALLVALUE PUSH2 0x18E6 SWAP1 SWAP2 SWAP1 PUSH4 0xFFFFFFFF AND JUMP JUMPDEST PUSH1 0x8 SLOAD EQ ISZERO ISZERO PUSH2 0x8D3 JUMPI INVALID JUMPDEST CALLVALUE DUP2 GT ISZERO ISZERO ISZERO PUSH2 0x8DF JUMPI INVALID JUMPDEST CALLER PUSH20 0xFFFFFFFFFFFFFFFFFFFFFFFFFFFFFFFFFFFFFFFF AND PUSH2 0x8FC DUP3 SWAP1 DUP2 ISZERO MUL SWAP1 PUSH1 0x40 MLOAD PUSH1 0x0 PUSH1 0x40 MLOAD DUP1 DUP4 SUB DUP2 DUP6 DUP9 DUP9 CALL SWAP4 POP POP POP POP ISZERO ISZERO PUSH2 0x91F JUMPI PUSH1 0x0 DUP1 REVERT JUMPDEST TIMESTAMP DUP2 CALLER PUSH20 0xFFFFFFFFFFFFFFFFFFFFFFFFFFFFFFFFFFFFFFFF AND PUSH32 0x5C9874487A2258C6BD6DC39A2CFCF7EA944B50B79D9A7152668779687B2EBD8D PUSH1 0x40 MLOAD PUSH1 0x40 MLOAD DUP1 SWAP2 SUB SWAP1 LOG4 JUMPDEST TIMESTAMP PUSH2 0x979 DUP3 CALLVALUE PUSH2 0x18E6 SWAP1 SWAP2 SWAP1 PUSH4 0xFFFFFFFF AND JUMP JUMPDEST CALLER PUSH20 0xFFFFFFFFFFFFFFFFFFFFFFFFFFFFFFFFFFFFFFFF AND PUSH32 0x350A09487D622378C6EFBDA255F996387696319F803A2E53EEE64F7AA70BE85A PUSH1 0x40 MLOAD PUSH1 0x40 MLOAD DUP1 SWAP2 SUB SWAP1 LOG4 PUSH2 0x9E3 PUSH2 0x9D2 DUP3 CALLVALUE PUSH2 0x18E6 SWAP1 SWAP2 SWAP1 PUSH4 0xFFFFFFFF AND JUMP JUMPDEST PUSH1 0x4 SLOAD PUSH2 0x18FF SWAP1 SWAP2 SWAP1 PUSH4 0xFFFFFFFF AND JUMP JUMPDEST PUSH1 0x4 DUP2 SWAP1 SSTORE POP PUSH1 0x3 SLOAD PUSH1 0x4 SLOAD EQ ISZERO PUSH2 0xAA6 JUMPI TIMESTAMP CALLER PUSH20 0xFFFFFFFFFFFFFFFFFFFFFFFFFFFFFFFFFFFFFFFF AND PUSH32 0x25630DE45A38A90CBCA3A2EB35A8197E51B56D6D912581711E5E3773FE77CABC PUSH1 0x40 MLOAD PUSH1 0x40 MLOAD DUP1 SWAP2 SUB SWAP1 LOG3 PUSH1 0x2 PUSH1 0xC PUSH1 0x1 PUSH2 0x100 EXP DUP2 SLOAD DUP2 PUSH1 0xFF MUL NOT AND SWAP1 DUP4 PUSH1 0x5 DUP2 GT ISZERO PUSH2 0xA58 JUMPI INVALID JUMPDEST MUL OR SWAP1 SSTORE POP TIMESTAMP PUSH1 0xC PUSH1 0x1 SWAP1 SLOAD SWAP1 PUSH2 0x100 EXP SWAP1 DIV PUSH1 0xFF AND PUSH1 0x5 DUP2 GT ISZERO PUSH2 0xA79 JUMPI INVALID JUMPDEST PUSH32 0xAAAE373901E745122C2E0925AD006227969C6CD190B7D5EA2FB7FDBD1D955B35 PUSH1 0x40 MLOAD PUSH1 0x40 MLOAD DUP1 SWAP2 SUB SWAP1 LOG3 JUMPDEST POP JUMP JUMPDEST PUSH1 0x1 ISZERO ISZERO PUSH1 0xC PUSH1 0x0 SWAP1 SLOAD SWAP1 PUSH2 0x100 EXP SWAP1 DIV PUSH1 0xFF AND ISZERO ISZERO EQ ISZERO ISZERO PUSH2 0xACB JUMPI PUSH1 0x0 DUP1 REVERT JUMPDEST PUSH1 0x12 SLOAD TIMESTAMP LT ISZERO ISZERO ISZERO PUSH2 0xADC JUMPI PUSH1 0x0 DUP1 REVERT JUMPDEST PUSH1 0x0 PUSH1 0x5 DUP2 GT ISZERO PUSH2 0xAE9 JUMPI INVALID JUMPDEST PUSH1 0xC PUSH1 0x1 SWAP1 SLOAD SWAP1 PUSH2 0x100 EXP SWAP1 DIV PUSH1 0xFF AND PUSH1 0x5 DUP2 GT ISZERO PUSH2 0xB04 JUMPI INVALID JUMPDEST EQ ISZERO ISZERO PUSH2 0xB10 JUMPI PUSH1 0x0 DUP1 REVERT JUMPDEST PUSH1 0x1 ISZERO ISZERO PUSH1 0xD PUSH1 0x0 CALLER PUSH20 0xFFFFFFFFFFFFFFFFFFFFFFFFFFFFFFFFFFFFFFFF AND PUSH20 0xFFFFFFFFFFFFFFFFFFFFFFFFFFFFFFFFFFFFFFFF AND DUP2 MSTORE PUSH1 0x20 ADD SWAP1 DUP2 MSTORE PUSH1 0x20 ADD PUSH1 0x0 KECCAK256 PUSH1 0x0 SWAP1 SLOAD SWAP1 PUSH2 0x100 EXP SWAP1 DIV PUSH1 0xFF AND ISZERO ISZERO EQ ISZERO ISZERO PUSH2 0xB6F JUMPI PUSH1 0x0 DUP1 REVERT JUMPDEST PUSH1 0x0 ISZERO ISZERO PUSH1 0x11 PUSH1 0x0 CALLER PUSH20 0xFFFFFFFFFFFFFFFFFFFFFFFFFFFFFFFFFFFFFFFF AND PUSH20 0xFFFFFFFFFFFFFFFFFFFFFFFFFFFFFFFFFFFFFFFF AND DUP2 MSTORE PUSH1 0x20 ADD SWAP1 DUP2 MSTORE PUSH1 0x20 ADD PUSH1 0x0 KECCAK256 PUSH1 0x0 SWAP1 SLOAD SWAP1 PUSH2 0x100 EXP SWAP1 DIV PUSH1 0xFF AND ISZERO ISZERO EQ ISZERO ISZERO PUSH2 0xBCE JUMPI PUSH1 0x0 DUP1 REVERT JUMPDEST PUSH1 0x10 PUSH1 0x0 DUP2 SLOAD DUP1 SWAP3 SWAP2 SWAP1 PUSH1 0x1 ADD SWAP2 SWAP1 POP SSTORE POP PUSH1 0x1 ISZERO ISZERO PUSH1 0x11 PUSH1 0x0 CALLER PUSH20 0xFFFFFFFFFFFFFFFFFFFFFFFFFFFFFFFFFFFFFFFF AND PUSH20 0xFFFFFFFFFFFFFFFFFFFFFFFFFFFFFFFFFFFFFFFF AND DUP2 MSTORE PUSH1 0x20 ADD SWAP1 DUP2 MSTORE PUSH1 0x20 ADD PUSH1 0x0 KECCAK256 PUSH1 0x0 SWAP1 SLOAD SWAP1 PUSH2 0x100 EXP SWAP1 POP POP POP TIMESTAMP CALLER PUSH20 0xFFFFFFFFFFFFFFFFFFFFFFFFFFFFFFFFFFFFFFFF AND PUSH32 0xD7173CE7E4CE6F6D075259AC1A467AB8290DB175A2CEE8587A663C006B97E129 PUSH1 0x40 MLOAD PUSH1 0x40 MLOAD DUP1 SWAP2 SUB SWAP1 LOG3 PUSH1 0x10 SLOAD PUSH1 0xF SLOAD EQ ISZERO PUSH2 0xC89 JUMPI PUSH2 0xC88 PUSH2 0x191D JUMP JUMPDEST JUMPDEST JUMP JUMPDEST PUSH1 0x1 ISZERO ISZERO PUSH1 0xC PUSH1 0x0 SWAP1 SLOAD SWAP1 PUSH2 0x100 EXP SWAP1 DIV PUSH1 0xFF AND ISZERO ISZERO EQ ISZERO ISZERO PUSH2 0xCAD JUMPI PUSH1 0x0 DUP1 REVERT JUMPDEST PUSH1 0x1 ISZERO ISZERO PUSH1 0xD PUSH1 0x0 CALLER PUSH20 0xFFFFFFFFFFFFFFFFFFFFFFFFFFFFFFFFFFFFFFFF AND PUSH20 0xFFFFFFFFFFFFFFFFFFFFFFFFFFFFFFFFFFFFFFFF AND DUP2 MSTORE PUSH1 0x20 ADD SWAP1 DUP2 MSTORE PUSH1 0x20 ADD PUSH1 0x0 KECCAK256 PUSH1 0x0 SWAP1 SLOAD SWAP1 PUSH2 0x100 EXP SWAP1 DIV PUSH1 0xFF AND ISZERO ISZERO EQ ISZERO ISZERO PUSH2 0xD0C JUMPI PUSH1 0x0 DUP1 REVERT JUMPDEST PUSH1 0x4 PUSH1 0x5 DUP2 GT ISZERO PUSH2 0xD19 JUMPI INVALID JUMPDEST PUSH1 0xC PUSH1 0x1 SWAP1 SLOAD SWAP1 PUSH2 0x100 EXP SWAP1 DIV PUSH1 0xFF AND PUSH1 0x5 DUP2 GT ISZERO PUSH2 0xD34 JUMPI INVALID JUMPDEST EQ ISZERO ISZERO PUSH2 0xD40 JUMPI PUSH1 0x0 DUP1 REVERT JUMPDEST PUSH1 0xE PUSH1 0x0 CALLER PUSH20 0xFFFFFFFFFFFFFFFFFFFFFFFFFFFFFFFFFFFFFFFF AND PUSH20 0xFFFFFFFFFFFFFFFFFFFFFFFFFFFFFFFFFFFFFFFF AND DUP2 MSTORE PUSH1 0x20 ADD SWAP1 DUP2 MSTORE PUSH1 0x20 ADD PUSH1 0x0 KECCAK256 SLOAD ADDRESS PUSH20 0xFFFFFFFFFFFFFFFFFFFFFFFFFFFFFFFFFFFFFFFF AND BALANCE LT ISZERO ISZERO ISZERO PUSH2 0xDA2 JUMPI INVALID JUMPDEST CALLER PUSH20 0xFFFFFFFFFFFFFFFFFFFFFFFFFFFFFFFFFFFFFFFF AND PUSH2 0x8FC PUSH1 0xE PUSH1 0x0 CALLER PUSH20 0xFFFFFFFFFFFFFFFFFFFFFFFFFFFFFFFFFFFFFFFF AND PUSH20 0xFFFFFFFFFFFFFFFFFFFFFFFFFFFFFFFFFFFFFFFF AND DUP2 MSTORE PUSH1 0x20 ADD SWAP1 DUP2 MSTORE PUSH1 0x20 ADD PUSH1 0x0 KECCAK256 SLOAD SWAP1 DUP2 ISZERO MUL SWAP1 PUSH1 0x40 MLOAD PUSH1 0x0 PUSH1 0x40 MLOAD DUP1 DUP4 SUB DUP2 DUP6 DUP9 DUP9 CALL SWAP4 POP POP POP POP ISZERO ISZERO PUSH2 0xE21 JUMPI PUSH1 0x0 DUP1 REVERT JUMPDEST TIMESTAMP PUSH1 0xE PUSH1 0x0 CALLER PUSH20 0xFFFFFFFFFFFFFFFFFFFFFFFFFFFFFFFFFFFFFFFF AND PUSH20 0xFFFFFFFFFFFFFFFFFFFFFFFFFFFFFFFFFFFFFFFF AND DUP2 MSTORE PUSH1 0x20 ADD SWAP1 DUP2 MSTORE PUSH1 0x20 ADD PUSH1 0x0 KECCAK256 SLOAD CALLER PUSH20 0xFFFFFFFFFFFFFFFFFFFFFFFFFFFFFFFFFFFFFFFF AND PUSH32 0x71E252E33F19F0223F47F27D00910548D26488B9B55CB5B410B75E273152F8D6 PUSH1 0x40 MLOAD PUSH1 0x40 MLOAD DUP1 SWAP2 SUB SWAP1 LOG4 PUSH1 0x0 ADDRESS PUSH20 0xFFFFFFFFFFFFFFFFFFFFFFFFFFFFFFFFFFFFFFFF AND BALANCE EQ ISZERO PUSH2 0xF8C JUMPI PUSH1 0x0 PUSH1 0xC PUSH1 0x0 PUSH2 0x100 EXP DUP2 SLOAD DUP2 PUSH1 0xFF MUL NOT AND SWAP1 DUP4 ISZERO ISZERO MUL OR SWAP1 SSTORE POP TIMESTAMP PUSH1 0xC PUSH1 0x0 SWAP1 SLOAD SWAP1 PUSH2 0x100 EXP SWAP1 DIV PUSH1 0xFF AND ISZERO ISZERO PUSH32 0x160914EA27C60AA29A5F3A69D74E6069869DE36E38939DE1E0A66B921D8623D2 PUSH1 0x40 MLOAD PUSH1 0x40 MLOAD DUP1 SWAP2 SUB SWAP1 LOG3 PUSH1 0x3 PUSH1 0xC PUSH1 0x1 PUSH2 0x100 EXP DUP2 SLOAD DUP2 PUSH1 0xFF MUL NOT AND SWAP1 DUP4 PUSH1 0x5 DUP2 GT ISZERO PUSH2 0xF3E JUMPI INVALID JUMPDEST MUL OR SWAP1 SSTORE POP TIMESTAMP PUSH1 0xC PUSH1 0x1 SWAP1 SLOAD SWAP1 PUSH2 0x100 EXP SWAP1 DIV PUSH1 0xFF AND PUSH1 0x5 DUP2 GT ISZERO PUSH2 0xF5F JUMPI INVALID JUMPDEST PUSH32 0xAAAE373901E745122C2E0925AD006227969C6CD190B7D5EA2FB7FDBD1D955B35 PUSH1 0x40 MLOAD PUSH1 0x40 MLOAD DUP1 SWAP2 SUB SWAP1 LOG3 JUMPDEST JUMP JUMPDEST PUSH1 0x0 DUP1 SWAP1 SLOAD SWAP1 PUSH2 0x100 EXP SWAP1 DIV PUSH20 0xFFFFFFFFFFFFFFFFFFFFFFFFFFFFFFFFFFFFFFFF AND PUSH20 0xFFFFFFFFFFFFFFFFFFFFFFFFFFFFFFFFFFFFFFFF AND CALLER PUSH20 0xFFFFFFFFFFFFFFFFFFFFFFFFFFFFFFFFFFFFFFFF AND EQ ISZERO ISZERO PUSH2 0xFE9 JUMPI PUSH1 0x0 DUP1 REVERT JUMPDEST PUSH1 0x0 DUP1 SWAP1 SLOAD SWAP1 PUSH2 0x100 EXP SWAP1 DIV PUSH20 0xFFFFFFFFFFFFFFFFFFFFFFFFFFFFFFFFFFFFFFFF AND PUSH20 0xFFFFFFFFFFFFFFFFFFFFFFFFFFFFFFFFFFFFFFFF AND SELFDESTRUCT JUMPDEST PUSH1 0x0 DUP1 SWAP1 SLOAD SWAP1 PUSH2 0x100 EXP SWAP1 DIV PUSH20 0xFFFFFFFFFFFFFFFFFFFFFFFFFFFFFFFFFFFFFFFF AND DUP2 JUMP JUMPDEST PUSH1 0x0 PUSH1 0x1 ISZERO ISZERO PUSH1 0xC PUSH1 0x0 SWAP1 SLOAD SWAP1 PUSH2 0x100 EXP SWAP1 DIV PUSH1 0xFF AND ISZERO ISZERO EQ ISZERO ISZERO PUSH2 0x106C JUMPI PUSH1 0x0 DUP1 REVERT JUMPDEST PUSH1 0x1 ISZERO ISZERO PUSH1 0xD PUSH1 0x0 CALLER PUSH20 0xFFFFFFFFFFFFFFFFFFFFFFFFFFFFFFFFFFFFFFFF AND PUSH20 0xFFFFFFFFFFFFFFFFFFFFFFFFFFFFFFFFFFFFFFFF AND DUP2 MSTORE PUSH1 0x20 ADD SWAP1 DUP2 MSTORE PUSH1 0x20 ADD PUSH1 0x0 KECCAK256 PUSH1 0x0 SWAP1 SLOAD SWAP1 PUSH2 0x100 EXP SWAP1 DIV PUSH1 0xFF AND ISZERO ISZERO EQ ISZERO ISZERO PUSH2 0x10CB JUMPI PUSH1 0x0 DUP1 REVERT JUMPDEST PUSH1 0x0 ISZERO ISZERO PUSH1 0x14 PUSH1 0x0 CALLER PUSH20 0xFFFFFFFFFFFFFFFFFFFFFFFFFFFFFFFFFFFFFFFF AND PUSH20 0xFFFFFFFFFFFFFFFFFFFFFFFFFFFFFFFFFFFFFFFF AND DUP2 MSTORE PUSH1 0x20 ADD SWAP1 DUP2 MSTORE PUSH1 0x20 ADD PUSH1 0x0 KECCAK256 PUSH1 0x0 SWAP1 SLOAD SWAP1 PUSH2 0x100 EXP SWAP1 DIV PUSH1 0xFF AND ISZERO ISZERO EQ ISZERO ISZERO PUSH2 0x112A JUMPI PUSH1 0x0 DUP1 REVERT JUMPDEST PUSH1 0x13 PUSH1 0x0 DUP2 SLOAD DUP1 SWAP3 SWAP2 SWAP1 PUSH1 0x1 ADD SWAP2 SWAP1 POP SSTORE POP PUSH1 0x1 ISZERO ISZERO PUSH1 0x14 PUSH1 0x0 CALLER PUSH20 0xFFFFFFFFFFFFFFFFFFFFFFFFFFFFFFFFFFFFFFFF AND PUSH20 0xFFFFFFFFFFFFFFFFFFFFFFFFFFFFFFFFFFFFFFFF AND DUP2 MSTORE PUSH1 0x20 ADD SWAP1 DUP2 MSTORE PUSH1 0x20 ADD PUSH1 0x0 KECCAK256 PUSH1 0x0 SWAP1 SLOAD SWAP1 PUSH2 0x100 EXP SWAP1 POP POP POP TIMESTAMP CALLER PUSH20 0xFFFFFFFFFFFFFFFFFFFFFFFFFFFFFFFFFFFFFFFF AND PUSH32 0x1DB613004119DDE2A638B639FBA9960C0E6064EE7C2D06F300E41C78920ED6DC PUSH1 0x40 MLOAD PUSH1 0x40 MLOAD DUP1 SWAP2 SUB SWAP1 LOG3 PUSH1 0x13 SLOAD PUSH1 0xF SLOAD EQ ISZERO PUSH2 0x11EB JUMPI PUSH2 0x11E4 PUSH2 0x198B JUMP JUMPDEST SWAP1 POP PUSH2 0x11F0 JUMP JUMPDEST PUSH1 0x1 SWAP1 POP JUMPDEST SWAP1 JUMP JUMPDEST PUSH1 0x0 DUP1 PUSH1 0x5 DUP2 GT ISZERO PUSH2 0x1201 JUMPI INVALID JUMPDEST PUSH1 0xC PUSH1 0x1 SWAP1 SLOAD SWAP1 PUSH2 0x100 EXP SWAP1 DIV PUSH1 0xFF AND PUSH1 0x5 DUP2 GT ISZERO PUSH2 0x121C JUMPI INVALID JUMPDEST EQ ISZERO ISZERO PUSH2 0x1228 JUMPI PUSH1 0x0 DUP1 REVERT JUMPDEST PUSH1 0x0 SWAP1 POP PUSH1 0x2 SLOAD ADDRESS PUSH20 0xFFFFFFFFFFFFFFFFFFFFFFFFFFFFFFFFFFFFFFFF AND BALANCE LT ISZERO ISZERO PUSH2 0x13BA JUMPI PUSH2 0x127A PUSH1 0x2 SLOAD ADDRESS PUSH20 0xFFFFFFFFFFFFFFFFFFFFFFFFFFFFFFFFFFFFFFFF AND BALANCE PUSH2 0x18E6 SWAP1 SWAP2 SWAP1 PUSH4 0xFFFFFFFF AND JUMP JUMPDEST SWAP1 POP PUSH2 0x12A6 DUP2 ADDRESS PUSH20 0xFFFFFFFFFFFFFFFFFFFFFFFFFFFFFFFFFFFFFFFF AND BALANCE PUSH2 0x18E6 SWAP1 SWAP2 SWAP1 PUSH4 0xFFFFFFFF AND JUMP JUMPDEST PUSH1 0x2 SLOAD EQ ISZERO ISZERO PUSH2 0x12B2 JUMPI INVALID JUMPDEST CALLVALUE DUP2 GT ISZERO ISZERO ISZERO PUSH2 0x12BE JUMPI INVALID JUMPDEST PUSH1 0x0 DUP2 GT ISZERO PUSH2 0x134D JUMPI CALLER PUSH20 0xFFFFFFFFFFFFFFFFFFFFFFFFFFFFFFFFFFFFFFFF AND PUSH2 0x8FC DUP3 SWAP1 DUP2 ISZERO MUL SWAP1 PUSH1 0x40 MLOAD PUSH1 0x0 PUSH1 0x40 MLOAD DUP1 DUP4 SUB DUP2 DUP6 DUP9 DUP9 CALL SWAP4 POP POP POP POP ISZERO ISZERO PUSH2 0x1307 JUMPI PUSH1 0x0 DUP1 REVERT JUMPDEST TIMESTAMP DUP2 CALLER PUSH20 0xFFFFFFFFFFFFFFFFFFFFFFFFFFFFFFFFFFFFFFFF AND PUSH32 0x566803F6E271B911C84F87631BCD310D6A6510BF8882577A96FC76975703E431 PUSH1 0x40 MLOAD PUSH1 0x40 MLOAD DUP1 SWAP2 SUB SWAP1 LOG4 JUMPDEST PUSH1 0x1 PUSH1 0xC PUSH1 0x1 PUSH2 0x100 EXP DUP2 SLOAD DUP2 PUSH1 0xFF MUL NOT AND SWAP1 DUP4 PUSH1 0x5 DUP2 GT ISZERO PUSH2 0x136C JUMPI INVALID JUMPDEST MUL OR SWAP1 SSTORE POP TIMESTAMP PUSH1 0xC PUSH1 0x1 SWAP1 SLOAD SWAP1 PUSH2 0x100 EXP SWAP1 DIV PUSH1 0xFF AND PUSH1 0x5 DUP2 GT ISZERO PUSH2 0x138D JUMPI INVALID JUMPDEST PUSH32 0xAAAE373901E745122C2E0925AD006227969C6CD190B7D5EA2FB7FDBD1D955B35 PUSH1 0x40 MLOAD PUSH1 0x40 MLOAD DUP1 SWAP2 SUB SWAP1 LOG3 JUMPDEST PUSH1 0x1 PUSH1 0xD PUSH1 0x0 CALLER PUSH20 0xFFFFFFFFFFFFFFFFFFFFFFFFFFFFFFFFFFFFFFFF AND PUSH20 0xFFFFFFFFFFFFFFFFFFFFFFFFFFFFFFFFFFFFFFFF AND DUP2 MSTORE PUSH1 0x20 ADD SWAP1 DUP2 MSTORE PUSH1 0x20 ADD PUSH1 0x0 KECCAK256 PUSH1 0x0 PUSH2 0x100 EXP DUP2 SLOAD DUP2 PUSH1 0xFF MUL NOT AND SWAP1 DUP4 ISZERO ISZERO MUL OR SWAP1 SSTORE POP PUSH1 0xF PUSH1 0x0 DUP2 SLOAD DUP1 SWAP3 SWAP2 SWAP1 PUSH1 0x1 ADD SWAP2 SWAP1 POP SSTORE POP PUSH2 0x1488 PUSH2 0x143A DUP3 CALLVALUE PUSH2 0x18E6 SWAP1 SWAP2 SWAP1 PUSH4 0xFFFFFFFF AND JUMP JUMPDEST PUSH1 0xE PUSH1 0x0 CALLER PUSH20 0xFFFFFFFFFFFFFFFFFFFFFFFFFFFFFFFFFFFFFFFF AND PUSH20 0xFFFFFFFFFFFFFFFFFFFFFFFFFFFFFFFFFFFFFFFF AND DUP2 MSTORE PUSH1 0x20 ADD SWAP1 DUP2 MSTORE PUSH1 0x20 ADD PUSH1 0x0 KECCAK256 SLOAD PUSH2 0x18FF SWAP1 SWAP2 SWAP1 PUSH4 0xFFFFFFFF AND JUMP JUMPDEST PUSH1 0xE PUSH1 0x0 CALLER PUSH20 0xFFFFFFFFFFFFFFFFFFFFFFFFFFFFFFFFFFFFFFFF AND PUSH20 0xFFFFFFFFFFFFFFFFFFFFFFFFFFFFFFFFFFFFFFFF AND DUP2 MSTORE PUSH1 0x20 ADD SWAP1 DUP2 MSTORE PUSH1 0x20 ADD PUSH1 0x0 KECCAK256 DUP2 SWAP1 SSTORE POP TIMESTAMP PUSH2 0x14DF DUP3 CALLVALUE PUSH2 0x18E6 SWAP1 SWAP2 SWAP1 PUSH4 0xFFFFFFFF AND JUMP JUMPDEST CALLER PUSH20 0xFFFFFFFFFFFFFFFFFFFFFFFFFFFFFFFFFFFFFFFF AND PUSH32 0x1B0969CE7F5B05C5E0969329A05CDBD7E2E2F6CEE33BA26FD6E6BBCFF82312CD PUSH1 0x40 MLOAD PUSH1 0x40 MLOAD DUP1 SWAP2 SUB SWAP1 LOG4 POP JUMP JUMPDEST PUSH1 0x0 PUSH1 0x1 ISZERO ISZERO PUSH1 0xC PUSH1 0x0 SWAP1 SLOAD SWAP1 PUSH2 0x100 EXP SWAP1 DIV PUSH1 0xFF AND ISZERO ISZERO EQ ISZERO ISZERO PUSH2 0x1549 JUMPI PUSH1 0x0 DUP1 REVERT JUMPDEST PUSH1 0x1 ISZERO ISZERO PUSH1 0xD PUSH1 0x0 CALLER PUSH20 0xFFFFFFFFFFFFFFFFFFFFFFFFFFFFFFFFFFFFFFFF AND PUSH20 0xFFFFFFFFFFFFFFFFFFFFFFFFFFFFFFFFFFFFFFFF AND DUP2 MSTORE PUSH1 0x20 ADD SWAP1 DUP2 MSTORE PUSH1 0x20 ADD PUSH1 0x0 KECCAK256 PUSH1 0x0 SWAP1 SLOAD SWAP1 PUSH2 0x100 EXP SWAP1 DIV PUSH1 0xFF AND ISZERO ISZERO EQ ISZERO ISZERO PUSH2 0x15A8 JUMPI PUSH1 0x0 DUP1 REVERT JUMPDEST PUSH1 0x2 PUSH1 0x5 DUP2 GT ISZERO PUSH2 0x15B5 JUMPI INVALID JUMPDEST PUSH1 0xC PUSH1 0x1 SWAP1 SLOAD SWAP1 PUSH2 0x100 EXP SWAP1 DIV PUSH1 0xFF AND PUSH1 0x5 DUP2 GT ISZERO PUSH2 0x15D0 JUMPI INVALID JUMPDEST EQ ISZERO ISZERO PUSH2 0x15DC JUMPI PUSH1 0x0 DUP1 REVERT JUMPDEST PUSH1 0x0 PUSH1 0xE PUSH1 0x0 CALLER PUSH20 0xFFFFFFFFFFFFFFFFFFFFFFFFFFFFFFFFFFFFFFFF AND PUSH20 0xFFFFFFFFFFFFFFFFFFFFFFFFFFFFFFFFFFFFFFFF AND DUP2 MSTORE PUSH1 0x20 ADD SWAP1 DUP2 MSTORE PUSH1 0x20 ADD PUSH1 0x0 KECCAK256 SLOAD GT ISZERO ISZERO PUSH2 0x162A JUMPI PUSH1 0x0 DUP1 REVERT JUMPDEST PUSH1 0xF SLOAD PUSH1 0x3 SLOAD DUP2 ISZERO ISZERO PUSH2 0x1639 JUMPI INVALID JUMPDEST DIV SWAP1 POP DUP1 ADDRESS PUSH20 0xFFFFFFFFFFFFFFFFFFFFFFFFFFFFFFFFFFFFFFFF AND BALANCE LT ISZERO ISZERO ISZERO PUSH2 0x165F JUMPI INVALID JUMPDEST CALLER PUSH20 0xFFFFFFFFFFFFFFFFFFFFFFFFFFFFFFFFFFFFFFFF AND PUSH2 0x8FC DUP3 SWAP1 DUP2 ISZERO MUL SWAP1 PUSH1 0x40 MLOAD PUSH1 0x0 PUSH1 0x40 MLOAD DUP1 DUP4 SUB DUP2 DUP6 DUP9 DUP9 CALL SWAP4 POP POP POP POP ISZERO ISZERO PUSH2 0x169F JUMPI PUSH1 0x0 DUP1 REVERT JUMPDEST TIMESTAMP DUP2 CALLER PUSH20 0xFFFFFFFFFFFFFFFFFFFFFFFFFFFFFFFFFFFFFFFF AND PUSH32 0x52F6685DF2F773F854B17DB1D82E2352E222010DAAF8175761F02EF8782C403 PUSH1 0x40 MLOAD PUSH1 0x40 MLOAD DUP1 SWAP2 SUB SWAP1 LOG4 PUSH1 0x0 ADDRESS PUSH20 0xFFFFFFFFFFFFFFFFFFFFFFFFFFFFFFFFFFFFFFFF AND BALANCE EQ ISZERO PUSH2 0x17CB JUMPI PUSH1 0x0 PUSH1 0xC PUSH1 0x0 PUSH2 0x100 EXP DUP2 SLOAD DUP2 PUSH1 0xFF MUL NOT AND SWAP1 DUP4 ISZERO ISZERO MUL OR SWAP1 SSTORE POP TIMESTAMP PUSH1 0xC PUSH1 0x0 SWAP1 SLOAD SWAP1 PUSH2 0x100 EXP SWAP1 DIV PUSH1 0xFF AND ISZERO ISZERO PUSH32 0x160914EA27C60AA29A5F3A69D74E6069869DE36E38939DE1E0A66B921D8623D2 PUSH1 0x40 MLOAD PUSH1 0x40 MLOAD DUP1 SWAP2 SUB SWAP1 LOG3 PUSH1 0x3 PUSH1 0xC PUSH1 0x1 PUSH2 0x100 EXP DUP2 SLOAD DUP2 PUSH1 0xFF MUL NOT AND SWAP1 DUP4 PUSH1 0x5 DUP2 GT ISZERO PUSH2 0x177D JUMPI INVALID JUMPDEST MUL OR SWAP1 SSTORE POP TIMESTAMP PUSH1 0xC PUSH1 0x1 SWAP1 SLOAD SWAP1 PUSH2 0x100 EXP SWAP1 DIV PUSH1 0xFF AND PUSH1 0x5 DUP2 GT ISZERO PUSH2 0x179E JUMPI INVALID JUMPDEST PUSH32 0xAAAE373901E745122C2E0925AD006227969C6CD190B7D5EA2FB7FDBD1D955B35 PUSH1 0x40 MLOAD PUSH1 0x40 MLOAD DUP1 SWAP2 SUB SWAP1 LOG3 JUMPDEST POP JUMP JUMPDEST PUSH1 0x0 DUP1 PUSH1 0x0 DUP1 PUSH1 0x0 DUP1 PUSH1 0x0 DUP1 PUSH1 0x0 DUP1 PUSH1 0x0 PUSH1 0x1 PUSH1 0x0 SWAP1 SLOAD SWAP1 PUSH2 0x100 EXP SWAP1 DIV PUSH20 0xFFFFFFFFFFFFFFFFFFFFFFFFFFFFFFFFFFFFFFFF AND PUSH1 0xB SLOAD PUSH1 0x2 SLOAD PUSH1 0x6 SLOAD PUSH1 0x8 SLOAD PUSH1 0x7 SLOAD PUSH1 0x5 SLOAD PUSH1 0x3 SLOAD PUSH1 0xC PUSH1 0x1 SWAP1 SLOAD SWAP1 PUSH2 0x100 EXP SWAP1 DIV PUSH1 0xFF AND PUSH1 0xC PUSH1 0x0 SWAP1 SLOAD SWAP1 PUSH2 0x100 EXP SWAP1 DIV PUSH1 0xFF AND ADDRESS PUSH20 0xFFFFFFFFFFFFFFFFFFFFFFFFFFFFFFFFFFFFFFFF AND BALANCE SWAP11 POP SWAP11 POP SWAP11 POP SWAP11 POP SWAP11 POP SWAP11 POP SWAP11 POP SWAP11 POP SWAP11 POP SWAP11 POP SWAP11 POP SWAP1 SWAP2 SWAP3 SWAP4 SWAP5 SWAP6 SWAP7 SWAP8 SWAP9 SWAP10 SWAP11 JUMP JUMPDEST PUSH1 0x0 DUP1 SWAP1 SLOAD SWAP1 PUSH2 0x100 EXP SWAP1 DIV PUSH20 0xFFFFFFFFFFFFFFFFFFFFFFFFFFFFFFFFFFFFFFFF AND PUSH20 0xFFFFFFFFFFFFFFFFFFFFFFFFFFFFFFFFFFFFFFFF AND CALLER PUSH20 0xFFFFFFFFFFFFFFFFFFFFFFFFFFFFFFFFFFFFFFFF AND EQ ISZERO ISZERO PUSH2 0x18CD JUMPI PUSH1 0x0 DUP1 REVERT JUMPDEST DUP1 PUSH20 0xFFFFFFFFFFFFFFFFFFFFFFFFFFFFFFFFFFFFFFFF AND SELFDESTRUCT JUMPDEST PUSH1 0x0 DUP3 DUP3 GT ISZERO ISZERO ISZERO PUSH2 0x18F4 JUMPI INVALID JUMPDEST DUP2 DUP4 SUB SWAP1 POP SWAP3 SWAP2 POP POP JUMP JUMPDEST PUSH1 0x0 DUP1 DUP3 DUP5 ADD SWAP1 POP DUP4 DUP2 LT ISZERO ISZERO ISZERO PUSH2 0x1913 JUMPI INVALID JUMPDEST DUP1 SWAP2 POP POP SWAP3 SWAP2 POP POP JUMP JUMPDEST PUSH1 0x4 PUSH1 0xC PUSH1 0x1 PUSH2 0x100 EXP DUP2 SLOAD DUP2 PUSH1 0xFF MUL NOT AND SWAP1 DUP4 PUSH1 0x5 DUP2 GT ISZERO PUSH2 0x193C JUMPI INVALID JUMPDEST MUL OR SWAP1 SSTORE POP TIMESTAMP PUSH1 0xC PUSH1 0x1 SWAP1 SLOAD SWAP1 PUSH2 0x100 EXP SWAP1 DIV PUSH1 0xFF AND PUSH1 0x5 DUP2 GT ISZERO PUSH2 0x195D JUMPI INVALID JUMPDEST PUSH32 0xAAAE373901E745122C2E0925AD006227969C6CD190B7D5EA2FB7FDBD1D955B35 PUSH1 0x40 MLOAD PUSH1 0x40 MLOAD DUP1 SWAP2 SUB SWAP1 LOG3 JUMP JUMPDEST PUSH1 0x0 DUP1 PUSH1 0x0 DUP1 SWAP1 SLOAD SWAP1 PUSH2 0x100 EXP SWAP1 DIV PUSH20 0xFFFFFFFFFFFFFFFFFFFFFFFFFFFFFFFFFFFFFFFF AND PUSH20 0xFFFFFFFFFFFFFFFFFFFFFFFFFFFFFFFFFFFFFFFF AND PUSH1 0x40 MLOAD DUP1 DUP1 PUSH32 0x7365744672617564537461747573286164647265737329000000000000000000 DUP2 MSTORE POP PUSH1 0x17 ADD SWAP1 POP PUSH1 0x40 MLOAD DUP1 SWAP2 SUB SWAP1 KECCAK256 PUSH29 0x100000000000000000000000000000000000000000000000000000000 SWAP1 DIV PUSH1 0x1 PUSH1 0x0 SWAP1 SLOAD SWAP1 PUSH2 0x100 EXP SWAP1 DIV PUSH20 0xFFFFFFFFFFFFFFFFFFFFFFFFFFFFFFFFFFFFFFFF AND PUSH1 0x40 MLOAD DUP3 PUSH4 0xFFFFFFFF AND PUSH29 0x100000000000000000000000000000000000000000000000000000000 MUL DUP2 MSTORE PUSH1 0x4 ADD DUP1 DUP3 PUSH20 0xFFFFFFFFFFFFFFFFFFFFFFFFFFFFFFFFFFFFFFFF AND PUSH20 0xFFFFFFFFFFFFFFFFFFFFFFFFFFFFFFFFFFFFFFFF AND DUP2 MSTORE PUSH1 0x20 ADD SWAP2 POP POP PUSH1 0x0 PUSH1 0x40 MLOAD DUP1 DUP4 SUB DUP2 PUSH1 0x0 DUP8 PUSH2 0x646E GAS SUB CALL SWAP3 POP POP POP SWAP1 POP TIMESTAMP DUP2 ISZERO ISZERO PUSH1 0x1 PUSH1 0x0 SWAP1 SLOAD SWAP1 PUSH2 0x100 EXP SWAP1 DIV PUSH20 0xFFFFFFFFFFFFFFFFFFFFFFFFFFFFFFFFFFFFFFFF AND PUSH20 0xFFFFFFFFFFFFFFFFFFFFFFFFFFFFFFFFFFFFFFFF AND PUSH32 0xC1BB1D1E99D1E8D2705BA85717226A3FD9A86E4DE2284B00DFE6F33538D5249F PUSH1 0x40 MLOAD PUSH1 0x40 MLOAD DUP1 SWAP2 SUB SWAP1 LOG4 DUP1 SWAP2 POP POP SWAP1 JUMP JUMPDEST PUSH1 0x0 DUP1 DUP3 DUP5 DUP2 ISZERO ISZERO PUSH2 0x1B39 JUMPI INVALID JUMPDEST DIV SWAP1 POP DUP1 SWAP2 POP POP SWAP3 SWAP2 POP POP JUMP STOP LOG1 PUSH6 0x627A7A723058 KECCAK256 0xc6 0xbd SELFDESTRUCT 0xaf DUP6 PUSH27 0x7CBC472E17A61185316C899F2D1B52AFCF33283BE95188B4BBA100 0x29 "
				},
				"gasEstimates": {
					"creation": {
						"codeDepositCost": "1405200",
						"executionCost": "infinite",
						"totalCost": "infinite"
					},
					"external": {
						"changeState(uint8)": "22710",
						"destroy()": "30816",
						"destroyAndSend(address)": "30752",
						"fraudVote()": "infinite",
						"getBalance()": "599",
						"getCreditInfo()": "3457",
						"invest()": "infinite",
						"lenders(address)": "583",
						"owner()": "632",
						"refund()": "infinite",
						"repay()": "infinite",
						"requestInterest()": "infinite",
						"revokeVote()": "46604",
						"toggleActive()": "23064",
						"withdraw()": "infinite"
					},
					"internal": {
						"fraud()": "infinite",
						"revoke()": "22199"
					}
				},
				"methodIdentifiers": {
					"changeState(uint8)": "268f1153",
					"destroy()": "83197ef0",
					"destroyAndSend(address)": "f5074f41",
					"fraudVote()": "d85da7b6",
					"getBalance()": "12065fe0",
					"getCreditInfo()": "f06817cf",
					"invest()": "e8b5e51f",
					"lenders(address)": "28fd10d7",
					"owner()": "8da5cb5b",
					"refund()": "590e1ae3",
					"repay()": "402d8883",
					"requestInterest()": "efd475ab",
					"revokeVote()": "43c14b22",
					"toggleActive()": "29c68dc1",
					"withdraw()": "3ccfd60b"
				}
			},
			"userdoc": {
				"methods": {}
			}
		}
	}
}