{
	"smart-contracts/contracts/PeerToPeerLending.sol": {
		"PeerToPeerLending": {
			"abi": [
				{
					"constant": true,
					"inputs": [
						{
							"name": "",
							"type": "uint256"
						}
					],
					"name": "credits",
					"outputs": [
						{
							"name": "",
							"type": "address"
						}
					],
					"payable": false,
					"stateMutability": "view",
					"type": "function"
				},
				{
					"constant": true,
					"inputs": [],
					"name": "getUserCredits",
					"outputs": [
						{
							"name": "",
							"type": "address[]"
						}
					],
					"payable": false,
					"stateMutability": "view",
					"type": "function"
				},
				{
					"constant": false,
					"inputs": [
						{
							"name": "_credit",
							"type": "address"
						}
					],
					"name": "changeCreditState",
					"outputs": [],
					"payable": false,
					"stateMutability": "nonpayable",
					"type": "function"
				},
				{
					"constant": true,
					"inputs": [],
					"name": "getCredits",
					"outputs": [
						{
							"name": "",
							"type": "address[]"
						}
					],
					"payable": false,
					"stateMutability": "view",
					"type": "function"
				},
				{
					"constant": false,
					"inputs": [],
					"name": "destroy",
					"outputs": [],
					"payable": false,
					"stateMutability": "nonpayable",
					"type": "function"
				},
				{
					"constant": true,
					"inputs": [],
					"name": "owner",
					"outputs": [
						{
							"name": "",
							"type": "address"
						}
					],
					"payable": false,
					"stateMutability": "view",
					"type": "function"
				},
				{
					"constant": true,
					"inputs": [
						{
							"name": "",
							"type": "address"
						}
					],
					"name": "users",
					"outputs": [
						{
							"name": "credited",
							"type": "bool"
						},
						{
							"name": "activeCredit",
							"type": "address"
						},
						{
							"name": "fraudStatus",
							"type": "bool"
						}
					],
					"payable": false,
					"stateMutability": "view",
					"type": "function"
				},
				{
					"constant": false,
					"inputs": [
						{
							"name": "_borrower",
							"type": "address"
						}
					],
					"name": "setFraudStatus",
					"outputs": [
						{
							"name": "",
							"type": "bool"
						}
					],
					"payable": false,
					"stateMutability": "nonpayable",
					"type": "function"
				},
				{
					"constant": false,
					"inputs": [
						{
							"name": "requestedAmount",
							"type": "uint256"
						},
						{
							"name": "repaymentsCount",
							"type": "uint256"
						},
						{
							"name": "interest",
							"type": "uint256"
						},
						{
							"name": "creditDescription",
							"type": "bytes32"
						}
					],
					"name": "applyForCredit",
					"outputs": [
						{
							"name": "_credit",
							"type": "address"
						}
					],
					"payable": false,
					"stateMutability": "nonpayable",
					"type": "function"
				},
				{
					"constant": false,
					"inputs": [
						{
							"name": "_recipient",
							"type": "address"
						}
					],
					"name": "destroyAndSend",
					"outputs": [],
					"payable": false,
					"stateMutability": "nonpayable",
					"type": "function"
				},
				{
					"constant": false,
					"inputs": [
						{
							"name": "_credit",
							"type": "address"
						},
						{
							"name": "state",
							"type": "uint8"
						}
					],
					"name": "changeCreditState",
					"outputs": [],
					"payable": false,
					"stateMutability": "nonpayable",
					"type": "function"
				},
				{
					"inputs": [],
					"payable": false,
					"stateMutability": "nonpayable",
					"type": "constructor"
				},
				{
					"anonymous": false,
					"inputs": [
						{
							"indexed": true,
							"name": "_address",
							"type": "address"
						},
						{
							"indexed": true,
							"name": "_borrower",
							"type": "address"
						},
						{
							"indexed": true,
							"name": "timestamp",
							"type": "uint256"
						}
					],
					"name": "LogCreditCreated",
					"type": "event"
				},
				{
					"anonymous": false,
					"inputs": [
						{
							"indexed": true,
							"name": "_address",
							"type": "address"
						},
						{
							"indexed": true,
							"name": "state",
							"type": "uint8"
						},
						{
							"indexed": true,
							"name": "timestamp",
							"type": "uint256"
						}
					],
					"name": "LogCreditStateChanged",
					"type": "event"
				},
				{
					"anonymous": false,
					"inputs": [
						{
							"indexed": true,
							"name": "_address",
							"type": "address"
						},
						{
							"indexed": true,
							"name": "active",
							"type": "bool"
						},
						{
							"indexed": true,
							"name": "timestamp",
							"type": "uint256"
						}
					],
					"name": "LogCreditActiveChanged",
					"type": "event"
				},
				{
					"anonymous": false,
					"inputs": [
						{
							"indexed": true,
							"name": "_address",
							"type": "address"
						},
						{
							"indexed": false,
							"name": "fraudStatus",
							"type": "bool"
						},
						{
							"indexed": false,
							"name": "timestamp",
							"type": "uint256"
						}
					],
					"name": "LogUserSetFraud",
					"type": "event"
				},
				{
					"anonymous": false,
					"inputs": [
						{
							"indexed": true,
							"name": "_currentOwner",
							"type": "address"
						},
						{
							"indexed": true,
							"name": "_newOwner",
							"type": "address"
						}
					],
					"name": "LogOwnershipTransfered",
					"type": "event"
				}
			],
			"devdoc": {
				"methods": {}
			},
			"evm": {
				"assembly": "    /* \"smart-contracts/contracts/PeerToPeerLending.sol\":124:3613  contract PeerToPeerLending is Destructible {\r... */\n  mstore(0x40, 0x60)\n    /* \"smart-contracts/contracts/PeerToPeerLending.sol\":1169:1215  function PeerToPeerLending() public {\r... */\n  jumpi(tag_1, iszero(callvalue))\n  0x0\n  dup1\n  revert\ntag_1:\n    /* \"smart-contracts/contracts/PeerToPeerLending.sol\":124:3613  contract PeerToPeerLending is Destructible {\r... */\n  dataSize(sub_0)\n  dup1\n  dataOffset(sub_0)\n  0x0\n  codecopy\n  0x0\n  return\nstop\n\nsub_0: assembly {\n        /* \"smart-contracts/contracts/PeerToPeerLending.sol\":124:3613  contract PeerToPeerLending is Destructible {\r... */\n      mstore(0x40, 0x60)\n      jumpi(tag_1, lt(calldatasize, 0x4))\n      calldataload(0x0)\n      0x100000000000000000000000000000000000000000000000000000000\n      swap1\n      div\n      0xffffffff\n      and\n      dup1\n      0x36a1c22\n      eq\n      tag_2\n      jumpi\n      dup1\n      0x2092cb33\n      eq\n      tag_3\n      jumpi\n      dup1\n      0x59658c48\n      eq\n      tag_4\n      jumpi\n      dup1\n      0x823a71af\n      eq\n      tag_5\n      jumpi\n      dup1\n      0x83197ef0\n      eq\n      tag_6\n      jumpi\n      dup1\n      0x8da5cb5b\n      eq\n      tag_7\n      jumpi\n      dup1\n      0xa87430ba\n      eq\n      tag_8\n      jumpi\n      dup1\n      0xbb9e4247\n      eq\n      tag_9\n      jumpi\n      dup1\n      0xebb5d8ed\n      eq\n      tag_10\n      jumpi\n      dup1\n      0xf5074f41\n      eq\n      tag_11\n      jumpi\n      dup1\n      0xfa838e54\n      eq\n      tag_12\n      jumpi\n    tag_1:\n      0x0\n      dup1\n      revert\n        /* \"smart-contracts/contracts/PeerToPeerLending.sol\":722:746  address[] public credits */\n    tag_2:\n      jumpi(tag_13, iszero(callvalue))\n      0x0\n      dup1\n      revert\n    tag_13:\n      tag_14\n      0x4\n      dup1\n      dup1\n      calldataload\n      swap1\n      0x20\n      add\n      swap1\n      swap2\n      swap1\n      pop\n      pop\n      jump(tag_15)\n    tag_14:\n      mload(0x40)\n      dup1\n      dup3\n      0xffffffffffffffffffffffffffffffffffffffff\n      and\n      0xffffffffffffffffffffffffffffffffffffffff\n      and\n      dup2\n      mstore\n      0x20\n      add\n      swap2\n      pop\n      pop\n      mload(0x40)\n      dup1\n      swap2\n      sub\n      swap1\n      return\n        /* \"smart-contracts/contracts/PeerToPeerLending.sol\":2533:2645  function getUserCredits() public view returns (address[]) {\r... */\n    tag_3:\n      jumpi(tag_16, iszero(callvalue))\n      0x0\n      dup1\n      revert\n    tag_16:\n      tag_17\n      jump(tag_18)\n    tag_17:\n      mload(0x40)\n      dup1\n      dup1\n      0x20\n      add\n      dup3\n      dup2\n      sub\n      dup3\n      mstore\n      dup4\n      dup2\n      dup2\n      mload\n      dup2\n      mstore\n      0x20\n      add\n      swap2\n      pop\n      dup1\n      mload\n      swap1\n      0x20\n      add\n      swap1\n      0x20\n      mul\n      dup1\n      dup4\n      dup4\n        /* \"--CODEGEN--\":23:24   */\n      0x0\n        /* \"--CODEGEN--\":8:108   */\n    tag_19:\n        /* \"--CODEGEN--\":33:36   */\n      dup4\n        /* \"--CODEGEN--\":30:31   */\n      dup2\n        /* \"--CODEGEN--\":27:29   */\n      lt\n        /* \"--CODEGEN--\":8:108   */\n      iszero\n      tag_20\n      jumpi\n        /* \"--CODEGEN--\":99:100   */\n      dup1\n        /* \"--CODEGEN--\":94:97   */\n      dup3\n        /* \"--CODEGEN--\":90:93   */\n      add\n        /* \"--CODEGEN--\":84:89   */\n      mload\n        /* \"--CODEGEN--\":80:81   */\n      dup2\n        /* \"--CODEGEN--\":75:78   */\n      dup5\n        /* \"--CODEGEN--\":71:74   */\n      add\n        /* \"--CODEGEN--\":64:70   */\n      mstore\n        /* \"--CODEGEN--\":52:54   */\n      0x20\n        /* \"--CODEGEN--\":49:50   */\n      dup2\n        /* \"--CODEGEN--\":45:48   */\n      add\n        /* \"--CODEGEN--\":40:55   */\n      swap1\n      pop\n        /* \"--CODEGEN--\":8:108   */\n      jump(tag_19)\n    tag_20:\n        /* \"--CODEGEN--\":12:26   */\n      pop\n        /* \"--CODEGEN--\":3:112   */\n      pop\n      pop\n      pop\n      swap1\n      pop\n      add\n      swap3\n      pop\n      pop\n      pop\n      mload(0x40)\n      dup1\n      swap2\n      sub\n      swap1\n      return\n        /* \"smart-contracts/contracts/PeerToPeerLending.sol\":3301:3610  function changeCreditState (Credit _credit) public onlyOwner {\r... */\n    tag_4:\n      jumpi(tag_22, iszero(callvalue))\n      0x0\n      dup1\n      revert\n    tag_22:\n      tag_23\n      0x4\n      dup1\n      dup1\n      calldataload\n      0xffffffffffffffffffffffffffffffffffffffff\n      and\n      swap1\n      0x20\n      add\n      swap1\n      swap2\n      swap1\n      pop\n      pop\n      jump(tag_24)\n    tag_23:\n      stop\n        /* \"smart-contracts/contracts/PeerToPeerLending.sol\":2438:2525  function getCredits() public view returns (address[]) {\r... */\n    tag_5:\n      jumpi(tag_25, iszero(callvalue))\n      0x0\n      dup1\n      revert\n    tag_25:\n      tag_26\n      jump(tag_27)\n    tag_26:\n      mload(0x40)\n      dup1\n      dup1\n      0x20\n      add\n      dup3\n      dup2\n      sub\n      dup3\n      mstore\n      dup4\n      dup2\n      dup2\n      mload\n      dup2\n      mstore\n      0x20\n      add\n      swap2\n      pop\n      dup1\n      mload\n      swap1\n      0x20\n      add\n      swap1\n      0x20\n      mul\n      dup1\n      dup4\n      dup4\n        /* \"--CODEGEN--\":23:24   */\n      0x0\n        /* \"--CODEGEN--\":8:108   */\n    tag_28:\n        /* \"--CODEGEN--\":33:36   */\n      dup4\n        /* \"--CODEGEN--\":30:31   */\n      dup2\n        /* \"--CODEGEN--\":27:29   */\n      lt\n        /* \"--CODEGEN--\":8:108   */\n      iszero\n      tag_29\n      jumpi\n        /* \"--CODEGEN--\":99:100   */\n      dup1\n        /* \"--CODEGEN--\":94:97   */\n      dup3\n        /* \"--CODEGEN--\":90:93   */\n      add\n        /* \"--CODEGEN--\":84:89   */\n      mload\n        /* \"--CODEGEN--\":80:81   */\n      dup2\n        /* \"--CODEGEN--\":75:78   */\n      dup5\n        /* \"--CODEGEN--\":71:74   */\n      add\n        /* \"--CODEGEN--\":64:70   */\n      mstore\n        /* \"--CODEGEN--\":52:54   */\n      0x20\n        /* \"--CODEGEN--\":49:50   */\n      dup2\n        /* \"--CODEGEN--\":45:48   */\n      add\n        /* \"--CODEGEN--\":40:55   */\n      swap1\n      pop\n        /* \"--CODEGEN--\":8:108   */\n      jump(tag_28)\n    tag_29:\n        /* \"--CODEGEN--\":12:26   */\n      pop\n        /* \"--CODEGEN--\":3:112   */\n      pop\n      pop\n      pop\n      swap1\n      pop\n      add\n      swap3\n      pop\n      pop\n      pop\n      mload(0x40)\n      dup1\n      swap2\n      sub\n      swap1\n      return\n        /* \"smart-contracts/contracts/common/Destructible.sol\":151:225  function destroy() public onlyOwner {\r... */\n    tag_6:\n      jumpi(tag_31, iszero(callvalue))\n      0x0\n      dup1\n      revert\n    tag_31:\n      tag_32\n      jump(tag_33)\n    tag_32:\n      stop\n        /* \"smart-contracts/contracts/common/Ownable.sol\":54:74  address public owner */\n    tag_7:\n      jumpi(tag_34, iszero(callvalue))\n      0x0\n      dup1\n      revert\n    tag_34:\n      tag_35\n      jump(tag_36)\n    tag_35:\n      mload(0x40)\n      dup1\n      dup3\n      0xffffffffffffffffffffffffffffffffffffffff\n      and\n      0xffffffffffffffffffffffffffffffffffffffff\n      and\n      dup2\n      mstore\n      0x20\n      add\n      swap2\n      pop\n      pop\n      mload(0x40)\n      dup1\n      swap2\n      sub\n      swap1\n      return\n        /* \"smart-contracts/contracts/PeerToPeerLending.sol\":637:674  mapping(address => User) public users */\n    tag_8:\n      jumpi(tag_37, iszero(callvalue))\n      0x0\n      dup1\n      revert\n    tag_37:\n      tag_38\n      0x4\n      dup1\n      dup1\n      calldataload\n      0xffffffffffffffffffffffffffffffffffffffff\n      and\n      swap1\n      0x20\n      add\n      swap1\n      swap2\n      swap1\n      pop\n      pop\n      jump(tag_39)\n    tag_38:\n      mload(0x40)\n      dup1\n      dup5\n      iszero\n      iszero\n      iszero\n      iszero\n      dup2\n      mstore\n      0x20\n      add\n      dup4\n      0xffffffffffffffffffffffffffffffffffffffff\n      and\n      0xffffffffffffffffffffffffffffffffffffffff\n      and\n      dup2\n      mstore\n      0x20\n      add\n      dup3\n      iszero\n      iszero\n      iszero\n      iszero\n      dup2\n      mstore\n      0x20\n      add\n      swap4\n      pop\n      pop\n      pop\n      pop\n      mload(0x40)\n      dup1\n      swap2\n      sub\n      swap1\n      return\n        /* \"smart-contracts/contracts/PeerToPeerLending.sol\":2653:2976  function setFraudStatus(address _borrower) external returns (bool) {\r... */\n    tag_9:\n      jumpi(tag_40, iszero(callvalue))\n      0x0\n      dup1\n      revert\n    tag_40:\n      tag_41\n      0x4\n      dup1\n      dup1\n      calldataload\n      0xffffffffffffffffffffffffffffffffffffffff\n      and\n      swap1\n      0x20\n      add\n      swap1\n      swap2\n      swap1\n      pop\n      pop\n      jump(tag_42)\n    tag_41:\n      mload(0x40)\n      dup1\n      dup3\n      iszero\n      iszero\n      iszero\n      iszero\n      dup2\n      mstore\n      0x20\n      add\n      swap2\n      pop\n      pop\n      mload(0x40)\n      dup1\n      swap2\n      sub\n      swap1\n      return\n        /* \"smart-contracts/contracts/PeerToPeerLending.sol\":1223:2430  function applyForCredit(uint requestedAmount, uint repaymentsCount, uint interest, bytes32 creditDescription) public returns(address _credit) {\r... */\n    tag_10:\n      jumpi(tag_43, iszero(callvalue))\n      0x0\n      dup1\n      revert\n    tag_43:\n      tag_44\n      0x4\n      dup1\n      dup1\n      calldataload\n      swap1\n      0x20\n      add\n      swap1\n      swap2\n      swap1\n      dup1\n      calldataload\n      swap1\n      0x20\n      add\n      swap1\n      swap2\n      swap1\n      dup1\n      calldataload\n      swap1\n      0x20\n      add\n      swap1\n      swap2\n      swap1\n      dup1\n      calldataload\n      not(0x0)\n      and\n      swap1\n      0x20\n      add\n      swap1\n      swap2\n      swap1\n      pop\n      pop\n      jump(tag_45)\n    tag_44:\n      mload(0x40)\n      dup1\n      dup3\n      0xffffffffffffffffffffffffffffffffffffffff\n      and\n      0xffffffffffffffffffffffffffffffffffffffff\n      and\n      dup2\n      mstore\n      0x20\n      add\n      swap2\n      pop\n      pop\n      mload(0x40)\n      dup1\n      swap2\n      sub\n      swap1\n      return\n        /* \"smart-contracts/contracts/common/Destructible.sol\":237:341  function destroyAndSend(address _recipient) public onlyOwner {\r... */\n    tag_11:\n      jumpi(tag_46, iszero(callvalue))\n      0x0\n      dup1\n      revert\n    tag_46:\n      tag_47\n      0x4\n      dup1\n      dup1\n      calldataload\n      0xffffffffffffffffffffffffffffffffffffffff\n      and\n      swap1\n      0x20\n      add\n      swap1\n      swap2\n      swap1\n      pop\n      pop\n      jump(tag_48)\n    tag_47:\n      stop\n        /* \"smart-contracts/contracts/PeerToPeerLending.sol\":2984:3293  function changeCreditState (Credit _credit, Credit.State state) public onlyOwner {\r... */\n    tag_12:\n      jumpi(tag_49, iszero(callvalue))\n      0x0\n      dup1\n      revert\n    tag_49:\n      tag_50\n      0x4\n      dup1\n      dup1\n      calldataload\n      0xffffffffffffffffffffffffffffffffffffffff\n      and\n      swap1\n      0x20\n      add\n      swap1\n      swap2\n      swap1\n      dup1\n      calldataload\n      0xff\n      and\n      swap1\n      0x20\n      add\n      swap1\n      swap2\n      swap1\n      pop\n      pop\n      jump(tag_51)\n    tag_50:\n      stop\n        /* \"smart-contracts/contracts/PeerToPeerLending.sol\":722:746  address[] public credits */\n    tag_15:\n      0x2\n      dup2\n      dup2\n      sload\n      dup2\n      lt\n      iszero\n      iszero\n      tag_52\n      jumpi\n      invalid\n    tag_52:\n      swap1\n      0x0\n      mstore\n      keccak256(0x0, 0x20)\n      swap1\n      add\n      0x0\n      swap2\n      pop\n      sload\n      swap1\n      0x100\n      exp\n      swap1\n      div\n      0xffffffffffffffffffffffffffffffffffffffff\n      and\n      dup2\n      jump\t// out\n        /* \"smart-contracts/contracts/PeerToPeerLending.sol\":2533:2645  function getUserCredits() public view returns (address[]) {\r... */\n    tag_18:\n        /* \"smart-contracts/contracts/PeerToPeerLending.sol\":2580:2589  address[] */\n      tag_54\n      jump\t// in(tag_55)\n    tag_54:\n        /* \"smart-contracts/contracts/PeerToPeerLending.sol\":2609:2614  users */\n      0x1\n        /* \"smart-contracts/contracts/PeerToPeerLending.sol\":2609:2626  users[msg.sender] */\n      0x0\n        /* \"smart-contracts/contracts/PeerToPeerLending.sol\":2615:2625  msg.sender */\n      caller\n        /* \"smart-contracts/contracts/PeerToPeerLending.sol\":2609:2626  users[msg.sender] */\n      0xffffffffffffffffffffffffffffffffffffffff\n      and\n      0xffffffffffffffffffffffffffffffffffffffff\n      and\n      dup2\n      mstore\n      0x20\n      add\n      swap1\n      dup2\n      mstore\n      0x20\n      add\n      0x0\n      keccak256\n        /* \"smart-contracts/contracts/PeerToPeerLending.sol\":2609:2637  users[msg.sender].allCredits */\n      0x1\n      add\n        /* \"smart-contracts/contracts/PeerToPeerLending.sol\":2602:2637  return users[msg.sender].allCredits */\n      dup1\n      sload\n      dup1\n      0x20\n      mul\n      0x20\n      add\n      mload(0x40)\n      swap1\n      dup2\n      add\n      0x40\n      mstore\n      dup1\n      swap3\n      swap2\n      swap1\n      dup2\n      dup2\n      mstore\n      0x20\n      add\n      dup3\n      dup1\n      sload\n      dup1\n      iszero\n      tag_57\n      jumpi\n      0x20\n      mul\n      dup3\n      add\n      swap2\n      swap1\n      0x0\n      mstore\n      keccak256(0x0, 0x20)\n      swap1\n    tag_58:\n      dup2\n      0x0\n      swap1\n      sload\n      swap1\n      0x100\n      exp\n      swap1\n      div\n      0xffffffffffffffffffffffffffffffffffffffff\n      and\n      0xffffffffffffffffffffffffffffffffffffffff\n      and\n      dup2\n      mstore\n      0x20\n      add\n      swap1\n      0x1\n      add\n      swap1\n      dup1\n      dup4\n      gt\n      tag_58\n      jumpi\n    tag_57:\n      pop\n      pop\n      pop\n      pop\n      pop\n      swap1\n      pop\n        /* \"smart-contracts/contracts/PeerToPeerLending.sol\":2533:2645  function getUserCredits() public view returns (address[]) {\r... */\n      swap1\n      jump\t// out\n        /* \"smart-contracts/contracts/PeerToPeerLending.sol\":3301:3610  function changeCreditState (Credit _credit) public onlyOwner {\r... */\n    tag_24:\n        /* \"smart-contracts/contracts/PeerToPeerLending.sol\":3427:3440  Credit credit */\n      0x0\n        /* \"smart-contracts/contracts/PeerToPeerLending.sol\":3469:3480  bool active */\n      dup1\n        /* \"smart-contracts/contracts/common/Ownable.sol\":232:237  owner */\n      0x0\n      dup1\n      swap1\n      sload\n      swap1\n      0x100\n      exp\n      swap1\n      div\n      0xffffffffffffffffffffffffffffffffffffffff\n      and\n        /* \"smart-contracts/contracts/common/Ownable.sol\":218:237  msg.sender == owner */\n      0xffffffffffffffffffffffffffffffffffffffff\n      and\n        /* \"smart-contracts/contracts/common/Ownable.sol\":218:228  msg.sender */\n      caller\n        /* \"smart-contracts/contracts/common/Ownable.sol\":218:237  msg.sender == owner */\n      0xffffffffffffffffffffffffffffffffffffffff\n      and\n      eq\n        /* \"smart-contracts/contracts/common/Ownable.sol\":210:238  require(msg.sender == owner) */\n      iszero\n      iszero\n      tag_60\n      jumpi\n      0x0\n      dup1\n      revert\n    tag_60:\n        /* \"smart-contracts/contracts/PeerToPeerLending.sol\":3450:3457  _credit */\n      dup3\n        /* \"smart-contracts/contracts/PeerToPeerLending.sol\":3427:3458  Credit credit = Credit(_credit) */\n      swap2\n      pop\n        /* \"smart-contracts/contracts/PeerToPeerLending.sol\":3483:3489  credit */\n      dup2\n        /* \"smart-contracts/contracts/PeerToPeerLending.sol\":3483:3502  credit.toggleActive */\n      0xffffffffffffffffffffffffffffffffffffffff\n      and\n      0x29c68dc1\n        /* \"smart-contracts/contracts/PeerToPeerLending.sol\":3483:3504  credit.toggleActive() */\n      mstore(add(0x20, mload(0x40)), 0x0)\n      mload(0x40)\n      dup2\n      0xffffffff\n      and\n      0x100000000000000000000000000000000000000000000000000000000\n      mul\n      dup2\n      mstore\n      0x4\n      add\n      0x20\n      mload(0x40)\n      dup1\n      dup4\n      sub\n      dup2\n      0x0\n      dup8\n      dup1\n      extcodesize\n      iszero\n      iszero\n      tag_62\n      jumpi\n      0x0\n      dup1\n      revert\n    tag_62:\n      sub(gas, 0x2c6)\n      call\n      iszero\n      iszero\n      tag_63\n      jumpi\n      0x0\n      dup1\n      revert\n    tag_63:\n      pop\n      pop\n      pop\n      mload(0x40)\n      dup1\n      mload\n      swap1\n      pop\n        /* \"smart-contracts/contracts/PeerToPeerLending.sol\":3469:3504  bool active = credit.toggleActive() */\n      swap1\n      pop\n        /* \"smart-contracts/contracts/PeerToPeerLending.sol\":3586:3601  block.timestamp */\n      timestamp\n        /* \"smart-contracts/contracts/PeerToPeerLending.sol\":3578:3584  active */\n      dup2\n        /* \"smart-contracts/contracts/PeerToPeerLending.sol\":3547:3602  LogCreditActiveChanged(credit, active, block.timestamp) */\n      iszero\n      iszero\n        /* \"smart-contracts/contracts/PeerToPeerLending.sol\":3570:3576  credit */\n      dup4\n        /* \"smart-contracts/contracts/PeerToPeerLending.sol\":3547:3602  LogCreditActiveChanged(credit, active, block.timestamp) */\n      0xffffffffffffffffffffffffffffffffffffffff\n      and\n      0x25270acf0eab637903a9cd906e32d2ac17ce44db6c743ba5812f2924e84ff8d6\n      mload(0x40)\n      mload(0x40)\n      dup1\n      swap2\n      sub\n      swap1\n      log4\n        /* \"smart-contracts/contracts/PeerToPeerLending.sol\":3301:3610  function changeCreditState (Credit _credit) public onlyOwner {\r... */\n      pop\n      pop\n      pop\n      jump\t// out\n        /* \"smart-contracts/contracts/PeerToPeerLending.sol\":2438:2525  function getCredits() public view returns (address[]) {\r... */\n    tag_27:\n        /* \"smart-contracts/contracts/PeerToPeerLending.sol\":2481:2490  address[] */\n      tag_64\n      jump\t// in(tag_55)\n    tag_64:\n        /* \"smart-contracts/contracts/PeerToPeerLending.sol\":2510:2517  credits */\n      0x2\n        /* \"smart-contracts/contracts/PeerToPeerLending.sol\":2503:2517  return credits */\n      dup1\n      sload\n      dup1\n      0x20\n      mul\n      0x20\n      add\n      mload(0x40)\n      swap1\n      dup2\n      add\n      0x40\n      mstore\n      dup1\n      swap3\n      swap2\n      swap1\n      dup2\n      dup2\n      mstore\n      0x20\n      add\n      dup3\n      dup1\n      sload\n      dup1\n      iszero\n      tag_66\n      jumpi\n      0x20\n      mul\n      dup3\n      add\n      swap2\n      swap1\n      0x0\n      mstore\n      keccak256(0x0, 0x20)\n      swap1\n    tag_67:\n      dup2\n      0x0\n      swap1\n      sload\n      swap1\n      0x100\n      exp\n      swap1\n      div\n      0xffffffffffffffffffffffffffffffffffffffff\n      and\n      0xffffffffffffffffffffffffffffffffffffffff\n      and\n      dup2\n      mstore\n      0x20\n      add\n      swap1\n      0x1\n      add\n      swap1\n      dup1\n      dup4\n      gt\n      tag_67\n      jumpi\n    tag_66:\n      pop\n      pop\n      pop\n      pop\n      pop\n      swap1\n      pop\n        /* \"smart-contracts/contracts/PeerToPeerLending.sol\":2438:2525  function getCredits() public view returns (address[]) {\r... */\n      swap1\n      jump\t// out\n        /* \"smart-contracts/contracts/common/Destructible.sol\":151:225  function destroy() public onlyOwner {\r... */\n    tag_33:\n        /* \"smart-contracts/contracts/common/Ownable.sol\":232:237  owner */\n      0x0\n      dup1\n      swap1\n      sload\n      swap1\n      0x100\n      exp\n      swap1\n      div\n      0xffffffffffffffffffffffffffffffffffffffff\n      and\n        /* \"smart-contracts/contracts/common/Ownable.sol\":218:237  msg.sender == owner */\n      0xffffffffffffffffffffffffffffffffffffffff\n      and\n        /* \"smart-contracts/contracts/common/Ownable.sol\":218:228  msg.sender */\n      caller\n        /* \"smart-contracts/contracts/common/Ownable.sol\":218:237  msg.sender == owner */\n      0xffffffffffffffffffffffffffffffffffffffff\n      and\n      eq\n        /* \"smart-contracts/contracts/common/Ownable.sol\":210:238  require(msg.sender == owner) */\n      iszero\n      iszero\n      tag_69\n      jumpi\n      0x0\n      dup1\n      revert\n    tag_69:\n        /* \"smart-contracts/contracts/common/Destructible.sol\":211:216  owner */\n      0x0\n      dup1\n      swap1\n      sload\n      swap1\n      0x100\n      exp\n      swap1\n      div\n      0xffffffffffffffffffffffffffffffffffffffff\n      and\n        /* \"smart-contracts/contracts/common/Destructible.sol\":198:217  selfdestruct(owner) */\n      0xffffffffffffffffffffffffffffffffffffffff\n      and\n      selfdestruct\n        /* \"smart-contracts/contracts/common/Ownable.sol\":54:74  address public owner */\n    tag_36:\n      0x0\n      dup1\n      swap1\n      sload\n      swap1\n      0x100\n      exp\n      swap1\n      div\n      0xffffffffffffffffffffffffffffffffffffffff\n      and\n      dup2\n      jump\t// out\n        /* \"smart-contracts/contracts/PeerToPeerLending.sol\":637:674  mapping(address => User) public users */\n    tag_39:\n      mstore(0x20, 0x1)\n      dup1\n      0x0\n      mstore\n      keccak256(0x0, 0x40)\n      0x0\n      swap2\n      pop\n      swap1\n      pop\n      dup1\n      0x0\n      add\n      0x0\n      swap1\n      sload\n      swap1\n      0x100\n      exp\n      swap1\n      div\n      0xff\n      and\n      swap1\n      dup1\n      0x0\n      add\n      0x1\n      swap1\n      sload\n      swap1\n      0x100\n      exp\n      swap1\n      div\n      0xffffffffffffffffffffffffffffffffffffffff\n      and\n      swap1\n      dup1\n      0x0\n      add\n      0x15\n      swap1\n      sload\n      swap1\n      0x100\n      exp\n      swap1\n      div\n      0xff\n      and\n      swap1\n      pop\n      dup4\n      jump\t// out\n        /* \"smart-contracts/contracts/PeerToPeerLending.sol\":2653:2976  function setFraudStatus(address _borrower) external returns (bool) {\r... */\n    tag_42:\n        /* \"smart-contracts/contracts/PeerToPeerLending.sol\":2714:2718  bool */\n      0x0\n        /* \"smart-contracts/contracts/PeerToPeerLending.sol\":2800:2804  true */\n      0x1\n        /* \"smart-contracts/contracts/PeerToPeerLending.sol\":2769:2774  users */\n      dup1\n        /* \"smart-contracts/contracts/PeerToPeerLending.sol\":2769:2785  users[_borrower] */\n      0x0\n        /* \"smart-contracts/contracts/PeerToPeerLending.sol\":2775:2784  _borrower */\n      dup5\n        /* \"smart-contracts/contracts/PeerToPeerLending.sol\":2769:2785  users[_borrower] */\n      0xffffffffffffffffffffffffffffffffffffffff\n      and\n      0xffffffffffffffffffffffffffffffffffffffff\n      and\n      dup2\n      mstore\n      0x20\n      add\n      swap1\n      dup2\n      mstore\n      0x20\n      add\n      0x0\n      keccak256\n        /* \"smart-contracts/contracts/PeerToPeerLending.sol\":2769:2797  users[_borrower].fraudStatus */\n      0x0\n      add\n      0x15\n        /* \"smart-contracts/contracts/PeerToPeerLending.sol\":2769:2804  users[_borrower].fraudStatus = true */\n      0x100\n      exp\n      dup2\n      sload\n      dup2\n      0xff\n      mul\n      not\n      and\n      swap1\n      dup4\n      iszero\n      iszero\n      mul\n      or\n      swap1\n      sstore\n      pop\n        /* \"smart-contracts/contracts/PeerToPeerLending.sol\":2863:2872  _borrower */\n      dup2\n        /* \"smart-contracts/contracts/PeerToPeerLending.sol\":2847:2920  LogUserSetFraud(_borrower, users[_borrower].fraudStatus, block.timestamp) */\n      0xffffffffffffffffffffffffffffffffffffffff\n      and\n      0xbafb199a9909a7be73ceeaf6193dc9ea119ef469120d998d5f550140c0b13b54\n        /* \"smart-contracts/contracts/PeerToPeerLending.sol\":2874:2879  users */\n      0x1\n        /* \"smart-contracts/contracts/PeerToPeerLending.sol\":2874:2890  users[_borrower] */\n      0x0\n        /* \"smart-contracts/contracts/PeerToPeerLending.sol\":2880:2889  _borrower */\n      dup6\n        /* \"smart-contracts/contracts/PeerToPeerLending.sol\":2874:2890  users[_borrower] */\n      0xffffffffffffffffffffffffffffffffffffffff\n      and\n      0xffffffffffffffffffffffffffffffffffffffff\n      and\n      dup2\n      mstore\n      0x20\n      add\n      swap1\n      dup2\n      mstore\n      0x20\n      add\n      0x0\n      keccak256\n        /* \"smart-contracts/contracts/PeerToPeerLending.sol\":2874:2902  users[_borrower].fraudStatus */\n      0x0\n      add\n      0x15\n      swap1\n      sload\n      swap1\n      0x100\n      exp\n      swap1\n      div\n      0xff\n      and\n        /* \"smart-contracts/contracts/PeerToPeerLending.sol\":2904:2919  block.timestamp */\n      timestamp\n        /* \"smart-contracts/contracts/PeerToPeerLending.sol\":2847:2920  LogUserSetFraud(_borrower, users[_borrower].fraudStatus, block.timestamp) */\n      mload(0x40)\n      dup1\n      dup4\n      iszero\n      iszero\n      iszero\n      iszero\n      dup2\n      mstore\n      0x20\n      add\n      dup3\n      dup2\n      mstore\n      0x20\n      add\n      swap3\n      pop\n      pop\n      pop\n      mload(0x40)\n      dup1\n      swap2\n      sub\n      swap1\n      log2\n        /* \"smart-contracts/contracts/PeerToPeerLending.sol\":2940:2945  users */\n      0x1\n        /* \"smart-contracts/contracts/PeerToPeerLending.sol\":2940:2956  users[_borrower] */\n      0x0\n        /* \"smart-contracts/contracts/PeerToPeerLending.sol\":2946:2955  _borrower */\n      dup4\n        /* \"smart-contracts/contracts/PeerToPeerLending.sol\":2940:2956  users[_borrower] */\n      0xffffffffffffffffffffffffffffffffffffffff\n      and\n      0xffffffffffffffffffffffffffffffffffffffff\n      and\n      dup2\n      mstore\n      0x20\n      add\n      swap1\n      dup2\n      mstore\n      0x20\n      add\n      0x0\n      keccak256\n        /* \"smart-contracts/contracts/PeerToPeerLending.sol\":2940:2968  users[_borrower].fraudStatus */\n      0x0\n      add\n      0x15\n      swap1\n      sload\n      swap1\n      0x100\n      exp\n      swap1\n      div\n      0xff\n      and\n        /* \"smart-contracts/contracts/PeerToPeerLending.sol\":2933:2968  return users[_borrower].fraudStatus */\n      swap1\n      pop\n        /* \"smart-contracts/contracts/PeerToPeerLending.sol\":2653:2976  function setFraudStatus(address _borrower) external returns (bool) {\r... */\n      swap2\n      swap1\n      pop\n      jump\t// out\n        /* \"smart-contracts/contracts/PeerToPeerLending.sol\":1223:2430  function applyForCredit(uint requestedAmount, uint repaymentsCount, uint interest, bytes32 creditDescription) public returns(address _credit) {\r... */\n    tag_45:\n        /* \"smart-contracts/contracts/PeerToPeerLending.sol\":1348:1363  address _credit */\n      0x0\n        /* \"smart-contracts/contracts/PeerToPeerLending.sol\":1894:1907  Credit credit */\n      dup1\n        /* \"smart-contracts/contracts/PeerToPeerLending.sol\":1466:1471  false */\n      0x0\n        /* \"smart-contracts/contracts/PeerToPeerLending.sol\":1436:1471  users[msg.sender].credited == false */\n      iszero\n      iszero\n        /* \"smart-contracts/contracts/PeerToPeerLending.sol\":1436:1441  users */\n      0x1\n        /* \"smart-contracts/contracts/PeerToPeerLending.sol\":1436:1453  users[msg.sender] */\n      0x0\n        /* \"smart-contracts/contracts/PeerToPeerLending.sol\":1442:1452  msg.sender */\n      caller\n        /* \"smart-contracts/contracts/PeerToPeerLending.sol\":1436:1453  users[msg.sender] */\n      0xffffffffffffffffffffffffffffffffffffffff\n      and\n      0xffffffffffffffffffffffffffffffffffffffff\n      and\n      dup2\n      mstore\n      0x20\n      add\n      swap1\n      dup2\n      mstore\n      0x20\n      add\n      0x0\n      keccak256\n        /* \"smart-contracts/contracts/PeerToPeerLending.sol\":1436:1462  users[msg.sender].credited */\n      0x0\n      add\n      0x0\n      swap1\n      sload\n      swap1\n      0x100\n      exp\n      swap1\n      div\n      0xff\n      and\n        /* \"smart-contracts/contracts/PeerToPeerLending.sol\":1436:1471  users[msg.sender].credited == false */\n      iszero\n      iszero\n      eq\n        /* \"smart-contracts/contracts/PeerToPeerLending.sol\":1428:1472  require(users[msg.sender].credited == false) */\n      iszero\n      iszero\n      tag_73\n      jumpi\n      0x0\n      dup1\n      revert\n    tag_73:\n        /* \"smart-contracts/contracts/PeerToPeerLending.sol\":1582:1587  false */\n      0x0\n        /* \"smart-contracts/contracts/PeerToPeerLending.sol\":1549:1587  users[msg.sender].fraudStatus == false */\n      iszero\n      iszero\n        /* \"smart-contracts/contracts/PeerToPeerLending.sol\":1549:1554  users */\n      0x1\n        /* \"smart-contracts/contracts/PeerToPeerLending.sol\":1549:1566  users[msg.sender] */\n      0x0\n        /* \"smart-contracts/contracts/PeerToPeerLending.sol\":1555:1565  msg.sender */\n      caller\n        /* \"smart-contracts/contracts/PeerToPeerLending.sol\":1549:1566  users[msg.sender] */\n      0xffffffffffffffffffffffffffffffffffffffff\n      and\n      0xffffffffffffffffffffffffffffffffffffffff\n      and\n      dup2\n      mstore\n      0x20\n      add\n      swap1\n      dup2\n      mstore\n      0x20\n      add\n      0x0\n      keccak256\n        /* \"smart-contracts/contracts/PeerToPeerLending.sol\":1549:1578  users[msg.sender].fraudStatus */\n      0x0\n      add\n      0x15\n      swap1\n      sload\n      swap1\n      0x100\n      exp\n      swap1\n      div\n      0xff\n      and\n        /* \"smart-contracts/contracts/PeerToPeerLending.sol\":1549:1587  users[msg.sender].fraudStatus == false */\n      iszero\n      iszero\n      eq\n        /* \"smart-contracts/contracts/PeerToPeerLending.sol\":1541:1588  require(users[msg.sender].fraudStatus == false) */\n      iszero\n      iszero\n      tag_74\n      jumpi\n      0x0\n      dup1\n      revert\n    tag_74:\n        /* \"smart-contracts/contracts/PeerToPeerLending.sol\":1701:1702  0 */\n      0x0\n        /* \"smart-contracts/contracts/PeerToPeerLending.sol\":1667:1672  users */\n      0x1\n        /* \"smart-contracts/contracts/PeerToPeerLending.sol\":1667:1684  users[msg.sender] */\n      0x0\n        /* \"smart-contracts/contracts/PeerToPeerLending.sol\":1673:1683  msg.sender */\n      caller\n        /* \"smart-contracts/contracts/PeerToPeerLending.sol\":1667:1684  users[msg.sender] */\n      0xffffffffffffffffffffffffffffffffffffffff\n      and\n      0xffffffffffffffffffffffffffffffffffffffff\n      and\n      dup2\n      mstore\n      0x20\n      add\n      swap1\n      dup2\n      mstore\n      0x20\n      add\n      0x0\n      keccak256\n        /* \"smart-contracts/contracts/PeerToPeerLending.sol\":1667:1697  users[msg.sender].activeCredit */\n      0x0\n      add\n      0x1\n      swap1\n      sload\n      swap1\n      0x100\n      exp\n      swap1\n      div\n      0xffffffffffffffffffffffffffffffffffffffff\n      and\n        /* \"smart-contracts/contracts/PeerToPeerLending.sol\":1667:1702  users[msg.sender].activeCredit == 0 */\n      0xffffffffffffffffffffffffffffffffffffffff\n      and\n      eq\n        /* \"smart-contracts/contracts/PeerToPeerLending.sol\":1660:1703  assert(users[msg.sender].activeCredit == 0) */\n      iszero\n      iszero\n      tag_75\n      jumpi\n      invalid\n    tag_75:\n        /* \"smart-contracts/contracts/PeerToPeerLending.sol\":1809:1813  true */\n      0x1\n        /* \"smart-contracts/contracts/PeerToPeerLending.sol\":1780:1785  users */\n      dup1\n        /* \"smart-contracts/contracts/PeerToPeerLending.sol\":1780:1797  users[msg.sender] */\n      0x0\n        /* \"smart-contracts/contracts/PeerToPeerLending.sol\":1786:1796  msg.sender */\n      caller\n        /* \"smart-contracts/contracts/PeerToPeerLending.sol\":1780:1797  users[msg.sender] */\n      0xffffffffffffffffffffffffffffffffffffffff\n      and\n      0xffffffffffffffffffffffffffffffffffffffff\n      and\n      dup2\n      mstore\n      0x20\n      add\n      swap1\n      dup2\n      mstore\n      0x20\n      add\n      0x0\n      keccak256\n        /* \"smart-contracts/contracts/PeerToPeerLending.sol\":1780:1806  users[msg.sender].credited */\n      0x0\n      add\n      0x0\n        /* \"smart-contracts/contracts/PeerToPeerLending.sol\":1780:1813  users[msg.sender].credited = true */\n      0x100\n      exp\n      dup2\n      sload\n      dup2\n      0xff\n      mul\n      not\n      and\n      swap1\n      dup4\n      iszero\n      iszero\n      mul\n      or\n      swap1\n      sstore\n      pop\n        /* \"smart-contracts/contracts/PeerToPeerLending.sol\":1921:1936  requestedAmount */\n      dup6\n        /* \"smart-contracts/contracts/PeerToPeerLending.sol\":1938:1953  repaymentsCount */\n      dup6\n        /* \"smart-contracts/contracts/PeerToPeerLending.sol\":1955:1963  interest */\n      dup6\n        /* \"smart-contracts/contracts/PeerToPeerLending.sol\":1965:1982  creditDescription */\n      dup6\n        /* \"smart-contracts/contracts/PeerToPeerLending.sol\":1910:1983  new Credit(requestedAmount, repaymentsCount, interest, creditDescription) */\n      tag_76\n      jump\t// in(tag_77)\n    tag_76:\n      dup1\n      dup6\n      dup2\n      mstore\n      0x20\n      add\n      dup5\n      dup2\n      mstore\n      0x20\n      add\n      dup4\n      dup2\n      mstore\n      0x20\n      add\n      dup3\n      not(0x0)\n      and\n      not(0x0)\n      and\n      dup2\n      mstore\n      0x20\n      add\n      swap5\n      pop\n      pop\n      pop\n      pop\n      pop\n      mload(0x40)\n      dup1\n      swap2\n      sub\n      swap1\n      0x0\n      create\n      dup1\n      iszero\n      iszero\n      tag_78\n      jumpi\n      0x0\n      dup1\n      revert\n    tag_78:\n        /* \"smart-contracts/contracts/PeerToPeerLending.sol\":1894:1983  Credit credit = new Credit(requestedAmount, repaymentsCount, interest, creditDescription) */\n      swap1\n      pop\n        /* \"smart-contracts/contracts/PeerToPeerLending.sol\":2080:2086  credit */\n      dup1\n        /* \"smart-contracts/contracts/PeerToPeerLending.sol\":2047:2052  users */\n      0x1\n        /* \"smart-contracts/contracts/PeerToPeerLending.sol\":2047:2064  users[msg.sender] */\n      0x0\n        /* \"smart-contracts/contracts/PeerToPeerLending.sol\":2053:2063  msg.sender */\n      caller\n        /* \"smart-contracts/contracts/PeerToPeerLending.sol\":2047:2064  users[msg.sender] */\n      0xffffffffffffffffffffffffffffffffffffffff\n      and\n      0xffffffffffffffffffffffffffffffffffffffff\n      and\n      dup2\n      mstore\n      0x20\n      add\n      swap1\n      dup2\n      mstore\n      0x20\n      add\n      0x0\n      keccak256\n        /* \"smart-contracts/contracts/PeerToPeerLending.sol\":2047:2077  users[msg.sender].activeCredit */\n      0x0\n      add\n      0x1\n        /* \"smart-contracts/contracts/PeerToPeerLending.sol\":2047:2086  users[msg.sender].activeCredit = credit */\n      0x100\n      exp\n      dup2\n      sload\n      dup2\n      0xffffffffffffffffffffffffffffffffffffffff\n      mul\n      not\n      and\n      swap1\n      dup4\n      0xffffffffffffffffffffffffffffffffffffffff\n      and\n      mul\n      or\n      swap1\n      sstore\n      pop\n        /* \"smart-contracts/contracts/PeerToPeerLending.sol\":2163:2170  credits */\n      0x2\n        /* \"smart-contracts/contracts/PeerToPeerLending.sol\":2163:2183  credits.push(credit) */\n      dup1\n      sload\n      dup1\n      0x1\n      add\n      dup3\n      dup2\n      tag_79\n      swap2\n      swap1\n      jump\t// in(tag_80)\n    tag_79:\n      swap2\n      0x0\n      mstore\n      keccak256(0x0, 0x20)\n      swap1\n      add\n      0x0\n        /* \"smart-contracts/contracts/PeerToPeerLending.sol\":2176:2182  credit */\n      dup4\n        /* \"smart-contracts/contracts/PeerToPeerLending.sol\":2163:2183  credits.push(credit) */\n      swap1\n      swap2\n      swap1\n      swap2\n      0x100\n      exp\n      dup2\n      sload\n      dup2\n      0xffffffffffffffffffffffffffffffffffffffff\n      mul\n      not\n      and\n      swap1\n      dup4\n      0xffffffffffffffffffffffffffffffffffffffff\n      and\n      mul\n      or\n      swap1\n      sstore\n      pop\n      pop\n        /* \"smart-contracts/contracts/PeerToPeerLending.sol\":2246:2251  users */\n      0x1\n        /* \"smart-contracts/contracts/PeerToPeerLending.sol\":2246:2263  users[msg.sender] */\n      0x0\n        /* \"smart-contracts/contracts/PeerToPeerLending.sol\":2252:2262  msg.sender */\n      caller\n        /* \"smart-contracts/contracts/PeerToPeerLending.sol\":2246:2263  users[msg.sender] */\n      0xffffffffffffffffffffffffffffffffffffffff\n      and\n      0xffffffffffffffffffffffffffffffffffffffff\n      and\n      dup2\n      mstore\n      0x20\n      add\n      swap1\n      dup2\n      mstore\n      0x20\n      add\n      0x0\n      keccak256\n        /* \"smart-contracts/contracts/PeerToPeerLending.sol\":2246:2274  users[msg.sender].allCredits */\n      0x1\n      add\n        /* \"smart-contracts/contracts/PeerToPeerLending.sol\":2246:2287  users[msg.sender].allCredits.push(credit) */\n      dup1\n      sload\n      dup1\n      0x1\n      add\n      dup3\n      dup2\n      tag_82\n      swap2\n      swap1\n      jump\t// in(tag_80)\n    tag_82:\n      swap2\n      0x0\n      mstore\n      keccak256(0x0, 0x20)\n      swap1\n      add\n      0x0\n        /* \"smart-contracts/contracts/PeerToPeerLending.sol\":2280:2286  credit */\n      dup4\n        /* \"smart-contracts/contracts/PeerToPeerLending.sol\":2246:2287  users[msg.sender].allCredits.push(credit) */\n      swap1\n      swap2\n      swap1\n      swap2\n      0x100\n      exp\n      dup2\n      sload\n      dup2\n      0xffffffffffffffffffffffffffffffffffffffff\n      mul\n      not\n      and\n      swap1\n      dup4\n      0xffffffffffffffffffffffffffffffffffffffff\n      and\n      mul\n      or\n      swap1\n      sstore\n      pop\n      pop\n        /* \"smart-contracts/contracts/PeerToPeerLending.sol\":2380:2395  block.timestamp */\n      timestamp\n        /* \"smart-contracts/contracts/PeerToPeerLending.sol\":2368:2378  msg.sender */\n      caller\n        /* \"smart-contracts/contracts/PeerToPeerLending.sol\":2343:2396  LogCreditCreated(credit, msg.sender, block.timestamp) */\n      0xffffffffffffffffffffffffffffffffffffffff\n      and\n        /* \"smart-contracts/contracts/PeerToPeerLending.sol\":2360:2366  credit */\n      dup3\n        /* \"smart-contracts/contracts/PeerToPeerLending.sol\":2343:2396  LogCreditCreated(credit, msg.sender, block.timestamp) */\n      0xffffffffffffffffffffffffffffffffffffffff\n      and\n      0xa0c75b76492543c8eafdc7e35272287bd6f229dcf0f6c22429343044718c5108\n      mload(0x40)\n      mload(0x40)\n      dup1\n      swap2\n      sub\n      swap1\n      log4\n        /* \"smart-contracts/contracts/PeerToPeerLending.sol\":2416:2422  credit */\n      dup1\n        /* \"smart-contracts/contracts/PeerToPeerLending.sol\":2409:2422  return credit */\n      swap2\n      pop\n        /* \"smart-contracts/contracts/PeerToPeerLending.sol\":1223:2430  function applyForCredit(uint requestedAmount, uint repaymentsCount, uint interest, bytes32 creditDescription) public returns(address _credit) {\r... */\n      pop\n      swap5\n      swap4\n      pop\n      pop\n      pop\n      pop\n      jump\t// out\n        /* \"smart-contracts/contracts/common/Destructible.sol\":237:341  function destroyAndSend(address _recipient) public onlyOwner {\r... */\n    tag_48:\n        /* \"smart-contracts/contracts/common/Ownable.sol\":232:237  owner */\n      0x0\n      dup1\n      swap1\n      sload\n      swap1\n      0x100\n      exp\n      swap1\n      div\n      0xffffffffffffffffffffffffffffffffffffffff\n      and\n        /* \"smart-contracts/contracts/common/Ownable.sol\":218:237  msg.sender == owner */\n      0xffffffffffffffffffffffffffffffffffffffff\n      and\n        /* \"smart-contracts/contracts/common/Ownable.sol\":218:228  msg.sender */\n      caller\n        /* \"smart-contracts/contracts/common/Ownable.sol\":218:237  msg.sender == owner */\n      0xffffffffffffffffffffffffffffffffffffffff\n      and\n      eq\n        /* \"smart-contracts/contracts/common/Ownable.sol\":210:238  require(msg.sender == owner) */\n      iszero\n      iszero\n      tag_85\n      jumpi\n      0x0\n      dup1\n      revert\n    tag_85:\n        /* \"smart-contracts/contracts/common/Destructible.sol\":322:332  _recipient */\n      dup1\n        /* \"smart-contracts/contracts/common/Destructible.sol\":309:333  selfdestruct(_recipient) */\n      0xffffffffffffffffffffffffffffffffffffffff\n      and\n      selfdestruct\n        /* \"smart-contracts/contracts/PeerToPeerLending.sol\":2984:3293  function changeCreditState (Credit _credit, Credit.State state) public onlyOwner {\r... */\n    tag_51:\n        /* \"smart-contracts/contracts/PeerToPeerLending.sol\":3122:3135  Credit credit */\n      0x0\n        /* \"smart-contracts/contracts/common/Ownable.sol\":232:237  owner */\n      dup1\n      0x0\n      swap1\n      sload\n      swap1\n      0x100\n      exp\n      swap1\n      div\n      0xffffffffffffffffffffffffffffffffffffffff\n      and\n        /* \"smart-contracts/contracts/common/Ownable.sol\":218:237  msg.sender == owner */\n      0xffffffffffffffffffffffffffffffffffffffff\n      and\n        /* \"smart-contracts/contracts/common/Ownable.sol\":218:228  msg.sender */\n      caller\n        /* \"smart-contracts/contracts/common/Ownable.sol\":218:237  msg.sender == owner */\n      0xffffffffffffffffffffffffffffffffffffffff\n      and\n      eq\n        /* \"smart-contracts/contracts/common/Ownable.sol\":210:238  require(msg.sender == owner) */\n      iszero\n      iszero\n      tag_88\n      jumpi\n      0x0\n      dup1\n      revert\n    tag_88:\n        /* \"smart-contracts/contracts/PeerToPeerLending.sol\":3145:3152  _credit */\n      dup3\n        /* \"smart-contracts/contracts/PeerToPeerLending.sol\":3122:3153  Credit credit = Credit(_credit) */\n      swap1\n      pop\n        /* \"smart-contracts/contracts/PeerToPeerLending.sol\":3164:3170  credit */\n      dup1\n        /* \"smart-contracts/contracts/PeerToPeerLending.sol\":3164:3182  credit.changeState */\n      0xffffffffffffffffffffffffffffffffffffffff\n      and\n      0x268f1153\n        /* \"smart-contracts/contracts/PeerToPeerLending.sol\":3183:3188  state */\n      dup4\n        /* \"smart-contracts/contracts/PeerToPeerLending.sol\":3164:3189  credit.changeState(state) */\n      mstore(add(0x20, mload(0x40)), 0x0)\n      mload(0x40)\n      dup3\n      0xffffffff\n      and\n      0x100000000000000000000000000000000000000000000000000000000\n      mul\n      dup2\n      mstore\n      0x4\n      add\n      dup1\n      dup3\n      0x5\n      dup2\n      gt\n      iszero\n      tag_90\n      jumpi\n      invalid\n    tag_90:\n      0xff\n      and\n      dup2\n      mstore\n      0x20\n      add\n      swap2\n      pop\n      pop\n      0x20\n      mload(0x40)\n      dup1\n      dup4\n      sub\n      dup2\n      0x0\n      dup8\n      dup1\n      extcodesize\n      iszero\n      iszero\n      tag_91\n      jumpi\n      0x0\n      dup1\n      revert\n    tag_91:\n      sub(gas, 0x2c6)\n      call\n      iszero\n      iszero\n      tag_92\n      jumpi\n      0x0\n      dup1\n      revert\n    tag_92:\n      pop\n      pop\n      pop\n      mload(0x40)\n      dup1\n      mload\n      swap1\n      pop\n      pop\n        /* \"smart-contracts/contracts/PeerToPeerLending.sol\":3269:3284  block.timestamp */\n      timestamp\n        /* \"smart-contracts/contracts/PeerToPeerLending.sol\":3262:3267  state */\n      dup3\n        /* \"smart-contracts/contracts/PeerToPeerLending.sol\":3232:3285  LogCreditStateChanged(credit, state, block.timestamp) */\n      0x5\n      dup2\n      gt\n      iszero\n      tag_93\n      jumpi\n      invalid\n    tag_93:\n        /* \"smart-contracts/contracts/PeerToPeerLending.sol\":3254:3260  credit */\n      dup3\n        /* \"smart-contracts/contracts/PeerToPeerLending.sol\":3232:3285  LogCreditStateChanged(credit, state, block.timestamp) */\n      0xffffffffffffffffffffffffffffffffffffffff\n      and\n      0x9ae5127f6d87e374b5901ce23a9467e504811c54c03dda8741ad44a35a361466\n      mload(0x40)\n      mload(0x40)\n      dup1\n      swap2\n      sub\n      swap1\n      log4\n        /* \"smart-contracts/contracts/PeerToPeerLending.sol\":2984:3293  function changeCreditState (Credit _credit, Credit.State state) public onlyOwner {\r... */\n      pop\n      pop\n      pop\n      jump\t// out\n        /* \"smart-contracts/contracts/PeerToPeerLending.sol\":124:3613  contract PeerToPeerLending is Destructible {\r... */\n    tag_55:\n      0x20\n      mload(0x40)\n      swap1\n      dup2\n      add\n      0x40\n      mstore\n      dup1\n      0x0\n      dup2\n      mstore\n      pop\n      swap1\n      jump\t// out\n    tag_77:\n      mload(0x40)\n      dataSize(sub_0)\n      dup1\n      dataOffset(sub_0)\n      dup4\n      codecopy\n      add\n      swap1\n      jump\t// out\n    tag_80:\n      dup2\n      sload\n      dup2\n      dup4\n      sstore\n      dup2\n      dup2\n      iszero\n      gt\n      tag_94\n      jumpi\n      dup2\n      dup4\n      0x0\n      mstore\n      keccak256(0x0, 0x20)\n      swap2\n      dup3\n      add\n      swap2\n      add\n      tag_95\n      swap2\n      swap1\n      jump\t// in(tag_96)\n    tag_95:\n    tag_94:\n      pop\n      pop\n      pop\n      jump\t// out\n    tag_96:\n      tag_97\n      swap2\n      swap1\n    tag_98:\n      dup1\n      dup3\n      gt\n      iszero\n      tag_99\n      jumpi\n      0x0\n      dup2\n      0x0\n      swap1\n      sstore\n      pop\n      0x1\n      add\n      jump(tag_98)\n    tag_99:\n      pop\n      swap1\n      jump\n    tag_97:\n      swap1\n      jump\t// out\n    stop\n\n    sub_0: assembly {\n            /* \"smart-contracts/contracts/Credit.sol\":189:18405  contract Credit is Destructible {\r... */\n          mstore(0x40, 0x60)\n            /* \"smart-contracts/contracts/Credit.sol\":5188:6727  function Credit(uint _requestedAmount, uint _requestedRepayments, uint _interest, bytes32 _description) public {\r... */\n          jumpi(tag_1, iszero(callvalue))\n          0x0\n          dup1\n          revert\n        tag_1:\n          mload(0x40)\n          0x80\n          dup1\n          bytecodeSize\n          dup4\n          codecopy\n          dup2\n          add\n          0x40\n          mstore\n          dup1\n          dup1\n          mload\n          swap1\n          0x20\n          add\n          swap1\n          swap2\n          swap1\n          dup1\n          mload\n          swap1\n          0x20\n          add\n          swap1\n          swap2\n          swap1\n          dup1\n          mload\n          swap1\n          0x20\n          add\n          swap1\n          swap2\n          swap1\n          dup1\n          mload\n          swap1\n          0x20\n          add\n          swap1\n          swap2\n          swap1\n          pop\n          pop\n            /* \"smart-contracts/contracts/Credit.sol\":5549:5558  tx.origin */\n          origin\n            /* \"smart-contracts/contracts/Credit.sol\":5538:5546  borrower */\n          0x1\n          0x0\n            /* \"smart-contracts/contracts/Credit.sol\":5538:5558  borrower = tx.origin */\n          0x100\n          exp\n          dup2\n          sload\n          dup2\n          0xffffffffffffffffffffffffffffffffffffffff\n          mul\n          not\n          and\n          swap1\n          dup4\n          0xffffffffffffffffffffffffffffffffffffffff\n          and\n          mul\n          or\n          swap1\n          sstore\n          pop\n            /* \"smart-contracts/contracts/Credit.sol\":5627:5636  _interest */\n          dup2\n            /* \"smart-contracts/contracts/Credit.sol\":5616:5624  interest */\n          0x5\n            /* \"smart-contracts/contracts/Credit.sol\":5616:5636  interest = _interest */\n          dup2\n          swap1\n          sstore\n          pop\n            /* \"smart-contracts/contracts/Credit.sol\":5705:5721  _requestedAmount */\n          dup4\n            /* \"smart-contracts/contracts/Credit.sol\":5687:5702  requestedAmount */\n          0x2\n            /* \"smart-contracts/contracts/Credit.sol\":5687:5721  requestedAmount = _requestedAmount */\n          dup2\n          swap1\n          sstore\n          pop\n            /* \"smart-contracts/contracts/Credit.sol\":5798:5818  _requestedRepayments */\n          dup3\n            /* \"smart-contracts/contracts/Credit.sol\":5776:5795  requestedRepayments */\n          0x6\n            /* \"smart-contracts/contracts/Credit.sol\":5776:5818  requestedRepayments = _requestedRepayments */\n          dup2\n          swap1\n          sstore\n          pop\n            /* \"smart-contracts/contracts/Credit.sol\":5976:5996  _requestedRepayments */\n          dup3\n            /* \"smart-contracts/contracts/Credit.sol\":5954:5973  remainingRepayments */\n          0x7\n            /* \"smart-contracts/contracts/Credit.sol\":5954:5996  remainingRepayments = _requestedRepayments */\n          dup2\n          swap1\n          sstore\n          pop\n            /* \"smart-contracts/contracts/Credit.sol\":6194:6223  requestedAmount.add(interest) */\n          tag_6\n            /* \"smart-contracts/contracts/Credit.sol\":6214:6222  interest */\n          sload(0x5)\n            /* \"smart-contracts/contracts/Credit.sol\":6194:6209  requestedAmount */\n          sload(0x2)\n            /* \"smart-contracts/contracts/Credit.sol\":6194:6213  requestedAmount.add */\n          or(tag_0_104, mul(0x100000000, tag_7))\n          swap1\n            /* \"smart-contracts/contracts/Credit.sol\":6194:6223  requestedAmount.add(interest) */\n          swap2\n          swap1\n          0x100000000\n          swap1\n          div\n          jump\t// in\n        tag_6:\n            /* \"smart-contracts/contracts/Credit.sol\":6179:6191  returnAmount */\n          0x3\n            /* \"smart-contracts/contracts/Credit.sol\":6179:6223  returnAmount = requestedAmount.add(interest) */\n          dup2\n          swap1\n          sstore\n          pop\n            /* \"smart-contracts/contracts/Credit.sol\":6419:6456  returnAmount.div(requestedRepayments) */\n          tag_8\n            /* \"smart-contracts/contracts/Credit.sol\":6436:6455  requestedRepayments */\n          sload(0x6)\n            /* \"smart-contracts/contracts/Credit.sol\":6419:6431  returnAmount */\n          sload(0x3)\n            /* \"smart-contracts/contracts/Credit.sol\":6419:6435  returnAmount.div */\n          or(tag_0_193, mul(0x100000000, tag_9))\n          swap1\n            /* \"smart-contracts/contracts/Credit.sol\":6419:6456  returnAmount.div(requestedRepayments) */\n          swap2\n          swap1\n          0x100000000\n          swap1\n          div\n          jump\t// in\n        tag_8:\n            /* \"smart-contracts/contracts/Credit.sol\":6396:6416  repaymentInstallment */\n          0x8\n            /* \"smart-contracts/contracts/Credit.sol\":6396:6456  repaymentInstallment = returnAmount.div(requestedRepayments) */\n          dup2\n          swap1\n          sstore\n          pop\n            /* \"smart-contracts/contracts/Credit.sol\":6523:6535  _description */\n          dup1\n            /* \"smart-contracts/contracts/Credit.sol\":6509:6520  description */\n          0xb\n            /* \"smart-contracts/contracts/Credit.sol\":6509:6535  description = _description */\n          dup2\n          not(0x0)\n          and\n          swap1\n          sstore\n          pop\n            /* \"smart-contracts/contracts/Credit.sol\":6605:6620  block.timestamp */\n          timestamp\n            /* \"smart-contracts/contracts/Credit.sol\":6589:6602  requestedDate */\n          0x9\n            /* \"smart-contracts/contracts/Credit.sol\":6589:6620  requestedDate = block.timestamp */\n          dup2\n          swap1\n          sstore\n          pop\n            /* \"smart-contracts/contracts/Credit.sol\":6703:6718  block.timestamp */\n          timestamp\n            /* \"smart-contracts/contracts/Credit.sol\":6693:6701  borrower */\n          0x1\n          0x0\n          swap1\n          sload\n          swap1\n          0x100\n          exp\n          swap1\n          div\n          0xffffffffffffffffffffffffffffffffffffffff\n          and\n            /* \"smart-contracts/contracts/Credit.sol\":6672:6719  LogCreditInitialized(borrower, block.timestamp) */\n          0xffffffffffffffffffffffffffffffffffffffff\n          and\n          0xf9f75c99c0e3522cd19ffc66fd6c94989a3f0821d37d5c5bb176aab904c6335d\n          mload(0x40)\n          mload(0x40)\n          dup1\n          swap2\n          sub\n          swap1\n          log3\n            /* \"smart-contracts/contracts/Credit.sol\":5188:6727  function Credit(uint _requestedAmount, uint _requestedRepayments, uint _interest, bytes32 _description) public {\r... */\n          pop\n          pop\n          pop\n          pop\n            /* \"smart-contracts/contracts/Credit.sol\":189:18405  contract Credit is Destructible {\r... */\n          jump(tag_10)\n            /* \"smart-contracts/contracts/common/SafeMath.sol\":622:769  function add(uint256 a, uint256 b) internal pure returns (uint256) {\r... */\n        tag_7:\n            /* \"smart-contracts/contracts/common/SafeMath.sol\":680:687  uint256 */\n          0x0\n            /* \"smart-contracts/contracts/common/SafeMath.sol\":700:709  uint256 c */\n          dup1\n            /* \"smart-contracts/contracts/common/SafeMath.sol\":716:717  b */\n          dup3\n            /* \"smart-contracts/contracts/common/SafeMath.sol\":712:713  a */\n          dup5\n            /* \"smart-contracts/contracts/common/SafeMath.sol\":712:717  a + b */\n          add\n            /* \"smart-contracts/contracts/common/SafeMath.sol\":700:717  uint256 c = a + b */\n          swap1\n          pop\n            /* \"smart-contracts/contracts/common/SafeMath.sol\":740:741  a */\n          dup4\n            /* \"smart-contracts/contracts/common/SafeMath.sol\":735:736  c */\n          dup2\n            /* \"smart-contracts/contracts/common/SafeMath.sol\":735:741  c >= a */\n          lt\n          iszero\n            /* \"smart-contracts/contracts/common/SafeMath.sol\":728:742  assert(c >= a) */\n          iszero\n          iszero\n          tag_12\n          jumpi\n          invalid\n        tag_12:\n            /* \"smart-contracts/contracts/common/SafeMath.sol\":760:761  c */\n          dup1\n            /* \"smart-contracts/contracts/common/SafeMath.sol\":753:761  return c */\n          swap2\n          pop\n            /* \"smart-contracts/contracts/common/SafeMath.sol\":622:769  function add(uint256 a, uint256 b) internal pure returns (uint256) {\r... */\n          pop\n          swap3\n          swap2\n          pop\n          pop\n          jump\t// out\n            /* \"smart-contracts/contracts/common/SafeMath.sol\":270:463  function div(uint256 a, uint256 b) internal pure returns (uint256) {\r... */\n        tag_9:\n            /* \"smart-contracts/contracts/common/SafeMath.sol\":328:335  uint256 */\n          0x0\n            /* \"smart-contracts/contracts/common/SafeMath.sol\":419:428  uint256 c */\n          dup1\n            /* \"smart-contracts/contracts/common/SafeMath.sol\":435:436  b */\n          dup3\n            /* \"smart-contracts/contracts/common/SafeMath.sol\":431:432  a */\n          dup5\n            /* \"smart-contracts/contracts/common/SafeMath.sol\":431:436  a / b */\n          dup2\n          iszero\n          iszero\n          tag_14\n          jumpi\n          invalid\n        tag_14:\n          div\n            /* \"smart-contracts/contracts/common/SafeMath.sol\":419:436  uint256 c = a / b */\n          swap1\n          pop\n            /* \"smart-contracts/contracts/common/SafeMath.sol\":454:455  c */\n          dup1\n            /* \"smart-contracts/contracts/common/SafeMath.sol\":447:455  return c */\n          swap2\n          pop\n            /* \"smart-contracts/contracts/common/SafeMath.sol\":270:463  function div(uint256 a, uint256 b) internal pure returns (uint256) {\r... */\n          pop\n          swap3\n          swap2\n          pop\n          pop\n          jump\t// out\n            /* \"smart-contracts/contracts/Credit.sol\":189:18405  contract Credit is Destructible {\r... */\n        tag_10:\n          dataSize(sub_0)\n          dup1\n          dataOffset(sub_0)\n          0x0\n          codecopy\n          0x0\n          return\n        stop\n\n        sub_0: assembly {\n                /* \"smart-contracts/contracts/Credit.sol\":189:18405  contract Credit is Destructible {\r... */\n              mstore(0x40, 0x60)\n              jumpi(tag_1, lt(calldatasize, 0x4))\n              calldataload(0x0)\n              0x100000000000000000000000000000000000000000000000000000000\n              swap1\n              div\n              0xffffffff\n              and\n              dup1\n              0x12065fe0\n              eq\n              tag_2\n              jumpi\n              dup1\n              0x268f1153\n              eq\n              tag_3\n              jumpi\n              dup1\n              0x28fd10d7\n              eq\n              tag_4\n              jumpi\n              dup1\n              0x29c68dc1\n              eq\n              tag_5\n              jumpi\n              dup1\n              0x3ccfd60b\n              eq\n              tag_6\n              jumpi\n              dup1\n              0x402d8883\n              eq\n              tag_7\n              jumpi\n              dup1\n              0x43c14b22\n              eq\n              tag_8\n              jumpi\n              dup1\n              0x590e1ae3\n              eq\n              tag_9\n              jumpi\n              dup1\n              0x83197ef0\n              eq\n              tag_10\n              jumpi\n              dup1\n              0x8da5cb5b\n              eq\n              tag_11\n              jumpi\n              dup1\n              0xd85da7b6\n              eq\n              tag_12\n              jumpi\n              dup1\n              0xe8b5e51f\n              eq\n              tag_13\n              jumpi\n              dup1\n              0xefd475ab\n              eq\n              tag_14\n              jumpi\n              dup1\n              0xf06817cf\n              eq\n              tag_15\n              jumpi\n              dup1\n              0xf5074f41\n              eq\n              tag_16\n              jumpi\n            tag_1:\n              0x0\n              dup1\n              revert\n                /* \"smart-contracts/contracts/Credit.sol\":6810:6900  function getBalance() public view returns (uint256) {\r... */\n            tag_2:\n              jumpi(tag_17, iszero(callvalue))\n              0x0\n              dup1\n              revert\n            tag_17:\n              tag_18\n              jump(tag_19)\n            tag_18:\n              mload(0x40)\n              dup1\n              dup3\n              dup2\n              mstore\n              0x20\n              add\n              swap2\n              pop\n              pop\n              mload(0x40)\n              dup1\n              swap2\n              sub\n              swap1\n              return\n                /* \"smart-contracts/contracts/Credit.sol\":17799:17989  function changeState(State _state) external onlyOwner returns (uint) {\r... */\n            tag_3:\n              jumpi(tag_20, iszero(callvalue))\n              0x0\n              dup1\n              revert\n            tag_20:\n              tag_21\n              0x4\n              dup1\n              dup1\n              calldataload\n              0xff\n              and\n              swap1\n              0x20\n              add\n              swap1\n              swap2\n              swap1\n              pop\n              pop\n              jump(tag_22)\n            tag_21:\n              mload(0x40)\n              dup1\n              dup3\n              dup2\n              mstore\n              0x20\n              add\n              swap2\n              pop\n              pop\n              mload(0x40)\n              dup1\n              swap2\n              sub\n              swap1\n              return\n                /* \"smart-contracts/contracts/Credit.sol\":1845:1884  mapping(address => bool) public lenders */\n            tag_4:\n              jumpi(tag_23, iszero(callvalue))\n              0x0\n              dup1\n              revert\n            tag_23:\n              tag_24\n              0x4\n              dup1\n              dup1\n              calldataload\n              0xffffffffffffffffffffffffffffffffffffffff\n              and\n              swap1\n              0x20\n              add\n              swap1\n              swap2\n              swap1\n              pop\n              pop\n              jump(tag_25)\n            tag_24:\n              mload(0x40)\n              dup1\n              dup3\n              iszero\n              iszero\n              iszero\n              iszero\n              dup2\n              mstore\n              0x20\n              add\n              swap2\n              pop\n              pop\n              mload(0x40)\n              dup1\n              swap2\n              sub\n              swap1\n              return\n                /* \"smart-contracts/contracts/Credit.sol\":18178:18400  function toggleActive() external onlyOwner returns (bool) {\r... */\n            tag_5:\n              jumpi(tag_26, iszero(callvalue))\n              0x0\n              dup1\n              revert\n            tag_26:\n              tag_27\n              jump(tag_28)\n            tag_27:\n              mload(0x40)\n              dup1\n              dup3\n              iszero\n              iszero\n              iszero\n              iszero\n              dup2\n              mstore\n              0x20\n              add\n              swap2\n              pop\n              pop\n              mload(0x40)\n              dup1\n              swap2\n              sub\n              swap1\n              return\n                /* \"smart-contracts/contracts/Credit.sol\":11651:12143  function withdraw() public isActive onlyBorrower canWithdraw isNotFraud {\r... */\n            tag_6:\n              jumpi(tag_29, iszero(callvalue))\n              0x0\n              dup1\n              revert\n            tag_29:\n              tag_30\n              jump(tag_31)\n            tag_30:\n              stop\n                /* \"smart-contracts/contracts/Credit.sol\":8897:11308  function repay() public onlyBorrower canRepay payable {\r... */\n            tag_7:\n              tag_32\n              jump(tag_33)\n            tag_32:\n              stop\n                /* \"smart-contracts/contracts/Credit.sol\":14537:15150  function revokeVote() public isActive isRevokable onlyLender {\r... */\n            tag_8:\n              jumpi(tag_34, iszero(callvalue))\n              0x0\n              dup1\n              revert\n            tag_34:\n              tag_35\n              jump(tag_36)\n            tag_35:\n              stop\n                /* \"smart-contracts/contracts/Credit.sol\":15462:16416  function refund() public isActive onlyLender isRevoked {\r... */\n            tag_9:\n              jumpi(tag_37, iszero(callvalue))\n              0x0\n              dup1\n              revert\n            tag_37:\n              tag_38\n              jump(tag_39)\n            tag_38:\n              stop\n                /* \"smart-contracts/contracts/common/Destructible.sol\":151:225  function destroy() public onlyOwner {\r... */\n            tag_10:\n              jumpi(tag_40, iszero(callvalue))\n              0x0\n              dup1\n              revert\n            tag_40:\n              tag_41\n              jump(tag_42)\n            tag_41:\n              stop\n                /* \"smart-contracts/contracts/common/Ownable.sol\":54:74  address public owner */\n            tag_11:\n              jumpi(tag_43, iszero(callvalue))\n              0x0\n              dup1\n              revert\n            tag_43:\n              tag_44\n              jump(tag_45)\n            tag_44:\n              mload(0x40)\n              dup1\n              dup3\n              0xffffffffffffffffffffffffffffffffffffffff\n              and\n              0xffffffffffffffffffffffffffffffffffffffff\n              and\n              dup2\n              mstore\n              0x20\n              add\n              swap2\n              pop\n              pop\n              mload(0x40)\n              dup1\n              swap2\n              sub\n              swap1\n              return\n                /* \"smart-contracts/contracts/Credit.sol\":16494:17099  function fraudVote() public isActive onlyLender returns (bool) {\r... */\n            tag_12:\n              jumpi(tag_46, iszero(callvalue))\n              0x0\n              dup1\n              revert\n            tag_46:\n              tag_47\n              jump(tag_48)\n            tag_47:\n              mload(0x40)\n              dup1\n              dup3\n              iszero\n              iszero\n              iszero\n              iszero\n              dup2\n              mstore\n              0x20\n              add\n              swap2\n              pop\n              pop\n              mload(0x40)\n              dup1\n              swap2\n              sub\n              swap1\n              return\n                /* \"smart-contracts/contracts/Credit.sol\":7072:8788  function invest() public canInvest payable {\r... */\n            tag_13:\n              tag_49\n              jump(tag_50)\n            tag_49:\n              stop\n                /* \"smart-contracts/contracts/Credit.sol\":12478:13696  function requestInterest() public isActive onlyLender canAskForInterest {\r... */\n            tag_14:\n              jumpi(tag_51, iszero(callvalue))\n              0x0\n              dup1\n              revert\n            tag_51:\n              tag_52\n              jump(tag_53)\n            tag_52:\n              stop\n                /* \"smart-contracts/contracts/Credit.sol\":14059:14471  function getCreditInfo() public view returns (address, bytes32, uint, uint, uint, uint, uint, uint, State, bool, uint) {\r... */\n            tag_15:\n              jumpi(tag_54, iszero(callvalue))\n              0x0\n              dup1\n              revert\n            tag_54:\n              tag_55\n              jump(tag_56)\n            tag_55:\n              mload(0x40)\n              dup1\n              dup13\n              0xffffffffffffffffffffffffffffffffffffffff\n              and\n              0xffffffffffffffffffffffffffffffffffffffff\n              and\n              dup2\n              mstore\n              0x20\n              add\n              dup12\n              not(0x0)\n              and\n              not(0x0)\n              and\n              dup2\n              mstore\n              0x20\n              add\n              dup11\n              dup2\n              mstore\n              0x20\n              add\n              dup10\n              dup2\n              mstore\n              0x20\n              add\n              dup9\n              dup2\n              mstore\n              0x20\n              add\n              dup8\n              dup2\n              mstore\n              0x20\n              add\n              dup7\n              dup2\n              mstore\n              0x20\n              add\n              dup6\n              dup2\n              mstore\n              0x20\n              add\n              dup5\n              0x5\n              dup2\n              gt\n              iszero\n              tag_57\n              jumpi\n              invalid\n            tag_57:\n              0xff\n              and\n              dup2\n              mstore\n              0x20\n              add\n              dup4\n              iszero\n              iszero\n              iszero\n              iszero\n              dup2\n              mstore\n              0x20\n              add\n              dup3\n              dup2\n              mstore\n              0x20\n              add\n              swap12\n              pop\n              pop\n              pop\n              pop\n              pop\n              pop\n              pop\n              pop\n              pop\n              pop\n              pop\n              pop\n              mload(0x40)\n              dup1\n              swap2\n              sub\n              swap1\n              return\n                /* \"smart-contracts/contracts/common/Destructible.sol\":237:341  function destroyAndSend(address _recipient) public onlyOwner {\r... */\n            tag_16:\n              jumpi(tag_58, iszero(callvalue))\n              0x0\n              dup1\n              revert\n            tag_58:\n              tag_59\n              0x4\n              dup1\n              dup1\n              calldataload\n              0xffffffffffffffffffffffffffffffffffffffff\n              and\n              swap1\n              0x20\n              add\n              swap1\n              swap2\n              swap1\n              pop\n              pop\n              jump(tag_60)\n            tag_59:\n              stop\n                /* \"smart-contracts/contracts/Credit.sol\":6810:6900  function getBalance() public view returns (uint256) {\r... */\n            tag_19:\n                /* \"smart-contracts/contracts/Credit.sol\":6853:6860  uint256 */\n              0x0\n                /* \"smart-contracts/contracts/Credit.sol\":6880:6884  this */\n              address\n                /* \"smart-contracts/contracts/Credit.sol\":6880:6892  this.balance */\n              0xffffffffffffffffffffffffffffffffffffffff\n              and\n              balance\n                /* \"smart-contracts/contracts/Credit.sol\":6873:6892  return this.balance */\n              swap1\n              pop\n                /* \"smart-contracts/contracts/Credit.sol\":6810:6900  function getBalance() public view returns (uint256) {\r... */\n              swap1\n              jump\t// out\n                /* \"smart-contracts/contracts/Credit.sol\":17799:17989  function changeState(State _state) external onlyOwner returns (uint) {\r... */\n            tag_22:\n                /* \"smart-contracts/contracts/Credit.sol\":17862:17866  uint */\n              0x0\n                /* \"smart-contracts/contracts/common/Ownable.sol\":232:237  owner */\n              dup1\n              0x0\n              swap1\n              sload\n              swap1\n              0x100\n              exp\n              swap1\n              div\n              0xffffffffffffffffffffffffffffffffffffffff\n              and\n                /* \"smart-contracts/contracts/common/Ownable.sol\":218:237  msg.sender == owner */\n              0xffffffffffffffffffffffffffffffffffffffff\n              and\n                /* \"smart-contracts/contracts/common/Ownable.sol\":218:228  msg.sender */\n              caller\n                /* \"smart-contracts/contracts/common/Ownable.sol\":218:237  msg.sender == owner */\n              0xffffffffffffffffffffffffffffffffffffffff\n              and\n              eq\n                /* \"smart-contracts/contracts/common/Ownable.sol\":210:238  require(msg.sender == owner) */\n              iszero\n              iszero\n              tag_63\n              jumpi\n              0x0\n              dup1\n              revert\n            tag_63:\n                /* \"smart-contracts/contracts/Credit.sol\":17887:17893  _state */\n              dup2\n                /* \"smart-contracts/contracts/Credit.sol\":17879:17884  state */\n              0xc\n              0x1\n                /* \"smart-contracts/contracts/Credit.sol\":17879:17893  state = _state */\n              0x100\n              exp\n              dup2\n              sload\n              dup2\n              0xff\n              mul\n              not\n              and\n              swap1\n              dup4\n              0x5\n              dup2\n              gt\n              iszero\n              tag_65\n              jumpi\n              invalid\n            tag_65:\n              mul\n              or\n              swap1\n              sstore\n              pop\n                /* \"smart-contracts/contracts/Credit.sol\":17965:17980  block.timestamp */\n              timestamp\n                /* \"smart-contracts/contracts/Credit.sol\":17958:17963  state */\n              0xc\n              0x1\n              swap1\n              sload\n              swap1\n              0x100\n              exp\n              swap1\n              div\n              0xff\n              and\n                /* \"smart-contracts/contracts/Credit.sol\":17936:17981  LogCreditStateChanged(state, block.timestamp) */\n              0x5\n              dup2\n              gt\n              iszero\n              tag_66\n              jumpi\n              invalid\n            tag_66:\n              0xaaae373901e745122c2e0925ad006227969c6cd190b7d5ea2fb7fdbd1d955b35\n              mload(0x40)\n              mload(0x40)\n              dup1\n              swap2\n              sub\n              swap1\n              log3\n                /* \"smart-contracts/contracts/Credit.sol\":17799:17989  function changeState(State _state) external onlyOwner returns (uint) {\r... */\n              swap2\n              swap1\n              pop\n              jump\t// out\n                /* \"smart-contracts/contracts/Credit.sol\":1845:1884  mapping(address => bool) public lenders */\n            tag_25:\n              mstore(0x20, 0xd)\n              dup1\n              0x0\n              mstore\n              keccak256(0x0, 0x40)\n              0x0\n              swap2\n              pop\n              sload\n              swap1\n              0x100\n              exp\n              swap1\n              div\n              0xff\n              and\n              dup2\n              jump\t// out\n                /* \"smart-contracts/contracts/Credit.sol\":18178:18400  function toggleActive() external onlyOwner returns (bool) {\r... */\n            tag_28:\n                /* \"smart-contracts/contracts/Credit.sol\":18230:18234  bool */\n              0x0\n                /* \"smart-contracts/contracts/common/Ownable.sol\":232:237  owner */\n              dup1\n              0x0\n              swap1\n              sload\n              swap1\n              0x100\n              exp\n              swap1\n              div\n              0xffffffffffffffffffffffffffffffffffffffff\n              and\n                /* \"smart-contracts/contracts/common/Ownable.sol\":218:237  msg.sender == owner */\n              0xffffffffffffffffffffffffffffffffffffffff\n              and\n                /* \"smart-contracts/contracts/common/Ownable.sol\":218:228  msg.sender */\n              caller\n                /* \"smart-contracts/contracts/common/Ownable.sol\":218:237  msg.sender == owner */\n              0xffffffffffffffffffffffffffffffffffffffff\n              and\n              eq\n                /* \"smart-contracts/contracts/common/Ownable.sol\":210:238  require(msg.sender == owner) */\n              iszero\n              iszero\n              tag_68\n              jumpi\n              0x0\n              dup1\n              revert\n            tag_68:\n                /* \"smart-contracts/contracts/Credit.sol\":18257:18263  active */\n              0xc\n              0x0\n              swap1\n              sload\n              swap1\n              0x100\n              exp\n              swap1\n              div\n              0xff\n              and\n                /* \"smart-contracts/contracts/Credit.sol\":18256:18263  !active */\n              iszero\n                /* \"smart-contracts/contracts/Credit.sol\":18247:18253  active */\n              0xc\n              0x0\n                /* \"smart-contracts/contracts/Credit.sol\":18247:18263  active = !active */\n              0x100\n              exp\n              dup2\n              sload\n              dup2\n              0xff\n              mul\n              not\n              and\n              swap1\n              dup4\n              iszero\n              iszero\n              mul\n              or\n              swap1\n              sstore\n              pop\n                /* \"smart-contracts/contracts/Credit.sol\":18350:18365  block.timestamp */\n              timestamp\n                /* \"smart-contracts/contracts/Credit.sol\":18342:18348  active */\n              0xc\n              0x0\n              swap1\n              sload\n              swap1\n              0x100\n              exp\n              swap1\n              div\n              0xff\n              and\n                /* \"smart-contracts/contracts/Credit.sol\":18314:18366  LogCreditStateActiveChanged(active, block.timestamp) */\n              iszero\n              iszero\n              0x160914ea27c60aa29a5f3a69d74e6069869de36e38939de1e0a66b921d8623d2\n              mload(0x40)\n              mload(0x40)\n              dup1\n              swap2\n              sub\n              swap1\n              log3\n                /* \"smart-contracts/contracts/Credit.sol\":18386:18392  active */\n              0xc\n              0x0\n              swap1\n              sload\n              swap1\n              0x100\n              exp\n              swap1\n              div\n              0xff\n              and\n                /* \"smart-contracts/contracts/Credit.sol\":18379:18392  return active */\n              swap1\n              pop\n                /* \"smart-contracts/contracts/Credit.sol\":18178:18400  function toggleActive() external onlyOwner returns (bool) {\r... */\n              swap1\n              jump\t// out\n                /* \"smart-contracts/contracts/Credit.sol\":11651:12143  function withdraw() public isActive onlyBorrower canWithdraw isNotFraud {\r... */\n            tag_31:\n                /* \"smart-contracts/contracts/Credit.sol\":3958:3962  true */\n              0x1\n                /* \"smart-contracts/contracts/Credit.sol\":3948:3962  active == true */\n              iszero\n              iszero\n                /* \"smart-contracts/contracts/Credit.sol\":3948:3954  active */\n              0xc\n              0x0\n              swap1\n              sload\n              swap1\n              0x100\n              exp\n              swap1\n              div\n              0xff\n              and\n                /* \"smart-contracts/contracts/Credit.sol\":3948:3962  active == true */\n              iszero\n              iszero\n              eq\n                /* \"smart-contracts/contracts/Credit.sol\":3940:3963  require(active == true) */\n              iszero\n              iszero\n              tag_71\n              jumpi\n              0x0\n              dup1\n              revert\n            tag_71:\n                /* \"smart-contracts/contracts/Credit.sol\":4048:4056  borrower */\n              0x1\n              0x0\n              swap1\n              sload\n              swap1\n              0x100\n              exp\n              swap1\n              div\n              0xffffffffffffffffffffffffffffffffffffffff\n              and\n                /* \"smart-contracts/contracts/Credit.sol\":4034:4056  msg.sender == borrower */\n              0xffffffffffffffffffffffffffffffffffffffff\n              and\n                /* \"smart-contracts/contracts/Credit.sol\":4034:4044  msg.sender */\n              caller\n                /* \"smart-contracts/contracts/Credit.sol\":4034:4056  msg.sender == borrower */\n              0xffffffffffffffffffffffffffffffffffffffff\n              and\n              eq\n                /* \"smart-contracts/contracts/Credit.sol\":4026:4057  require(msg.sender == borrower) */\n              iszero\n              iszero\n              tag_73\n              jumpi\n              0x0\n              dup1\n              revert\n            tag_73:\n                /* \"smart-contracts/contracts/Credit.sol\":4590:4605  requestedAmount */\n              sload(0x2)\n                /* \"smart-contracts/contracts/Credit.sol\":4574:4578  this */\n              address\n                /* \"smart-contracts/contracts/Credit.sol\":4574:4586  this.balance */\n              0xffffffffffffffffffffffffffffffffffffffff\n              and\n              balance\n                /* \"smart-contracts/contracts/Credit.sol\":4574:4605  this.balance >= requestedAmount */\n              lt\n              iszero\n                /* \"smart-contracts/contracts/Credit.sol\":4566:4606  require(this.balance >= requestedAmount) */\n              iszero\n              iszero\n              tag_75\n              jumpi\n              0x0\n              dup1\n              revert\n            tag_75:\n                /* \"smart-contracts/contracts/Credit.sol\":4684:4695  State.fraud */\n              0x5\n                /* \"smart-contracts/contracts/Credit.sol\":4675:4695  state != State.fraud */\n              dup1\n              dup2\n              gt\n              iszero\n              tag_77\n              jumpi\n              invalid\n            tag_77:\n                /* \"smart-contracts/contracts/Credit.sol\":4675:4680  state */\n              0xc\n              0x1\n              swap1\n              sload\n              swap1\n              0x100\n              exp\n              swap1\n              div\n              0xff\n              and\n                /* \"smart-contracts/contracts/Credit.sol\":4675:4695  state != State.fraud */\n              0x5\n              dup2\n              gt\n              iszero\n              tag_78\n              jumpi\n              invalid\n            tag_78:\n              eq\n              iszero\n                /* \"smart-contracts/contracts/Credit.sol\":4667:4696  require(state != State.fraud) */\n              iszero\n              iszero\n              tag_79\n              jumpi\n              0x0\n              dup1\n              revert\n            tag_79:\n                /* \"smart-contracts/contracts/Credit.sol\":11809:11824  State.repayment */\n              0x1\n                /* \"smart-contracts/contracts/Credit.sol\":11801:11806  state */\n              0xc\n              0x1\n                /* \"smart-contracts/contracts/Credit.sol\":11801:11824  state = State.repayment */\n              0x100\n              exp\n              dup2\n              sload\n              dup2\n              0xff\n              mul\n              not\n              and\n              swap1\n              dup4\n              0x5\n              dup2\n              gt\n              iszero\n              tag_81\n              jumpi\n              invalid\n            tag_81:\n              mul\n              or\n              swap1\n              sstore\n              pop\n                /* \"smart-contracts/contracts/Credit.sol\":11896:11911  block.timestamp */\n              timestamp\n                /* \"smart-contracts/contracts/Credit.sol\":11889:11894  state */\n              0xc\n              0x1\n              swap1\n              sload\n              swap1\n              0x100\n              exp\n              swap1\n              div\n              0xff\n              and\n                /* \"smart-contracts/contracts/Credit.sol\":11867:11912  LogCreditStateChanged(state, block.timestamp) */\n              0x5\n              dup2\n              gt\n              iszero\n              tag_82\n              jumpi\n              invalid\n            tag_82:\n              0xaaae373901e745122c2e0925ad006227969c6cd190b7d5ea2fb7fdbd1d955b35\n              mload(0x40)\n              mload(0x40)\n              dup1\n              swap2\n              sub\n              swap1\n              log3\n                /* \"smart-contracts/contracts/Credit.sol\":12010:12025  block.timestamp */\n              timestamp\n                /* \"smart-contracts/contracts/Credit.sol\":11996:12000  this */\n              address\n                /* \"smart-contracts/contracts/Credit.sol\":11996:12008  this.balance */\n              0xffffffffffffffffffffffffffffffffffffffff\n              and\n              balance\n                /* \"smart-contracts/contracts/Credit.sol\":11984:11994  msg.sender */\n              caller\n                /* \"smart-contracts/contracts/Credit.sol\":11962:12026  LogBorrowerWithdrawal(msg.sender, this.balance, block.timestamp) */\n              0xffffffffffffffffffffffffffffffffffffffff\n              and\n              0x20734f14d107b526674905e470e35d0a474f9fb996a7bdb034c839c8894524e6\n              mload(0x40)\n              mload(0x40)\n              dup1\n              swap2\n              sub\n              swap1\n              log4\n                /* \"smart-contracts/contracts/Credit.sol\":12104:12112  borrower */\n              0x1\n              0x0\n              swap1\n              sload\n              swap1\n              0x100\n              exp\n              swap1\n              div\n              0xffffffffffffffffffffffffffffffffffffffff\n              and\n                /* \"smart-contracts/contracts/Credit.sol\":12104:12121  borrower.transfer */\n              0xffffffffffffffffffffffffffffffffffffffff\n              and\n                /* \"smart-contracts/contracts/Credit.sol\":12104:12135  borrower.transfer(this.balance) */\n              0x8fc\n                /* \"smart-contracts/contracts/Credit.sol\":12122:12126  this */\n              address\n                /* \"smart-contracts/contracts/Credit.sol\":12122:12134  this.balance */\n              0xffffffffffffffffffffffffffffffffffffffff\n              and\n              balance\n                /* \"smart-contracts/contracts/Credit.sol\":12104:12135  borrower.transfer(this.balance) */\n              swap1\n              dup2\n              iszero\n              mul\n              swap1\n              mload(0x40)\n              0x0\n              mload(0x40)\n              dup1\n              dup4\n              sub\n              dup2\n              dup6\n              dup9\n              dup9\n              call\n              swap4\n              pop\n              pop\n              pop\n              pop\n              iszero\n              iszero\n              tag_83\n              jumpi\n              0x0\n              dup1\n              revert\n            tag_83:\n                /* \"smart-contracts/contracts/Credit.sol\":11651:12143  function withdraw() public isActive onlyBorrower canWithdraw isNotFraud {\r... */\n              jump\t// out\n                /* \"smart-contracts/contracts/Credit.sol\":8897:11308  function repay() public onlyBorrower canRepay payable {\r... */\n            tag_33:\n                /* \"smart-contracts/contracts/Credit.sol\":9704:9719  uint extraMoney */\n              0x0\n                /* \"smart-contracts/contracts/Credit.sol\":4048:4056  borrower */\n              0x1\n              0x0\n              swap1\n              sload\n              swap1\n              0x100\n              exp\n              swap1\n              div\n              0xffffffffffffffffffffffffffffffffffffffff\n              and\n                /* \"smart-contracts/contracts/Credit.sol\":4034:4056  msg.sender == borrower */\n              0xffffffffffffffffffffffffffffffffffffffff\n              and\n                /* \"smart-contracts/contracts/Credit.sol\":4034:4044  msg.sender */\n              caller\n                /* \"smart-contracts/contracts/Credit.sol\":4034:4056  msg.sender == borrower */\n              0xffffffffffffffffffffffffffffffffffffffff\n              and\n              eq\n                /* \"smart-contracts/contracts/Credit.sol\":4026:4057  require(msg.sender == borrower) */\n              iszero\n              iszero\n              tag_85\n              jumpi\n              0x0\n              dup1\n              revert\n            tag_85:\n                /* \"smart-contracts/contracts/Credit.sol\":4488:4503  State.repayment */\n              0x1\n                /* \"smart-contracts/contracts/Credit.sol\":4479:4503  state == State.repayment */\n              0x5\n              dup2\n              gt\n              iszero\n              tag_87\n              jumpi\n              invalid\n            tag_87:\n                /* \"smart-contracts/contracts/Credit.sol\":4479:4484  state */\n              0xc\n              0x1\n              swap1\n              sload\n              swap1\n              0x100\n              exp\n              swap1\n              div\n              0xff\n              and\n                /* \"smart-contracts/contracts/Credit.sol\":4479:4503  state == State.repayment */\n              0x5\n              dup2\n              gt\n              iszero\n              tag_88\n              jumpi\n              invalid\n            tag_88:\n              eq\n                /* \"smart-contracts/contracts/Credit.sol\":4471:4504  require(state == State.repayment) */\n              iszero\n              iszero\n              tag_89\n              jumpi\n              0x0\n              dup1\n              revert\n            tag_89:\n                /* \"smart-contracts/contracts/Credit.sol\":9067:9068  0 */\n              0x0\n                /* \"smart-contracts/contracts/Credit.sol\":9045:9064  remainingRepayments */\n              sload(0x7)\n                /* \"smart-contracts/contracts/Credit.sol\":9045:9068  remainingRepayments > 0 */\n              gt\n                /* \"smart-contracts/contracts/Credit.sol\":9037:9069  require(remainingRepayments > 0) */\n              iszero\n              iszero\n              tag_91\n              jumpi\n              0x0\n              dup1\n              revert\n            tag_91:\n                /* \"smart-contracts/contracts/Credit.sol\":9180:9200  repaymentInstallment */\n              sload(0x8)\n                /* \"smart-contracts/contracts/Credit.sol\":9167:9176  msg.value */\n              callvalue\n                /* \"smart-contracts/contracts/Credit.sol\":9167:9200  msg.value >= repaymentInstallment */\n              lt\n              iszero\n                /* \"smart-contracts/contracts/Credit.sol\":9159:9201  require(msg.value >= repaymentInstallment) */\n              iszero\n              iszero\n              tag_92\n              jumpi\n              0x0\n              dup1\n              revert\n            tag_92:\n                /* \"smart-contracts/contracts/Credit.sol\":9421:9433  returnAmount */\n              sload(0x3)\n                /* \"smart-contracts/contracts/Credit.sol\":9406:9418  repaidAmount */\n              sload(0x4)\n                /* \"smart-contracts/contracts/Credit.sol\":9406:9433  repaidAmount < returnAmount */\n              lt\n                /* \"smart-contracts/contracts/Credit.sol\":9399:9434  assert(repaidAmount < returnAmount) */\n              iszero\n              iszero\n              tag_93\n              jumpi\n              invalid\n            tag_93:\n                /* \"smart-contracts/contracts/Credit.sol\":9495:9514  remainingRepayments */\n              0x7\n              0x0\n                /* \"smart-contracts/contracts/Credit.sol\":9495:9516  remainingRepayments-- */\n              dup2\n              sload\n              dup1\n              swap3\n              swap2\n              swap1\n              0x1\n              swap1\n              sub\n              swap2\n              swap1\n              pop\n              sstore\n              pop\n                /* \"smart-contracts/contracts/Credit.sol\":9589:9604  block.timestamp */\n              timestamp\n                /* \"smart-contracts/contracts/Credit.sol\":9569:9586  lastRepaymentDate */\n              0xa\n                /* \"smart-contracts/contracts/Credit.sol\":9569:9604  lastRepaymentDate = block.timestamp */\n              dup2\n              swap1\n              sstore\n              pop\n                /* \"smart-contracts/contracts/Credit.sol\":9722:9723  0 */\n              0x0\n                /* \"smart-contracts/contracts/Credit.sol\":9704:9723  uint extraMoney = 0 */\n              swap1\n              pop\n                /* \"smart-contracts/contracts/Credit.sol\":9943:9963  repaymentInstallment */\n              sload(0x8)\n                /* \"smart-contracts/contracts/Credit.sol\":9931:9940  msg.value */\n              callvalue\n                /* \"smart-contracts/contracts/Credit.sol\":9931:9963  msg.value > repaymentInstallment */\n              gt\n                /* \"smart-contracts/contracts/Credit.sol\":9927:10563  if (msg.value > repaymentInstallment) {\r... */\n              iszero\n              tag_94\n              jumpi\n                /* \"smart-contracts/contracts/Credit.sol\":10068:10103  msg.value.sub(repaymentInstallment) */\n              tag_95\n                /* \"smart-contracts/contracts/Credit.sol\":10082:10102  repaymentInstallment */\n              sload(0x8)\n                /* \"smart-contracts/contracts/Credit.sol\":10068:10077  msg.value */\n              callvalue\n                /* \"smart-contracts/contracts/Credit.sol\":10068:10081  msg.value.sub */\n              tag_96\n              swap1\n                /* \"smart-contracts/contracts/Credit.sol\":10068:10103  msg.value.sub(repaymentInstallment) */\n              swap2\n              swap1\n              0xffffffff\n              and\n              jump\t// in\n            tag_95:\n                /* \"smart-contracts/contracts/Credit.sol\":10055:10103  extraMoney = msg.value.sub(repaymentInstallment) */\n              swap1\n              pop\n                /* \"smart-contracts/contracts/Credit.sol\":10192:10217  msg.value.sub(extraMoney) */\n              tag_97\n                /* \"smart-contracts/contracts/Credit.sol\":10206:10216  extraMoney */\n              dup2\n                /* \"smart-contracts/contracts/Credit.sol\":10192:10201  msg.value */\n              callvalue\n                /* \"smart-contracts/contracts/Credit.sol\":10192:10205  msg.value.sub */\n              tag_96\n              swap1\n                /* \"smart-contracts/contracts/Credit.sol\":10192:10217  msg.value.sub(extraMoney) */\n              swap2\n              swap1\n              0xffffffff\n              and\n              jump\t// in\n            tag_97:\n                /* \"smart-contracts/contracts/Credit.sol\":10168:10188  repaymentInstallment */\n              sload(0x8)\n                /* \"smart-contracts/contracts/Credit.sol\":10168:10217  repaymentInstallment == msg.value.sub(extraMoney) */\n              eq\n                /* \"smart-contracts/contracts/Credit.sol\":10161:10218  assert(repaymentInstallment == msg.value.sub(extraMoney)) */\n              iszero\n              iszero\n              tag_98\n              jumpi\n              invalid\n            tag_98:\n                /* \"smart-contracts/contracts/Credit.sol\":10294:10303  msg.value */\n              callvalue\n                /* \"smart-contracts/contracts/Credit.sol\":10280:10290  extraMoney */\n              dup2\n                /* \"smart-contracts/contracts/Credit.sol\":10280:10303  extraMoney <= msg.value */\n              gt\n              iszero\n                /* \"smart-contracts/contracts/Credit.sol\":10273:10304  assert(extraMoney <= msg.value) */\n              iszero\n              iszero\n              tag_99\n              jumpi\n              invalid\n            tag_99:\n                /* \"smart-contracts/contracts/Credit.sol\":10386:10396  msg.sender */\n              caller\n                /* \"smart-contracts/contracts/Credit.sol\":10386:10405  msg.sender.transfer */\n              0xffffffffffffffffffffffffffffffffffffffff\n              and\n                /* \"smart-contracts/contracts/Credit.sol\":10386:10417  msg.sender.transfer(extraMoney) */\n              0x8fc\n                /* \"smart-contracts/contracts/Credit.sol\":10406:10416  extraMoney */\n              dup3\n                /* \"smart-contracts/contracts/Credit.sol\":10386:10417  msg.sender.transfer(extraMoney) */\n              swap1\n              dup2\n              iszero\n              mul\n              swap1\n              mload(0x40)\n              0x0\n              mload(0x40)\n              dup1\n              dup4\n              sub\n              dup2\n              dup6\n              dup9\n              dup9\n              call\n              swap4\n              pop\n              pop\n              pop\n              pop\n              iszero\n              iszero\n              tag_100\n              jumpi\n              0x0\n              dup1\n              revert\n            tag_100:\n                /* \"smart-contracts/contracts/Credit.sol\":10535:10550  block.timestamp */\n              timestamp\n                /* \"smart-contracts/contracts/Credit.sol\":10523:10533  extraMoney */\n              dup2\n                /* \"smart-contracts/contracts/Credit.sol\":10511:10521  msg.sender */\n              caller\n                /* \"smart-contracts/contracts/Credit.sol\":10485:10551  LogBorrowerChangeReturned(msg.sender, extraMoney, block.timestamp) */\n              0xffffffffffffffffffffffffffffffffffffffff\n              and\n              0x5c9874487a2258c6bd6dc39a2cfcf7ea944b50b79d9a7152668779687b2ebd8d\n              mload(0x40)\n              mload(0x40)\n              dup1\n              swap2\n              sub\n              swap1\n              log4\n                /* \"smart-contracts/contracts/Credit.sol\":9927:10563  if (msg.value > repaymentInstallment) {\r... */\n            tag_94:\n                /* \"smart-contracts/contracts/Credit.sol\":10693:10708  block.timestamp */\n              timestamp\n                /* \"smart-contracts/contracts/Credit.sol\":10666:10691  msg.value.sub(extraMoney) */\n              tag_101\n                /* \"smart-contracts/contracts/Credit.sol\":10680:10690  extraMoney */\n              dup3\n                /* \"smart-contracts/contracts/Credit.sol\":10666:10675  msg.value */\n              callvalue\n                /* \"smart-contracts/contracts/Credit.sol\":10666:10679  msg.value.sub */\n              tag_96\n              swap1\n                /* \"smart-contracts/contracts/Credit.sol\":10666:10691  msg.value.sub(extraMoney) */\n              swap2\n              swap1\n              0xffffffff\n              and\n              jump\t// in\n            tag_101:\n                /* \"smart-contracts/contracts/Credit.sol\":10654:10664  msg.sender */\n              caller\n                /* \"smart-contracts/contracts/Credit.sol\":10622:10709  LogBorrowerRepaymentInstallment(msg.sender, msg.value.sub(extraMoney), block.timestamp) */\n              0xffffffffffffffffffffffffffffffffffffffff\n              and\n              0x350a09487d622378c6efbda255f996387696319f803a2e53eee64f7aa70be85a\n              mload(0x40)\n              mload(0x40)\n              dup1\n              swap2\n              sub\n              swap1\n              log4\n                /* \"smart-contracts/contracts/Credit.sol\":10814:10857  repaidAmount.add(msg.value.sub(extraMoney)) */\n              tag_102\n                /* \"smart-contracts/contracts/Credit.sol\":10831:10856  msg.value.sub(extraMoney) */\n              tag_103\n                /* \"smart-contracts/contracts/Credit.sol\":10845:10855  extraMoney */\n              dup3\n                /* \"smart-contracts/contracts/Credit.sol\":10831:10840  msg.value */\n              callvalue\n                /* \"smart-contracts/contracts/Credit.sol\":10831:10844  msg.value.sub */\n              tag_96\n              swap1\n                /* \"smart-contracts/contracts/Credit.sol\":10831:10856  msg.value.sub(extraMoney) */\n              swap2\n              swap1\n              0xffffffff\n              and\n              jump\t// in\n            tag_103:\n                /* \"smart-contracts/contracts/Credit.sol\":10814:10826  repaidAmount */\n              sload(0x4)\n                /* \"smart-contracts/contracts/Credit.sol\":10814:10830  repaidAmount.add */\n              tag_104\n              swap1\n                /* \"smart-contracts/contracts/Credit.sol\":10814:10857  repaidAmount.add(msg.value.sub(extraMoney)) */\n              swap2\n              swap1\n              0xffffffff\n              and\n              jump\t// in\n            tag_102:\n                /* \"smart-contracts/contracts/Credit.sol\":10799:10811  repaidAmount */\n              0x4\n                /* \"smart-contracts/contracts/Credit.sol\":10799:10857  repaidAmount = repaidAmount.add(msg.value.sub(extraMoney)) */\n              dup2\n              swap1\n              sstore\n              pop\n                /* \"smart-contracts/contracts/Credit.sol\":10961:10973  returnAmount */\n              sload(0x3)\n                /* \"smart-contracts/contracts/Credit.sol\":10945:10957  repaidAmount */\n              sload(0x4)\n                /* \"smart-contracts/contracts/Credit.sol\":10945:10973  repaidAmount == returnAmount */\n              eq\n                /* \"smart-contracts/contracts/Credit.sol\":10941:11301  if (repaidAmount == returnAmount) {\r... */\n              iszero\n              tag_105\n              jumpi\n                /* \"smart-contracts/contracts/Credit.sol\":11068:11083  block.timestamp */\n              timestamp\n                /* \"smart-contracts/contracts/Credit.sol\":11056:11066  msg.sender */\n              caller\n                /* \"smart-contracts/contracts/Credit.sol\":11027:11084  LogBorrowerRepaymentFinished(msg.sender, block.timestamp) */\n              0xffffffffffffffffffffffffffffffffffffffff\n              and\n              0x25630de45a38a90cbca3a2eb35a8197e51b56d6d912581711e5e3773fe77cabc\n              mload(0x40)\n              mload(0x40)\n              dup1\n              swap2\n              sub\n              swap1\n              log3\n                /* \"smart-contracts/contracts/Credit.sol\":11172:11193  State.interestReturns */\n              0x2\n                /* \"smart-contracts/contracts/Credit.sol\":11164:11169  state */\n              0xc\n              0x1\n                /* \"smart-contracts/contracts/Credit.sol\":11164:11193  state = State.interestReturns */\n              0x100\n              exp\n              dup2\n              sload\n              dup2\n              0xff\n              mul\n              not\n              and\n              swap1\n              dup4\n              0x5\n              dup2\n              gt\n              iszero\n              tag_106\n              jumpi\n              invalid\n            tag_106:\n              mul\n              or\n              swap1\n              sstore\n              pop\n                /* \"smart-contracts/contracts/Credit.sol\":11273:11288  block.timestamp */\n              timestamp\n                /* \"smart-contracts/contracts/Credit.sol\":11266:11271  state */\n              0xc\n              0x1\n              swap1\n              sload\n              swap1\n              0x100\n              exp\n              swap1\n              div\n              0xff\n              and\n                /* \"smart-contracts/contracts/Credit.sol\":11244:11289  LogCreditStateChanged(state, block.timestamp) */\n              0x5\n              dup2\n              gt\n              iszero\n              tag_107\n              jumpi\n              invalid\n            tag_107:\n              0xaaae373901e745122c2e0925ad006227969c6cd190b7d5ea2fb7fdbd1d955b35\n              mload(0x40)\n              mload(0x40)\n              dup1\n              swap2\n              sub\n              swap1\n              log3\n                /* \"smart-contracts/contracts/Credit.sol\":10941:11301  if (repaidAmount == returnAmount) {\r... */\n            tag_105:\n                /* \"smart-contracts/contracts/Credit.sol\":8897:11308  function repay() public onlyBorrower canRepay payable {\r... */\n              pop\n              jump\t// out\n                /* \"smart-contracts/contracts/Credit.sol\":14537:15150  function revokeVote() public isActive isRevokable onlyLender {\r... */\n            tag_36:\n                /* \"smart-contracts/contracts/Credit.sol\":3958:3962  true */\n              0x1\n                /* \"smart-contracts/contracts/Credit.sol\":3948:3962  active == true */\n              iszero\n              iszero\n                /* \"smart-contracts/contracts/Credit.sol\":3948:3954  active */\n              0xc\n              0x0\n              swap1\n              sload\n              swap1\n              0x100\n              exp\n              swap1\n              div\n              0xff\n              and\n                /* \"smart-contracts/contracts/Credit.sol\":3948:3962  active == true */\n              iszero\n              iszero\n              eq\n                /* \"smart-contracts/contracts/Credit.sol\":3940:3963  require(active == true) */\n              iszero\n              iszero\n              tag_109\n              jumpi\n              0x0\n              dup1\n              revert\n            tag_109:\n                /* \"smart-contracts/contracts/Credit.sol\":4785:4801  revokeTimeNeeded */\n              sload(0x12)\n                /* \"smart-contracts/contracts/Credit.sol\":4766:4781  block.timestamp */\n              timestamp\n                /* \"smart-contracts/contracts/Credit.sol\":4766:4801  block.timestamp >= revokeTimeNeeded */\n              lt\n              iszero\n                /* \"smart-contracts/contracts/Credit.sol\":4758:4802  require(block.timestamp >= revokeTimeNeeded) */\n              iszero\n              iszero\n              tag_111\n              jumpi\n              0x0\n              dup1\n              revert\n            tag_111:\n                /* \"smart-contracts/contracts/Credit.sol\":4830:4846  State.investment */\n              0x0\n                /* \"smart-contracts/contracts/Credit.sol\":4821:4846  state == State.investment */\n              0x5\n              dup2\n              gt\n              iszero\n              tag_112\n              jumpi\n              invalid\n            tag_112:\n                /* \"smart-contracts/contracts/Credit.sol\":4821:4826  state */\n              0xc\n              0x1\n              swap1\n              sload\n              swap1\n              0x100\n              exp\n              swap1\n              div\n              0xff\n              and\n                /* \"smart-contracts/contracts/Credit.sol\":4821:4846  state == State.investment */\n              0x5\n              dup2\n              gt\n              iszero\n              tag_113\n              jumpi\n              invalid\n            tag_113:\n              eq\n                /* \"smart-contracts/contracts/Credit.sol\":4813:4847  require(state == State.investment) */\n              iszero\n              iszero\n              tag_114\n              jumpi\n              0x0\n              dup1\n              revert\n            tag_114:\n                /* \"smart-contracts/contracts/Credit.sol\":4149:4153  true */\n              0x1\n                /* \"smart-contracts/contracts/Credit.sol\":4126:4153  lenders[msg.sender] == true */\n              iszero\n              iszero\n                /* \"smart-contracts/contracts/Credit.sol\":4126:4133  lenders */\n              0xd\n                /* \"smart-contracts/contracts/Credit.sol\":4126:4145  lenders[msg.sender] */\n              0x0\n                /* \"smart-contracts/contracts/Credit.sol\":4134:4144  msg.sender */\n              caller\n                /* \"smart-contracts/contracts/Credit.sol\":4126:4145  lenders[msg.sender] */\n              0xffffffffffffffffffffffffffffffffffffffff\n              and\n              0xffffffffffffffffffffffffffffffffffffffff\n              and\n              dup2\n              mstore\n              0x20\n              add\n              swap1\n              dup2\n              mstore\n              0x20\n              add\n              0x0\n              keccak256\n              0x0\n              swap1\n              sload\n              swap1\n              0x100\n              exp\n              swap1\n              div\n              0xff\n              and\n                /* \"smart-contracts/contracts/Credit.sol\":4126:4153  lenders[msg.sender] == true */\n              iszero\n              iszero\n              eq\n                /* \"smart-contracts/contracts/Credit.sol\":4118:4154  require(lenders[msg.sender] == true) */\n              iszero\n              iszero\n              tag_116\n              jumpi\n              0x0\n              dup1\n              revert\n            tag_116:\n                /* \"smart-contracts/contracts/Credit.sol\":14691:14696  false */\n              0x0\n                /* \"smart-contracts/contracts/Credit.sol\":14663:14696  revokeVoters[msg.sender] == false */\n              iszero\n              iszero\n                /* \"smart-contracts/contracts/Credit.sol\":14663:14675  revokeVoters */\n              0x11\n                /* \"smart-contracts/contracts/Credit.sol\":14663:14687  revokeVoters[msg.sender] */\n              0x0\n                /* \"smart-contracts/contracts/Credit.sol\":14676:14686  msg.sender */\n              caller\n                /* \"smart-contracts/contracts/Credit.sol\":14663:14687  revokeVoters[msg.sender] */\n              0xffffffffffffffffffffffffffffffffffffffff\n              and\n              0xffffffffffffffffffffffffffffffffffffffff\n              and\n              dup2\n              mstore\n              0x20\n              add\n              swap1\n              dup2\n              mstore\n              0x20\n              add\n              0x0\n              keccak256\n              0x0\n              swap1\n              sload\n              swap1\n              0x100\n              exp\n              swap1\n              div\n              0xff\n              and\n                /* \"smart-contracts/contracts/Credit.sol\":14663:14696  revokeVoters[msg.sender] == false */\n              iszero\n              iszero\n              eq\n                /* \"smart-contracts/contracts/Credit.sol\":14655:14697  require(revokeVoters[msg.sender] == false) */\n              iszero\n              iszero\n              tag_118\n              jumpi\n              0x0\n              dup1\n              revert\n            tag_118:\n                /* \"smart-contracts/contracts/Credit.sol\":14749:14760  revokeVotes */\n              0x10\n              0x0\n                /* \"smart-contracts/contracts/Credit.sol\":14749:14762  revokeVotes++ */\n              dup2\n              sload\n              dup1\n              swap3\n              swap2\n              swap1\n              0x1\n              add\n              swap2\n              swap1\n              pop\n              sstore\n              pop\n                /* \"smart-contracts/contracts/Credit.sol\":14842:14846  true */\n              0x1\n                /* \"smart-contracts/contracts/Credit.sol\":14814:14846  revokeVoters[msg.sender] == true */\n              iszero\n              iszero\n                /* \"smart-contracts/contracts/Credit.sol\":14814:14826  revokeVoters */\n              0x11\n                /* \"smart-contracts/contracts/Credit.sol\":14814:14838  revokeVoters[msg.sender] */\n              0x0\n                /* \"smart-contracts/contracts/Credit.sol\":14827:14837  msg.sender */\n              caller\n                /* \"smart-contracts/contracts/Credit.sol\":14814:14838  revokeVoters[msg.sender] */\n              0xffffffffffffffffffffffffffffffffffffffff\n              and\n              0xffffffffffffffffffffffffffffffffffffffff\n              and\n              dup2\n              mstore\n              0x20\n              add\n              swap1\n              dup2\n              mstore\n              0x20\n              add\n              0x0\n              keccak256\n              0x0\n              swap1\n              sload\n              swap1\n              0x100\n              exp\n              swap1\n              pop\n              pop\n                /* \"smart-contracts/contracts/Credit.sol\":14814:14846  revokeVoters[msg.sender] == true */\n              pop\n                /* \"smart-contracts/contracts/Credit.sol\":14958:14973  block.timestamp */\n              timestamp\n                /* \"smart-contracts/contracts/Credit.sol\":14946:14956  msg.sender */\n              caller\n                /* \"smart-contracts/contracts/Credit.sol\":14921:14974  LogLenderVoteForRevoking(msg.sender, block.timestamp) */\n              0xffffffffffffffffffffffffffffffffffffffff\n              and\n              0xd7173ce7e4ce6f6d075259ac1a467ab8290db175a2cee8587a663c006b97e129\n              mload(0x40)\n              mload(0x40)\n              dup1\n              swap2\n              sub\n              swap1\n              log3\n                /* \"smart-contracts/contracts/Credit.sol\":15048:15059  revokeVotes */\n              sload(0x10)\n                /* \"smart-contracts/contracts/Credit.sol\":15032:15044  lendersCount */\n              sload(0xf)\n                /* \"smart-contracts/contracts/Credit.sol\":15032:15059  lendersCount == revokeVotes */\n              eq\n                /* \"smart-contracts/contracts/Credit.sol\":15028:15143  if (lendersCount == revokeVotes) {\r... */\n              iszero\n              tag_119\n              jumpi\n                /* \"smart-contracts/contracts/Credit.sol\":15123:15131  revoke() */\n              tag_120\n                /* \"smart-contracts/contracts/Credit.sol\":15123:15129  revoke */\n              tag_121\n                /* \"smart-contracts/contracts/Credit.sol\":15123:15131  revoke() */\n              jump\t// in\n            tag_120:\n                /* \"smart-contracts/contracts/Credit.sol\":15028:15143  if (lendersCount == revokeVotes) {\r... */\n            tag_119:\n                /* \"smart-contracts/contracts/Credit.sol\":14537:15150  function revokeVote() public isActive isRevokable onlyLender {\r... */\n              jump\t// out\n                /* \"smart-contracts/contracts/Credit.sol\":15462:16416  function refund() public isActive onlyLender isRevoked {\r... */\n            tag_39:\n                /* \"smart-contracts/contracts/Credit.sol\":3958:3962  true */\n              0x1\n                /* \"smart-contracts/contracts/Credit.sol\":3948:3962  active == true */\n              iszero\n              iszero\n                /* \"smart-contracts/contracts/Credit.sol\":3948:3954  active */\n              0xc\n              0x0\n              swap1\n              sload\n              swap1\n              0x100\n              exp\n              swap1\n              div\n              0xff\n              and\n                /* \"smart-contracts/contracts/Credit.sol\":3948:3962  active == true */\n              iszero\n              iszero\n              eq\n                /* \"smart-contracts/contracts/Credit.sol\":3940:3963  require(active == true) */\n              iszero\n              iszero\n              tag_123\n              jumpi\n              0x0\n              dup1\n              revert\n            tag_123:\n                /* \"smart-contracts/contracts/Credit.sol\":4149:4153  true */\n              0x1\n                /* \"smart-contracts/contracts/Credit.sol\":4126:4153  lenders[msg.sender] == true */\n              iszero\n              iszero\n                /* \"smart-contracts/contracts/Credit.sol\":4126:4133  lenders */\n              0xd\n                /* \"smart-contracts/contracts/Credit.sol\":4126:4145  lenders[msg.sender] */\n              0x0\n                /* \"smart-contracts/contracts/Credit.sol\":4134:4144  msg.sender */\n              caller\n                /* \"smart-contracts/contracts/Credit.sol\":4126:4145  lenders[msg.sender] */\n              0xffffffffffffffffffffffffffffffffffffffff\n              and\n              0xffffffffffffffffffffffffffffffffffffffff\n              and\n              dup2\n              mstore\n              0x20\n              add\n              swap1\n              dup2\n              mstore\n              0x20\n              add\n              0x0\n              keccak256\n              0x0\n              swap1\n              sload\n              swap1\n              0x100\n              exp\n              swap1\n              div\n              0xff\n              and\n                /* \"smart-contracts/contracts/Credit.sol\":4126:4153  lenders[msg.sender] == true */\n              iszero\n              iszero\n              eq\n                /* \"smart-contracts/contracts/Credit.sol\":4118:4154  require(lenders[msg.sender] == true) */\n              iszero\n              iszero\n              tag_125\n              jumpi\n              0x0\n              dup1\n              revert\n            tag_125:\n                /* \"smart-contracts/contracts/Credit.sol\":4924:4937  State.revoked */\n              0x4\n                /* \"smart-contracts/contracts/Credit.sol\":4915:4937  state == State.revoked */\n              0x5\n              dup2\n              gt\n              iszero\n              tag_127\n              jumpi\n              invalid\n            tag_127:\n                /* \"smart-contracts/contracts/Credit.sol\":4915:4920  state */\n              0xc\n              0x1\n              swap1\n              sload\n              swap1\n              0x100\n              exp\n              swap1\n              div\n              0xff\n              and\n                /* \"smart-contracts/contracts/Credit.sol\":4915:4937  state == State.revoked */\n              0x5\n              dup2\n              gt\n              iszero\n              tag_128\n              jumpi\n              invalid\n            tag_128:\n              eq\n                /* \"smart-contracts/contracts/Credit.sol\":4907:4938  require(state == State.revoked) */\n              iszero\n              iszero\n              tag_129\n              jumpi\n              0x0\n              dup1\n              revert\n            tag_129:\n                /* \"smart-contracts/contracts/Credit.sol\":15604:15625  lendersInvestedAmount */\n              0xe\n                /* \"smart-contracts/contracts/Credit.sol\":15604:15637  lendersInvestedAmount[msg.sender] */\n              0x0\n                /* \"smart-contracts/contracts/Credit.sol\":15626:15636  msg.sender */\n              caller\n                /* \"smart-contracts/contracts/Credit.sol\":15604:15637  lendersInvestedAmount[msg.sender] */\n              0xffffffffffffffffffffffffffffffffffffffff\n              and\n              0xffffffffffffffffffffffffffffffffffffffff\n              and\n              dup2\n              mstore\n              0x20\n              add\n              swap1\n              dup2\n              mstore\n              0x20\n              add\n              0x0\n              keccak256\n              sload\n                /* \"smart-contracts/contracts/Credit.sol\":15588:15592  this */\n              address\n                /* \"smart-contracts/contracts/Credit.sol\":15588:15600  this.balance */\n              0xffffffffffffffffffffffffffffffffffffffff\n              and\n              balance\n                /* \"smart-contracts/contracts/Credit.sol\":15588:15637  this.balance >= lendersInvestedAmount[msg.sender] */\n              lt\n              iszero\n                /* \"smart-contracts/contracts/Credit.sol\":15581:15638  assert(this.balance >= lendersInvestedAmount[msg.sender]) */\n              iszero\n              iszero\n              tag_131\n              jumpi\n              invalid\n            tag_131:\n                /* \"smart-contracts/contracts/Credit.sol\":15719:15729  msg.sender */\n              caller\n                /* \"smart-contracts/contracts/Credit.sol\":15719:15738  msg.sender.transfer */\n              0xffffffffffffffffffffffffffffffffffffffff\n              and\n                /* \"smart-contracts/contracts/Credit.sol\":15719:15773  msg.sender.transfer(lendersInvestedAmount[msg.sender]) */\n              0x8fc\n                /* \"smart-contracts/contracts/Credit.sol\":15739:15760  lendersInvestedAmount */\n              0xe\n                /* \"smart-contracts/contracts/Credit.sol\":15739:15772  lendersInvestedAmount[msg.sender] */\n              0x0\n                /* \"smart-contracts/contracts/Credit.sol\":15761:15771  msg.sender */\n              caller\n                /* \"smart-contracts/contracts/Credit.sol\":15739:15772  lendersInvestedAmount[msg.sender] */\n              0xffffffffffffffffffffffffffffffffffffffff\n              and\n              0xffffffffffffffffffffffffffffffffffffffff\n              and\n              dup2\n              mstore\n              0x20\n              add\n              swap1\n              dup2\n              mstore\n              0x20\n              add\n              0x0\n              keccak256\n              sload\n                /* \"smart-contracts/contracts/Credit.sol\":15719:15773  msg.sender.transfer(lendersInvestedAmount[msg.sender]) */\n              swap1\n              dup2\n              iszero\n              mul\n              swap1\n              mload(0x40)\n              0x0\n              mload(0x40)\n              dup1\n              dup4\n              sub\n              dup2\n              dup6\n              dup9\n              dup9\n              call\n              swap4\n              pop\n              pop\n              pop\n              pop\n              iszero\n              iszero\n              tag_132\n              jumpi\n              0x0\n              dup1\n              revert\n            tag_132:\n                /* \"smart-contracts/contracts/Credit.sol\":15891:15906  block.timestamp */\n              timestamp\n                /* \"smart-contracts/contracts/Credit.sol\":15856:15877  lendersInvestedAmount */\n              0xe\n                /* \"smart-contracts/contracts/Credit.sol\":15856:15889  lendersInvestedAmount[msg.sender] */\n              0x0\n                /* \"smart-contracts/contracts/Credit.sol\":15878:15888  msg.sender */\n              caller\n                /* \"smart-contracts/contracts/Credit.sol\":15856:15889  lendersInvestedAmount[msg.sender] */\n              0xffffffffffffffffffffffffffffffffffffffff\n              and\n              0xffffffffffffffffffffffffffffffffffffffff\n              and\n              dup2\n              mstore\n              0x20\n              add\n              swap1\n              dup2\n              mstore\n              0x20\n              add\n              0x0\n              keccak256\n              sload\n                /* \"smart-contracts/contracts/Credit.sol\":15844:15854  msg.sender */\n              caller\n                /* \"smart-contracts/contracts/Credit.sol\":15826:15907  LogLenderRefunded(msg.sender, lendersInvestedAmount[msg.sender], block.timestamp) */\n              0xffffffffffffffffffffffffffffffffffffffff\n              and\n              0x71e252e33f19f0223f47f27d00910548d26488b9b55cb5b410b75e273152f8d6\n              mload(0x40)\n              mload(0x40)\n              dup1\n              swap2\n              sub\n              swap1\n              log4\n                /* \"smart-contracts/contracts/Credit.sol\":15994:15995  0 */\n              0x0\n                /* \"smart-contracts/contracts/Credit.sol\":15978:15982  this */\n              address\n                /* \"smart-contracts/contracts/Credit.sol\":15978:15990  this.balance */\n              0xffffffffffffffffffffffffffffffffffffffff\n              and\n              balance\n                /* \"smart-contracts/contracts/Credit.sol\":15978:15995  this.balance == 0 */\n              eq\n                /* \"smart-contracts/contracts/Credit.sol\":15974:16409  if (this.balance == 0) {\r... */\n              iszero\n              tag_133\n              jumpi\n                /* \"smart-contracts/contracts/Credit.sol\":16070:16075  false */\n              0x0\n                /* \"smart-contracts/contracts/Credit.sol\":16061:16067  active */\n              0xc\n              0x0\n                /* \"smart-contracts/contracts/Credit.sol\":16061:16075  active = false */\n              0x100\n              exp\n              dup2\n              sload\n              dup2\n              0xff\n              mul\n              not\n              and\n              swap1\n              dup4\n              iszero\n              iszero\n              mul\n              or\n              swap1\n              sstore\n              pop\n                /* \"smart-contracts/contracts/Credit.sol\":16170:16185  block.timestamp */\n              timestamp\n                /* \"smart-contracts/contracts/Credit.sol\":16162:16168  active */\n              0xc\n              0x0\n              swap1\n              sload\n              swap1\n              0x100\n              exp\n              swap1\n              div\n              0xff\n              and\n                /* \"smart-contracts/contracts/Credit.sol\":16134:16186  LogCreditStateActiveChanged(active, block.timestamp) */\n              iszero\n              iszero\n              0x160914ea27c60aa29a5f3a69d74e6069869de36e38939de1e0a66b921d8623d2\n              mload(0x40)\n              mload(0x40)\n              dup1\n              swap2\n              sub\n              swap1\n              log3\n                /* \"smart-contracts/contracts/Credit.sol\":16288:16301  State.expired */\n              0x3\n                /* \"smart-contracts/contracts/Credit.sol\":16280:16285  state */\n              0xc\n              0x1\n                /* \"smart-contracts/contracts/Credit.sol\":16280:16301  state = State.expired */\n              0x100\n              exp\n              dup2\n              sload\n              dup2\n              0xff\n              mul\n              not\n              and\n              swap1\n              dup4\n              0x5\n              dup2\n              gt\n              iszero\n              tag_134\n              jumpi\n              invalid\n            tag_134:\n              mul\n              or\n              swap1\n              sstore\n              pop\n                /* \"smart-contracts/contracts/Credit.sol\":16381:16396  block.timestamp */\n              timestamp\n                /* \"smart-contracts/contracts/Credit.sol\":16374:16379  state */\n              0xc\n              0x1\n              swap1\n              sload\n              swap1\n              0x100\n              exp\n              swap1\n              div\n              0xff\n              and\n                /* \"smart-contracts/contracts/Credit.sol\":16352:16397  LogCreditStateChanged(state, block.timestamp) */\n              0x5\n              dup2\n              gt\n              iszero\n              tag_135\n              jumpi\n              invalid\n            tag_135:\n              0xaaae373901e745122c2e0925ad006227969c6cd190b7d5ea2fb7fdbd1d955b35\n              mload(0x40)\n              mload(0x40)\n              dup1\n              swap2\n              sub\n              swap1\n              log3\n                /* \"smart-contracts/contracts/Credit.sol\":15974:16409  if (this.balance == 0) {\r... */\n            tag_133:\n                /* \"smart-contracts/contracts/Credit.sol\":15462:16416  function refund() public isActive onlyLender isRevoked {\r... */\n              jump\t// out\n                /* \"smart-contracts/contracts/common/Destructible.sol\":151:225  function destroy() public onlyOwner {\r... */\n            tag_42:\n                /* \"smart-contracts/contracts/common/Ownable.sol\":232:237  owner */\n              0x0\n              dup1\n              swap1\n              sload\n              swap1\n              0x100\n              exp\n              swap1\n              div\n              0xffffffffffffffffffffffffffffffffffffffff\n              and\n                /* \"smart-contracts/contracts/common/Ownable.sol\":218:237  msg.sender == owner */\n              0xffffffffffffffffffffffffffffffffffffffff\n              and\n                /* \"smart-contracts/contracts/common/Ownable.sol\":218:228  msg.sender */\n              caller\n                /* \"smart-contracts/contracts/common/Ownable.sol\":218:237  msg.sender == owner */\n              0xffffffffffffffffffffffffffffffffffffffff\n              and\n              eq\n                /* \"smart-contracts/contracts/common/Ownable.sol\":210:238  require(msg.sender == owner) */\n              iszero\n              iszero\n              tag_137\n              jumpi\n              0x0\n              dup1\n              revert\n            tag_137:\n                /* \"smart-contracts/contracts/common/Destructible.sol\":211:216  owner */\n              0x0\n              dup1\n              swap1\n              sload\n              swap1\n              0x100\n              exp\n              swap1\n              div\n              0xffffffffffffffffffffffffffffffffffffffff\n              and\n                /* \"smart-contracts/contracts/common/Destructible.sol\":198:217  selfdestruct(owner) */\n              0xffffffffffffffffffffffffffffffffffffffff\n              and\n              selfdestruct\n                /* \"smart-contracts/contracts/common/Ownable.sol\":54:74  address public owner */\n            tag_45:\n              0x0\n              dup1\n              swap1\n              sload\n              swap1\n              0x100\n              exp\n              swap1\n              div\n              0xffffffffffffffffffffffffffffffffffffffff\n              and\n              dup2\n              jump\t// out\n                /* \"smart-contracts/contracts/Credit.sol\":16494:17099  function fraudVote() public isActive onlyLender returns (bool) {\r... */\n            tag_48:\n                /* \"smart-contracts/contracts/Credit.sol\":16551:16555  bool */\n              0x0\n                /* \"smart-contracts/contracts/Credit.sol\":3958:3962  true */\n              0x1\n                /* \"smart-contracts/contracts/Credit.sol\":3948:3962  active == true */\n              iszero\n              iszero\n                /* \"smart-contracts/contracts/Credit.sol\":3948:3954  active */\n              0xc\n              0x0\n              swap1\n              sload\n              swap1\n              0x100\n              exp\n              swap1\n              div\n              0xff\n              and\n                /* \"smart-contracts/contracts/Credit.sol\":3948:3962  active == true */\n              iszero\n              iszero\n              eq\n                /* \"smart-contracts/contracts/Credit.sol\":3940:3963  require(active == true) */\n              iszero\n              iszero\n              tag_140\n              jumpi\n              0x0\n              dup1\n              revert\n            tag_140:\n                /* \"smart-contracts/contracts/Credit.sol\":4149:4153  true */\n              0x1\n                /* \"smart-contracts/contracts/Credit.sol\":4126:4153  lenders[msg.sender] == true */\n              iszero\n              iszero\n                /* \"smart-contracts/contracts/Credit.sol\":4126:4133  lenders */\n              0xd\n                /* \"smart-contracts/contracts/Credit.sol\":4126:4145  lenders[msg.sender] */\n              0x0\n                /* \"smart-contracts/contracts/Credit.sol\":4134:4144  msg.sender */\n              caller\n                /* \"smart-contracts/contracts/Credit.sol\":4126:4145  lenders[msg.sender] */\n              0xffffffffffffffffffffffffffffffffffffffff\n              and\n              0xffffffffffffffffffffffffffffffffffffffff\n              and\n              dup2\n              mstore\n              0x20\n              add\n              swap1\n              dup2\n              mstore\n              0x20\n              add\n              0x0\n              keccak256\n              0x0\n              swap1\n              sload\n              swap1\n              0x100\n              exp\n              swap1\n              div\n              0xff\n              and\n                /* \"smart-contracts/contracts/Credit.sol\":4126:4153  lenders[msg.sender] == true */\n              iszero\n              iszero\n              eq\n                /* \"smart-contracts/contracts/Credit.sol\":4118:4154  require(lenders[msg.sender] == true) */\n              iszero\n              iszero\n              tag_142\n              jumpi\n              0x0\n              dup1\n              revert\n            tag_142:\n                /* \"smart-contracts/contracts/Credit.sol\":16646:16651  false */\n              0x0\n                /* \"smart-contracts/contracts/Credit.sol\":16619:16651  fraudVoters[msg.sender] == false */\n              iszero\n              iszero\n                /* \"smart-contracts/contracts/Credit.sol\":16619:16630  fraudVoters */\n              0x14\n                /* \"smart-contracts/contracts/Credit.sol\":16619:16642  fraudVoters[msg.sender] */\n              0x0\n                /* \"smart-contracts/contracts/Credit.sol\":16631:16641  msg.sender */\n              caller\n                /* \"smart-contracts/contracts/Credit.sol\":16619:16642  fraudVoters[msg.sender] */\n              0xffffffffffffffffffffffffffffffffffffffff\n              and\n              0xffffffffffffffffffffffffffffffffffffffff\n              and\n              dup2\n              mstore\n              0x20\n              add\n              swap1\n              dup2\n              mstore\n              0x20\n              add\n              0x0\n              keccak256\n              0x0\n              swap1\n              sload\n              swap1\n              0x100\n              exp\n              swap1\n              div\n              0xff\n              and\n                /* \"smart-contracts/contracts/Credit.sol\":16619:16651  fraudVoters[msg.sender] == false */\n              iszero\n              iszero\n              eq\n                /* \"smart-contracts/contracts/Credit.sol\":16611:16652  require(fraudVoters[msg.sender] == false) */\n              iszero\n              iszero\n              tag_144\n              jumpi\n              0x0\n              dup1\n              revert\n            tag_144:\n                /* \"smart-contracts/contracts/Credit.sol\":16705:16715  fraudVotes */\n              0x13\n              0x0\n                /* \"smart-contracts/contracts/Credit.sol\":16705:16717  fraudVotes++ */\n              dup2\n              sload\n              dup1\n              swap3\n              swap2\n              swap1\n              0x1\n              add\n              swap2\n              swap1\n              pop\n              sstore\n              pop\n                /* \"smart-contracts/contracts/Credit.sol\":16796:16800  true */\n              0x1\n                /* \"smart-contracts/contracts/Credit.sol\":16769:16800  fraudVoters[msg.sender] == true */\n              iszero\n              iszero\n                /* \"smart-contracts/contracts/Credit.sol\":16769:16780  fraudVoters */\n              0x14\n                /* \"smart-contracts/contracts/Credit.sol\":16769:16792  fraudVoters[msg.sender] */\n              0x0\n                /* \"smart-contracts/contracts/Credit.sol\":16781:16791  msg.sender */\n              caller\n                /* \"smart-contracts/contracts/Credit.sol\":16769:16792  fraudVoters[msg.sender] */\n              0xffffffffffffffffffffffffffffffffffffffff\n              and\n              0xffffffffffffffffffffffffffffffffffffffff\n              and\n              dup2\n              mstore\n              0x20\n              add\n              swap1\n              dup2\n              mstore\n              0x20\n              add\n              0x0\n              keccak256\n              0x0\n              swap1\n              sload\n              swap1\n              0x100\n              exp\n              swap1\n              pop\n              pop\n                /* \"smart-contracts/contracts/Credit.sol\":16769:16800  fraudVoters[msg.sender] == true */\n              pop\n                /* \"smart-contracts/contracts/Credit.sol\":16886:16901  block.timestamp */\n              timestamp\n                /* \"smart-contracts/contracts/Credit.sol\":16874:16884  msg.sender */\n              caller\n                /* \"smart-contracts/contracts/Credit.sol\":16852:16902  LogLenderVoteForFraud(msg.sender, block.timestamp) */\n              0xffffffffffffffffffffffffffffffffffffffff\n              and\n              0x1db613004119dde2a638b639fba9960c0e6064ee7c2d06f300e41c78920ed6dc\n              mload(0x40)\n              mload(0x40)\n              dup1\n              swap2\n              sub\n              swap1\n              log3\n                /* \"smart-contracts/contracts/Credit.sol\":16978:16988  fraudVotes */\n              sload(0x13)\n                /* \"smart-contracts/contracts/Credit.sol\":16962:16974  lendersCount */\n              sload(0xf)\n                /* \"smart-contracts/contracts/Credit.sol\":16962:16988  lendersCount == fraudVotes */\n              eq\n                /* \"smart-contracts/contracts/Credit.sol\":16958:17070  if (lendersCount == fraudVotes) {\r... */\n              iszero\n              tag_145\n              jumpi\n                /* \"smart-contracts/contracts/Credit.sol\":17051:17058  fraud() */\n              tag_146\n                /* \"smart-contracts/contracts/Credit.sol\":17051:17056  fraud */\n              tag_147\n                /* \"smart-contracts/contracts/Credit.sol\":17051:17058  fraud() */\n              jump\t// in\n            tag_146:\n                /* \"smart-contracts/contracts/Credit.sol\":17044:17058  return fraud() */\n              swap1\n              pop\n              jump(tag_143)\n                /* \"smart-contracts/contracts/Credit.sol\":16958:17070  if (lendersCount == fraudVotes) {\r... */\n            tag_145:\n                /* \"smart-contracts/contracts/Credit.sol\":17087:17091  true */\n              0x1\n                /* \"smart-contracts/contracts/Credit.sol\":17080:17091  return true */\n              swap1\n              pop\n                /* \"smart-contracts/contracts/Credit.sol\":4165:4166  _ */\n            tag_143:\n                /* \"smart-contracts/contracts/Credit.sol\":16494:17099  function fraudVote() public isActive onlyLender returns (bool) {\r... */\n              swap1\n              jump\t// out\n                /* \"smart-contracts/contracts/Credit.sol\":7072:8788  function invest() public canInvest payable {\r... */\n            tag_50:\n                /* \"smart-contracts/contracts/Credit.sol\":7213:7228  uint extraMoney */\n              0x0\n                /* \"smart-contracts/contracts/Credit.sol\":4395:4411  State.investment */\n              dup1\n                /* \"smart-contracts/contracts/Credit.sol\":4386:4411  state == State.investment */\n              0x5\n              dup2\n              gt\n              iszero\n              tag_149\n              jumpi\n              invalid\n            tag_149:\n                /* \"smart-contracts/contracts/Credit.sol\":4386:4391  state */\n              0xc\n              0x1\n              swap1\n              sload\n              swap1\n              0x100\n              exp\n              swap1\n              div\n              0xff\n              and\n                /* \"smart-contracts/contracts/Credit.sol\":4386:4411  state == State.investment */\n              0x5\n              dup2\n              gt\n              iszero\n              tag_150\n              jumpi\n              invalid\n            tag_150:\n              eq\n                /* \"smart-contracts/contracts/Credit.sol\":4378:4412  require(state == State.investment) */\n              iszero\n              iszero\n              tag_151\n              jumpi\n              0x0\n              dup1\n              revert\n            tag_151:\n                /* \"smart-contracts/contracts/Credit.sol\":7231:7232  0 */\n              0x0\n                /* \"smart-contracts/contracts/Credit.sol\":7213:7232  uint extraMoney = 0 */\n              swap1\n              pop\n                /* \"smart-contracts/contracts/Credit.sol\":7336:7351  requestedAmount */\n              sload(0x2)\n                /* \"smart-contracts/contracts/Credit.sol\":7320:7324  this */\n              address\n                /* \"smart-contracts/contracts/Credit.sol\":7320:7332  this.balance */\n              0xffffffffffffffffffffffffffffffffffffffff\n              and\n              balance\n                /* \"smart-contracts/contracts/Credit.sol\":7320:7351  this.balance >= requestedAmount */\n              lt\n              iszero\n                /* \"smart-contracts/contracts/Credit.sol\":7316:8247  if (this.balance >= requestedAmount) {\r... */\n              iszero\n              tag_153\n              jumpi\n                /* \"smart-contracts/contracts/Credit.sol\":7450:7483  this.balance.sub(requestedAmount) */\n              tag_154\n                /* \"smart-contracts/contracts/Credit.sol\":7467:7482  requestedAmount */\n              sload(0x2)\n                /* \"smart-contracts/contracts/Credit.sol\":7450:7454  this */\n              address\n                /* \"smart-contracts/contracts/Credit.sol\":7450:7462  this.balance */\n              0xffffffffffffffffffffffffffffffffffffffff\n              and\n              balance\n                /* \"smart-contracts/contracts/Credit.sol\":7450:7466  this.balance.sub */\n              tag_96\n              swap1\n                /* \"smart-contracts/contracts/Credit.sol\":7450:7483  this.balance.sub(requestedAmount) */\n              swap2\n              swap1\n              0xffffffff\n              and\n              jump\t// in\n            tag_154:\n                /* \"smart-contracts/contracts/Credit.sol\":7437:7483  extraMoney = this.balance.sub(requestedAmount) */\n              swap1\n              pop\n                /* \"smart-contracts/contracts/Credit.sol\":7566:7594  this.balance.sub(extraMoney) */\n              tag_155\n                /* \"smart-contracts/contracts/Credit.sol\":7583:7593  extraMoney */\n              dup2\n                /* \"smart-contracts/contracts/Credit.sol\":7566:7570  this */\n              address\n                /* \"smart-contracts/contracts/Credit.sol\":7566:7578  this.balance */\n              0xffffffffffffffffffffffffffffffffffffffff\n              and\n              balance\n                /* \"smart-contracts/contracts/Credit.sol\":7566:7582  this.balance.sub */\n              tag_96\n              swap1\n                /* \"smart-contracts/contracts/Credit.sol\":7566:7594  this.balance.sub(extraMoney) */\n              swap2\n              swap1\n              0xffffffff\n              and\n              jump\t// in\n            tag_155:\n                /* \"smart-contracts/contracts/Credit.sol\":7547:7562  requestedAmount */\n              sload(0x2)\n                /* \"smart-contracts/contracts/Credit.sol\":7547:7594  requestedAmount == this.balance.sub(extraMoney) */\n              eq\n                /* \"smart-contracts/contracts/Credit.sol\":7540:7595  assert(requestedAmount == this.balance.sub(extraMoney)) */\n              iszero\n              iszero\n              tag_156\n              jumpi\n              invalid\n            tag_156:\n                /* \"smart-contracts/contracts/Credit.sol\":7690:7699  msg.value */\n              callvalue\n                /* \"smart-contracts/contracts/Credit.sol\":7676:7686  extraMoney */\n              dup2\n                /* \"smart-contracts/contracts/Credit.sol\":7676:7699  extraMoney <= msg.value */\n              gt\n              iszero\n                /* \"smart-contracts/contracts/Credit.sol\":7669:7700  assert(extraMoney <= msg.value) */\n              iszero\n              iszero\n              tag_157\n              jumpi\n              invalid\n            tag_157:\n                /* \"smart-contracts/contracts/Credit.sol\":7794:7795  0 */\n              0x0\n                /* \"smart-contracts/contracts/Credit.sol\":7781:7791  extraMoney */\n              dup2\n                /* \"smart-contracts/contracts/Credit.sol\":7781:7795  extraMoney > 0 */\n              gt\n                /* \"smart-contracts/contracts/Credit.sol\":7777:8047  if (extraMoney > 0) {\r... */\n              iszero\n              tag_158\n              jumpi\n                /* \"smart-contracts/contracts/Credit.sol\":7874:7884  msg.sender */\n              caller\n                /* \"smart-contracts/contracts/Credit.sol\":7874:7893  msg.sender.transfer */\n              0xffffffffffffffffffffffffffffffffffffffff\n              and\n                /* \"smart-contracts/contracts/Credit.sol\":7874:7905  msg.sender.transfer(extraMoney) */\n              0x8fc\n                /* \"smart-contracts/contracts/Credit.sol\":7894:7904  extraMoney */\n              dup3\n                /* \"smart-contracts/contracts/Credit.sol\":7874:7905  msg.sender.transfer(extraMoney) */\n              swap1\n              dup2\n              iszero\n              mul\n              swap1\n              mload(0x40)\n              0x0\n              mload(0x40)\n              dup1\n              dup4\n              sub\n              dup2\n              dup6\n              dup9\n              dup9\n              call\n              swap4\n              pop\n              pop\n              pop\n              pop\n              iszero\n              iszero\n              tag_159\n              jumpi\n              0x0\n              dup1\n              revert\n            tag_159:\n                /* \"smart-contracts/contracts/Credit.sol\":8015:8030  block.timestamp */\n              timestamp\n                /* \"smart-contracts/contracts/Credit.sol\":8003:8013  extraMoney */\n              dup2\n                /* \"smart-contracts/contracts/Credit.sol\":7991:8001  msg.sender */\n              caller\n                /* \"smart-contracts/contracts/Credit.sol\":7967:8031  LogLenderChangeReturned(msg.sender, extraMoney, block.timestamp) */\n              0xffffffffffffffffffffffffffffffffffffffff\n              and\n              0x566803f6e271b911c84f87631bcd310d6a6510bf8882577a96fc76975703e431\n              mload(0x40)\n              mload(0x40)\n              dup1\n              swap2\n              sub\n              swap1\n              log4\n                /* \"smart-contracts/contracts/Credit.sol\":7777:8047  if (extraMoney > 0) {\r... */\n            tag_158:\n                /* \"smart-contracts/contracts/Credit.sol\":8124:8139  State.repayment */\n              0x1\n                /* \"smart-contracts/contracts/Credit.sol\":8116:8121  state */\n              0xc\n              0x1\n                /* \"smart-contracts/contracts/Credit.sol\":8116:8139  state = State.repayment */\n              0x100\n              exp\n              dup2\n              sload\n              dup2\n              0xff\n              mul\n              not\n              and\n              swap1\n              dup4\n              0x5\n              dup2\n              gt\n              iszero\n              tag_160\n              jumpi\n              invalid\n            tag_160:\n              mul\n              or\n              swap1\n              sstore\n              pop\n                /* \"smart-contracts/contracts/Credit.sol\":8219:8234  block.timestamp */\n              timestamp\n                /* \"smart-contracts/contracts/Credit.sol\":8212:8217  state */\n              0xc\n              0x1\n              swap1\n              sload\n              swap1\n              0x100\n              exp\n              swap1\n              div\n              0xff\n              and\n                /* \"smart-contracts/contracts/Credit.sol\":8190:8235  LogCreditStateChanged(state, block.timestamp) */\n              0x5\n              dup2\n              gt\n              iszero\n              tag_161\n              jumpi\n              invalid\n            tag_161:\n              0xaaae373901e745122c2e0925ad006227969c6cd190b7d5ea2fb7fdbd1d955b35\n              mload(0x40)\n              mload(0x40)\n              dup1\n              swap2\n              sub\n              swap1\n              log3\n                /* \"smart-contracts/contracts/Credit.sol\":7316:8247  if (this.balance >= requestedAmount) {\r... */\n            tag_153:\n                /* \"smart-contracts/contracts/Credit.sol\":8408:8412  true */\n              0x1\n                /* \"smart-contracts/contracts/Credit.sol\":8386:8393  lenders */\n              0xd\n                /* \"smart-contracts/contracts/Credit.sol\":8386:8405  lenders[msg.sender] */\n              0x0\n                /* \"smart-contracts/contracts/Credit.sol\":8394:8404  msg.sender */\n              caller\n                /* \"smart-contracts/contracts/Credit.sol\":8386:8405  lenders[msg.sender] */\n              0xffffffffffffffffffffffffffffffffffffffff\n              and\n              0xffffffffffffffffffffffffffffffffffffffff\n              and\n              dup2\n              mstore\n              0x20\n              add\n              swap1\n              dup2\n              mstore\n              0x20\n              add\n              0x0\n              keccak256\n              0x0\n                /* \"smart-contracts/contracts/Credit.sol\":8386:8412  lenders[msg.sender] = true */\n              0x100\n              exp\n              dup2\n              sload\n              dup2\n              0xff\n              mul\n              not\n              and\n              swap1\n              dup4\n              iszero\n              iszero\n              mul\n              or\n              swap1\n              sstore\n              pop\n                /* \"smart-contracts/contracts/Credit.sol\":8466:8478  lendersCount */\n              0xf\n              0x0\n                /* \"smart-contracts/contracts/Credit.sol\":8466:8480  lendersCount++ */\n              dup2\n              sload\n              dup1\n              swap3\n              swap2\n              swap1\n              0x1\n              add\n              swap2\n              swap1\n              pop\n              sstore\n              pop\n                /* \"smart-contracts/contracts/Credit.sol\":8588:8652  lendersInvestedAmount[msg.sender].add(msg.value.sub(extraMoney)) */\n              tag_162\n                /* \"smart-contracts/contracts/Credit.sol\":8626:8651  msg.value.sub(extraMoney) */\n              tag_163\n                /* \"smart-contracts/contracts/Credit.sol\":8640:8650  extraMoney */\n              dup3\n                /* \"smart-contracts/contracts/Credit.sol\":8626:8635  msg.value */\n              callvalue\n                /* \"smart-contracts/contracts/Credit.sol\":8626:8639  msg.value.sub */\n              tag_96\n              swap1\n                /* \"smart-contracts/contracts/Credit.sol\":8626:8651  msg.value.sub(extraMoney) */\n              swap2\n              swap1\n              0xffffffff\n              and\n              jump\t// in\n            tag_163:\n                /* \"smart-contracts/contracts/Credit.sol\":8588:8609  lendersInvestedAmount */\n              0xe\n                /* \"smart-contracts/contracts/Credit.sol\":8588:8621  lendersInvestedAmount[msg.sender] */\n              0x0\n                /* \"smart-contracts/contracts/Credit.sol\":8610:8620  msg.sender */\n              caller\n                /* \"smart-contracts/contracts/Credit.sol\":8588:8621  lendersInvestedAmount[msg.sender] */\n              0xffffffffffffffffffffffffffffffffffffffff\n              and\n              0xffffffffffffffffffffffffffffffffffffffff\n              and\n              dup2\n              mstore\n              0x20\n              add\n              swap1\n              dup2\n              mstore\n              0x20\n              add\n              0x0\n              keccak256\n              sload\n                /* \"smart-contracts/contracts/Credit.sol\":8588:8625  lendersInvestedAmount[msg.sender].add */\n              tag_104\n              swap1\n                /* \"smart-contracts/contracts/Credit.sol\":8588:8652  lendersInvestedAmount[msg.sender].add(msg.value.sub(extraMoney)) */\n              swap2\n              swap1\n              0xffffffff\n              and\n              jump\t// in\n            tag_162:\n                /* \"smart-contracts/contracts/Credit.sol\":8552:8573  lendersInvestedAmount */\n              0xe\n                /* \"smart-contracts/contracts/Credit.sol\":8552:8585  lendersInvestedAmount[msg.sender] */\n              0x0\n                /* \"smart-contracts/contracts/Credit.sol\":8574:8584  msg.sender */\n              caller\n                /* \"smart-contracts/contracts/Credit.sol\":8552:8585  lendersInvestedAmount[msg.sender] */\n              0xffffffffffffffffffffffffffffffffffffffff\n              and\n              0xffffffffffffffffffffffffffffffffffffffff\n              and\n              dup2\n              mstore\n              0x20\n              add\n              swap1\n              dup2\n              mstore\n              0x20\n              add\n              0x0\n              keccak256\n                /* \"smart-contracts/contracts/Credit.sol\":8552:8652  lendersInvestedAmount[msg.sender] = lendersInvestedAmount[msg.sender].add(msg.value.sub(extraMoney)) */\n              dup2\n              swap1\n              sstore\n              pop\n                /* \"smart-contracts/contracts/Credit.sol\":8764:8779  block.timestamp */\n              timestamp\n                /* \"smart-contracts/contracts/Credit.sol\":8737:8762  msg.value.sub(extraMoney) */\n              tag_164\n                /* \"smart-contracts/contracts/Credit.sol\":8751:8761  extraMoney */\n              dup3\n                /* \"smart-contracts/contracts/Credit.sol\":8737:8746  msg.value */\n              callvalue\n                /* \"smart-contracts/contracts/Credit.sol\":8737:8750  msg.value.sub */\n              tag_96\n              swap1\n                /* \"smart-contracts/contracts/Credit.sol\":8737:8762  msg.value.sub(extraMoney) */\n              swap2\n              swap1\n              0xffffffff\n              and\n              jump\t// in\n            tag_164:\n                /* \"smart-contracts/contracts/Credit.sol\":8725:8735  msg.sender */\n              caller\n                /* \"smart-contracts/contracts/Credit.sol\":8705:8780  LogLenderInvestment(msg.sender, msg.value.sub(extraMoney), block.timestamp) */\n              0xffffffffffffffffffffffffffffffffffffffff\n              and\n              0x1b0969ce7f5b05c5e0969329a05cdbd7e2e2f6cee33ba26fd6e6bbcff82312cd\n              mload(0x40)\n              mload(0x40)\n              dup1\n              swap2\n              sub\n              swap1\n              log4\n                /* \"smart-contracts/contracts/Credit.sol\":7072:8788  function invest() public canInvest payable {\r... */\n              pop\n              jump\t// out\n                /* \"smart-contracts/contracts/Credit.sol\":12478:13696  function requestInterest() public isActive onlyLender canAskForInterest {\r... */\n            tag_53:\n                /* \"smart-contracts/contracts/Credit.sol\":12769:12792  uint lenderReturnAmount */\n              0x0\n                /* \"smart-contracts/contracts/Credit.sol\":3958:3962  true */\n              0x1\n                /* \"smart-contracts/contracts/Credit.sol\":3948:3962  active == true */\n              iszero\n              iszero\n                /* \"smart-contracts/contracts/Credit.sol\":3948:3954  active */\n              0xc\n              0x0\n              swap1\n              sload\n              swap1\n              0x100\n              exp\n              swap1\n              div\n              0xff\n              and\n                /* \"smart-contracts/contracts/Credit.sol\":3948:3962  active == true */\n              iszero\n              iszero\n              eq\n                /* \"smart-contracts/contracts/Credit.sol\":3940:3963  require(active == true) */\n              iszero\n              iszero\n              tag_166\n              jumpi\n              0x0\n              dup1\n              revert\n            tag_166:\n                /* \"smart-contracts/contracts/Credit.sol\":4149:4153  true */\n              0x1\n                /* \"smart-contracts/contracts/Credit.sol\":4126:4153  lenders[msg.sender] == true */\n              iszero\n              iszero\n                /* \"smart-contracts/contracts/Credit.sol\":4126:4133  lenders */\n              0xd\n                /* \"smart-contracts/contracts/Credit.sol\":4126:4145  lenders[msg.sender] */\n              0x0\n                /* \"smart-contracts/contracts/Credit.sol\":4134:4144  msg.sender */\n              caller\n                /* \"smart-contracts/contracts/Credit.sol\":4126:4145  lenders[msg.sender] */\n              0xffffffffffffffffffffffffffffffffffffffff\n              and\n              0xffffffffffffffffffffffffffffffffffffffff\n              and\n              dup2\n              mstore\n              0x20\n              add\n              swap1\n              dup2\n              mstore\n              0x20\n              add\n              0x0\n              keccak256\n              0x0\n              swap1\n              sload\n              swap1\n              0x100\n              exp\n              swap1\n              div\n              0xff\n              and\n                /* \"smart-contracts/contracts/Credit.sol\":4126:4153  lenders[msg.sender] == true */\n              iszero\n              iszero\n              eq\n                /* \"smart-contracts/contracts/Credit.sol\":4118:4154  require(lenders[msg.sender] == true) */\n              iszero\n              iszero\n              tag_168\n              jumpi\n              0x0\n              dup1\n              revert\n            tag_168:\n                /* \"smart-contracts/contracts/Credit.sol\":4239:4260  State.interestReturns */\n              0x2\n                /* \"smart-contracts/contracts/Credit.sol\":4230:4260  state == State.interestReturns */\n              0x5\n              dup2\n              gt\n              iszero\n              tag_170\n              jumpi\n              invalid\n            tag_170:\n                /* \"smart-contracts/contracts/Credit.sol\":4230:4235  state */\n              0xc\n              0x1\n              swap1\n              sload\n              swap1\n              0x100\n              exp\n              swap1\n              div\n              0xff\n              and\n                /* \"smart-contracts/contracts/Credit.sol\":4230:4260  state == State.interestReturns */\n              0x5\n              dup2\n              gt\n              iszero\n              tag_171\n              jumpi\n              invalid\n            tag_171:\n              eq\n                /* \"smart-contracts/contracts/Credit.sol\":4222:4261  require(state == State.interestReturns) */\n              iszero\n              iszero\n              tag_172\n              jumpi\n              0x0\n              dup1\n              revert\n            tag_172:\n                /* \"smart-contracts/contracts/Credit.sol\":4316:4317  0 */\n              0x0\n                /* \"smart-contracts/contracts/Credit.sol\":4280:4301  lendersInvestedAmount */\n              0xe\n                /* \"smart-contracts/contracts/Credit.sol\":4280:4313  lendersInvestedAmount[msg.sender] */\n              0x0\n                /* \"smart-contracts/contracts/Credit.sol\":4302:4312  msg.sender */\n              caller\n                /* \"smart-contracts/contracts/Credit.sol\":4280:4313  lendersInvestedAmount[msg.sender] */\n              0xffffffffffffffffffffffffffffffffffffffff\n              and\n              0xffffffffffffffffffffffffffffffffffffffff\n              and\n              dup2\n              mstore\n              0x20\n              add\n              swap1\n              dup2\n              mstore\n              0x20\n              add\n              0x0\n              keccak256\n              sload\n                /* \"smart-contracts/contracts/Credit.sol\":4280:4317  lendersInvestedAmount[msg.sender] > 0 */\n              gt\n                /* \"smart-contracts/contracts/Credit.sol\":4272:4318  require(lendersInvestedAmount[msg.sender] > 0) */\n              iszero\n              iszero\n              tag_173\n              jumpi\n              0x0\n              dup1\n              revert\n            tag_173:\n                /* \"smart-contracts/contracts/Credit.sol\":12810:12822  lendersCount */\n              sload(0xf)\n                /* \"smart-contracts/contracts/Credit.sol\":12795:12807  returnAmount */\n              sload(0x3)\n                /* \"smart-contracts/contracts/Credit.sol\":12795:12822  returnAmount / lendersCount */\n              dup2\n              iszero\n              iszero\n              tag_175\n              jumpi\n              invalid\n            tag_175:\n              div\n                /* \"smart-contracts/contracts/Credit.sol\":12769:12822  uint lenderReturnAmount = returnAmount / lendersCount */\n              swap1\n              pop\n                /* \"smart-contracts/contracts/Credit.sol\":12928:12946  lenderReturnAmount */\n              dup1\n                /* \"smart-contracts/contracts/Credit.sol\":12912:12916  this */\n              address\n                /* \"smart-contracts/contracts/Credit.sol\":12912:12924  this.balance */\n              0xffffffffffffffffffffffffffffffffffffffff\n              and\n              balance\n                /* \"smart-contracts/contracts/Credit.sol\":12912:12946  this.balance >= lenderReturnAmount */\n              lt\n              iszero\n                /* \"smart-contracts/contracts/Credit.sol\":12905:12947  assert(this.balance >= lenderReturnAmount) */\n              iszero\n              iszero\n              tag_176\n              jumpi\n              invalid\n            tag_176:\n                /* \"smart-contracts/contracts/Credit.sol\":13028:13038  msg.sender */\n              caller\n                /* \"smart-contracts/contracts/Credit.sol\":13028:13047  msg.sender.transfer */\n              0xffffffffffffffffffffffffffffffffffffffff\n              and\n                /* \"smart-contracts/contracts/Credit.sol\":13028:13067  msg.sender.transfer(lenderReturnAmount) */\n              0x8fc\n                /* \"smart-contracts/contracts/Credit.sol\":13048:13066  lenderReturnAmount */\n              dup3\n                /* \"smart-contracts/contracts/Credit.sol\":13028:13067  msg.sender.transfer(lenderReturnAmount) */\n              swap1\n              dup2\n              iszero\n              mul\n              swap1\n              mload(0x40)\n              0x0\n              mload(0x40)\n              dup1\n              dup4\n              sub\n              dup2\n              dup6\n              dup9\n              dup9\n              call\n              swap4\n              pop\n              pop\n              pop\n              pop\n              iszero\n              iszero\n              tag_177\n              jumpi\n              0x0\n              dup1\n              revert\n            tag_177:\n                /* \"smart-contracts/contracts/Credit.sol\":13172:13187  block.timestamp */\n              timestamp\n                /* \"smart-contracts/contracts/Credit.sol\":13152:13170  lenderReturnAmount */\n              dup2\n                /* \"smart-contracts/contracts/Credit.sol\":13140:13150  msg.sender */\n              caller\n                /* \"smart-contracts/contracts/Credit.sol\":13120:13188  LogLenderWithdrawal(msg.sender, lenderReturnAmount, block.timestamp) */\n              0xffffffffffffffffffffffffffffffffffffffff\n              and\n              0x52f6685df2f773f854b17db1d82e2352e222010daaf8175761f02ef8782c403\n              mload(0x40)\n              mload(0x40)\n              dup1\n              swap2\n              sub\n              swap1\n              log4\n                /* \"smart-contracts/contracts/Credit.sol\":13275:13276  0 */\n              0x0\n                /* \"smart-contracts/contracts/Credit.sol\":13259:13263  this */\n              address\n                /* \"smart-contracts/contracts/Credit.sol\":13259:13271  this.balance */\n              0xffffffffffffffffffffffffffffffffffffffff\n              and\n              balance\n                /* \"smart-contracts/contracts/Credit.sol\":13259:13276  this.balance == 0 */\n              eq\n                /* \"smart-contracts/contracts/Credit.sol\":13255:13689  if (this.balance == 0) {\r... */\n              iszero\n              tag_178\n              jumpi\n                /* \"smart-contracts/contracts/Credit.sol\":13351:13356  false */\n              0x0\n                /* \"smart-contracts/contracts/Credit.sol\":13342:13348  active */\n              0xc\n              0x0\n                /* \"smart-contracts/contracts/Credit.sol\":13342:13356  active = false */\n              0x100\n              exp\n              dup2\n              sload\n              dup2\n              0xff\n              mul\n              not\n              and\n              swap1\n              dup4\n              iszero\n              iszero\n              mul\n              or\n              swap1\n              sstore\n              pop\n                /* \"smart-contracts/contracts/Credit.sol\":13450:13465  block.timestamp */\n              timestamp\n                /* \"smart-contracts/contracts/Credit.sol\":13442:13448  active */\n              0xc\n              0x0\n              swap1\n              sload\n              swap1\n              0x100\n              exp\n              swap1\n              div\n              0xff\n              and\n                /* \"smart-contracts/contracts/Credit.sol\":13414:13466  LogCreditStateActiveChanged(active, block.timestamp) */\n              iszero\n              iszero\n              0x160914ea27c60aa29a5f3a69d74e6069869de36e38939de1e0a66b921d8623d2\n              mload(0x40)\n              mload(0x40)\n              dup1\n              swap2\n              sub\n              swap1\n              log3\n                /* \"smart-contracts/contracts/Credit.sol\":13568:13581  State.expired */\n              0x3\n                /* \"smart-contracts/contracts/Credit.sol\":13560:13565  state */\n              0xc\n              0x1\n                /* \"smart-contracts/contracts/Credit.sol\":13560:13581  state = State.expired */\n              0x100\n              exp\n              dup2\n              sload\n              dup2\n              0xff\n              mul\n              not\n              and\n              swap1\n              dup4\n              0x5\n              dup2\n              gt\n              iszero\n              tag_179\n              jumpi\n              invalid\n            tag_179:\n              mul\n              or\n              swap1\n              sstore\n              pop\n                /* \"smart-contracts/contracts/Credit.sol\":13661:13676  block.timestamp */\n              timestamp\n                /* \"smart-contracts/contracts/Credit.sol\":13654:13659  state */\n              0xc\n              0x1\n              swap1\n              sload\n              swap1\n              0x100\n              exp\n              swap1\n              div\n              0xff\n              and\n                /* \"smart-contracts/contracts/Credit.sol\":13632:13677  LogCreditStateChanged(state, block.timestamp) */\n              0x5\n              dup2\n              gt\n              iszero\n              tag_180\n              jumpi\n              invalid\n            tag_180:\n              0xaaae373901e745122c2e0925ad006227969c6cd190b7d5ea2fb7fdbd1d955b35\n              mload(0x40)\n              mload(0x40)\n              dup1\n              swap2\n              sub\n              swap1\n              log3\n                /* \"smart-contracts/contracts/Credit.sol\":13255:13689  if (this.balance == 0) {\r... */\n            tag_178:\n                /* \"smart-contracts/contracts/Credit.sol\":12478:13696  function requestInterest() public isActive onlyLender canAskForInterest {\r... */\n              pop\n              jump\t// out\n                /* \"smart-contracts/contracts/Credit.sol\":14059:14471  function getCreditInfo() public view returns (address, bytes32, uint, uint, uint, uint, uint, uint, State, bool, uint) {\r... */\n            tag_56:\n                /* \"smart-contracts/contracts/Credit.sol\":14105:14112  address */\n              0x0\n                /* \"smart-contracts/contracts/Credit.sol\":14114:14121  bytes32 */\n              dup1\n                /* \"smart-contracts/contracts/Credit.sol\":14123:14127  uint */\n              0x0\n                /* \"smart-contracts/contracts/Credit.sol\":14129:14133  uint */\n              dup1\n                /* \"smart-contracts/contracts/Credit.sol\":14135:14139  uint */\n              0x0\n                /* \"smart-contracts/contracts/Credit.sol\":14141:14145  uint */\n              dup1\n                /* \"smart-contracts/contracts/Credit.sol\":14147:14151  uint */\n              0x0\n                /* \"smart-contracts/contracts/Credit.sol\":14153:14157  uint */\n              dup1\n                /* \"smart-contracts/contracts/Credit.sol\":14159:14164  State */\n              0x0\n                /* \"smart-contracts/contracts/Credit.sol\":14166:14170  bool */\n              dup1\n                /* \"smart-contracts/contracts/Credit.sol\":14172:14176  uint */\n              0x0\n                /* \"smart-contracts/contracts/Credit.sol\":14207:14215  borrower */\n              0x1\n              0x0\n              swap1\n              sload\n              swap1\n              0x100\n              exp\n              swap1\n              div\n              0xffffffffffffffffffffffffffffffffffffffff\n              and\n                /* \"smart-contracts/contracts/Credit.sol\":14226:14237  description */\n              sload(0xb)\n                /* \"smart-contracts/contracts/Credit.sol\":14248:14263  requestedAmount */\n              sload(0x2)\n                /* \"smart-contracts/contracts/Credit.sol\":14274:14293  requestedRepayments */\n              sload(0x6)\n                /* \"smart-contracts/contracts/Credit.sol\":14304:14324  repaymentInstallment */\n              sload(0x8)\n                /* \"smart-contracts/contracts/Credit.sol\":14335:14354  remainingRepayments */\n              sload(0x7)\n                /* \"smart-contracts/contracts/Credit.sol\":14365:14373  interest */\n              sload(0x5)\n                /* \"smart-contracts/contracts/Credit.sol\":14384:14396  returnAmount */\n              sload(0x3)\n                /* \"smart-contracts/contracts/Credit.sol\":14407:14412  state */\n              0xc\n              0x1\n              swap1\n              sload\n              swap1\n              0x100\n              exp\n              swap1\n              div\n              0xff\n              and\n                /* \"smart-contracts/contracts/Credit.sol\":14423:14429  active */\n              0xc\n              0x0\n              swap1\n              sload\n              swap1\n              0x100\n              exp\n              swap1\n              div\n              0xff\n              and\n                /* \"smart-contracts/contracts/Credit.sol\":14440:14444  this */\n              address\n                /* \"smart-contracts/contracts/Credit.sol\":14440:14452  this.balance */\n              0xffffffffffffffffffffffffffffffffffffffff\n              and\n              balance\n                /* \"smart-contracts/contracts/Credit.sol\":14189:14463  return (\r... */\n              swap11\n              pop\n              swap11\n              pop\n              swap11\n              pop\n              swap11\n              pop\n              swap11\n              pop\n              swap11\n              pop\n              swap11\n              pop\n              swap11\n              pop\n              swap11\n              pop\n              swap11\n              pop\n              swap11\n              pop\n                /* \"smart-contracts/contracts/Credit.sol\":14059:14471  function getCreditInfo() public view returns (address, bytes32, uint, uint, uint, uint, uint, uint, State, bool, uint) {\r... */\n              swap1\n              swap2\n              swap3\n              swap4\n              swap5\n              swap6\n              swap7\n              swap8\n              swap9\n              swap10\n              swap11\n              jump\t// out\n                /* \"smart-contracts/contracts/common/Destructible.sol\":237:341  function destroyAndSend(address _recipient) public onlyOwner {\r... */\n            tag_60:\n                /* \"smart-contracts/contracts/common/Ownable.sol\":232:237  owner */\n              0x0\n              dup1\n              swap1\n              sload\n              swap1\n              0x100\n              exp\n              swap1\n              div\n              0xffffffffffffffffffffffffffffffffffffffff\n              and\n                /* \"smart-contracts/contracts/common/Ownable.sol\":218:237  msg.sender == owner */\n              0xffffffffffffffffffffffffffffffffffffffff\n              and\n                /* \"smart-contracts/contracts/common/Ownable.sol\":218:228  msg.sender */\n              caller\n                /* \"smart-contracts/contracts/common/Ownable.sol\":218:237  msg.sender == owner */\n              0xffffffffffffffffffffffffffffffffffffffff\n              and\n              eq\n                /* \"smart-contracts/contracts/common/Ownable.sol\":210:238  require(msg.sender == owner) */\n              iszero\n              iszero\n              tag_183\n              jumpi\n              0x0\n              dup1\n              revert\n            tag_183:\n                /* \"smart-contracts/contracts/common/Destructible.sol\":322:332  _recipient */\n              dup1\n                /* \"smart-contracts/contracts/common/Destructible.sol\":309:333  selfdestruct(_recipient) */\n              0xffffffffffffffffffffffffffffffffffffffff\n              and\n              selfdestruct\n                /* \"smart-contracts/contracts/common/SafeMath.sol\":481:604  function sub(uint256 a, uint256 b) internal pure returns (uint256) {\r... */\n            tag_96:\n                /* \"smart-contracts/contracts/common/SafeMath.sol\":539:546  uint256 */\n              0x0\n                /* \"smart-contracts/contracts/common/SafeMath.sol\":571:572  a */\n              dup3\n                /* \"smart-contracts/contracts/common/SafeMath.sol\":566:567  b */\n              dup3\n                /* \"smart-contracts/contracts/common/SafeMath.sol\":566:572  b <= a */\n              gt\n              iszero\n                /* \"smart-contracts/contracts/common/SafeMath.sol\":559:573  assert(b <= a) */\n              iszero\n              iszero\n              tag_186\n              jumpi\n              invalid\n            tag_186:\n                /* \"smart-contracts/contracts/common/SafeMath.sol\":595:596  b */\n              dup2\n                /* \"smart-contracts/contracts/common/SafeMath.sol\":591:592  a */\n              dup4\n                /* \"smart-contracts/contracts/common/SafeMath.sol\":591:596  a - b */\n              sub\n                /* \"smart-contracts/contracts/common/SafeMath.sol\":584:596  return a - b */\n              swap1\n              pop\n                /* \"smart-contracts/contracts/common/SafeMath.sol\":481:604  function sub(uint256 a, uint256 b) internal pure returns (uint256) {\r... */\n              swap3\n              swap2\n              pop\n              pop\n              jump\t// out\n                /* \"smart-contracts/contracts/common/SafeMath.sol\":622:769  function add(uint256 a, uint256 b) internal pure returns (uint256) {\r... */\n            tag_104:\n                /* \"smart-contracts/contracts/common/SafeMath.sol\":680:687  uint256 */\n              0x0\n                /* \"smart-contracts/contracts/common/SafeMath.sol\":700:709  uint256 c */\n              dup1\n                /* \"smart-contracts/contracts/common/SafeMath.sol\":716:717  b */\n              dup3\n                /* \"smart-contracts/contracts/common/SafeMath.sol\":712:713  a */\n              dup5\n                /* \"smart-contracts/contracts/common/SafeMath.sol\":712:717  a + b */\n              add\n                /* \"smart-contracts/contracts/common/SafeMath.sol\":700:717  uint256 c = a + b */\n              swap1\n              pop\n                /* \"smart-contracts/contracts/common/SafeMath.sol\":740:741  a */\n              dup4\n                /* \"smart-contracts/contracts/common/SafeMath.sol\":735:736  c */\n              dup2\n                /* \"smart-contracts/contracts/common/SafeMath.sol\":735:741  c >= a */\n              lt\n              iszero\n                /* \"smart-contracts/contracts/common/SafeMath.sol\":728:742  assert(c >= a) */\n              iszero\n              iszero\n              tag_188\n              jumpi\n              invalid\n            tag_188:\n                /* \"smart-contracts/contracts/common/SafeMath.sol\":760:761  c */\n              dup1\n                /* \"smart-contracts/contracts/common/SafeMath.sol\":753:761  return c */\n              swap2\n              pop\n                /* \"smart-contracts/contracts/common/SafeMath.sol\":622:769  function add(uint256 a, uint256 b) internal pure returns (uint256) {\r... */\n              pop\n              swap3\n              swap2\n              pop\n              pop\n              jump\t// out\n                /* \"smart-contracts/contracts/Credit.sol\":15208:15406  function revoke() internal {\r... */\n            tag_121:\n                /* \"smart-contracts/contracts/Credit.sol\":15295:15308  State.revoked */\n              0x4\n                /* \"smart-contracts/contracts/Credit.sol\":15287:15292  state */\n              0xc\n              0x1\n                /* \"smart-contracts/contracts/Credit.sol\":15287:15308  state = State.revoked */\n              0x100\n              exp\n              dup2\n              sload\n              dup2\n              0xff\n              mul\n              not\n              and\n              swap1\n              dup4\n              0x5\n              dup2\n              gt\n              iszero\n              tag_190\n              jumpi\n              invalid\n            tag_190:\n              mul\n              or\n              swap1\n              sstore\n              pop\n                /* \"smart-contracts/contracts/Credit.sol\":15382:15397  block.timestamp */\n              timestamp\n                /* \"smart-contracts/contracts/Credit.sol\":15375:15380  state */\n              0xc\n              0x1\n              swap1\n              sload\n              swap1\n              0x100\n              exp\n              swap1\n              div\n              0xff\n              and\n                /* \"smart-contracts/contracts/Credit.sol\":15353:15398  LogCreditStateChanged(state, block.timestamp) */\n              0x5\n              dup2\n              gt\n              iszero\n              tag_191\n              jumpi\n              invalid\n            tag_191:\n              0xaaae373901e745122c2e0925ad006227969c6cd190b7d5ea2fb7fdbd1d955b35\n              mload(0x40)\n              mload(0x40)\n              dup1\n              swap2\n              sub\n              swap1\n              log3\n                /* \"smart-contracts/contracts/Credit.sol\":15208:15406  function revoke() internal {\r... */\n              jump\t// out\n                /* \"smart-contracts/contracts/Credit.sol\":17234:17611  function fraud() internal returns (bool) {\r... */\n            tag_147:\n                /* \"smart-contracts/contracts/Credit.sol\":17269:17273  bool */\n              0x0\n                /* \"smart-contracts/contracts/Credit.sol\":17360:17382  bool fraudStatusResult */\n              dup1\n                /* \"smart-contracts/contracts/Credit.sol\":17385:17390  owner */\n              0x0\n              dup1\n              swap1\n              sload\n              swap1\n              0x100\n              exp\n              swap1\n              div\n              0xffffffffffffffffffffffffffffffffffffffff\n              and\n                /* \"smart-contracts/contracts/Credit.sol\":17385:17395  owner.call */\n              0xffffffffffffffffffffffffffffffffffffffff\n              and\n                /* \"smart-contracts/contracts/Credit.sol\":17403:17439  keccak256(\"setFraudStatus(address)\") */\n              mload(0x40)\n              dup1\n              dup1\n              0x7365744672617564537461747573286164647265737329000000000000000000\n              dup2\n              mstore\n              pop\n              0x17\n              add\n              swap1\n              pop\n              mload(0x40)\n              dup1\n              swap2\n              sub\n              swap1\n              keccak256\n                /* \"smart-contracts/contracts/Credit.sol\":17385:17451  owner.call(bytes4(keccak256(\"setFraudStatus(address)\")), borrower) */\n              0x100000000000000000000000000000000000000000000000000000000\n              swap1\n              div\n                /* \"smart-contracts/contracts/Credit.sol\":17442:17450  borrower */\n              0x1\n              0x0\n              swap1\n              sload\n              swap1\n              0x100\n              exp\n              swap1\n              div\n              0xffffffffffffffffffffffffffffffffffffffff\n              and\n                /* \"smart-contracts/contracts/Credit.sol\":17385:17451  owner.call(bytes4(keccak256(\"setFraudStatus(address)\")), borrower) */\n              mload(0x40)\n              dup3\n              0xffffffff\n              and\n              0x100000000000000000000000000000000000000000000000000000000\n              mul\n              dup2\n              mstore\n              0x4\n              add\n              dup1\n              dup3\n              0xffffffffffffffffffffffffffffffffffffffff\n              and\n              0xffffffffffffffffffffffffffffffffffffffff\n              and\n              dup2\n              mstore\n              0x20\n              add\n              swap2\n              pop\n              pop\n              0x0\n              mload(0x40)\n              dup1\n              dup4\n              sub\n              dup2\n              0x0\n              dup8\n              sub(gas, 0x646e)\n              call\n              swap3\n              pop\n              pop\n              pop\n                /* \"smart-contracts/contracts/Credit.sol\":17360:17451  bool fraudStatusResult = owner.call(bytes4(keccak256(\"setFraudStatus(address)\")), borrower) */\n              swap1\n              pop\n                /* \"smart-contracts/contracts/Credit.sol\":17550:17565  block.timestamp */\n              timestamp\n                /* \"smart-contracts/contracts/Credit.sol\":17531:17548  fraudStatusResult */\n              dup2\n                /* \"smart-contracts/contracts/Credit.sol\":17502:17566  LogBorrowerIsFraud(borrower, fraudStatusResult, block.timestamp) */\n              iszero\n              iszero\n                /* \"smart-contracts/contracts/Credit.sol\":17521:17529  borrower */\n              0x1\n              0x0\n              swap1\n              sload\n              swap1\n              0x100\n              exp\n              swap1\n              div\n              0xffffffffffffffffffffffffffffffffffffffff\n              and\n                /* \"smart-contracts/contracts/Credit.sol\":17502:17566  LogBorrowerIsFraud(borrower, fraudStatusResult, block.timestamp) */\n              0xffffffffffffffffffffffffffffffffffffffff\n              and\n              0xc1bb1d1e99d1e8d2705ba85717226a3fd9a86e4de2284b00dfe6f33538d5249f\n              mload(0x40)\n              mload(0x40)\n              dup1\n              swap2\n              sub\n              swap1\n              log4\n                /* \"smart-contracts/contracts/Credit.sol\":17586:17603  fraudStatusResult */\n              dup1\n                /* \"smart-contracts/contracts/Credit.sol\":17579:17603  return fraudStatusResult */\n              swap2\n              pop\n                /* \"smart-contracts/contracts/Credit.sol\":17234:17611  function fraud() internal returns (bool) {\r... */\n              pop\n              swap1\n              jump\t// out\n                /* \"smart-contracts/contracts/common/SafeMath.sol\":270:463  function div(uint256 a, uint256 b) internal pure returns (uint256) {\r... */\n            tag_193:\n                /* \"smart-contracts/contracts/common/SafeMath.sol\":328:335  uint256 */\n              0x0\n                /* \"smart-contracts/contracts/common/SafeMath.sol\":419:428  uint256 c */\n              dup1\n                /* \"smart-contracts/contracts/common/SafeMath.sol\":435:436  b */\n              dup3\n                /* \"smart-contracts/contracts/common/SafeMath.sol\":431:432  a */\n              dup5\n                /* \"smart-contracts/contracts/common/SafeMath.sol\":431:436  a / b */\n              dup2\n              iszero\n              iszero\n              tag_195\n              jumpi\n              invalid\n            tag_195:\n              div\n                /* \"smart-contracts/contracts/common/SafeMath.sol\":419:436  uint256 c = a / b */\n              swap1\n              pop\n                /* \"smart-contracts/contracts/common/SafeMath.sol\":454:455  c */\n              dup1\n                /* \"smart-contracts/contracts/common/SafeMath.sol\":447:455  return c */\n              swap2\n              pop\n                /* \"smart-contracts/contracts/common/SafeMath.sol\":270:463  function div(uint256 a, uint256 b) internal pure returns (uint256) {\r... */\n              pop\n              swap3\n              swap2\n              pop\n              pop\n              jump\t// out\n\n            auxdata: 0xa165627a7a72305820b0d9ae8c666bb367167f0bebe9f11aec50f1c233b2498d10b6aef98d7b532fa30029\n        }\n    }\n\n    auxdata: 0xa165627a7a72305820bae59c86fe8f881ebeb7cc729470ee49484154dcfa5d11d7164b89e3ca02d4740029\n}\n",
				"bytecode": {
					"linkReferences": {},
					"object": "6060604052341561000f57600080fd5b612d4c8061001e6000396000f3006060604052600436106100af576000357c0100000000000000000000000000000000000000000000000000000000900463ffffffff168063036a1c22146100b45780632092cb331461011757806359658c4814610181578063823a71af146101ba57806383197ef0146102245780638da5cb5b14610239578063a87430ba1461028e578063bb9e42471461031d578063ebb5d8ed1461036e578063f5074f41146103f0578063fa838e5414610429575b600080fd5b34156100bf57600080fd5b6100d5600480803590602001909190505061046e565b604051808273ffffffffffffffffffffffffffffffffffffffff1673ffffffffffffffffffffffffffffffffffffffff16815260200191505060405180910390f35b341561012257600080fd5b61012a6104ad565b6040518080602001828103825283818151815260200191508051906020019060200280838360005b8381101561016d578082015181840152602081019050610152565b505050509050019250505060405180910390f35b341561018c57600080fd5b6101b8600480803573ffffffffffffffffffffffffffffffffffffffff16906020019091905050610581565b005b34156101c557600080fd5b6101cd6106b7565b6040518080602001828103825283818151815260200191508051906020019060200280838360005b838110156102105780820151818401526020810190506101f5565b505050509050019250505060405180910390f35b341561022f57600080fd5b61023761074b565b005b341561024457600080fd5b61024c6107e0565b604051808273ffffffffffffffffffffffffffffffffffffffff1673ffffffffffffffffffffffffffffffffffffffff16815260200191505060405180910390f35b341561029957600080fd5b6102c5600480803573ffffffffffffffffffffffffffffffffffffffff16906020019091905050610805565b60405180841515151581526020018373ffffffffffffffffffffffffffffffffffffffff1673ffffffffffffffffffffffffffffffffffffffff16815260200182151515158152602001935050505060405180910390f35b341561032857600080fd5b610354600480803573ffffffffffffffffffffffffffffffffffffffff16906020019091905050610869565b604051808215151515815260200191505060405180910390f35b341561037957600080fd5b6103ae6004808035906020019091908035906020019091908035906020019091908035600019169060200190919050506109c5565b604051808273ffffffffffffffffffffffffffffffffffffffff1673ffffffffffffffffffffffffffffffffffffffff16815260200191505060405180910390f35b34156103fb57600080fd5b610427600480803573ffffffffffffffffffffffffffffffffffffffff16906020019091905050610da3565b005b341561043457600080fd5b61046c600480803573ffffffffffffffffffffffffffffffffffffffff1690602001909190803560ff16906020019091905050610e17565b005b60028181548110151561047d57fe5b90600052602060002090016000915054906101000a900473ffffffffffffffffffffffffffffffffffffffff1681565b6104b5610f6d565b600160003373ffffffffffffffffffffffffffffffffffffffff1673ffffffffffffffffffffffffffffffffffffffff16815260200190815260200160002060010180548060200260200160405190810160405280929190818152602001828054801561057757602002820191906000526020600020905b8160009054906101000a900473ffffffffffffffffffffffffffffffffffffffff1673ffffffffffffffffffffffffffffffffffffffff168152602001906001019080831161052d575b5050505050905090565b6000806000809054906101000a900473ffffffffffffffffffffffffffffffffffffffff1673ffffffffffffffffffffffffffffffffffffffff163373ffffffffffffffffffffffffffffffffffffffff161415156105df57600080fd5b8291508173ffffffffffffffffffffffffffffffffffffffff166329c68dc16000604051602001526040518163ffffffff167c0100000000000000000000000000000000000000000000000000000000028152600401602060405180830381600087803b151561064e57600080fd5b6102c65a03f1151561065f57600080fd5b505050604051805190509050428115158373ffffffffffffffffffffffffffffffffffffffff167f25270acf0eab637903a9cd906e32d2ac17ce44db6c743ba5812f2924e84ff8d660405160405180910390a4505050565b6106bf610f6d565b600280548060200260200160405190810160405280929190818152602001828054801561074157602002820191906000526020600020905b8160009054906101000a900473ffffffffffffffffffffffffffffffffffffffff1673ffffffffffffffffffffffffffffffffffffffff16815260200190600101908083116106f7575b5050505050905090565b6000809054906101000a900473ffffffffffffffffffffffffffffffffffffffff1673ffffffffffffffffffffffffffffffffffffffff163373ffffffffffffffffffffffffffffffffffffffff161415156107a657600080fd5b6000809054906101000a900473ffffffffffffffffffffffffffffffffffffffff1673ffffffffffffffffffffffffffffffffffffffff16ff5b6000809054906101000a900473ffffffffffffffffffffffffffffffffffffffff1681565b60016020528060005260406000206000915090508060000160009054906101000a900460ff16908060000160019054906101000a900473ffffffffffffffffffffffffffffffffffffffff16908060000160159054906101000a900460ff16905083565b600060018060008473ffffffffffffffffffffffffffffffffffffffff1673ffffffffffffffffffffffffffffffffffffffff16815260200190815260200160002060000160156101000a81548160ff0219169083151502179055508173ffffffffffffffffffffffffffffffffffffffff167fbafb199a9909a7be73ceeaf6193dc9ea119ef469120d998d5f550140c0b13b54600160008573ffffffffffffffffffffffffffffffffffffffff1673ffffffffffffffffffffffffffffffffffffffff16815260200190815260200160002060000160159054906101000a900460ff164260405180831515151581526020018281526020019250505060405180910390a2600160008373ffffffffffffffffffffffffffffffffffffffff1673ffffffffffffffffffffffffffffffffffffffff16815260200190815260200160002060000160159054906101000a900460ff169050919050565b60008060001515600160003373ffffffffffffffffffffffffffffffffffffffff1673ffffffffffffffffffffffffffffffffffffffff16815260200190815260200160002060000160009054906101000a900460ff161515141515610a2a57600080fd5b60001515600160003373ffffffffffffffffffffffffffffffffffffffff1673ffffffffffffffffffffffffffffffffffffffff16815260200190815260200160002060000160159054906101000a900460ff161515141515610a8c57600080fd5b6000600160003373ffffffffffffffffffffffffffffffffffffffff1673ffffffffffffffffffffffffffffffffffffffff16815260200190815260200160002060000160019054906101000a900473ffffffffffffffffffffffffffffffffffffffff1673ffffffffffffffffffffffffffffffffffffffff16141515610b1057fe5b60018060003373ffffffffffffffffffffffffffffffffffffffff1673ffffffffffffffffffffffffffffffffffffffff16815260200190815260200160002060000160006101000a81548160ff02191690831515021790555085858585610b76610f81565b808581526020018481526020018381526020018260001916600019168152602001945050505050604051809103906000f0801515610bb357600080fd5b905080600160003373ffffffffffffffffffffffffffffffffffffffff1673ffffffffffffffffffffffffffffffffffffffff16815260200190815260200160002060000160016101000a81548173ffffffffffffffffffffffffffffffffffffffff021916908373ffffffffffffffffffffffffffffffffffffffff16021790555060028054806001018281610c4a9190610f91565b9160005260206000209001600083909190916101000a81548173ffffffffffffffffffffffffffffffffffffffff021916908373ffffffffffffffffffffffffffffffffffffffff16021790555050600160003373ffffffffffffffffffffffffffffffffffffffff1673ffffffffffffffffffffffffffffffffffffffff1681526020019081526020016000206001018054806001018281610ced9190610f91565b9160005260206000209001600083909190916101000a81548173ffffffffffffffffffffffffffffffffffffffff021916908373ffffffffffffffffffffffffffffffffffffffff16021790555050423373ffffffffffffffffffffffffffffffffffffffff168273ffffffffffffffffffffffffffffffffffffffff167fa0c75b76492543c8eafdc7e35272287bd6f229dcf0f6c22429343044718c510860405160405180910390a480915050949350505050565b6000809054906101000a900473ffffffffffffffffffffffffffffffffffffffff1673ffffffffffffffffffffffffffffffffffffffff163373ffffffffffffffffffffffffffffffffffffffff16141515610dfe57600080fd5b8073ffffffffffffffffffffffffffffffffffffffff16ff5b60008060009054906101000a900473ffffffffffffffffffffffffffffffffffffffff1673ffffffffffffffffffffffffffffffffffffffff163373ffffffffffffffffffffffffffffffffffffffff16141515610e7457600080fd5b8290508073ffffffffffffffffffffffffffffffffffffffff1663268f1153836000604051602001526040518263ffffffff167c010000000000000000000000000000000000000000000000000000000002815260040180826005811115610ed857fe5b60ff168152602001915050602060405180830381600087803b1515610efc57600080fd5b6102c65a03f11515610f0d57600080fd5b505050604051805190505042826005811115610f2557fe5b8273ffffffffffffffffffffffffffffffffffffffff167f9ae5127f6d87e374b5901ce23a9467e504811c54c03dda8741ad44a35a36146660405160405180910390a4505050565b602060405190810160405280600081525090565b604051611d3e80610fe383390190565b815481835581811511610fb857818360005260206000209182019101610fb79190610fbd565b5b505050565b610fdf91905b80821115610fdb576000816000905550600101610fc3565b5090565b905600606060405234156200001057600080fd5b60405160808062001d3e8339810160405280805190602001909190805190602001909190805190602001909190805190602001909190505032600160006101000a81548173ffffffffffffffffffffffffffffffffffffffff021916908373ffffffffffffffffffffffffffffffffffffffff16021790555081600581905550836002819055508260068190555082600781905550620000cc6005546002546200018164010000000002620018ff179091906401000000009004565b600381905550620000f9600654600354620001a06401000000000262001b2b179091906401000000009004565b60088190555080600b81600019169055504260098190555042600160009054906101000a900473ffffffffffffffffffffffffffffffffffffffff1673ffffffffffffffffffffffffffffffffffffffff167ff9f75c99c0e3522cd19ffc66fd6c94989a3f0821d37d5c5bb176aab904c6335d60405160405180910390a350505050620001bc565b60008082840190508381101515156200019657fe5b8091505092915050565b6000808284811515620001af57fe5b0490508091505092915050565b611b7280620001cc6000396000f3006060604052600436106100db576000357c0100000000000000000000000000000000000000000000000000000000900463ffffffff16806312065fe0146100e0578063268f11531461010957806328fd10d71461014357806329c68dc1146101945780633ccfd60b146101c1578063402d8883146101d657806343c14b22146101e0578063590e1ae3146101f557806383197ef01461020a5780638da5cb5b1461021f578063d85da7b614610274578063e8b5e51f146102a1578063efd475ab146102ab578063f06817cf146102c0578063f5074f4114610375575b600080fd5b34156100eb57600080fd5b6100f36103ae565b6040518082815260200191505060405180910390f35b341561011457600080fd5b61012d600480803560ff169060200190919050506103cd565b6040518082815260200191505060405180910390f35b341561014e57600080fd5b61017a600480803573ffffffffffffffffffffffffffffffffffffffff1690602001909190505061049a565b604051808215151515815260200191505060405180910390f35b341561019f57600080fd5b6101a76104ba565b604051808215151515815260200191505060405180910390f35b34156101cc57600080fd5b6101d4610595565b005b6101de6107b2565b005b34156101eb57600080fd5b6101f3610aa9565b005b341561020057600080fd5b610208610c8b565b005b341561021557600080fd5b61021d610f8e565b005b341561022a57600080fd5b610232611023565b604051808273ffffffffffffffffffffffffffffffffffffffff1673ffffffffffffffffffffffffffffffffffffffff16815260200191505060405180910390f35b341561027f57600080fd5b610287611048565b604051808215151515815260200191505060405180910390f35b6102a96111f3565b005b34156102b657600080fd5b6102be611525565b005b34156102cb57600080fd5b6102d36117ce565b604051808c73ffffffffffffffffffffffffffffffffffffffff1673ffffffffffffffffffffffffffffffffffffffff1681526020018b600019166000191681526020018a815260200189815260200188815260200187815260200186815260200185815260200184600581111561034757fe5b60ff168152602001831515151581526020018281526020019b50505050505050505050505060405180910390f35b341561038057600080fd5b6103ac600480803573ffffffffffffffffffffffffffffffffffffffff16906020019091905050611872565b005b60003073ffffffffffffffffffffffffffffffffffffffff1631905090565b60008060009054906101000a900473ffffffffffffffffffffffffffffffffffffffff1673ffffffffffffffffffffffffffffffffffffffff163373ffffffffffffffffffffffffffffffffffffffff1614151561042a57600080fd5b81600c60016101000a81548160ff0219169083600581111561044857fe5b021790555042600c60019054906101000a900460ff16600581111561046957fe5b7faaae373901e745122c2e0925ad006227969c6cd190b7d5ea2fb7fdbd1d955b3560405160405180910390a3919050565b600d6020528060005260406000206000915054906101000a900460ff1681565b60008060009054906101000a900473ffffffffffffffffffffffffffffffffffffffff1673ffffffffffffffffffffffffffffffffffffffff163373ffffffffffffffffffffffffffffffffffffffff1614151561051757600080fd5b600c60009054906101000a900460ff1615600c60006101000a81548160ff02191690831515021790555042600c60009054906101000a900460ff1615157f160914ea27c60aa29a5f3a69d74e6069869de36e38939de1e0a66b921d8623d260405160405180910390a3600c60009054906101000a900460ff16905090565b60011515600c60009054906101000a900460ff1615151415156105b757600080fd5b600160009054906101000a900473ffffffffffffffffffffffffffffffffffffffff1673ffffffffffffffffffffffffffffffffffffffff163373ffffffffffffffffffffffffffffffffffffffff1614151561061357600080fd5b6002543073ffffffffffffffffffffffffffffffffffffffff16311015151561063b57600080fd5b60058081111561064757fe5b600c60019054906101000a900460ff16600581111561066257fe5b1415151561066f57600080fd5b6001600c60016101000a81548160ff0219169083600581111561068e57fe5b021790555042600c60019054906101000a900460ff1660058111156106af57fe5b7faaae373901e745122c2e0925ad006227969c6cd190b7d5ea2fb7fdbd1d955b3560405160405180910390a3423073ffffffffffffffffffffffffffffffffffffffff16313373ffffffffffffffffffffffffffffffffffffffff167f20734f14d107b526674905e470e35d0a474f9fb996a7bdb034c839c8894524e660405160405180910390a4600160009054906101000a900473ffffffffffffffffffffffffffffffffffffffff1673ffffffffffffffffffffffffffffffffffffffff166108fc3073ffffffffffffffffffffffffffffffffffffffff16319081150290604051600060405180830381858888f1935050505015156107b057600080fd5b565b6000600160009054906101000a900473ffffffffffffffffffffffffffffffffffffffff1673ffffffffffffffffffffffffffffffffffffffff163373ffffffffffffffffffffffffffffffffffffffff1614151561081057600080fd5b6001600581111561081d57fe5b600c60019054906101000a900460ff16600581111561083857fe5b14151561084457600080fd5b600060075411151561085557600080fd5b600854341015151561086657600080fd5b60035460045410151561087557fe5b6007600081548092919060019003919050555042600a8190555060009050600854341115610965576108b2600854346118e690919063ffffffff16565b90506108c781346118e690919063ffffffff16565b6008541415156108d357fe5b3481111515156108df57fe5b3373ffffffffffffffffffffffffffffffffffffffff166108fc829081150290604051600060405180830381858888f19350505050151561091f57600080fd5b42813373ffffffffffffffffffffffffffffffffffffffff167f5c9874487a2258c6bd6dc39a2cfcf7ea944b50b79d9a7152668779687b2ebd8d60405160405180910390a45b4261097982346118e690919063ffffffff16565b3373ffffffffffffffffffffffffffffffffffffffff167f350a09487d622378c6efbda255f996387696319f803a2e53eee64f7aa70be85a60405160405180910390a46109e36109d282346118e690919063ffffffff16565b6004546118ff90919063ffffffff16565b6004819055506003546004541415610aa657423373ffffffffffffffffffffffffffffffffffffffff167f25630de45a38a90cbca3a2eb35a8197e51b56d6d912581711e5e3773fe77cabc60405160405180910390a36002600c60016101000a81548160ff02191690836005811115610a5857fe5b021790555042600c60019054906101000a900460ff166005811115610a7957fe5b7faaae373901e745122c2e0925ad006227969c6cd190b7d5ea2fb7fdbd1d955b3560405160405180910390a35b50565b60011515600c60009054906101000a900460ff161515141515610acb57600080fd5b6012544210151515610adc57600080fd5b60006005811115610ae957fe5b600c60019054906101000a900460ff166005811115610b0457fe5b141515610b1057600080fd5b60011515600d60003373ffffffffffffffffffffffffffffffffffffffff1673ffffffffffffffffffffffffffffffffffffffff16815260200190815260200160002060009054906101000a900460ff161515141515610b6f57600080fd5b60001515601160003373ffffffffffffffffffffffffffffffffffffffff1673ffffffffffffffffffffffffffffffffffffffff16815260200190815260200160002060009054906101000a900460ff161515141515610bce57600080fd5b60106000815480929190600101919050555060011515601160003373ffffffffffffffffffffffffffffffffffffffff1673ffffffffffffffffffffffffffffffffffffffff16815260200190815260200160002060009054906101000a90505050423373ffffffffffffffffffffffffffffffffffffffff167fd7173ce7e4ce6f6d075259ac1a467ab8290db175a2cee8587a663c006b97e12960405160405180910390a3601054600f541415610c8957610c8861191d565b5b565b60011515600c60009054906101000a900460ff161515141515610cad57600080fd5b60011515600d60003373ffffffffffffffffffffffffffffffffffffffff1673ffffffffffffffffffffffffffffffffffffffff16815260200190815260200160002060009054906101000a900460ff161515141515610d0c57600080fd5b60046005811115610d1957fe5b600c60019054906101000a900460ff166005811115610d3457fe5b141515610d4057600080fd5b600e60003373ffffffffffffffffffffffffffffffffffffffff1673ffffffffffffffffffffffffffffffffffffffff168152602001908152602001600020543073ffffffffffffffffffffffffffffffffffffffff163110151515610da257fe5b3373ffffffffffffffffffffffffffffffffffffffff166108fc600e60003373ffffffffffffffffffffffffffffffffffffffff1673ffffffffffffffffffffffffffffffffffffffff168152602001908152602001600020549081150290604051600060405180830381858888f193505050501515610e2157600080fd5b42600e60003373ffffffffffffffffffffffffffffffffffffffff1673ffffffffffffffffffffffffffffffffffffffff168152602001908152602001600020543373ffffffffffffffffffffffffffffffffffffffff167f71e252e33f19f0223f47f27d00910548d26488b9b55cb5b410b75e273152f8d660405160405180910390a460003073ffffffffffffffffffffffffffffffffffffffff16311415610f8c576000600c60006101000a81548160ff02191690831515021790555042600c60009054906101000a900460ff1615157f160914ea27c60aa29a5f3a69d74e6069869de36e38939de1e0a66b921d8623d260405160405180910390a36003600c60016101000a81548160ff02191690836005811115610f3e57fe5b021790555042600c60019054906101000a900460ff166005811115610f5f57fe5b7faaae373901e745122c2e0925ad006227969c6cd190b7d5ea2fb7fdbd1d955b3560405160405180910390a35b565b6000809054906101000a900473ffffffffffffffffffffffffffffffffffffffff1673ffffffffffffffffffffffffffffffffffffffff163373ffffffffffffffffffffffffffffffffffffffff16141515610fe957600080fd5b6000809054906101000a900473ffffffffffffffffffffffffffffffffffffffff1673ffffffffffffffffffffffffffffffffffffffff16ff5b6000809054906101000a900473ffffffffffffffffffffffffffffffffffffffff1681565b600060011515600c60009054906101000a900460ff16151514151561106c57600080fd5b60011515600d60003373ffffffffffffffffffffffffffffffffffffffff1673ffffffffffffffffffffffffffffffffffffffff16815260200190815260200160002060009054906101000a900460ff1615151415156110cb57600080fd5b60001515601460003373ffffffffffffffffffffffffffffffffffffffff1673ffffffffffffffffffffffffffffffffffffffff16815260200190815260200160002060009054906101000a900460ff16151514151561112a57600080fd5b60136000815480929190600101919050555060011515601460003373ffffffffffffffffffffffffffffffffffffffff1673ffffffffffffffffffffffffffffffffffffffff16815260200190815260200160002060009054906101000a90505050423373ffffffffffffffffffffffffffffffffffffffff167f1db613004119dde2a638b639fba9960c0e6064ee7c2d06f300e41c78920ed6dc60405160405180910390a3601354600f5414156111eb576111e461198b565b90506111f0565b600190505b90565b600080600581111561120157fe5b600c60019054906101000a900460ff16600581111561121c57fe5b14151561122857600080fd5b600090506002543073ffffffffffffffffffffffffffffffffffffffff16311015156113ba5761127a6002543073ffffffffffffffffffffffffffffffffffffffff16316118e690919063ffffffff16565b90506112a6813073ffffffffffffffffffffffffffffffffffffffff16316118e690919063ffffffff16565b6002541415156112b257fe5b3481111515156112be57fe5b600081111561134d573373ffffffffffffffffffffffffffffffffffffffff166108fc829081150290604051600060405180830381858888f19350505050151561130757600080fd5b42813373ffffffffffffffffffffffffffffffffffffffff167f566803f6e271b911c84f87631bcd310d6a6510bf8882577a96fc76975703e43160405160405180910390a45b6001600c60016101000a81548160ff0219169083600581111561136c57fe5b021790555042600c60019054906101000a900460ff16600581111561138d57fe5b7faaae373901e745122c2e0925ad006227969c6cd190b7d5ea2fb7fdbd1d955b3560405160405180910390a35b6001600d60003373ffffffffffffffffffffffffffffffffffffffff1673ffffffffffffffffffffffffffffffffffffffff16815260200190815260200160002060006101000a81548160ff021916908315150217905550600f6000815480929190600101919050555061148861143a82346118e690919063ffffffff16565b600e60003373ffffffffffffffffffffffffffffffffffffffff1673ffffffffffffffffffffffffffffffffffffffff168152602001908152602001600020546118ff90919063ffffffff16565b600e60003373ffffffffffffffffffffffffffffffffffffffff1673ffffffffffffffffffffffffffffffffffffffff16815260200190815260200160002081905550426114df82346118e690919063ffffffff16565b3373ffffffffffffffffffffffffffffffffffffffff167f1b0969ce7f5b05c5e0969329a05cdbd7e2e2f6cee33ba26fd6e6bbcff82312cd60405160405180910390a450565b600060011515600c60009054906101000a900460ff16151514151561154957600080fd5b60011515600d60003373ffffffffffffffffffffffffffffffffffffffff1673ffffffffffffffffffffffffffffffffffffffff16815260200190815260200160002060009054906101000a900460ff1615151415156115a857600080fd5b600260058111156115b557fe5b600c60019054906101000a900460ff1660058111156115d057fe5b1415156115dc57600080fd5b6000600e60003373ffffffffffffffffffffffffffffffffffffffff1673ffffffffffffffffffffffffffffffffffffffff1681526020019081526020016000205411151561162a57600080fd5b600f5460035481151561163957fe5b049050803073ffffffffffffffffffffffffffffffffffffffff16311015151561165f57fe5b3373ffffffffffffffffffffffffffffffffffffffff166108fc829081150290604051600060405180830381858888f19350505050151561169f57600080fd5b42813373ffffffffffffffffffffffffffffffffffffffff167f052f6685df2f773f854b17db1d82e2352e222010daaf8175761f02ef8782c40360405160405180910390a460003073ffffffffffffffffffffffffffffffffffffffff163114156117cb576000600c60006101000a81548160ff02191690831515021790555042600c60009054906101000a900460ff1615157f160914ea27c60aa29a5f3a69d74e6069869de36e38939de1e0a66b921d8623d260405160405180910390a36003600c60016101000a81548160ff0219169083600581111561177d57fe5b021790555042600c60019054906101000a900460ff16600581111561179e57fe5b7faaae373901e745122c2e0925ad006227969c6cd190b7d5ea2fb7fdbd1d955b3560405160405180910390a35b50565b6000806000806000806000806000806000600160009054906101000a900473ffffffffffffffffffffffffffffffffffffffff16600b54600254600654600854600754600554600354600c60019054906101000a900460ff16600c60009054906101000a900460ff163073ffffffffffffffffffffffffffffffffffffffff16319a509a509a509a509a509a509a509a509a509a509a50909192939495969798999a565b6000809054906101000a900473ffffffffffffffffffffffffffffffffffffffff1673ffffffffffffffffffffffffffffffffffffffff163373ffffffffffffffffffffffffffffffffffffffff161415156118cd57600080fd5b8073ffffffffffffffffffffffffffffffffffffffff16ff5b60008282111515156118f457fe5b818303905092915050565b600080828401905083811015151561191357fe5b8091505092915050565b6004600c60016101000a81548160ff0219169083600581111561193c57fe5b021790555042600c60019054906101000a900460ff16600581111561195d57fe5b7faaae373901e745122c2e0925ad006227969c6cd190b7d5ea2fb7fdbd1d955b3560405160405180910390a3565b6000806000809054906101000a900473ffffffffffffffffffffffffffffffffffffffff1673ffffffffffffffffffffffffffffffffffffffff1660405180807f7365744672617564537461747573286164647265737329000000000000000000815250601701905060405180910390207c01000000000000000000000000000000000000000000000000000000009004600160009054906101000a900473ffffffffffffffffffffffffffffffffffffffff166040518263ffffffff167c0100000000000000000000000000000000000000000000000000000000028152600401808273ffffffffffffffffffffffffffffffffffffffff1673ffffffffffffffffffffffffffffffffffffffff16815260200191505060006040518083038160008761646e5a03f192505050905042811515600160009054906101000a900473ffffffffffffffffffffffffffffffffffffffff1673ffffffffffffffffffffffffffffffffffffffff167fc1bb1d1e99d1e8d2705ba85717226a3fd9a86e4de2284b00dfe6f33538d5249f60405160405180910390a48091505090565b6000808284811515611b3957fe5b04905080915050929150505600a165627a7a72305820b0d9ae8c666bb367167f0bebe9f11aec50f1c233b2498d10b6aef98d7b532fa30029a165627a7a72305820bae59c86fe8f881ebeb7cc729470ee49484154dcfa5d11d7164b89e3ca02d4740029",
					"opcodes": "PUSH1 0x60 PUSH1 0x40 MSTORE CALLVALUE ISZERO PUSH2 0xF JUMPI PUSH1 0x0 DUP1 REVERT JUMPDEST PUSH2 0x2D4C DUP1 PUSH2 0x1E PUSH1 0x0 CODECOPY PUSH1 0x0 RETURN STOP PUSH1 0x60 PUSH1 0x40 MSTORE PUSH1 0x4 CALLDATASIZE LT PUSH2 0xAF JUMPI PUSH1 0x0 CALLDATALOAD PUSH29 0x100000000000000000000000000000000000000000000000000000000 SWAP1 DIV PUSH4 0xFFFFFFFF AND DUP1 PUSH4 0x36A1C22 EQ PUSH2 0xB4 JUMPI DUP1 PUSH4 0x2092CB33 EQ PUSH2 0x117 JUMPI DUP1 PUSH4 0x59658C48 EQ PUSH2 0x181 JUMPI DUP1 PUSH4 0x823A71AF EQ PUSH2 0x1BA JUMPI DUP1 PUSH4 0x83197EF0 EQ PUSH2 0x224 JUMPI DUP1 PUSH4 0x8DA5CB5B EQ PUSH2 0x239 JUMPI DUP1 PUSH4 0xA87430BA EQ PUSH2 0x28E JUMPI DUP1 PUSH4 0xBB9E4247 EQ PUSH2 0x31D JUMPI DUP1 PUSH4 0xEBB5D8ED EQ PUSH2 0x36E JUMPI DUP1 PUSH4 0xF5074F41 EQ PUSH2 0x3F0 JUMPI DUP1 PUSH4 0xFA838E54 EQ PUSH2 0x429 JUMPI JUMPDEST PUSH1 0x0 DUP1 REVERT JUMPDEST CALLVALUE ISZERO PUSH2 0xBF JUMPI PUSH1 0x0 DUP1 REVERT JUMPDEST PUSH2 0xD5 PUSH1 0x4 DUP1 DUP1 CALLDATALOAD SWAP1 PUSH1 0x20 ADD SWAP1 SWAP2 SWAP1 POP POP PUSH2 0x46E JUMP JUMPDEST PUSH1 0x40 MLOAD DUP1 DUP3 PUSH20 0xFFFFFFFFFFFFFFFFFFFFFFFFFFFFFFFFFFFFFFFF AND PUSH20 0xFFFFFFFFFFFFFFFFFFFFFFFFFFFFFFFFFFFFFFFF AND DUP2 MSTORE PUSH1 0x20 ADD SWAP2 POP POP PUSH1 0x40 MLOAD DUP1 SWAP2 SUB SWAP1 RETURN JUMPDEST CALLVALUE ISZERO PUSH2 0x122 JUMPI PUSH1 0x0 DUP1 REVERT JUMPDEST PUSH2 0x12A PUSH2 0x4AD JUMP JUMPDEST PUSH1 0x40 MLOAD DUP1 DUP1 PUSH1 0x20 ADD DUP3 DUP2 SUB DUP3 MSTORE DUP4 DUP2 DUP2 MLOAD DUP2 MSTORE PUSH1 0x20 ADD SWAP2 POP DUP1 MLOAD SWAP1 PUSH1 0x20 ADD SWAP1 PUSH1 0x20 MUL DUP1 DUP4 DUP4 PUSH1 0x0 JUMPDEST DUP4 DUP2 LT ISZERO PUSH2 0x16D JUMPI DUP1 DUP3 ADD MLOAD DUP2 DUP5 ADD MSTORE PUSH1 0x20 DUP2 ADD SWAP1 POP PUSH2 0x152 JUMP JUMPDEST POP POP POP POP SWAP1 POP ADD SWAP3 POP POP POP PUSH1 0x40 MLOAD DUP1 SWAP2 SUB SWAP1 RETURN JUMPDEST CALLVALUE ISZERO PUSH2 0x18C JUMPI PUSH1 0x0 DUP1 REVERT JUMPDEST PUSH2 0x1B8 PUSH1 0x4 DUP1 DUP1 CALLDATALOAD PUSH20 0xFFFFFFFFFFFFFFFFFFFFFFFFFFFFFFFFFFFFFFFF AND SWAP1 PUSH1 0x20 ADD SWAP1 SWAP2 SWAP1 POP POP PUSH2 0x581 JUMP JUMPDEST STOP JUMPDEST CALLVALUE ISZERO PUSH2 0x1C5 JUMPI PUSH1 0x0 DUP1 REVERT JUMPDEST PUSH2 0x1CD PUSH2 0x6B7 JUMP JUMPDEST PUSH1 0x40 MLOAD DUP1 DUP1 PUSH1 0x20 ADD DUP3 DUP2 SUB DUP3 MSTORE DUP4 DUP2 DUP2 MLOAD DUP2 MSTORE PUSH1 0x20 ADD SWAP2 POP DUP1 MLOAD SWAP1 PUSH1 0x20 ADD SWAP1 PUSH1 0x20 MUL DUP1 DUP4 DUP4 PUSH1 0x0 JUMPDEST DUP4 DUP2 LT ISZERO PUSH2 0x210 JUMPI DUP1 DUP3 ADD MLOAD DUP2 DUP5 ADD MSTORE PUSH1 0x20 DUP2 ADD SWAP1 POP PUSH2 0x1F5 JUMP JUMPDEST POP POP POP POP SWAP1 POP ADD SWAP3 POP POP POP PUSH1 0x40 MLOAD DUP1 SWAP2 SUB SWAP1 RETURN JUMPDEST CALLVALUE ISZERO PUSH2 0x22F JUMPI PUSH1 0x0 DUP1 REVERT JUMPDEST PUSH2 0x237 PUSH2 0x74B JUMP JUMPDEST STOP JUMPDEST CALLVALUE ISZERO PUSH2 0x244 JUMPI PUSH1 0x0 DUP1 REVERT JUMPDEST PUSH2 0x24C PUSH2 0x7E0 JUMP JUMPDEST PUSH1 0x40 MLOAD DUP1 DUP3 PUSH20 0xFFFFFFFFFFFFFFFFFFFFFFFFFFFFFFFFFFFFFFFF AND PUSH20 0xFFFFFFFFFFFFFFFFFFFFFFFFFFFFFFFFFFFFFFFF AND DUP2 MSTORE PUSH1 0x20 ADD SWAP2 POP POP PUSH1 0x40 MLOAD DUP1 SWAP2 SUB SWAP1 RETURN JUMPDEST CALLVALUE ISZERO PUSH2 0x299 JUMPI PUSH1 0x0 DUP1 REVERT JUMPDEST PUSH2 0x2C5 PUSH1 0x4 DUP1 DUP1 CALLDATALOAD PUSH20 0xFFFFFFFFFFFFFFFFFFFFFFFFFFFFFFFFFFFFFFFF AND SWAP1 PUSH1 0x20 ADD SWAP1 SWAP2 SWAP1 POP POP PUSH2 0x805 JUMP JUMPDEST PUSH1 0x40 MLOAD DUP1 DUP5 ISZERO ISZERO ISZERO ISZERO DUP2 MSTORE PUSH1 0x20 ADD DUP4 PUSH20 0xFFFFFFFFFFFFFFFFFFFFFFFFFFFFFFFFFFFFFFFF AND PUSH20 0xFFFFFFFFFFFFFFFFFFFFFFFFFFFFFFFFFFFFFFFF AND DUP2 MSTORE PUSH1 0x20 ADD DUP3 ISZERO ISZERO ISZERO ISZERO DUP2 MSTORE PUSH1 0x20 ADD SWAP4 POP POP POP POP PUSH1 0x40 MLOAD DUP1 SWAP2 SUB SWAP1 RETURN JUMPDEST CALLVALUE ISZERO PUSH2 0x328 JUMPI PUSH1 0x0 DUP1 REVERT JUMPDEST PUSH2 0x354 PUSH1 0x4 DUP1 DUP1 CALLDATALOAD PUSH20 0xFFFFFFFFFFFFFFFFFFFFFFFFFFFFFFFFFFFFFFFF AND SWAP1 PUSH1 0x20 ADD SWAP1 SWAP2 SWAP1 POP POP PUSH2 0x869 JUMP JUMPDEST PUSH1 0x40 MLOAD DUP1 DUP3 ISZERO ISZERO ISZERO ISZERO DUP2 MSTORE PUSH1 0x20 ADD SWAP2 POP POP PUSH1 0x40 MLOAD DUP1 SWAP2 SUB SWAP1 RETURN JUMPDEST CALLVALUE ISZERO PUSH2 0x379 JUMPI PUSH1 0x0 DUP1 REVERT JUMPDEST PUSH2 0x3AE PUSH1 0x4 DUP1 DUP1 CALLDATALOAD SWAP1 PUSH1 0x20 ADD SWAP1 SWAP2 SWAP1 DUP1 CALLDATALOAD SWAP1 PUSH1 0x20 ADD SWAP1 SWAP2 SWAP1 DUP1 CALLDATALOAD SWAP1 PUSH1 0x20 ADD SWAP1 SWAP2 SWAP1 DUP1 CALLDATALOAD PUSH1 0x0 NOT AND SWAP1 PUSH1 0x20 ADD SWAP1 SWAP2 SWAP1 POP POP PUSH2 0x9C5 JUMP JUMPDEST PUSH1 0x40 MLOAD DUP1 DUP3 PUSH20 0xFFFFFFFFFFFFFFFFFFFFFFFFFFFFFFFFFFFFFFFF AND PUSH20 0xFFFFFFFFFFFFFFFFFFFFFFFFFFFFFFFFFFFFFFFF AND DUP2 MSTORE PUSH1 0x20 ADD SWAP2 POP POP PUSH1 0x40 MLOAD DUP1 SWAP2 SUB SWAP1 RETURN JUMPDEST CALLVALUE ISZERO PUSH2 0x3FB JUMPI PUSH1 0x0 DUP1 REVERT JUMPDEST PUSH2 0x427 PUSH1 0x4 DUP1 DUP1 CALLDATALOAD PUSH20 0xFFFFFFFFFFFFFFFFFFFFFFFFFFFFFFFFFFFFFFFF AND SWAP1 PUSH1 0x20 ADD SWAP1 SWAP2 SWAP1 POP POP PUSH2 0xDA3 JUMP JUMPDEST STOP JUMPDEST CALLVALUE ISZERO PUSH2 0x434 JUMPI PUSH1 0x0 DUP1 REVERT JUMPDEST PUSH2 0x46C PUSH1 0x4 DUP1 DUP1 CALLDATALOAD PUSH20 0xFFFFFFFFFFFFFFFFFFFFFFFFFFFFFFFFFFFFFFFF AND SWAP1 PUSH1 0x20 ADD SWAP1 SWAP2 SWAP1 DUP1 CALLDATALOAD PUSH1 0xFF AND SWAP1 PUSH1 0x20 ADD SWAP1 SWAP2 SWAP1 POP POP PUSH2 0xE17 JUMP JUMPDEST STOP JUMPDEST PUSH1 0x2 DUP2 DUP2 SLOAD DUP2 LT ISZERO ISZERO PUSH2 0x47D JUMPI INVALID JUMPDEST SWAP1 PUSH1 0x0 MSTORE PUSH1 0x20 PUSH1 0x0 KECCAK256 SWAP1 ADD PUSH1 0x0 SWAP2 POP SLOAD SWAP1 PUSH2 0x100 EXP SWAP1 DIV PUSH20 0xFFFFFFFFFFFFFFFFFFFFFFFFFFFFFFFFFFFFFFFF AND DUP2 JUMP JUMPDEST PUSH2 0x4B5 PUSH2 0xF6D JUMP JUMPDEST PUSH1 0x1 PUSH1 0x0 CALLER PUSH20 0xFFFFFFFFFFFFFFFFFFFFFFFFFFFFFFFFFFFFFFFF AND PUSH20 0xFFFFFFFFFFFFFFFFFFFFFFFFFFFFFFFFFFFFFFFF AND DUP2 MSTORE PUSH1 0x20 ADD SWAP1 DUP2 MSTORE PUSH1 0x20 ADD PUSH1 0x0 KECCAK256 PUSH1 0x1 ADD DUP1 SLOAD DUP1 PUSH1 0x20 MUL PUSH1 0x20 ADD PUSH1 0x40 MLOAD SWAP1 DUP2 ADD PUSH1 0x40 MSTORE DUP1 SWAP3 SWAP2 SWAP1 DUP2 DUP2 MSTORE PUSH1 0x20 ADD DUP3 DUP1 SLOAD DUP1 ISZERO PUSH2 0x577 JUMPI PUSH1 0x20 MUL DUP3 ADD SWAP2 SWAP1 PUSH1 0x0 MSTORE PUSH1 0x20 PUSH1 0x0 KECCAK256 SWAP1 JUMPDEST DUP2 PUSH1 0x0 SWAP1 SLOAD SWAP1 PUSH2 0x100 EXP SWAP1 DIV PUSH20 0xFFFFFFFFFFFFFFFFFFFFFFFFFFFFFFFFFFFFFFFF AND PUSH20 0xFFFFFFFFFFFFFFFFFFFFFFFFFFFFFFFFFFFFFFFF AND DUP2 MSTORE PUSH1 0x20 ADD SWAP1 PUSH1 0x1 ADD SWAP1 DUP1 DUP4 GT PUSH2 0x52D JUMPI JUMPDEST POP POP POP POP POP SWAP1 POP SWAP1 JUMP JUMPDEST PUSH1 0x0 DUP1 PUSH1 0x0 DUP1 SWAP1 SLOAD SWAP1 PUSH2 0x100 EXP SWAP1 DIV PUSH20 0xFFFFFFFFFFFFFFFFFFFFFFFFFFFFFFFFFFFFFFFF AND PUSH20 0xFFFFFFFFFFFFFFFFFFFFFFFFFFFFFFFFFFFFFFFF AND CALLER PUSH20 0xFFFFFFFFFFFFFFFFFFFFFFFFFFFFFFFFFFFFFFFF AND EQ ISZERO ISZERO PUSH2 0x5DF JUMPI PUSH1 0x0 DUP1 REVERT JUMPDEST DUP3 SWAP2 POP DUP2 PUSH20 0xFFFFFFFFFFFFFFFFFFFFFFFFFFFFFFFFFFFFFFFF AND PUSH4 0x29C68DC1 PUSH1 0x0 PUSH1 0x40 MLOAD PUSH1 0x20 ADD MSTORE PUSH1 0x40 MLOAD DUP2 PUSH4 0xFFFFFFFF AND PUSH29 0x100000000000000000000000000000000000000000000000000000000 MUL DUP2 MSTORE PUSH1 0x4 ADD PUSH1 0x20 PUSH1 0x40 MLOAD DUP1 DUP4 SUB DUP2 PUSH1 0x0 DUP8 DUP1 EXTCODESIZE ISZERO ISZERO PUSH2 0x64E JUMPI PUSH1 0x0 DUP1 REVERT JUMPDEST PUSH2 0x2C6 GAS SUB CALL ISZERO ISZERO PUSH2 0x65F JUMPI PUSH1 0x0 DUP1 REVERT JUMPDEST POP POP POP PUSH1 0x40 MLOAD DUP1 MLOAD SWAP1 POP SWAP1 POP TIMESTAMP DUP2 ISZERO ISZERO DUP4 PUSH20 0xFFFFFFFFFFFFFFFFFFFFFFFFFFFFFFFFFFFFFFFF AND PUSH32 0x25270ACF0EAB637903A9CD906E32D2AC17CE44DB6C743BA5812F2924E84FF8D6 PUSH1 0x40 MLOAD PUSH1 0x40 MLOAD DUP1 SWAP2 SUB SWAP1 LOG4 POP POP POP JUMP JUMPDEST PUSH2 0x6BF PUSH2 0xF6D JUMP JUMPDEST PUSH1 0x2 DUP1 SLOAD DUP1 PUSH1 0x20 MUL PUSH1 0x20 ADD PUSH1 0x40 MLOAD SWAP1 DUP2 ADD PUSH1 0x40 MSTORE DUP1 SWAP3 SWAP2 SWAP1 DUP2 DUP2 MSTORE PUSH1 0x20 ADD DUP3 DUP1 SLOAD DUP1 ISZERO PUSH2 0x741 JUMPI PUSH1 0x20 MUL DUP3 ADD SWAP2 SWAP1 PUSH1 0x0 MSTORE PUSH1 0x20 PUSH1 0x0 KECCAK256 SWAP1 JUMPDEST DUP2 PUSH1 0x0 SWAP1 SLOAD SWAP1 PUSH2 0x100 EXP SWAP1 DIV PUSH20 0xFFFFFFFFFFFFFFFFFFFFFFFFFFFFFFFFFFFFFFFF AND PUSH20 0xFFFFFFFFFFFFFFFFFFFFFFFFFFFFFFFFFFFFFFFF AND DUP2 MSTORE PUSH1 0x20 ADD SWAP1 PUSH1 0x1 ADD SWAP1 DUP1 DUP4 GT PUSH2 0x6F7 JUMPI JUMPDEST POP POP POP POP POP SWAP1 POP SWAP1 JUMP JUMPDEST PUSH1 0x0 DUP1 SWAP1 SLOAD SWAP1 PUSH2 0x100 EXP SWAP1 DIV PUSH20 0xFFFFFFFFFFFFFFFFFFFFFFFFFFFFFFFFFFFFFFFF AND PUSH20 0xFFFFFFFFFFFFFFFFFFFFFFFFFFFFFFFFFFFFFFFF AND CALLER PUSH20 0xFFFFFFFFFFFFFFFFFFFFFFFFFFFFFFFFFFFFFFFF AND EQ ISZERO ISZERO PUSH2 0x7A6 JUMPI PUSH1 0x0 DUP1 REVERT JUMPDEST PUSH1 0x0 DUP1 SWAP1 SLOAD SWAP1 PUSH2 0x100 EXP SWAP1 DIV PUSH20 0xFFFFFFFFFFFFFFFFFFFFFFFFFFFFFFFFFFFFFFFF AND PUSH20 0xFFFFFFFFFFFFFFFFFFFFFFFFFFFFFFFFFFFFFFFF AND SELFDESTRUCT JUMPDEST PUSH1 0x0 DUP1 SWAP1 SLOAD SWAP1 PUSH2 0x100 EXP SWAP1 DIV PUSH20 0xFFFFFFFFFFFFFFFFFFFFFFFFFFFFFFFFFFFFFFFF AND DUP2 JUMP JUMPDEST PUSH1 0x1 PUSH1 0x20 MSTORE DUP1 PUSH1 0x0 MSTORE PUSH1 0x40 PUSH1 0x0 KECCAK256 PUSH1 0x0 SWAP2 POP SWAP1 POP DUP1 PUSH1 0x0 ADD PUSH1 0x0 SWAP1 SLOAD SWAP1 PUSH2 0x100 EXP SWAP1 DIV PUSH1 0xFF AND SWAP1 DUP1 PUSH1 0x0 ADD PUSH1 0x1 SWAP1 SLOAD SWAP1 PUSH2 0x100 EXP SWAP1 DIV PUSH20 0xFFFFFFFFFFFFFFFFFFFFFFFFFFFFFFFFFFFFFFFF AND SWAP1 DUP1 PUSH1 0x0 ADD PUSH1 0x15 SWAP1 SLOAD SWAP1 PUSH2 0x100 EXP SWAP1 DIV PUSH1 0xFF AND SWAP1 POP DUP4 JUMP JUMPDEST PUSH1 0x0 PUSH1 0x1 DUP1 PUSH1 0x0 DUP5 PUSH20 0xFFFFFFFFFFFFFFFFFFFFFFFFFFFFFFFFFFFFFFFF AND PUSH20 0xFFFFFFFFFFFFFFFFFFFFFFFFFFFFFFFFFFFFFFFF AND DUP2 MSTORE PUSH1 0x20 ADD SWAP1 DUP2 MSTORE PUSH1 0x20 ADD PUSH1 0x0 KECCAK256 PUSH1 0x0 ADD PUSH1 0x15 PUSH2 0x100 EXP DUP2 SLOAD DUP2 PUSH1 0xFF MUL NOT AND SWAP1 DUP4 ISZERO ISZERO MUL OR SWAP1 SSTORE POP DUP2 PUSH20 0xFFFFFFFFFFFFFFFFFFFFFFFFFFFFFFFFFFFFFFFF AND PUSH32 0xBAFB199A9909A7BE73CEEAF6193DC9EA119EF469120D998D5F550140C0B13B54 PUSH1 0x1 PUSH1 0x0 DUP6 PUSH20 0xFFFFFFFFFFFFFFFFFFFFFFFFFFFFFFFFFFFFFFFF AND PUSH20 0xFFFFFFFFFFFFFFFFFFFFFFFFFFFFFFFFFFFFFFFF AND DUP2 MSTORE PUSH1 0x20 ADD SWAP1 DUP2 MSTORE PUSH1 0x20 ADD PUSH1 0x0 KECCAK256 PUSH1 0x0 ADD PUSH1 0x15 SWAP1 SLOAD SWAP1 PUSH2 0x100 EXP SWAP1 DIV PUSH1 0xFF AND TIMESTAMP PUSH1 0x40 MLOAD DUP1 DUP4 ISZERO ISZERO ISZERO ISZERO DUP2 MSTORE PUSH1 0x20 ADD DUP3 DUP2 MSTORE PUSH1 0x20 ADD SWAP3 POP POP POP PUSH1 0x40 MLOAD DUP1 SWAP2 SUB SWAP1 LOG2 PUSH1 0x1 PUSH1 0x0 DUP4 PUSH20 0xFFFFFFFFFFFFFFFFFFFFFFFFFFFFFFFFFFFFFFFF AND PUSH20 0xFFFFFFFFFFFFFFFFFFFFFFFFFFFFFFFFFFFFFFFF AND DUP2 MSTORE PUSH1 0x20 ADD SWAP1 DUP2 MSTORE PUSH1 0x20 ADD PUSH1 0x0 KECCAK256 PUSH1 0x0 ADD PUSH1 0x15 SWAP1 SLOAD SWAP1 PUSH2 0x100 EXP SWAP1 DIV PUSH1 0xFF AND SWAP1 POP SWAP2 SWAP1 POP JUMP JUMPDEST PUSH1 0x0 DUP1 PUSH1 0x0 ISZERO ISZERO PUSH1 0x1 PUSH1 0x0 CALLER PUSH20 0xFFFFFFFFFFFFFFFFFFFFFFFFFFFFFFFFFFFFFFFF AND PUSH20 0xFFFFFFFFFFFFFFFFFFFFFFFFFFFFFFFFFFFFFFFF AND DUP2 MSTORE PUSH1 0x20 ADD SWAP1 DUP2 MSTORE PUSH1 0x20 ADD PUSH1 0x0 KECCAK256 PUSH1 0x0 ADD PUSH1 0x0 SWAP1 SLOAD SWAP1 PUSH2 0x100 EXP SWAP1 DIV PUSH1 0xFF AND ISZERO ISZERO EQ ISZERO ISZERO PUSH2 0xA2A JUMPI PUSH1 0x0 DUP1 REVERT JUMPDEST PUSH1 0x0 ISZERO ISZERO PUSH1 0x1 PUSH1 0x0 CALLER PUSH20 0xFFFFFFFFFFFFFFFFFFFFFFFFFFFFFFFFFFFFFFFF AND PUSH20 0xFFFFFFFFFFFFFFFFFFFFFFFFFFFFFFFFFFFFFFFF AND DUP2 MSTORE PUSH1 0x20 ADD SWAP1 DUP2 MSTORE PUSH1 0x20 ADD PUSH1 0x0 KECCAK256 PUSH1 0x0 ADD PUSH1 0x15 SWAP1 SLOAD SWAP1 PUSH2 0x100 EXP SWAP1 DIV PUSH1 0xFF AND ISZERO ISZERO EQ ISZERO ISZERO PUSH2 0xA8C JUMPI PUSH1 0x0 DUP1 REVERT JUMPDEST PUSH1 0x0 PUSH1 0x1 PUSH1 0x0 CALLER PUSH20 0xFFFFFFFFFFFFFFFFFFFFFFFFFFFFFFFFFFFFFFFF AND PUSH20 0xFFFFFFFFFFFFFFFFFFFFFFFFFFFFFFFFFFFFFFFF AND DUP2 MSTORE PUSH1 0x20 ADD SWAP1 DUP2 MSTORE PUSH1 0x20 ADD PUSH1 0x0 KECCAK256 PUSH1 0x0 ADD PUSH1 0x1 SWAP1 SLOAD SWAP1 PUSH2 0x100 EXP SWAP1 DIV PUSH20 0xFFFFFFFFFFFFFFFFFFFFFFFFFFFFFFFFFFFFFFFF AND PUSH20 0xFFFFFFFFFFFFFFFFFFFFFFFFFFFFFFFFFFFFFFFF AND EQ ISZERO ISZERO PUSH2 0xB10 JUMPI INVALID JUMPDEST PUSH1 0x1 DUP1 PUSH1 0x0 CALLER PUSH20 0xFFFFFFFFFFFFFFFFFFFFFFFFFFFFFFFFFFFFFFFF AND PUSH20 0xFFFFFFFFFFFFFFFFFFFFFFFFFFFFFFFFFFFFFFFF AND DUP2 MSTORE PUSH1 0x20 ADD SWAP1 DUP2 MSTORE PUSH1 0x20 ADD PUSH1 0x0 KECCAK256 PUSH1 0x0 ADD PUSH1 0x0 PUSH2 0x100 EXP DUP2 SLOAD DUP2 PUSH1 0xFF MUL NOT AND SWAP1 DUP4 ISZERO ISZERO MUL OR SWAP1 SSTORE POP DUP6 DUP6 DUP6 DUP6 PUSH2 0xB76 PUSH2 0xF81 JUMP JUMPDEST DUP1 DUP6 DUP2 MSTORE PUSH1 0x20 ADD DUP5 DUP2 MSTORE PUSH1 0x20 ADD DUP4 DUP2 MSTORE PUSH1 0x20 ADD DUP3 PUSH1 0x0 NOT AND PUSH1 0x0 NOT AND DUP2 MSTORE PUSH1 0x20 ADD SWAP5 POP POP POP POP POP PUSH1 0x40 MLOAD DUP1 SWAP2 SUB SWAP1 PUSH1 0x0 CREATE DUP1 ISZERO ISZERO PUSH2 0xBB3 JUMPI PUSH1 0x0 DUP1 REVERT JUMPDEST SWAP1 POP DUP1 PUSH1 0x1 PUSH1 0x0 CALLER PUSH20 0xFFFFFFFFFFFFFFFFFFFFFFFFFFFFFFFFFFFFFFFF AND PUSH20 0xFFFFFFFFFFFFFFFFFFFFFFFFFFFFFFFFFFFFFFFF AND DUP2 MSTORE PUSH1 0x20 ADD SWAP1 DUP2 MSTORE PUSH1 0x20 ADD PUSH1 0x0 KECCAK256 PUSH1 0x0 ADD PUSH1 0x1 PUSH2 0x100 EXP DUP2 SLOAD DUP2 PUSH20 0xFFFFFFFFFFFFFFFFFFFFFFFFFFFFFFFFFFFFFFFF MUL NOT AND SWAP1 DUP4 PUSH20 0xFFFFFFFFFFFFFFFFFFFFFFFFFFFFFFFFFFFFFFFF AND MUL OR SWAP1 SSTORE POP PUSH1 0x2 DUP1 SLOAD DUP1 PUSH1 0x1 ADD DUP3 DUP2 PUSH2 0xC4A SWAP2 SWAP1 PUSH2 0xF91 JUMP JUMPDEST SWAP2 PUSH1 0x0 MSTORE PUSH1 0x20 PUSH1 0x0 KECCAK256 SWAP1 ADD PUSH1 0x0 DUP4 SWAP1 SWAP2 SWAP1 SWAP2 PUSH2 0x100 EXP DUP2 SLOAD DUP2 PUSH20 0xFFFFFFFFFFFFFFFFFFFFFFFFFFFFFFFFFFFFFFFF MUL NOT AND SWAP1 DUP4 PUSH20 0xFFFFFFFFFFFFFFFFFFFFFFFFFFFFFFFFFFFFFFFF AND MUL OR SWAP1 SSTORE POP POP PUSH1 0x1 PUSH1 0x0 CALLER PUSH20 0xFFFFFFFFFFFFFFFFFFFFFFFFFFFFFFFFFFFFFFFF AND PUSH20 0xFFFFFFFFFFFFFFFFFFFFFFFFFFFFFFFFFFFFFFFF AND DUP2 MSTORE PUSH1 0x20 ADD SWAP1 DUP2 MSTORE PUSH1 0x20 ADD PUSH1 0x0 KECCAK256 PUSH1 0x1 ADD DUP1 SLOAD DUP1 PUSH1 0x1 ADD DUP3 DUP2 PUSH2 0xCED SWAP2 SWAP1 PUSH2 0xF91 JUMP JUMPDEST SWAP2 PUSH1 0x0 MSTORE PUSH1 0x20 PUSH1 0x0 KECCAK256 SWAP1 ADD PUSH1 0x0 DUP4 SWAP1 SWAP2 SWAP1 SWAP2 PUSH2 0x100 EXP DUP2 SLOAD DUP2 PUSH20 0xFFFFFFFFFFFFFFFFFFFFFFFFFFFFFFFFFFFFFFFF MUL NOT AND SWAP1 DUP4 PUSH20 0xFFFFFFFFFFFFFFFFFFFFFFFFFFFFFFFFFFFFFFFF AND MUL OR SWAP1 SSTORE POP POP TIMESTAMP CALLER PUSH20 0xFFFFFFFFFFFFFFFFFFFFFFFFFFFFFFFFFFFFFFFF AND DUP3 PUSH20 0xFFFFFFFFFFFFFFFFFFFFFFFFFFFFFFFFFFFFFFFF AND PUSH32 0xA0C75B76492543C8EAFDC7E35272287BD6F229DCF0F6C22429343044718C5108 PUSH1 0x40 MLOAD PUSH1 0x40 MLOAD DUP1 SWAP2 SUB SWAP1 LOG4 DUP1 SWAP2 POP POP SWAP5 SWAP4 POP POP POP POP JUMP JUMPDEST PUSH1 0x0 DUP1 SWAP1 SLOAD SWAP1 PUSH2 0x100 EXP SWAP1 DIV PUSH20 0xFFFFFFFFFFFFFFFFFFFFFFFFFFFFFFFFFFFFFFFF AND PUSH20 0xFFFFFFFFFFFFFFFFFFFFFFFFFFFFFFFFFFFFFFFF AND CALLER PUSH20 0xFFFFFFFFFFFFFFFFFFFFFFFFFFFFFFFFFFFFFFFF AND EQ ISZERO ISZERO PUSH2 0xDFE JUMPI PUSH1 0x0 DUP1 REVERT JUMPDEST DUP1 PUSH20 0xFFFFFFFFFFFFFFFFFFFFFFFFFFFFFFFFFFFFFFFF AND SELFDESTRUCT JUMPDEST PUSH1 0x0 DUP1 PUSH1 0x0 SWAP1 SLOAD SWAP1 PUSH2 0x100 EXP SWAP1 DIV PUSH20 0xFFFFFFFFFFFFFFFFFFFFFFFFFFFFFFFFFFFFFFFF AND PUSH20 0xFFFFFFFFFFFFFFFFFFFFFFFFFFFFFFFFFFFFFFFF AND CALLER PUSH20 0xFFFFFFFFFFFFFFFFFFFFFFFFFFFFFFFFFFFFFFFF AND EQ ISZERO ISZERO PUSH2 0xE74 JUMPI PUSH1 0x0 DUP1 REVERT JUMPDEST DUP3 SWAP1 POP DUP1 PUSH20 0xFFFFFFFFFFFFFFFFFFFFFFFFFFFFFFFFFFFFFFFF AND PUSH4 0x268F1153 DUP4 PUSH1 0x0 PUSH1 0x40 MLOAD PUSH1 0x20 ADD MSTORE PUSH1 0x40 MLOAD DUP3 PUSH4 0xFFFFFFFF AND PUSH29 0x100000000000000000000000000000000000000000000000000000000 MUL DUP2 MSTORE PUSH1 0x4 ADD DUP1 DUP3 PUSH1 0x5 DUP2 GT ISZERO PUSH2 0xED8 JUMPI INVALID JUMPDEST PUSH1 0xFF AND DUP2 MSTORE PUSH1 0x20 ADD SWAP2 POP POP PUSH1 0x20 PUSH1 0x40 MLOAD DUP1 DUP4 SUB DUP2 PUSH1 0x0 DUP8 DUP1 EXTCODESIZE ISZERO ISZERO PUSH2 0xEFC JUMPI PUSH1 0x0 DUP1 REVERT JUMPDEST PUSH2 0x2C6 GAS SUB CALL ISZERO ISZERO PUSH2 0xF0D JUMPI PUSH1 0x0 DUP1 REVERT JUMPDEST POP POP POP PUSH1 0x40 MLOAD DUP1 MLOAD SWAP1 POP POP TIMESTAMP DUP3 PUSH1 0x5 DUP2 GT ISZERO PUSH2 0xF25 JUMPI INVALID JUMPDEST DUP3 PUSH20 0xFFFFFFFFFFFFFFFFFFFFFFFFFFFFFFFFFFFFFFFF AND PUSH32 0x9AE5127F6D87E374B5901CE23A9467E504811C54C03DDA8741AD44A35A361466 PUSH1 0x40 MLOAD PUSH1 0x40 MLOAD DUP1 SWAP2 SUB SWAP1 LOG4 POP POP POP JUMP JUMPDEST PUSH1 0x20 PUSH1 0x40 MLOAD SWAP1 DUP2 ADD PUSH1 0x40 MSTORE DUP1 PUSH1 0x0 DUP2 MSTORE POP SWAP1 JUMP JUMPDEST PUSH1 0x40 MLOAD PUSH2 0x1D3E DUP1 PUSH2 0xFE3 DUP4 CODECOPY ADD SWAP1 JUMP JUMPDEST DUP2 SLOAD DUP2 DUP4 SSTORE DUP2 DUP2 ISZERO GT PUSH2 0xFB8 JUMPI DUP2 DUP4 PUSH1 0x0 MSTORE PUSH1 0x20 PUSH1 0x0 KECCAK256 SWAP2 DUP3 ADD SWAP2 ADD PUSH2 0xFB7 SWAP2 SWAP1 PUSH2 0xFBD JUMP JUMPDEST JUMPDEST POP POP POP JUMP JUMPDEST PUSH2 0xFDF SWAP2 SWAP1 JUMPDEST DUP1 DUP3 GT ISZERO PUSH2 0xFDB JUMPI PUSH1 0x0 DUP2 PUSH1 0x0 SWAP1 SSTORE POP PUSH1 0x1 ADD PUSH2 0xFC3 JUMP JUMPDEST POP SWAP1 JUMP JUMPDEST SWAP1 JUMP STOP PUSH1 0x60 PUSH1 0x40 MSTORE CALLVALUE ISZERO PUSH3 0x10 JUMPI PUSH1 0x0 DUP1 REVERT JUMPDEST PUSH1 0x40 MLOAD PUSH1 0x80 DUP1 PUSH3 0x1D3E DUP4 CODECOPY DUP2 ADD PUSH1 0x40 MSTORE DUP1 DUP1 MLOAD SWAP1 PUSH1 0x20 ADD SWAP1 SWAP2 SWAP1 DUP1 MLOAD SWAP1 PUSH1 0x20 ADD SWAP1 SWAP2 SWAP1 DUP1 MLOAD SWAP1 PUSH1 0x20 ADD SWAP1 SWAP2 SWAP1 DUP1 MLOAD SWAP1 PUSH1 0x20 ADD SWAP1 SWAP2 SWAP1 POP POP ORIGIN PUSH1 0x1 PUSH1 0x0 PUSH2 0x100 EXP DUP2 SLOAD DUP2 PUSH20 0xFFFFFFFFFFFFFFFFFFFFFFFFFFFFFFFFFFFFFFFF MUL NOT AND SWAP1 DUP4 PUSH20 0xFFFFFFFFFFFFFFFFFFFFFFFFFFFFFFFFFFFFFFFF AND MUL OR SWAP1 SSTORE POP DUP2 PUSH1 0x5 DUP2 SWAP1 SSTORE POP DUP4 PUSH1 0x2 DUP2 SWAP1 SSTORE POP DUP3 PUSH1 0x6 DUP2 SWAP1 SSTORE POP DUP3 PUSH1 0x7 DUP2 SWAP1 SSTORE POP PUSH3 0xCC PUSH1 0x5 SLOAD PUSH1 0x2 SLOAD PUSH3 0x181 PUSH5 0x100000000 MUL PUSH3 0x18FF OR SWAP1 SWAP2 SWAP1 PUSH5 0x100000000 SWAP1 DIV JUMP JUMPDEST PUSH1 0x3 DUP2 SWAP1 SSTORE POP PUSH3 0xF9 PUSH1 0x6 SLOAD PUSH1 0x3 SLOAD PUSH3 0x1A0 PUSH5 0x100000000 MUL PUSH3 0x1B2B OR SWAP1 SWAP2 SWAP1 PUSH5 0x100000000 SWAP1 DIV JUMP JUMPDEST PUSH1 0x8 DUP2 SWAP1 SSTORE POP DUP1 PUSH1 0xB DUP2 PUSH1 0x0 NOT AND SWAP1 SSTORE POP TIMESTAMP PUSH1 0x9 DUP2 SWAP1 SSTORE POP TIMESTAMP PUSH1 0x1 PUSH1 0x0 SWAP1 SLOAD SWAP1 PUSH2 0x100 EXP SWAP1 DIV PUSH20 0xFFFFFFFFFFFFFFFFFFFFFFFFFFFFFFFFFFFFFFFF AND PUSH20 0xFFFFFFFFFFFFFFFFFFFFFFFFFFFFFFFFFFFFFFFF AND PUSH32 0xF9F75C99C0E3522CD19FFC66FD6C94989A3F0821D37D5C5BB176AAB904C6335D PUSH1 0x40 MLOAD PUSH1 0x40 MLOAD DUP1 SWAP2 SUB SWAP1 LOG3 POP POP POP POP PUSH3 0x1BC JUMP JUMPDEST PUSH1 0x0 DUP1 DUP3 DUP5 ADD SWAP1 POP DUP4 DUP2 LT ISZERO ISZERO ISZERO PUSH3 0x196 JUMPI INVALID JUMPDEST DUP1 SWAP2 POP POP SWAP3 SWAP2 POP POP JUMP JUMPDEST PUSH1 0x0 DUP1 DUP3 DUP5 DUP2 ISZERO ISZERO PUSH3 0x1AF JUMPI INVALID JUMPDEST DIV SWAP1 POP DUP1 SWAP2 POP POP SWAP3 SWAP2 POP POP JUMP JUMPDEST PUSH2 0x1B72 DUP1 PUSH3 0x1CC PUSH1 0x0 CODECOPY PUSH1 0x0 RETURN STOP PUSH1 0x60 PUSH1 0x40 MSTORE PUSH1 0x4 CALLDATASIZE LT PUSH2 0xDB JUMPI PUSH1 0x0 CALLDATALOAD PUSH29 0x100000000000000000000000000000000000000000000000000000000 SWAP1 DIV PUSH4 0xFFFFFFFF AND DUP1 PUSH4 0x12065FE0 EQ PUSH2 0xE0 JUMPI DUP1 PUSH4 0x268F1153 EQ PUSH2 0x109 JUMPI DUP1 PUSH4 0x28FD10D7 EQ PUSH2 0x143 JUMPI DUP1 PUSH4 0x29C68DC1 EQ PUSH2 0x194 JUMPI DUP1 PUSH4 0x3CCFD60B EQ PUSH2 0x1C1 JUMPI DUP1 PUSH4 0x402D8883 EQ PUSH2 0x1D6 JUMPI DUP1 PUSH4 0x43C14B22 EQ PUSH2 0x1E0 JUMPI DUP1 PUSH4 0x590E1AE3 EQ PUSH2 0x1F5 JUMPI DUP1 PUSH4 0x83197EF0 EQ PUSH2 0x20A JUMPI DUP1 PUSH4 0x8DA5CB5B EQ PUSH2 0x21F JUMPI DUP1 PUSH4 0xD85DA7B6 EQ PUSH2 0x274 JUMPI DUP1 PUSH4 0xE8B5E51F EQ PUSH2 0x2A1 JUMPI DUP1 PUSH4 0xEFD475AB EQ PUSH2 0x2AB JUMPI DUP1 PUSH4 0xF06817CF EQ PUSH2 0x2C0 JUMPI DUP1 PUSH4 0xF5074F41 EQ PUSH2 0x375 JUMPI JUMPDEST PUSH1 0x0 DUP1 REVERT JUMPDEST CALLVALUE ISZERO PUSH2 0xEB JUMPI PUSH1 0x0 DUP1 REVERT JUMPDEST PUSH2 0xF3 PUSH2 0x3AE JUMP JUMPDEST PUSH1 0x40 MLOAD DUP1 DUP3 DUP2 MSTORE PUSH1 0x20 ADD SWAP2 POP POP PUSH1 0x40 MLOAD DUP1 SWAP2 SUB SWAP1 RETURN JUMPDEST CALLVALUE ISZERO PUSH2 0x114 JUMPI PUSH1 0x0 DUP1 REVERT JUMPDEST PUSH2 0x12D PUSH1 0x4 DUP1 DUP1 CALLDATALOAD PUSH1 0xFF AND SWAP1 PUSH1 0x20 ADD SWAP1 SWAP2 SWAP1 POP POP PUSH2 0x3CD JUMP JUMPDEST PUSH1 0x40 MLOAD DUP1 DUP3 DUP2 MSTORE PUSH1 0x20 ADD SWAP2 POP POP PUSH1 0x40 MLOAD DUP1 SWAP2 SUB SWAP1 RETURN JUMPDEST CALLVALUE ISZERO PUSH2 0x14E JUMPI PUSH1 0x0 DUP1 REVERT JUMPDEST PUSH2 0x17A PUSH1 0x4 DUP1 DUP1 CALLDATALOAD PUSH20 0xFFFFFFFFFFFFFFFFFFFFFFFFFFFFFFFFFFFFFFFF AND SWAP1 PUSH1 0x20 ADD SWAP1 SWAP2 SWAP1 POP POP PUSH2 0x49A JUMP JUMPDEST PUSH1 0x40 MLOAD DUP1 DUP3 ISZERO ISZERO ISZERO ISZERO DUP2 MSTORE PUSH1 0x20 ADD SWAP2 POP POP PUSH1 0x40 MLOAD DUP1 SWAP2 SUB SWAP1 RETURN JUMPDEST CALLVALUE ISZERO PUSH2 0x19F JUMPI PUSH1 0x0 DUP1 REVERT JUMPDEST PUSH2 0x1A7 PUSH2 0x4BA JUMP JUMPDEST PUSH1 0x40 MLOAD DUP1 DUP3 ISZERO ISZERO ISZERO ISZERO DUP2 MSTORE PUSH1 0x20 ADD SWAP2 POP POP PUSH1 0x40 MLOAD DUP1 SWAP2 SUB SWAP1 RETURN JUMPDEST CALLVALUE ISZERO PUSH2 0x1CC JUMPI PUSH1 0x0 DUP1 REVERT JUMPDEST PUSH2 0x1D4 PUSH2 0x595 JUMP JUMPDEST STOP JUMPDEST PUSH2 0x1DE PUSH2 0x7B2 JUMP JUMPDEST STOP JUMPDEST CALLVALUE ISZERO PUSH2 0x1EB JUMPI PUSH1 0x0 DUP1 REVERT JUMPDEST PUSH2 0x1F3 PUSH2 0xAA9 JUMP JUMPDEST STOP JUMPDEST CALLVALUE ISZERO PUSH2 0x200 JUMPI PUSH1 0x0 DUP1 REVERT JUMPDEST PUSH2 0x208 PUSH2 0xC8B JUMP JUMPDEST STOP JUMPDEST CALLVALUE ISZERO PUSH2 0x215 JUMPI PUSH1 0x0 DUP1 REVERT JUMPDEST PUSH2 0x21D PUSH2 0xF8E JUMP JUMPDEST STOP JUMPDEST CALLVALUE ISZERO PUSH2 0x22A JUMPI PUSH1 0x0 DUP1 REVERT JUMPDEST PUSH2 0x232 PUSH2 0x1023 JUMP JUMPDEST PUSH1 0x40 MLOAD DUP1 DUP3 PUSH20 0xFFFFFFFFFFFFFFFFFFFFFFFFFFFFFFFFFFFFFFFF AND PUSH20 0xFFFFFFFFFFFFFFFFFFFFFFFFFFFFFFFFFFFFFFFF AND DUP2 MSTORE PUSH1 0x20 ADD SWAP2 POP POP PUSH1 0x40 MLOAD DUP1 SWAP2 SUB SWAP1 RETURN JUMPDEST CALLVALUE ISZERO PUSH2 0x27F JUMPI PUSH1 0x0 DUP1 REVERT JUMPDEST PUSH2 0x287 PUSH2 0x1048 JUMP JUMPDEST PUSH1 0x40 MLOAD DUP1 DUP3 ISZERO ISZERO ISZERO ISZERO DUP2 MSTORE PUSH1 0x20 ADD SWAP2 POP POP PUSH1 0x40 MLOAD DUP1 SWAP2 SUB SWAP1 RETURN JUMPDEST PUSH2 0x2A9 PUSH2 0x11F3 JUMP JUMPDEST STOP JUMPDEST CALLVALUE ISZERO PUSH2 0x2B6 JUMPI PUSH1 0x0 DUP1 REVERT JUMPDEST PUSH2 0x2BE PUSH2 0x1525 JUMP JUMPDEST STOP JUMPDEST CALLVALUE ISZERO PUSH2 0x2CB JUMPI PUSH1 0x0 DUP1 REVERT JUMPDEST PUSH2 0x2D3 PUSH2 0x17CE JUMP JUMPDEST PUSH1 0x40 MLOAD DUP1 DUP13 PUSH20 0xFFFFFFFFFFFFFFFFFFFFFFFFFFFFFFFFFFFFFFFF AND PUSH20 0xFFFFFFFFFFFFFFFFFFFFFFFFFFFFFFFFFFFFFFFF AND DUP2 MSTORE PUSH1 0x20 ADD DUP12 PUSH1 0x0 NOT AND PUSH1 0x0 NOT AND DUP2 MSTORE PUSH1 0x20 ADD DUP11 DUP2 MSTORE PUSH1 0x20 ADD DUP10 DUP2 MSTORE PUSH1 0x20 ADD DUP9 DUP2 MSTORE PUSH1 0x20 ADD DUP8 DUP2 MSTORE PUSH1 0x20 ADD DUP7 DUP2 MSTORE PUSH1 0x20 ADD DUP6 DUP2 MSTORE PUSH1 0x20 ADD DUP5 PUSH1 0x5 DUP2 GT ISZERO PUSH2 0x347 JUMPI INVALID JUMPDEST PUSH1 0xFF AND DUP2 MSTORE PUSH1 0x20 ADD DUP4 ISZERO ISZERO ISZERO ISZERO DUP2 MSTORE PUSH1 0x20 ADD DUP3 DUP2 MSTORE PUSH1 0x20 ADD SWAP12 POP POP POP POP POP POP POP POP POP POP POP POP PUSH1 0x40 MLOAD DUP1 SWAP2 SUB SWAP1 RETURN JUMPDEST CALLVALUE ISZERO PUSH2 0x380 JUMPI PUSH1 0x0 DUP1 REVERT JUMPDEST PUSH2 0x3AC PUSH1 0x4 DUP1 DUP1 CALLDATALOAD PUSH20 0xFFFFFFFFFFFFFFFFFFFFFFFFFFFFFFFFFFFFFFFF AND SWAP1 PUSH1 0x20 ADD SWAP1 SWAP2 SWAP1 POP POP PUSH2 0x1872 JUMP JUMPDEST STOP JUMPDEST PUSH1 0x0 ADDRESS PUSH20 0xFFFFFFFFFFFFFFFFFFFFFFFFFFFFFFFFFFFFFFFF AND BALANCE SWAP1 POP SWAP1 JUMP JUMPDEST PUSH1 0x0 DUP1 PUSH1 0x0 SWAP1 SLOAD SWAP1 PUSH2 0x100 EXP SWAP1 DIV PUSH20 0xFFFFFFFFFFFFFFFFFFFFFFFFFFFFFFFFFFFFFFFF AND PUSH20 0xFFFFFFFFFFFFFFFFFFFFFFFFFFFFFFFFFFFFFFFF AND CALLER PUSH20 0xFFFFFFFFFFFFFFFFFFFFFFFFFFFFFFFFFFFFFFFF AND EQ ISZERO ISZERO PUSH2 0x42A JUMPI PUSH1 0x0 DUP1 REVERT JUMPDEST DUP2 PUSH1 0xC PUSH1 0x1 PUSH2 0x100 EXP DUP2 SLOAD DUP2 PUSH1 0xFF MUL NOT AND SWAP1 DUP4 PUSH1 0x5 DUP2 GT ISZERO PUSH2 0x448 JUMPI INVALID JUMPDEST MUL OR SWAP1 SSTORE POP TIMESTAMP PUSH1 0xC PUSH1 0x1 SWAP1 SLOAD SWAP1 PUSH2 0x100 EXP SWAP1 DIV PUSH1 0xFF AND PUSH1 0x5 DUP2 GT ISZERO PUSH2 0x469 JUMPI INVALID JUMPDEST PUSH32 0xAAAE373901E745122C2E0925AD006227969C6CD190B7D5EA2FB7FDBD1D955B35 PUSH1 0x40 MLOAD PUSH1 0x40 MLOAD DUP1 SWAP2 SUB SWAP1 LOG3 SWAP2 SWAP1 POP JUMP JUMPDEST PUSH1 0xD PUSH1 0x20 MSTORE DUP1 PUSH1 0x0 MSTORE PUSH1 0x40 PUSH1 0x0 KECCAK256 PUSH1 0x0 SWAP2 POP SLOAD SWAP1 PUSH2 0x100 EXP SWAP1 DIV PUSH1 0xFF AND DUP2 JUMP JUMPDEST PUSH1 0x0 DUP1 PUSH1 0x0 SWAP1 SLOAD SWAP1 PUSH2 0x100 EXP SWAP1 DIV PUSH20 0xFFFFFFFFFFFFFFFFFFFFFFFFFFFFFFFFFFFFFFFF AND PUSH20 0xFFFFFFFFFFFFFFFFFFFFFFFFFFFFFFFFFFFFFFFF AND CALLER PUSH20 0xFFFFFFFFFFFFFFFFFFFFFFFFFFFFFFFFFFFFFFFF AND EQ ISZERO ISZERO PUSH2 0x517 JUMPI PUSH1 0x0 DUP1 REVERT JUMPDEST PUSH1 0xC PUSH1 0x0 SWAP1 SLOAD SWAP1 PUSH2 0x100 EXP SWAP1 DIV PUSH1 0xFF AND ISZERO PUSH1 0xC PUSH1 0x0 PUSH2 0x100 EXP DUP2 SLOAD DUP2 PUSH1 0xFF MUL NOT AND SWAP1 DUP4 ISZERO ISZERO MUL OR SWAP1 SSTORE POP TIMESTAMP PUSH1 0xC PUSH1 0x0 SWAP1 SLOAD SWAP1 PUSH2 0x100 EXP SWAP1 DIV PUSH1 0xFF AND ISZERO ISZERO PUSH32 0x160914EA27C60AA29A5F3A69D74E6069869DE36E38939DE1E0A66B921D8623D2 PUSH1 0x40 MLOAD PUSH1 0x40 MLOAD DUP1 SWAP2 SUB SWAP1 LOG3 PUSH1 0xC PUSH1 0x0 SWAP1 SLOAD SWAP1 PUSH2 0x100 EXP SWAP1 DIV PUSH1 0xFF AND SWAP1 POP SWAP1 JUMP JUMPDEST PUSH1 0x1 ISZERO ISZERO PUSH1 0xC PUSH1 0x0 SWAP1 SLOAD SWAP1 PUSH2 0x100 EXP SWAP1 DIV PUSH1 0xFF AND ISZERO ISZERO EQ ISZERO ISZERO PUSH2 0x5B7 JUMPI PUSH1 0x0 DUP1 REVERT JUMPDEST PUSH1 0x1 PUSH1 0x0 SWAP1 SLOAD SWAP1 PUSH2 0x100 EXP SWAP1 DIV PUSH20 0xFFFFFFFFFFFFFFFFFFFFFFFFFFFFFFFFFFFFFFFF AND PUSH20 0xFFFFFFFFFFFFFFFFFFFFFFFFFFFFFFFFFFFFFFFF AND CALLER PUSH20 0xFFFFFFFFFFFFFFFFFFFFFFFFFFFFFFFFFFFFFFFF AND EQ ISZERO ISZERO PUSH2 0x613 JUMPI PUSH1 0x0 DUP1 REVERT JUMPDEST PUSH1 0x2 SLOAD ADDRESS PUSH20 0xFFFFFFFFFFFFFFFFFFFFFFFFFFFFFFFFFFFFFFFF AND BALANCE LT ISZERO ISZERO ISZERO PUSH2 0x63B JUMPI PUSH1 0x0 DUP1 REVERT JUMPDEST PUSH1 0x5 DUP1 DUP2 GT ISZERO PUSH2 0x647 JUMPI INVALID JUMPDEST PUSH1 0xC PUSH1 0x1 SWAP1 SLOAD SWAP1 PUSH2 0x100 EXP SWAP1 DIV PUSH1 0xFF AND PUSH1 0x5 DUP2 GT ISZERO PUSH2 0x662 JUMPI INVALID JUMPDEST EQ ISZERO ISZERO ISZERO PUSH2 0x66F JUMPI PUSH1 0x0 DUP1 REVERT JUMPDEST PUSH1 0x1 PUSH1 0xC PUSH1 0x1 PUSH2 0x100 EXP DUP2 SLOAD DUP2 PUSH1 0xFF MUL NOT AND SWAP1 DUP4 PUSH1 0x5 DUP2 GT ISZERO PUSH2 0x68E JUMPI INVALID JUMPDEST MUL OR SWAP1 SSTORE POP TIMESTAMP PUSH1 0xC PUSH1 0x1 SWAP1 SLOAD SWAP1 PUSH2 0x100 EXP SWAP1 DIV PUSH1 0xFF AND PUSH1 0x5 DUP2 GT ISZERO PUSH2 0x6AF JUMPI INVALID JUMPDEST PUSH32 0xAAAE373901E745122C2E0925AD006227969C6CD190B7D5EA2FB7FDBD1D955B35 PUSH1 0x40 MLOAD PUSH1 0x40 MLOAD DUP1 SWAP2 SUB SWAP1 LOG3 TIMESTAMP ADDRESS PUSH20 0xFFFFFFFFFFFFFFFFFFFFFFFFFFFFFFFFFFFFFFFF AND BALANCE CALLER PUSH20 0xFFFFFFFFFFFFFFFFFFFFFFFFFFFFFFFFFFFFFFFF AND PUSH32 0x20734F14D107B526674905E470E35D0A474F9FB996A7BDB034C839C8894524E6 PUSH1 0x40 MLOAD PUSH1 0x40 MLOAD DUP1 SWAP2 SUB SWAP1 LOG4 PUSH1 0x1 PUSH1 0x0 SWAP1 SLOAD SWAP1 PUSH2 0x100 EXP SWAP1 DIV PUSH20 0xFFFFFFFFFFFFFFFFFFFFFFFFFFFFFFFFFFFFFFFF AND PUSH20 0xFFFFFFFFFFFFFFFFFFFFFFFFFFFFFFFFFFFFFFFF AND PUSH2 0x8FC ADDRESS PUSH20 0xFFFFFFFFFFFFFFFFFFFFFFFFFFFFFFFFFFFFFFFF AND BALANCE SWAP1 DUP2 ISZERO MUL SWAP1 PUSH1 0x40 MLOAD PUSH1 0x0 PUSH1 0x40 MLOAD DUP1 DUP4 SUB DUP2 DUP6 DUP9 DUP9 CALL SWAP4 POP POP POP POP ISZERO ISZERO PUSH2 0x7B0 JUMPI PUSH1 0x0 DUP1 REVERT JUMPDEST JUMP JUMPDEST PUSH1 0x0 PUSH1 0x1 PUSH1 0x0 SWAP1 SLOAD SWAP1 PUSH2 0x100 EXP SWAP1 DIV PUSH20 0xFFFFFFFFFFFFFFFFFFFFFFFFFFFFFFFFFFFFFFFF AND PUSH20 0xFFFFFFFFFFFFFFFFFFFFFFFFFFFFFFFFFFFFFFFF AND CALLER PUSH20 0xFFFFFFFFFFFFFFFFFFFFFFFFFFFFFFFFFFFFFFFF AND EQ ISZERO ISZERO PUSH2 0x810 JUMPI PUSH1 0x0 DUP1 REVERT JUMPDEST PUSH1 0x1 PUSH1 0x5 DUP2 GT ISZERO PUSH2 0x81D JUMPI INVALID JUMPDEST PUSH1 0xC PUSH1 0x1 SWAP1 SLOAD SWAP1 PUSH2 0x100 EXP SWAP1 DIV PUSH1 0xFF AND PUSH1 0x5 DUP2 GT ISZERO PUSH2 0x838 JUMPI INVALID JUMPDEST EQ ISZERO ISZERO PUSH2 0x844 JUMPI PUSH1 0x0 DUP1 REVERT JUMPDEST PUSH1 0x0 PUSH1 0x7 SLOAD GT ISZERO ISZERO PUSH2 0x855 JUMPI PUSH1 0x0 DUP1 REVERT JUMPDEST PUSH1 0x8 SLOAD CALLVALUE LT ISZERO ISZERO ISZERO PUSH2 0x866 JUMPI PUSH1 0x0 DUP1 REVERT JUMPDEST PUSH1 0x3 SLOAD PUSH1 0x4 SLOAD LT ISZERO ISZERO PUSH2 0x875 JUMPI INVALID JUMPDEST PUSH1 0x7 PUSH1 0x0 DUP2 SLOAD DUP1 SWAP3 SWAP2 SWAP1 PUSH1 0x1 SWAP1 SUB SWAP2 SWAP1 POP SSTORE POP TIMESTAMP PUSH1 0xA DUP2 SWAP1 SSTORE POP PUSH1 0x0 SWAP1 POP PUSH1 0x8 SLOAD CALLVALUE GT ISZERO PUSH2 0x965 JUMPI PUSH2 0x8B2 PUSH1 0x8 SLOAD CALLVALUE PUSH2 0x18E6 SWAP1 SWAP2 SWAP1 PUSH4 0xFFFFFFFF AND JUMP JUMPDEST SWAP1 POP PUSH2 0x8C7 DUP2 CALLVALUE PUSH2 0x18E6 SWAP1 SWAP2 SWAP1 PUSH4 0xFFFFFFFF AND JUMP JUMPDEST PUSH1 0x8 SLOAD EQ ISZERO ISZERO PUSH2 0x8D3 JUMPI INVALID JUMPDEST CALLVALUE DUP2 GT ISZERO ISZERO ISZERO PUSH2 0x8DF JUMPI INVALID JUMPDEST CALLER PUSH20 0xFFFFFFFFFFFFFFFFFFFFFFFFFFFFFFFFFFFFFFFF AND PUSH2 0x8FC DUP3 SWAP1 DUP2 ISZERO MUL SWAP1 PUSH1 0x40 MLOAD PUSH1 0x0 PUSH1 0x40 MLOAD DUP1 DUP4 SUB DUP2 DUP6 DUP9 DUP9 CALL SWAP4 POP POP POP POP ISZERO ISZERO PUSH2 0x91F JUMPI PUSH1 0x0 DUP1 REVERT JUMPDEST TIMESTAMP DUP2 CALLER PUSH20 0xFFFFFFFFFFFFFFFFFFFFFFFFFFFFFFFFFFFFFFFF AND PUSH32 0x5C9874487A2258C6BD6DC39A2CFCF7EA944B50B79D9A7152668779687B2EBD8D PUSH1 0x40 MLOAD PUSH1 0x40 MLOAD DUP1 SWAP2 SUB SWAP1 LOG4 JUMPDEST TIMESTAMP PUSH2 0x979 DUP3 CALLVALUE PUSH2 0x18E6 SWAP1 SWAP2 SWAP1 PUSH4 0xFFFFFFFF AND JUMP JUMPDEST CALLER PUSH20 0xFFFFFFFFFFFFFFFFFFFFFFFFFFFFFFFFFFFFFFFF AND PUSH32 0x350A09487D622378C6EFBDA255F996387696319F803A2E53EEE64F7AA70BE85A PUSH1 0x40 MLOAD PUSH1 0x40 MLOAD DUP1 SWAP2 SUB SWAP1 LOG4 PUSH2 0x9E3 PUSH2 0x9D2 DUP3 CALLVALUE PUSH2 0x18E6 SWAP1 SWAP2 SWAP1 PUSH4 0xFFFFFFFF AND JUMP JUMPDEST PUSH1 0x4 SLOAD PUSH2 0x18FF SWAP1 SWAP2 SWAP1 PUSH4 0xFFFFFFFF AND JUMP JUMPDEST PUSH1 0x4 DUP2 SWAP1 SSTORE POP PUSH1 0x3 SLOAD PUSH1 0x4 SLOAD EQ ISZERO PUSH2 0xAA6 JUMPI TIMESTAMP CALLER PUSH20 0xFFFFFFFFFFFFFFFFFFFFFFFFFFFFFFFFFFFFFFFF AND PUSH32 0x25630DE45A38A90CBCA3A2EB35A8197E51B56D6D912581711E5E3773FE77CABC PUSH1 0x40 MLOAD PUSH1 0x40 MLOAD DUP1 SWAP2 SUB SWAP1 LOG3 PUSH1 0x2 PUSH1 0xC PUSH1 0x1 PUSH2 0x100 EXP DUP2 SLOAD DUP2 PUSH1 0xFF MUL NOT AND SWAP1 DUP4 PUSH1 0x5 DUP2 GT ISZERO PUSH2 0xA58 JUMPI INVALID JUMPDEST MUL OR SWAP1 SSTORE POP TIMESTAMP PUSH1 0xC PUSH1 0x1 SWAP1 SLOAD SWAP1 PUSH2 0x100 EXP SWAP1 DIV PUSH1 0xFF AND PUSH1 0x5 DUP2 GT ISZERO PUSH2 0xA79 JUMPI INVALID JUMPDEST PUSH32 0xAAAE373901E745122C2E0925AD006227969C6CD190B7D5EA2FB7FDBD1D955B35 PUSH1 0x40 MLOAD PUSH1 0x40 MLOAD DUP1 SWAP2 SUB SWAP1 LOG3 JUMPDEST POP JUMP JUMPDEST PUSH1 0x1 ISZERO ISZERO PUSH1 0xC PUSH1 0x0 SWAP1 SLOAD SWAP1 PUSH2 0x100 EXP SWAP1 DIV PUSH1 0xFF AND ISZERO ISZERO EQ ISZERO ISZERO PUSH2 0xACB JUMPI PUSH1 0x0 DUP1 REVERT JUMPDEST PUSH1 0x12 SLOAD TIMESTAMP LT ISZERO ISZERO ISZERO PUSH2 0xADC JUMPI PUSH1 0x0 DUP1 REVERT JUMPDEST PUSH1 0x0 PUSH1 0x5 DUP2 GT ISZERO PUSH2 0xAE9 JUMPI INVALID JUMPDEST PUSH1 0xC PUSH1 0x1 SWAP1 SLOAD SWAP1 PUSH2 0x100 EXP SWAP1 DIV PUSH1 0xFF AND PUSH1 0x5 DUP2 GT ISZERO PUSH2 0xB04 JUMPI INVALID JUMPDEST EQ ISZERO ISZERO PUSH2 0xB10 JUMPI PUSH1 0x0 DUP1 REVERT JUMPDEST PUSH1 0x1 ISZERO ISZERO PUSH1 0xD PUSH1 0x0 CALLER PUSH20 0xFFFFFFFFFFFFFFFFFFFFFFFFFFFFFFFFFFFFFFFF AND PUSH20 0xFFFFFFFFFFFFFFFFFFFFFFFFFFFFFFFFFFFFFFFF AND DUP2 MSTORE PUSH1 0x20 ADD SWAP1 DUP2 MSTORE PUSH1 0x20 ADD PUSH1 0x0 KECCAK256 PUSH1 0x0 SWAP1 SLOAD SWAP1 PUSH2 0x100 EXP SWAP1 DIV PUSH1 0xFF AND ISZERO ISZERO EQ ISZERO ISZERO PUSH2 0xB6F JUMPI PUSH1 0x0 DUP1 REVERT JUMPDEST PUSH1 0x0 ISZERO ISZERO PUSH1 0x11 PUSH1 0x0 CALLER PUSH20 0xFFFFFFFFFFFFFFFFFFFFFFFFFFFFFFFFFFFFFFFF AND PUSH20 0xFFFFFFFFFFFFFFFFFFFFFFFFFFFFFFFFFFFFFFFF AND DUP2 MSTORE PUSH1 0x20 ADD SWAP1 DUP2 MSTORE PUSH1 0x20 ADD PUSH1 0x0 KECCAK256 PUSH1 0x0 SWAP1 SLOAD SWAP1 PUSH2 0x100 EXP SWAP1 DIV PUSH1 0xFF AND ISZERO ISZERO EQ ISZERO ISZERO PUSH2 0xBCE JUMPI PUSH1 0x0 DUP1 REVERT JUMPDEST PUSH1 0x10 PUSH1 0x0 DUP2 SLOAD DUP1 SWAP3 SWAP2 SWAP1 PUSH1 0x1 ADD SWAP2 SWAP1 POP SSTORE POP PUSH1 0x1 ISZERO ISZERO PUSH1 0x11 PUSH1 0x0 CALLER PUSH20 0xFFFFFFFFFFFFFFFFFFFFFFFFFFFFFFFFFFFFFFFF AND PUSH20 0xFFFFFFFFFFFFFFFFFFFFFFFFFFFFFFFFFFFFFFFF AND DUP2 MSTORE PUSH1 0x20 ADD SWAP1 DUP2 MSTORE PUSH1 0x20 ADD PUSH1 0x0 KECCAK256 PUSH1 0x0 SWAP1 SLOAD SWAP1 PUSH2 0x100 EXP SWAP1 POP POP POP TIMESTAMP CALLER PUSH20 0xFFFFFFFFFFFFFFFFFFFFFFFFFFFFFFFFFFFFFFFF AND PUSH32 0xD7173CE7E4CE6F6D075259AC1A467AB8290DB175A2CEE8587A663C006B97E129 PUSH1 0x40 MLOAD PUSH1 0x40 MLOAD DUP1 SWAP2 SUB SWAP1 LOG3 PUSH1 0x10 SLOAD PUSH1 0xF SLOAD EQ ISZERO PUSH2 0xC89 JUMPI PUSH2 0xC88 PUSH2 0x191D JUMP JUMPDEST JUMPDEST JUMP JUMPDEST PUSH1 0x1 ISZERO ISZERO PUSH1 0xC PUSH1 0x0 SWAP1 SLOAD SWAP1 PUSH2 0x100 EXP SWAP1 DIV PUSH1 0xFF AND ISZERO ISZERO EQ ISZERO ISZERO PUSH2 0xCAD JUMPI PUSH1 0x0 DUP1 REVERT JUMPDEST PUSH1 0x1 ISZERO ISZERO PUSH1 0xD PUSH1 0x0 CALLER PUSH20 0xFFFFFFFFFFFFFFFFFFFFFFFFFFFFFFFFFFFFFFFF AND PUSH20 0xFFFFFFFFFFFFFFFFFFFFFFFFFFFFFFFFFFFFFFFF AND DUP2 MSTORE PUSH1 0x20 ADD SWAP1 DUP2 MSTORE PUSH1 0x20 ADD PUSH1 0x0 KECCAK256 PUSH1 0x0 SWAP1 SLOAD SWAP1 PUSH2 0x100 EXP SWAP1 DIV PUSH1 0xFF AND ISZERO ISZERO EQ ISZERO ISZERO PUSH2 0xD0C JUMPI PUSH1 0x0 DUP1 REVERT JUMPDEST PUSH1 0x4 PUSH1 0x5 DUP2 GT ISZERO PUSH2 0xD19 JUMPI INVALID JUMPDEST PUSH1 0xC PUSH1 0x1 SWAP1 SLOAD SWAP1 PUSH2 0x100 EXP SWAP1 DIV PUSH1 0xFF AND PUSH1 0x5 DUP2 GT ISZERO PUSH2 0xD34 JUMPI INVALID JUMPDEST EQ ISZERO ISZERO PUSH2 0xD40 JUMPI PUSH1 0x0 DUP1 REVERT JUMPDEST PUSH1 0xE PUSH1 0x0 CALLER PUSH20 0xFFFFFFFFFFFFFFFFFFFFFFFFFFFFFFFFFFFFFFFF AND PUSH20 0xFFFFFFFFFFFFFFFFFFFFFFFFFFFFFFFFFFFFFFFF AND DUP2 MSTORE PUSH1 0x20 ADD SWAP1 DUP2 MSTORE PUSH1 0x20 ADD PUSH1 0x0 KECCAK256 SLOAD ADDRESS PUSH20 0xFFFFFFFFFFFFFFFFFFFFFFFFFFFFFFFFFFFFFFFF AND BALANCE LT ISZERO ISZERO ISZERO PUSH2 0xDA2 JUMPI INVALID JUMPDEST CALLER PUSH20 0xFFFFFFFFFFFFFFFFFFFFFFFFFFFFFFFFFFFFFFFF AND PUSH2 0x8FC PUSH1 0xE PUSH1 0x0 CALLER PUSH20 0xFFFFFFFFFFFFFFFFFFFFFFFFFFFFFFFFFFFFFFFF AND PUSH20 0xFFFFFFFFFFFFFFFFFFFFFFFFFFFFFFFFFFFFFFFF AND DUP2 MSTORE PUSH1 0x20 ADD SWAP1 DUP2 MSTORE PUSH1 0x20 ADD PUSH1 0x0 KECCAK256 SLOAD SWAP1 DUP2 ISZERO MUL SWAP1 PUSH1 0x40 MLOAD PUSH1 0x0 PUSH1 0x40 MLOAD DUP1 DUP4 SUB DUP2 DUP6 DUP9 DUP9 CALL SWAP4 POP POP POP POP ISZERO ISZERO PUSH2 0xE21 JUMPI PUSH1 0x0 DUP1 REVERT JUMPDEST TIMESTAMP PUSH1 0xE PUSH1 0x0 CALLER PUSH20 0xFFFFFFFFFFFFFFFFFFFFFFFFFFFFFFFFFFFFFFFF AND PUSH20 0xFFFFFFFFFFFFFFFFFFFFFFFFFFFFFFFFFFFFFFFF AND DUP2 MSTORE PUSH1 0x20 ADD SWAP1 DUP2 MSTORE PUSH1 0x20 ADD PUSH1 0x0 KECCAK256 SLOAD CALLER PUSH20 0xFFFFFFFFFFFFFFFFFFFFFFFFFFFFFFFFFFFFFFFF AND PUSH32 0x71E252E33F19F0223F47F27D00910548D26488B9B55CB5B410B75E273152F8D6 PUSH1 0x40 MLOAD PUSH1 0x40 MLOAD DUP1 SWAP2 SUB SWAP1 LOG4 PUSH1 0x0 ADDRESS PUSH20 0xFFFFFFFFFFFFFFFFFFFFFFFFFFFFFFFFFFFFFFFF AND BALANCE EQ ISZERO PUSH2 0xF8C JUMPI PUSH1 0x0 PUSH1 0xC PUSH1 0x0 PUSH2 0x100 EXP DUP2 SLOAD DUP2 PUSH1 0xFF MUL NOT AND SWAP1 DUP4 ISZERO ISZERO MUL OR SWAP1 SSTORE POP TIMESTAMP PUSH1 0xC PUSH1 0x0 SWAP1 SLOAD SWAP1 PUSH2 0x100 EXP SWAP1 DIV PUSH1 0xFF AND ISZERO ISZERO PUSH32 0x160914EA27C60AA29A5F3A69D74E6069869DE36E38939DE1E0A66B921D8623D2 PUSH1 0x40 MLOAD PUSH1 0x40 MLOAD DUP1 SWAP2 SUB SWAP1 LOG3 PUSH1 0x3 PUSH1 0xC PUSH1 0x1 PUSH2 0x100 EXP DUP2 SLOAD DUP2 PUSH1 0xFF MUL NOT AND SWAP1 DUP4 PUSH1 0x5 DUP2 GT ISZERO PUSH2 0xF3E JUMPI INVALID JUMPDEST MUL OR SWAP1 SSTORE POP TIMESTAMP PUSH1 0xC PUSH1 0x1 SWAP1 SLOAD SWAP1 PUSH2 0x100 EXP SWAP1 DIV PUSH1 0xFF AND PUSH1 0x5 DUP2 GT ISZERO PUSH2 0xF5F JUMPI INVALID JUMPDEST PUSH32 0xAAAE373901E745122C2E0925AD006227969C6CD190B7D5EA2FB7FDBD1D955B35 PUSH1 0x40 MLOAD PUSH1 0x40 MLOAD DUP1 SWAP2 SUB SWAP1 LOG3 JUMPDEST JUMP JUMPDEST PUSH1 0x0 DUP1 SWAP1 SLOAD SWAP1 PUSH2 0x100 EXP SWAP1 DIV PUSH20 0xFFFFFFFFFFFFFFFFFFFFFFFFFFFFFFFFFFFFFFFF AND PUSH20 0xFFFFFFFFFFFFFFFFFFFFFFFFFFFFFFFFFFFFFFFF AND CALLER PUSH20 0xFFFFFFFFFFFFFFFFFFFFFFFFFFFFFFFFFFFFFFFF AND EQ ISZERO ISZERO PUSH2 0xFE9 JUMPI PUSH1 0x0 DUP1 REVERT JUMPDEST PUSH1 0x0 DUP1 SWAP1 SLOAD SWAP1 PUSH2 0x100 EXP SWAP1 DIV PUSH20 0xFFFFFFFFFFFFFFFFFFFFFFFFFFFFFFFFFFFFFFFF AND PUSH20 0xFFFFFFFFFFFFFFFFFFFFFFFFFFFFFFFFFFFFFFFF AND SELFDESTRUCT JUMPDEST PUSH1 0x0 DUP1 SWAP1 SLOAD SWAP1 PUSH2 0x100 EXP SWAP1 DIV PUSH20 0xFFFFFFFFFFFFFFFFFFFFFFFFFFFFFFFFFFFFFFFF AND DUP2 JUMP JUMPDEST PUSH1 0x0 PUSH1 0x1 ISZERO ISZERO PUSH1 0xC PUSH1 0x0 SWAP1 SLOAD SWAP1 PUSH2 0x100 EXP SWAP1 DIV PUSH1 0xFF AND ISZERO ISZERO EQ ISZERO ISZERO PUSH2 0x106C JUMPI PUSH1 0x0 DUP1 REVERT JUMPDEST PUSH1 0x1 ISZERO ISZERO PUSH1 0xD PUSH1 0x0 CALLER PUSH20 0xFFFFFFFFFFFFFFFFFFFFFFFFFFFFFFFFFFFFFFFF AND PUSH20 0xFFFFFFFFFFFFFFFFFFFFFFFFFFFFFFFFFFFFFFFF AND DUP2 MSTORE PUSH1 0x20 ADD SWAP1 DUP2 MSTORE PUSH1 0x20 ADD PUSH1 0x0 KECCAK256 PUSH1 0x0 SWAP1 SLOAD SWAP1 PUSH2 0x100 EXP SWAP1 DIV PUSH1 0xFF AND ISZERO ISZERO EQ ISZERO ISZERO PUSH2 0x10CB JUMPI PUSH1 0x0 DUP1 REVERT JUMPDEST PUSH1 0x0 ISZERO ISZERO PUSH1 0x14 PUSH1 0x0 CALLER PUSH20 0xFFFFFFFFFFFFFFFFFFFFFFFFFFFFFFFFFFFFFFFF AND PUSH20 0xFFFFFFFFFFFFFFFFFFFFFFFFFFFFFFFFFFFFFFFF AND DUP2 MSTORE PUSH1 0x20 ADD SWAP1 DUP2 MSTORE PUSH1 0x20 ADD PUSH1 0x0 KECCAK256 PUSH1 0x0 SWAP1 SLOAD SWAP1 PUSH2 0x100 EXP SWAP1 DIV PUSH1 0xFF AND ISZERO ISZERO EQ ISZERO ISZERO PUSH2 0x112A JUMPI PUSH1 0x0 DUP1 REVERT JUMPDEST PUSH1 0x13 PUSH1 0x0 DUP2 SLOAD DUP1 SWAP3 SWAP2 SWAP1 PUSH1 0x1 ADD SWAP2 SWAP1 POP SSTORE POP PUSH1 0x1 ISZERO ISZERO PUSH1 0x14 PUSH1 0x0 CALLER PUSH20 0xFFFFFFFFFFFFFFFFFFFFFFFFFFFFFFFFFFFFFFFF AND PUSH20 0xFFFFFFFFFFFFFFFFFFFFFFFFFFFFFFFFFFFFFFFF AND DUP2 MSTORE PUSH1 0x20 ADD SWAP1 DUP2 MSTORE PUSH1 0x20 ADD PUSH1 0x0 KECCAK256 PUSH1 0x0 SWAP1 SLOAD SWAP1 PUSH2 0x100 EXP SWAP1 POP POP POP TIMESTAMP CALLER PUSH20 0xFFFFFFFFFFFFFFFFFFFFFFFFFFFFFFFFFFFFFFFF AND PUSH32 0x1DB613004119DDE2A638B639FBA9960C0E6064EE7C2D06F300E41C78920ED6DC PUSH1 0x40 MLOAD PUSH1 0x40 MLOAD DUP1 SWAP2 SUB SWAP1 LOG3 PUSH1 0x13 SLOAD PUSH1 0xF SLOAD EQ ISZERO PUSH2 0x11EB JUMPI PUSH2 0x11E4 PUSH2 0x198B JUMP JUMPDEST SWAP1 POP PUSH2 0x11F0 JUMP JUMPDEST PUSH1 0x1 SWAP1 POP JUMPDEST SWAP1 JUMP JUMPDEST PUSH1 0x0 DUP1 PUSH1 0x5 DUP2 GT ISZERO PUSH2 0x1201 JUMPI INVALID JUMPDEST PUSH1 0xC PUSH1 0x1 SWAP1 SLOAD SWAP1 PUSH2 0x100 EXP SWAP1 DIV PUSH1 0xFF AND PUSH1 0x5 DUP2 GT ISZERO PUSH2 0x121C JUMPI INVALID JUMPDEST EQ ISZERO ISZERO PUSH2 0x1228 JUMPI PUSH1 0x0 DUP1 REVERT JUMPDEST PUSH1 0x0 SWAP1 POP PUSH1 0x2 SLOAD ADDRESS PUSH20 0xFFFFFFFFFFFFFFFFFFFFFFFFFFFFFFFFFFFFFFFF AND BALANCE LT ISZERO ISZERO PUSH2 0x13BA JUMPI PUSH2 0x127A PUSH1 0x2 SLOAD ADDRESS PUSH20 0xFFFFFFFFFFFFFFFFFFFFFFFFFFFFFFFFFFFFFFFF AND BALANCE PUSH2 0x18E6 SWAP1 SWAP2 SWAP1 PUSH4 0xFFFFFFFF AND JUMP JUMPDEST SWAP1 POP PUSH2 0x12A6 DUP2 ADDRESS PUSH20 0xFFFFFFFFFFFFFFFFFFFFFFFFFFFFFFFFFFFFFFFF AND BALANCE PUSH2 0x18E6 SWAP1 SWAP2 SWAP1 PUSH4 0xFFFFFFFF AND JUMP JUMPDEST PUSH1 0x2 SLOAD EQ ISZERO ISZERO PUSH2 0x12B2 JUMPI INVALID JUMPDEST CALLVALUE DUP2 GT ISZERO ISZERO ISZERO PUSH2 0x12BE JUMPI INVALID JUMPDEST PUSH1 0x0 DUP2 GT ISZERO PUSH2 0x134D JUMPI CALLER PUSH20 0xFFFFFFFFFFFFFFFFFFFFFFFFFFFFFFFFFFFFFFFF AND PUSH2 0x8FC DUP3 SWAP1 DUP2 ISZERO MUL SWAP1 PUSH1 0x40 MLOAD PUSH1 0x0 PUSH1 0x40 MLOAD DUP1 DUP4 SUB DUP2 DUP6 DUP9 DUP9 CALL SWAP4 POP POP POP POP ISZERO ISZERO PUSH2 0x1307 JUMPI PUSH1 0x0 DUP1 REVERT JUMPDEST TIMESTAMP DUP2 CALLER PUSH20 0xFFFFFFFFFFFFFFFFFFFFFFFFFFFFFFFFFFFFFFFF AND PUSH32 0x566803F6E271B911C84F87631BCD310D6A6510BF8882577A96FC76975703E431 PUSH1 0x40 MLOAD PUSH1 0x40 MLOAD DUP1 SWAP2 SUB SWAP1 LOG4 JUMPDEST PUSH1 0x1 PUSH1 0xC PUSH1 0x1 PUSH2 0x100 EXP DUP2 SLOAD DUP2 PUSH1 0xFF MUL NOT AND SWAP1 DUP4 PUSH1 0x5 DUP2 GT ISZERO PUSH2 0x136C JUMPI INVALID JUMPDEST MUL OR SWAP1 SSTORE POP TIMESTAMP PUSH1 0xC PUSH1 0x1 SWAP1 SLOAD SWAP1 PUSH2 0x100 EXP SWAP1 DIV PUSH1 0xFF AND PUSH1 0x5 DUP2 GT ISZERO PUSH2 0x138D JUMPI INVALID JUMPDEST PUSH32 0xAAAE373901E745122C2E0925AD006227969C6CD190B7D5EA2FB7FDBD1D955B35 PUSH1 0x40 MLOAD PUSH1 0x40 MLOAD DUP1 SWAP2 SUB SWAP1 LOG3 JUMPDEST PUSH1 0x1 PUSH1 0xD PUSH1 0x0 CALLER PUSH20 0xFFFFFFFFFFFFFFFFFFFFFFFFFFFFFFFFFFFFFFFF AND PUSH20 0xFFFFFFFFFFFFFFFFFFFFFFFFFFFFFFFFFFFFFFFF AND DUP2 MSTORE PUSH1 0x20 ADD SWAP1 DUP2 MSTORE PUSH1 0x20 ADD PUSH1 0x0 KECCAK256 PUSH1 0x0 PUSH2 0x100 EXP DUP2 SLOAD DUP2 PUSH1 0xFF MUL NOT AND SWAP1 DUP4 ISZERO ISZERO MUL OR SWAP1 SSTORE POP PUSH1 0xF PUSH1 0x0 DUP2 SLOAD DUP1 SWAP3 SWAP2 SWAP1 PUSH1 0x1 ADD SWAP2 SWAP1 POP SSTORE POP PUSH2 0x1488 PUSH2 0x143A DUP3 CALLVALUE PUSH2 0x18E6 SWAP1 SWAP2 SWAP1 PUSH4 0xFFFFFFFF AND JUMP JUMPDEST PUSH1 0xE PUSH1 0x0 CALLER PUSH20 0xFFFFFFFFFFFFFFFFFFFFFFFFFFFFFFFFFFFFFFFF AND PUSH20 0xFFFFFFFFFFFFFFFFFFFFFFFFFFFFFFFFFFFFFFFF AND DUP2 MSTORE PUSH1 0x20 ADD SWAP1 DUP2 MSTORE PUSH1 0x20 ADD PUSH1 0x0 KECCAK256 SLOAD PUSH2 0x18FF SWAP1 SWAP2 SWAP1 PUSH4 0xFFFFFFFF AND JUMP JUMPDEST PUSH1 0xE PUSH1 0x0 CALLER PUSH20 0xFFFFFFFFFFFFFFFFFFFFFFFFFFFFFFFFFFFFFFFF AND PUSH20 0xFFFFFFFFFFFFFFFFFFFFFFFFFFFFFFFFFFFFFFFF AND DUP2 MSTORE PUSH1 0x20 ADD SWAP1 DUP2 MSTORE PUSH1 0x20 ADD PUSH1 0x0 KECCAK256 DUP2 SWAP1 SSTORE POP TIMESTAMP PUSH2 0x14DF DUP3 CALLVALUE PUSH2 0x18E6 SWAP1 SWAP2 SWAP1 PUSH4 0xFFFFFFFF AND JUMP JUMPDEST CALLER PUSH20 0xFFFFFFFFFFFFFFFFFFFFFFFFFFFFFFFFFFFFFFFF AND PUSH32 0x1B0969CE7F5B05C5E0969329A05CDBD7E2E2F6CEE33BA26FD6E6BBCFF82312CD PUSH1 0x40 MLOAD PUSH1 0x40 MLOAD DUP1 SWAP2 SUB SWAP1 LOG4 POP JUMP JUMPDEST PUSH1 0x0 PUSH1 0x1 ISZERO ISZERO PUSH1 0xC PUSH1 0x0 SWAP1 SLOAD SWAP1 PUSH2 0x100 EXP SWAP1 DIV PUSH1 0xFF AND ISZERO ISZERO EQ ISZERO ISZERO PUSH2 0x1549 JUMPI PUSH1 0x0 DUP1 REVERT JUMPDEST PUSH1 0x1 ISZERO ISZERO PUSH1 0xD PUSH1 0x0 CALLER PUSH20 0xFFFFFFFFFFFFFFFFFFFFFFFFFFFFFFFFFFFFFFFF AND PUSH20 0xFFFFFFFFFFFFFFFFFFFFFFFFFFFFFFFFFFFFFFFF AND DUP2 MSTORE PUSH1 0x20 ADD SWAP1 DUP2 MSTORE PUSH1 0x20 ADD PUSH1 0x0 KECCAK256 PUSH1 0x0 SWAP1 SLOAD SWAP1 PUSH2 0x100 EXP SWAP1 DIV PUSH1 0xFF AND ISZERO ISZERO EQ ISZERO ISZERO PUSH2 0x15A8 JUMPI PUSH1 0x0 DUP1 REVERT JUMPDEST PUSH1 0x2 PUSH1 0x5 DUP2 GT ISZERO PUSH2 0x15B5 JUMPI INVALID JUMPDEST PUSH1 0xC PUSH1 0x1 SWAP1 SLOAD SWAP1 PUSH2 0x100 EXP SWAP1 DIV PUSH1 0xFF AND PUSH1 0x5 DUP2 GT ISZERO PUSH2 0x15D0 JUMPI INVALID JUMPDEST EQ ISZERO ISZERO PUSH2 0x15DC JUMPI PUSH1 0x0 DUP1 REVERT JUMPDEST PUSH1 0x0 PUSH1 0xE PUSH1 0x0 CALLER PUSH20 0xFFFFFFFFFFFFFFFFFFFFFFFFFFFFFFFFFFFFFFFF AND PUSH20 0xFFFFFFFFFFFFFFFFFFFFFFFFFFFFFFFFFFFFFFFF AND DUP2 MSTORE PUSH1 0x20 ADD SWAP1 DUP2 MSTORE PUSH1 0x20 ADD PUSH1 0x0 KECCAK256 SLOAD GT ISZERO ISZERO PUSH2 0x162A JUMPI PUSH1 0x0 DUP1 REVERT JUMPDEST PUSH1 0xF SLOAD PUSH1 0x3 SLOAD DUP2 ISZERO ISZERO PUSH2 0x1639 JUMPI INVALID JUMPDEST DIV SWAP1 POP DUP1 ADDRESS PUSH20 0xFFFFFFFFFFFFFFFFFFFFFFFFFFFFFFFFFFFFFFFF AND BALANCE LT ISZERO ISZERO ISZERO PUSH2 0x165F JUMPI INVALID JUMPDEST CALLER PUSH20 0xFFFFFFFFFFFFFFFFFFFFFFFFFFFFFFFFFFFFFFFF AND PUSH2 0x8FC DUP3 SWAP1 DUP2 ISZERO MUL SWAP1 PUSH1 0x40 MLOAD PUSH1 0x0 PUSH1 0x40 MLOAD DUP1 DUP4 SUB DUP2 DUP6 DUP9 DUP9 CALL SWAP4 POP POP POP POP ISZERO ISZERO PUSH2 0x169F JUMPI PUSH1 0x0 DUP1 REVERT JUMPDEST TIMESTAMP DUP2 CALLER PUSH20 0xFFFFFFFFFFFFFFFFFFFFFFFFFFFFFFFFFFFFFFFF AND PUSH32 0x52F6685DF2F773F854B17DB1D82E2352E222010DAAF8175761F02EF8782C403 PUSH1 0x40 MLOAD PUSH1 0x40 MLOAD DUP1 SWAP2 SUB SWAP1 LOG4 PUSH1 0x0 ADDRESS PUSH20 0xFFFFFFFFFFFFFFFFFFFFFFFFFFFFFFFFFFFFFFFF AND BALANCE EQ ISZERO PUSH2 0x17CB JUMPI PUSH1 0x0 PUSH1 0xC PUSH1 0x0 PUSH2 0x100 EXP DUP2 SLOAD DUP2 PUSH1 0xFF MUL NOT AND SWAP1 DUP4 ISZERO ISZERO MUL OR SWAP1 SSTORE POP TIMESTAMP PUSH1 0xC PUSH1 0x0 SWAP1 SLOAD SWAP1 PUSH2 0x100 EXP SWAP1 DIV PUSH1 0xFF AND ISZERO ISZERO PUSH32 0x160914EA27C60AA29A5F3A69D74E6069869DE36E38939DE1E0A66B921D8623D2 PUSH1 0x40 MLOAD PUSH1 0x40 MLOAD DUP1 SWAP2 SUB SWAP1 LOG3 PUSH1 0x3 PUSH1 0xC PUSH1 0x1 PUSH2 0x100 EXP DUP2 SLOAD DUP2 PUSH1 0xFF MUL NOT AND SWAP1 DUP4 PUSH1 0x5 DUP2 GT ISZERO PUSH2 0x177D JUMPI INVALID JUMPDEST MUL OR SWAP1 SSTORE POP TIMESTAMP PUSH1 0xC PUSH1 0x1 SWAP1 SLOAD SWAP1 PUSH2 0x100 EXP SWAP1 DIV PUSH1 0xFF AND PUSH1 0x5 DUP2 GT ISZERO PUSH2 0x179E JUMPI INVALID JUMPDEST PUSH32 0xAAAE373901E745122C2E0925AD006227969C6CD190B7D5EA2FB7FDBD1D955B35 PUSH1 0x40 MLOAD PUSH1 0x40 MLOAD DUP1 SWAP2 SUB SWAP1 LOG3 JUMPDEST POP JUMP JUMPDEST PUSH1 0x0 DUP1 PUSH1 0x0 DUP1 PUSH1 0x0 DUP1 PUSH1 0x0 DUP1 PUSH1 0x0 DUP1 PUSH1 0x0 PUSH1 0x1 PUSH1 0x0 SWAP1 SLOAD SWAP1 PUSH2 0x100 EXP SWAP1 DIV PUSH20 0xFFFFFFFFFFFFFFFFFFFFFFFFFFFFFFFFFFFFFFFF AND PUSH1 0xB SLOAD PUSH1 0x2 SLOAD PUSH1 0x6 SLOAD PUSH1 0x8 SLOAD PUSH1 0x7 SLOAD PUSH1 0x5 SLOAD PUSH1 0x3 SLOAD PUSH1 0xC PUSH1 0x1 SWAP1 SLOAD SWAP1 PUSH2 0x100 EXP SWAP1 DIV PUSH1 0xFF AND PUSH1 0xC PUSH1 0x0 SWAP1 SLOAD SWAP1 PUSH2 0x100 EXP SWAP1 DIV PUSH1 0xFF AND ADDRESS PUSH20 0xFFFFFFFFFFFFFFFFFFFFFFFFFFFFFFFFFFFFFFFF AND BALANCE SWAP11 POP SWAP11 POP SWAP11 POP SWAP11 POP SWAP11 POP SWAP11 POP SWAP11 POP SWAP11 POP SWAP11 POP SWAP11 POP SWAP11 POP SWAP1 SWAP2 SWAP3 SWAP4 SWAP5 SWAP6 SWAP7 SWAP8 SWAP9 SWAP10 SWAP11 JUMP JUMPDEST PUSH1 0x0 DUP1 SWAP1 SLOAD SWAP1 PUSH2 0x100 EXP SWAP1 DIV PUSH20 0xFFFFFFFFFFFFFFFFFFFFFFFFFFFFFFFFFFFFFFFF AND PUSH20 0xFFFFFFFFFFFFFFFFFFFFFFFFFFFFFFFFFFFFFFFF AND CALLER PUSH20 0xFFFFFFFFFFFFFFFFFFFFFFFFFFFFFFFFFFFFFFFF AND EQ ISZERO ISZERO PUSH2 0x18CD JUMPI PUSH1 0x0 DUP1 REVERT JUMPDEST DUP1 PUSH20 0xFFFFFFFFFFFFFFFFFFFFFFFFFFFFFFFFFFFFFFFF AND SELFDESTRUCT JUMPDEST PUSH1 0x0 DUP3 DUP3 GT ISZERO ISZERO ISZERO PUSH2 0x18F4 JUMPI INVALID JUMPDEST DUP2 DUP4 SUB SWAP1 POP SWAP3 SWAP2 POP POP JUMP JUMPDEST PUSH1 0x0 DUP1 DUP3 DUP5 ADD SWAP1 POP DUP4 DUP2 LT ISZERO ISZERO ISZERO PUSH2 0x1913 JUMPI INVALID JUMPDEST DUP1 SWAP2 POP POP SWAP3 SWAP2 POP POP JUMP JUMPDEST PUSH1 0x4 PUSH1 0xC PUSH1 0x1 PUSH2 0x100 EXP DUP2 SLOAD DUP2 PUSH1 0xFF MUL NOT AND SWAP1 DUP4 PUSH1 0x5 DUP2 GT ISZERO PUSH2 0x193C JUMPI INVALID JUMPDEST MUL OR SWAP1 SSTORE POP TIMESTAMP PUSH1 0xC PUSH1 0x1 SWAP1 SLOAD SWAP1 PUSH2 0x100 EXP SWAP1 DIV PUSH1 0xFF AND PUSH1 0x5 DUP2 GT ISZERO PUSH2 0x195D JUMPI INVALID JUMPDEST PUSH32 0xAAAE373901E745122C2E0925AD006227969C6CD190B7D5EA2FB7FDBD1D955B35 PUSH1 0x40 MLOAD PUSH1 0x40 MLOAD DUP1 SWAP2 SUB SWAP1 LOG3 JUMP JUMPDEST PUSH1 0x0 DUP1 PUSH1 0x0 DUP1 SWAP1 SLOAD SWAP1 PUSH2 0x100 EXP SWAP1 DIV PUSH20 0xFFFFFFFFFFFFFFFFFFFFFFFFFFFFFFFFFFFFFFFF AND PUSH20 0xFFFFFFFFFFFFFFFFFFFFFFFFFFFFFFFFFFFFFFFF AND PUSH1 0x40 MLOAD DUP1 DUP1 PUSH32 0x7365744672617564537461747573286164647265737329000000000000000000 DUP2 MSTORE POP PUSH1 0x17 ADD SWAP1 POP PUSH1 0x40 MLOAD DUP1 SWAP2 SUB SWAP1 KECCAK256 PUSH29 0x100000000000000000000000000000000000000000000000000000000 SWAP1 DIV PUSH1 0x1 PUSH1 0x0 SWAP1 SLOAD SWAP1 PUSH2 0x100 EXP SWAP1 DIV PUSH20 0xFFFFFFFFFFFFFFFFFFFFFFFFFFFFFFFFFFFFFFFF AND PUSH1 0x40 MLOAD DUP3 PUSH4 0xFFFFFFFF AND PUSH29 0x100000000000000000000000000000000000000000000000000000000 MUL DUP2 MSTORE PUSH1 0x4 ADD DUP1 DUP3 PUSH20 0xFFFFFFFFFFFFFFFFFFFFFFFFFFFFFFFFFFFFFFFF AND PUSH20 0xFFFFFFFFFFFFFFFFFFFFFFFFFFFFFFFFFFFFFFFF AND DUP2 MSTORE PUSH1 0x20 ADD SWAP2 POP POP PUSH1 0x0 PUSH1 0x40 MLOAD DUP1 DUP4 SUB DUP2 PUSH1 0x0 DUP8 PUSH2 0x646E GAS SUB CALL SWAP3 POP POP POP SWAP1 POP TIMESTAMP DUP2 ISZERO ISZERO PUSH1 0x1 PUSH1 0x0 SWAP1 SLOAD SWAP1 PUSH2 0x100 EXP SWAP1 DIV PUSH20 0xFFFFFFFFFFFFFFFFFFFFFFFFFFFFFFFFFFFFFFFF AND PUSH20 0xFFFFFFFFFFFFFFFFFFFFFFFFFFFFFFFFFFFFFFFF AND PUSH32 0xC1BB1D1E99D1E8D2705BA85717226A3FD9A86E4DE2284B00DFE6F33538D5249F PUSH1 0x40 MLOAD PUSH1 0x40 MLOAD DUP1 SWAP2 SUB SWAP1 LOG4 DUP1 SWAP2 POP POP SWAP1 JUMP JUMPDEST PUSH1 0x0 DUP1 DUP3 DUP5 DUP2 ISZERO ISZERO PUSH2 0x1B39 JUMPI INVALID JUMPDEST DIV SWAP1 POP DUP1 SWAP2 POP POP SWAP3 SWAP2 POP POP JUMP STOP LOG1 PUSH6 0x627A7A723058 KECCAK256 0xb0 0xd9 0xae DUP13 PUSH7 0x6BB367167F0BEB 0xe9 CALL BYTE 0xec POP CALL 0xc2 CALLER 0xb2 0x49 DUP14 LT 0xb6 0xae 0xf9 DUP14 PUSH28 0x532FA30029A165627A7A72305820BAE59C86FE8F881EBEB7CC729470 0xee 0x49 0x48 COINBASE SLOAD 0xdc STATICCALL 0x5d GT 0xd7 AND 0x4b DUP10 0xe3 0xca MUL 0xd4 PUSH21 0x2900000000000000000000000000000000000000 "
				},
				"gasEstimates": {
					"creation": {
						"codeDepositCost": "2319200",
						"executionCost": "2481",
						"totalCost": "2321681"
					},
					"external": {
						"applyForCredit(uint256,uint256,uint256,bytes32)": "infinite",
						"changeCreditState(address)": "infinite",
						"changeCreditState(address,uint8)": "infinite",
						"credits(uint256)": "759",
						"destroy()": "30728",
						"destroyAndSend(address)": "30642",
						"getCredits()": "infinite",
						"getUserCredits()": "infinite",
						"owner()": "544",
						"setFraudStatus(address)": "23317",
						"users(address)": "1356"
					}
				},
				"methodIdentifiers": {
					"applyForCredit(uint256,uint256,uint256,bytes32)": "ebb5d8ed",
					"changeCreditState(address)": "59658c48",
					"changeCreditState(address,uint8)": "fa838e54",
					"credits(uint256)": "036a1c22",
					"destroy()": "83197ef0",
					"destroyAndSend(address)": "f5074f41",
					"getCredits()": "823a71af",
					"getUserCredits()": "2092cb33",
					"owner()": "8da5cb5b",
					"setFraudStatus(address)": "bb9e4247",
					"users(address)": "a87430ba"
				}
			},
			"userdoc": {
				"methods": {}
			}
		}
	}
}